:020000040800F2
:1040000030440020DD410008E5410008E741000898
:10401000E9410008EB410008ED4100080000000004
:104020000000000000000000000000004541000802
:10403000F14100080000000089410008F5980008DF
:10404000F7410008F7410008F7410008F741000870
:10405000F7410008F7410008F7410008F741000860
:10406000F7410008F7410008F7410008356A0008E9
:10407000416A00084D6A0008596A0008656A00082C
:10408000716A00087D6A0008F7410008F7410008DE
:10409000F7410008F7410008F7410008F741000820
:1040A000F7410008F7410008F7410008F741000810
:1040B000F7410008F7410008F7410008F741000800
:1040C000F7410008F7410008F7410008F7410008F0
:1040D000F7410008A9AC000865AD000821AE000852
:1040E000F7410008F7410008F7410008F7410008D0
:1040F000F7410008F7410008F7410008F7410008C0
:10410000F7410008F7410008F7410008F7410008AF
:10411000F7410008F7410008F7410008F74100089F
:10412000896A0008956A0008F7410008F74100080D
:10413000DFF80CD000F09CF800480047C9B0000838
:1041400030440020224B19680868B0E8F00F80F373
:104150000988BFF36F8F4FF0000080F311884EF095
:104160000D0E70470000000006480068006880F3EC
:10417000088862B661B6BFF34F8FBFF36F8F00DF61
:1041800000BF00BF08ED00E0EFF30980BFF36F8FC1
:104190000F4B1A6820E9F00F106008B54FF050007F
:1041A00080F31188BFF34F8FBFF36F8F07F000FDCF
:1041B0004FF0000080F31188BDE8084019680868D6
:1041C000B0E8F00F80F30988BFF36F8F704700BF2E
:1041D00040000020EFF3058070470000064880474C
:1041E00006480047FEE7FEE7FEE7FEE7FEE7FEE7DC
:1041F000FEE7FEE7FEE7FEE71199000831410008FF
:10420000202A04DB203A21FA02F00021704721FA2B
:1042100002F3D040C2F12002914008431946704792
:1042200040EA01039B0703D009E008C9121F08C038
:10423000042AFAD203E011F8013B00F8013B521EB8
:10424000F9D2704730B50B460146002020220124E8
:1042500009E021FA02F59D4205D303FA02F5491B54
:1042600004FA02F52844151EA2F10102F1DC30BD6A
:10427000064C074D06E0E06840F0010394E80700B3
:1042800098471034AC42F6D3FFF756FFB0C300088E
:10429000D0C3000870B5044600688168C943C907E7
:1042A0001CD1816821F00101816003F023FD0546E6
:1042B0000FE000BF03F01EFD401B022809D9A06AD1
:1042C00040F01000A062E06A40F00100E0620120CE
:1042D00070BD20688068C043C007EBD0002070BD6F
:1042E00010B50146406A826A12F0500F05D0006A8C
:1042F000026BBDE8104008461047816A41F4007126
:10430000816201688968C1F3424107290CD1C16803
:1043100051B9816A21F480718162816AC90403D430
:10432000816A41F00101816202F0C2FE10BD10B548
:10433000406A816A41F040018162C16A41F0040132
:10434000C16202F0B7FE10BD10B5406A02F0B1FEC6
:1043500010BD0000F8B5002604460096006881688C
:10436000C943C90728D0816841F001018160134821
:1043700013490068B0FBF1F000E0401E00900028F7
:10438000FBD103F0B7FC054611E000BF03F0B2FC1F
:10439000401B02280BD9A06A40F01000A062E06A1E
:1043A00040F00100E06284F824600120F8BD20683C
:1043B0008068C043C007E9D10020F8BD3C00002060
:1043C00040420F003EB51A48184901240160891582
:1043D000C0E902140021416103254FF46022056108
:1043E000C261416002F068FE072002901020CDE912
:1043F000000469460E4802F0A7FD09200090022043
:10440000019069460A4802F09FFD0F20CDE90005A2
:104410006946074802F098FD054802F031FD04495D
:1044200003220C39024802F045FF3EBD0024014042
:104430003C0C00207CB503220021012007F008FC81
:104440002A4C032200216060012007F001FCA060DB
:1044500003220021012007F0FBFBE0600022042181
:10446000012007F0F5FB206100220421012007F064
:10447000EFFB606100220421012007F0E9FBA0614D
:1044800000240426CDE900642346C82218A11B4855
:1044900007F0DCFD0320CDE900040023C82218A1A9
:1044A0001A4807F0D3FD0225CDE900540023C822A5
:1044B00017A11A4807F0CAFDCDE900640023C822FD
:1044C00017A11A4807F0C2FDCDE900540023C82205
:1044D00017A11A4807F0BAFDCDE900540023C822FD
:1044E00017A11A4807F0B2FD7CBD000000000020B3
:1044F0005461736B5F48527800000000499F0008C8
:104500005461736B5F48547800000000719F00088D
:104510005461736B5F54696D0000000079A300085B
:104520005461736B5F53616600000000DD9F0008FB
:104530005461736B5F41637400000000499B000885
:104540005461736B5F44527800000000219F0008A3
:1045500010B503F0DDFB05F09FF902F099FBFFF7C2
:1045600031FF06F0BBFC02F09BFABDE8104005F0FD
:1045700047BA000010B5C82900D9C8210A4601462B
:10458000034804F0D3FCBDE81040142007F04EBAF5
:10459000C407002010B5C82900D9C8210A46014621
:1045A000034804F0C3FCBDE81040142007F03EBAF5
:1045B000440800207047000070B5FB4C0820B4F997
:1045C000881006F0BBF8322007F030FAB4F9B810C2
:1045D000092006F0B3F8322007F028FA94F8BF005B
:1045E000002501283DD1207804283AD184F8BF5015
:1045F00004F0B2FE0121032004F03CFD012104205F
:1046000004F038FD0121052004F034FD01210620CD
:1046100004F030FD0121072004F02CFDC82007F034
:1046200005FA0221032004F025FD0221042004F0F4
:1046300021FD0221052004F01DFD0221062004F0C9
:1046400019FD0221072004F015FDE07C18B90221B4
:10465000012006F061F8E07C012802D1042106F077
:104660005BF8E07901284CD1A07E01280BD1E07ED7
:10467000012808D1207F012805D1607F012802D1BF
:10468000A07F012807D0E571042004F065FEA07E1C
:10469000012837D03AE0E571042004F05DFE0121E5
:1046A000042004F0E7FC0121052004F0E3FC0121D3
:1046B000062004F0DFFC0121072004F0DBFCC82009
:1046C00007F0B4F90221042004F0D4FC02210520F3
:1046D00004F0D0FC0221062004F0CCFC02210720CB
:1046E00004F0C8FCE07C18B91C21012006F014F885
:1046F000E07C012802D1232106F00EF8012084F885
:10470000BF00C4E10121032004F0B4FCE07E0128D5
:1047100003D10121042004F0ADFC207F012803D146
:104720000121052004F0A6FC607F012803D10121AE
:10473000062004F09FFCA07F012803D1012107205F
:1047400004F098FCC82007F071F9A07E012803D17D
:104750000221032004F08EFCE07E012803D1022117
:10476000042004F087FC207F012803D102210520CA
:1047700004F080FC607F012803D10221062004F0B0
:1047800079FCA07F012803D10221072004F072FCEC
:10479000E07C002869D1A07E012843D1E07E012879
:1047A0000FD1207F00287ED1607F0028A9D1A07F73
:1047B0000028A6D10521012005F0AEFFA07E01282A
:1047C00030D1E07E00284FD1207F01280ED1607FBC
:1047D00000284AD1A07F002847D10621012005F0FA
:1047E0009BFFA07E01281DD1E07EE8BB207F002832
:1047F0003BD1607F01280DD1A07F002835D1072152
:10480000012005F089FFA07E01280BD1E07E58BB76
:10481000207F50BB607F40BBA07F01287BD1082157
:1048200005F07AFFA07EE8BBE07E01280BD1207F57
:10483000D0BB607FC8B9A07FB8B91821012005F0AE
:104840006BFFA07E70BBE07E78BB207F01280ED17D
:10485000607F50B9A07F40B91921012005F05CFFAD
:10486000A07EF8B9E07E01E033E041E0E8B9207FC6
:10487000F0BB607F01280BD1A07FC8BB1A210120AB
:1048800005F04AFFA07E68B9E07E70B9207F78BB52
:10489000607F68BBA07F01283DD11B2105F03CFF54
:1048A000A07E03E012E017E004E000E070B9E07ED3
:1048B000012830D1207F01282DD1607F01282AD105
:1048C000A07F012827D11C2105F026FFA07E01280A
:1048D00021D1E07E01281ED1207F01281BD1607FDD
:1048E00080B9A07F20B91D21012005F015FF00E04F
:1048F00011E0A07E01280ED1E07E01280BD1207F9F
:10490000012808D1607F012805D1A07F012802D1AC
:10491000022105F001FFE07C012848D1A07E01289A
:104920003BD1E07E01280CD1207FF8BB607FF0BB3B
:10493000A07FE0BB0921012005F0EEFEA07E01284A
:104940002BD1E07EA0BB207F01280CD1607F70BB03
:10495000A07F60BB0A21012005F0DEFEA07E0128B9
:104960001BD1E07E20BB207F08BB607F01280CD1DB
:10497000A07FE0B90B21012005F0CEFEA07E01282A
:104980000BD1E07EA0B9207F88B9607F78B9A07F85
:1049900001287CD10C2105F0BFFEA07EE8BBE07EA3
:1049A000012811D1207F04E0B400002052E036E05D
:1049B0004DE098BB607F90BBA07F80BB1F21012092
:1049C00005F0AAFEA07E40BBE07E48BB207F012808
:1049D0000BD1607F18BBA07F08BB2021012005F010
:1049E0009BFEA07EC8B9E07ED0B9207FB8B9607FB9
:1049F00001280BD1A07F90B92121012005F08CFE68
:104A0000A07E50B9E07E58B9207F40B9607F30B9B0
:104A1000A07F01283BD1222103E015E008E036E029
:104A200003E005F079FEA07E70B9E07E01282ED16A
:104A3000207F01282BD1607F012828D1A07F012869
:104A400025D1232105F068FEA07E01281FD1E07E3C
:104A500001281CD1207F012819D1607F70B9A07F67
:104A6000A8B92421012005F057FEA07E01280ED10F
:104A7000E07E01280BD1207F012808D1607F01282A
:104A800005D1A07F012802D1042105F045FEE0797F
:104A900002280FD1E571052004F05EFCE07C18B916
:104AA0000121084605F038FEE07C012802D10321EF
:104AB00005F032FEA079012809D1A5716079401C6A
:104AC000C1B26171BDE87040022005F025BE70BD25
:104AD000F0B585B0002500950120019505F082FE16
:104AE0004FF49676304606F0A1FF052005F07AFED9
:104AF000304606F09BFF704CE07B70B90121052029
:104B000005F00AFE05E00A2006F090FFA0780028D4
:104B10007BD1761E3604360CF5D1E07B012874D1AA
:104B2000E5736A464FEA000604EB4003B3F89410BD
:104B30001154322901D9165400E0155441B1B42959
:104B400004D084F8BD60B3F8941009B184F8BE6055
:104B5000401CC0B20628E7D39DF801009DF8021062
:104B6000000100EBC1009DF8031000EB81009DF8EF
:104B7000041000EB41009DF805100844C1B20A2062
:104B800005F0CAFD94F8BB0001282FD184F8BB5072
:104B90000DF1080704EB4001B1F8941027F810104C
:104BA000401CC0B20628F5D3042005F01BFE3220BD
:104BB00006F03CFF052005F015FE642006F036FFE8
:104BC0005FF0010004EB400237F81010B2F89420B7
:104BD000914207D009B1B42902D11AB1B42A01D047
:104BE00084F8BD60401CC0B20628EBD394F8BB002B
:104BF00002281BD184F8BB50032005F0F3FD94F884
:104C0000BE00012802D00A210DE04BE094F8BD005F
:104C1000264618B90921052005F07EFD96F8BD004D
:104C2000012803D10821052005F076FD94F8BB008A
:104C3000032804D184F8BB50042005F0D3FD94F878
:104C4000BB0004282ED184F8BB50032005F0CAFD18
:104C5000642609E00A2006F0E9FE94F88A0000289C
:104C600020D0A07800281DD1761E16F0FF06F1D1C5
:104C7000062005F0B7FD1E2609E00A2006F0D6FE44
:104C800094F88A0000280DD0A07800280AD1761E5A
:104C900016F0FF06F1D1207C012805D00721052060
:104CA00005F03AFD05B0F0BD25740621052005F09C
:104CB00033FD25716570F5E7B40000202DE9F04162
:104CC000012005F08FFD322006F0B0FE052005F032
:104CD00089FD322006F0AAFE304C01200025E17B40
:104CE000012921D02E4E40F277522E4F7168A1F249
:104CF0000971914205D2207200222021384602F02B
:104D0000F4FF706840F2A461884205D22572012246
:104D10002021384602F0E9FF2349207A0A7990429F
:104D200039D00871C8B125E0E573B4F8961032297E
:104D30000FD8B4F8981032290BD8B4F89A10322949
:104D400007D8B4F89C10322903D8B4F89E10322941
:104D500001D92072E0E72572DEE7032004F0FCFAB7
:104D6000607E012803D10021042005F0D5FC6420D9
:104D700006F05CFE207A01280DD1022004F0ECFA46
:104D8000607E18B90121042005F0C6FCBDE8F041A1
:104D9000642006F04BBEBDE8F0810000B4000020A6
:104DA000300C0020000801401C0000202DE9F041DB
:104DB000384F394C00267979E079012902D002294F
:104DC00003D00FE0022802D00CE001280AD17E7146
:104DD000002004F0C1FA6079401CC1B26171022068
:104DE00005F09AFCA078042835D104F0B5FA012129
:104DF000032004F03FF90121042004F03BF90121D4
:104E0000052004F037F90121062004F033F90121CF
:104E1000072004F02FF9C82006F008FE0221032025
:104E200004F028F90221042004F024F902210520CD
:104E300004F020F90221062004F01CF902210720C9
:104E400004F018F926700120E0717871A6701F2116
:104E50000A2005F061FCA078052818D104F07CFA3E
:104E60000125A81CC0B2002104F004F96D1CEDB2AC
:104E7000052DF6D9207D0021401C20700220E07114
:104E80007871A670BDE8F0410A2005F045BCBDE888
:104E9000F08100001C000020B400002070B51E4E00
:104EA0001E4C0025B179E079012902D0022903D0F6
:104EB0000FE0022802D00CE001280AD1B5710020D1
:104EC00004F04AFA6079401CC1B26171022005F019
:104ED00023FCA07804280BD1022004F03DFA2570B1
:104EE0000120E071B071A5701F210A2005F014FCAB
:104EF000A07805280FD1032004F02EFA207D002190
:104F0000401C20700220E071B071A570BDE87040B7
:104F10000A2005F001BC70BD1C000020B400002078
:104F20002DE9F047D14DB5F8CE0010B9002004F0BE
:104F300013FAB5F8CE000026CD4C01280DD12681FC
:104F4000A5F8CE60002004F007FA002001F0D5FD9E
:104F5000B5F9D010A32005F0F1FBB5F9CE00052777
:104F6000022806D0032812D004281FD0052828D0F4
:104F700074E02681B5F98800B5F9D21088420EDDBB
:104F80004FF0030004F0E8F90320A5F8CE00B5F9CE
:104F90008800B5F9D21088420EDDBDE8F0870EDA40
:104FA000022004F0D9F90420A5F8CE00B5F9880054
:104FB000B5F9D2108842F0DB002004F0CDF9A5F855
:104FC000CE70B5F98800B5F9D010884223DA0620F2
:104FD000A5F8CE000021022004F04CF8142006F0C1
:104FE00025FD0121084604F045F8142006F01EFDB9
:104FF0000021032004F03EF80021042004F03AF8D8
:105000000021052004F036F80021062004F032F8D3
:105010000021072016E00720A5F8CE00012103207B
:1050200004F028F80121042004F024F8142006F0EC
:10503000FDFC0021012004F01DF8142006F0F6FC10
:105040000121022004F016F8142006F0EFFC0021E4
:10505000082004F00FF8012004F07EF9B5F8CE0026
:105060000A274FF47A794FF00108062834D12089B5
:10507000401C00B22081C8284FF0010002DD04F07E
:105080006BF90AE004F068F90A2006F0CFFC002072
:1050900004F062F90A2006F0C9FCB5F98800B5F9F8
:1050A000D010884218DB002004F056F9484606F07C
:1050B000BDFCB5F9D000B5F98810A0F10F029142FE
:1050C00001DD618A69B1A4F812800821A5F8CE102B
:1050D0002082002004F040F9B5F8CE00072806D061
:1050E0003AE0A5F8CE70002001F007FDF4E7208932
:1050F000401C00B22081C8284FF0010002DD04F0FE
:105100002BF90AE004F028F90A2006F08FFC0020B1
:1051100004F022F9142006F089FCB5F98800B5F9ED
:10512000D010884218DC002004F016F9484606F03A
:105130007DFCB5F9D000B5F9881000F10F0291425D
:1051400001DA618A79B1A4F812800921A5F8CE109C
:105150002082002004F000F9B5F8CE004FF4FA7771
:10516000082806D040E0A5F8CE70002001F0C5FC6C
:10517000F2E7B5F98800B4F91010421A1E2A0CDDC6
:10518000B5F9D0208A4208D1B4F90C104A1CA2818A
:10519000B94203DDA681208200E0A681B4F9101097
:1051A0000A1A0A2A0CDDB5F9D0208A4208D0B4F9CF
:1051B0000E104B1CE381322903DDE681228200E0E0
:1051C000E681B4F91010884203DA6089401C6081DE
:1051D00002E0002004F0C0F8B4F90A000A2803DD58
:1051E000012004F0B9F86681B5F8CE0009287FF4F3
:1051F000D4AEB5F98800B4F910100A1A1E2A0CDDD5
:10520000B5F9D0208A4208D1B4F90C104A1CA28109
:10521000B94203DDA681208200E0A681B4F9101016
:10522000421A0A2A0CDDB5F9D0208A4208D0B4F916
:105230000E104B1CE381322903DDE681228200E05F
:10524000E681B4F91010884203DD6089401C60815A
:1052500002E0002004F080F8B4F90A000A287FF781
:105260009CAE012004F078F8668196E6B400002038
:105270001C0000202DE9F041AA4C1021AA4D94F801
:105280002900404201EB4000C7B2A88A401CA88216
:105290000A2006F0CBFB94F88C00002600287DD174
:1052A000B4F98800642803DA288B401C288302E0C4
:1052B000002004F051F8B5F918000A2823DD012177
:1052C000084603F0D7FE0021022003F0D3FE0021A0
:1052D000082003F0CFFE0121032003F0CBFE0121C3
:1052E000042003F0C7FE0121052003F0C3FE0121C5
:1052F000062003F0BFFE0121072003F0BBFE0120C2
:1053000004F02AF82E83B5F9140014285BDDAE8270
:10531000B4F88800A4F89000E88A401C00B2E88243
:1053200005284CDD012084F88C00E07C18B915219B
:10533000012005F0F1F9E07C012802D1162105F0E9
:10534000EBF90121EE82084603F094FE00210220D1
:1053500003F090FE0021082003F08CFE01210320C1
:1053600003F088FE0121042003F084FE01210520C2
:1053700003F080FE0121062003F07CFE01210720BE
:1053800003F078FEC82006F051FB0221012003F053
:1053900071FE0221032003F06DFE00E013E0022104
:1053A000042003F067FE0221052003F063FE0221C2
:1053B000062003F05FFE0221072003F05BFEB4F835
:1053C0009000A4F88E0094F88C0001286ED1B4F9F6
:1053D0008800642803DA288B401C288302E0002020
:1053E00003F0BAFFB5F91800642806DD012003F0C8
:1053F000B3FF2E83AE82642056E0B5F91400642812
:1054000054DDAE8234F8881F48A02181E28805F07F
:1054100085FDE18820893944883C88421DD994F86B
:10542000280008B1012818D1052003F095FF0320BA
:1054300084F88C00E07C18B90121084605F06CF96D
:10544000E07C012802D1032105F066F96079401C57
:10545000C1B26171022005F05FF9B4F88E10B4F8A2
:105460009000C91B88421DDA94F8280008B1022870
:1054700018D1042003F070FF022084F88C00E07C37
:1054800018B90221012005F047F9E07C012802D17A
:10549000042105F041F96079401CC1B2617102201C
:1054A00005F03AF9B4F89000A4F88E0094F88C0056
:1054B000022835D3642509E00A2006F0B7FA94F8EB
:1054C0008A0000282CD0A078002829D16D1E2D0438
:1054D0002D0CF1D194F88D00401CC0B284F88D00E1
:1054E000217D884203D394F88C10022906D0617D77
:1054F000884215D394F88C00032811D104F88C6FDE
:105500000020667003F028FF012001F0F6FA4FF446
:10551000FA6006F08BFABDE8F041002001F0EDBA28
:10552000BDE8F081B40000201C0000202D25642D72
:1055300025642D002DE9F041A44C1021A44D94F8D0
:105540002900404201EB4000C7B2688B401C6883D1
:105550000A2006F06BFA94F88C00002600287DD112
:10556000B4F98800642803DAE88B401CE88302E081
:10557000002003F0F1FEB5F91E000A2823DD012109
:10558000084603F077FD0021022003F073FD00219F
:10559000082003F06FFD0121032003F06BFD0121C2
:1055A000042003F067FD0121052003F063FD0121C4
:1055B000062003F05FFD0121072003F05BFD0120C1
:1055C00003F0CAFEEE83B5F91A0014285CDD6E8381
:1055D000B4F88800A4F89000A88B401C00B2A883FF
:1055E00005284DDD012084F88C00E07C18B91521D8
:1055F000012005F091F8E07C012802D1162105F088
:105600008BF80121AE83084603F034FD002102200F
:1056100003F030FD0021082003F02CFD01210320C0
:1056200003F028FD0121042003F024FD01210520C1
:1056300003F020FD0121062003F01CFD01210720BD
:1056400003F018FDC82006F0F1F90221012003F053
:1056500011FD0221032003F00DFD00E014E0022102
:10566000042003F007FD0221052003F003FD0221C1
:10567000062003F0FFFC0221072003F0FBFCAE83B1
:10568000B4F89000A4F88E0094F88C00012860D142
:10569000B4F98800642803DAE88B401CE88302E050
:1056A000002003F059FEB5F91E00642806DD012034
:1056B00003F052FEEE836E83642048E0B5F91A00D1
:1056C000642846DD6E83B4F88800A4F89000B4F82E
:1056D0008E103944884218D9042003F03DFE03207F
:1056E00084F88C00E07C18B90121084605F014F814
:1056F000E07C012802D1032105F00EF86079401CFE
:10570000C1B26171022005F007F8B4F88E10B4F848
:105710009000C91B884218DA052003F01DFE022004
:1057200084F88C00E07C18B90221012004F0F4FF19
:10573000E07C012802D1042104F0EEFF6079401CD6
:10574000C1B26171022004F0E7FFB4F89000A4F840
:105750008E0094F88C00022835D3642509E00A20D5
:1057600006F064F994F88A0000282CD0A07800286C
:1057700029D16D1E2D042D0CF1D194F88D00401C03
:10578000C0B284F88D00217D884203D394F88C1038
:10579000022906D0617D884215D394F88C00032835
:1057A00011D104F88C6F0020667003F0D5FD012044
:1057B00001F0A3F94FF4FA6006F038F9BDE8F041C2
:1057C000002001F09AB9BDE8F0810000B40000208B
:1057D0001C00002070B5324C0820B4F9881004F089
:1057E000ADFF322006F022F9B4F9B810092004F018
:1057F000A5FF322006F01AF9E0790025012838D1FA
:10580000E57101F07AF9C82006F010F902210120B3
:1058100003F030FC0221084603F02CFC0221082092
:1058200003F028FC0221032003F024FC02210420C1
:1058300003F020FC0221052003F01CFC02210620BD
:1058400003F018FC0221072003F014FCE07C18B9D7
:105850001521012004F060FFE07C012802D116210F
:1058600004F05AFF6079401CC1B26171022004F05B
:1058700053FFE079022811D1E571052003F06CFD9A
:10588000E07C18B90121084604F046FFE07C0128BD
:1058900004D1BDE87040032104F03EBF70BD00009C
:1058A000B40000202DE9F047A14D0820B5F988107B
:1058B00004F044FF142006F0B9F8B5F9B810092037
:1058C00004F03CFF142006F0B1F8012004F08AFF38
:1058D000142006F0ABF8052004F084FF142006F035
:1058E000A5F8E87B00274FF0010801287ED0914CF5
:1058F00040F27751904E6068A0F2097088421AD247
:1059000085F8088000222021304602F0EEF90121BE
:10591000032003F0AFFB0121042003F0ABFB0121C6
:10592000052003F0A7FB0121062003F0A3FB0121C2
:10593000072003F09FFB606840F2A461884219D2FF
:105940002F7201222021304602F0CFF900210320DE
:1059500003F090FB0021042003F08CFB00210520C4
:1059600003F088FB0021062003F084FB00210720C0
:1059700003F080FBA87AE97A000100EBC100297BE3
:105980006E4C00EB8100697B00EB4100A97B084471
:105990006178884217D0042003F0DEFCA87AE97A07
:1059A000000100EBC100297B00EB8100697B00EB6B
:1059B0004100A97B0844C1B2617095F88A0010B11A
:1059C0000A2004F0A9FE287A217888427ED020702F
:1059D000322006F02BF86879401CC1B269710220B0
:1059E00004F09AFE287AA8B369E0FFE7EF73012478
:1059F0006FF0130905EB4406B6F9AC00142803DC7C
:105A0000B6F89400962807D32819407A20B9A01C2C
:105A1000C0B2012103F02EFBB6F9AC00484503DB10
:105A2000B6F894001E2804D8A01CC0B2002103F0D0
:105A300021FB641CE4B2052CDCD9A97AEA7A6B7BE1
:105A400011442A7B1A441144AA7BD14203D085F821
:105A500008808FE701E02F728CE7687E012803D170
:105A60000021042004F058FE0121084603F002FB47
:105A7000142005F0DBFF0121082003F0FBFA0021D0
:105A8000022003F0F7FA142005F0D0FF012003F004
:105A900063FC4FF4967005F0C9FF0021012003F06C
:105AA000E9FA142005F0C2FF0021022003F0E2FA17
:105AB000142005F0BBFF0021082003F0DBFA287A50
:105AC00001280AD1042003F047FC00E005E0687ECD
:105AD00018B90121042004F01FFEC82005F0A6FF1C
:105AE000A87A012803D10221032003F0C3FAE87A3F
:105AF000012803D10221042003F0BCFA287B0128ED
:105B000003D10221052003F0B5FA687B012803D1F7
:105B10000221062003F0AEFAA87B012805D1BDE8DA
:105B2000F0470221072003F0A5BABDE8F087000086
:105B3000B4000020300C0020000801401C000020B0
:105B400070B5744D0820B5F9881004F0F7FD3220C7
:105B500005F06CFFB5F9B810092004F0EFFD322014
:105B600005F064FFE8790026012833D12C46EE7158
:105B7000042003F0F1FB94F8820094F8831094F869
:105B80002620084494F88410084494F82510114401
:105B900094F827201144884205D184F8826084F863
:105BA000836084F8846000200122211891F8253058
:105BB000012B0BD191F8823043B981F8822084F80F
:105BC000C00090B101284ED002286AD0401CC0B25B
:105BD0000228EAD9E87902287DD1EE71052003F088
:105BE000BBFBE87C002877D08BE00121032003F089
:105BF00041FA0121042003F03DFA0121052003F0C0
:105C000039FA0121062003F035FA0121072003F0BB
:105C100031FAC82005F00AFF0221032003F02AFA16
:105C20000221042003F026FA0221052003F022FAC3
:105C30000221062003F01EFA0221072003F01AFABF
:105C4000E07C18B91021012004F066FDE07C0128F9
:105C500001D114214DE06079401CC1B26171022074
:105C600004F05AFDB6E70121032003F003FA0121F5
:105C7000042003F0FFF9C82005F0D8FE022103201C
:105C800003F0F8F90221042003F0F4F9E07C18B9DC
:105C90000E21012004F040FDE07C0128DBD112211F
:105CA00027E00121032003F0E5F90121042003F09E
:105CB000E1F90121052003F0DDF9C82005F0B6FE69
:105CC0000221032003F0D6F90221042003F0D2F9C7
:105CD0000221052001E01CE00FE003F0CBF9E07C9D
:105CE00018B90F21012004F017FDE07C0128B2D182
:105CF0001321012004F010FDADE70D21012004F077
:105D00000BFDE87C012804D1BDE87040112104F0AE
:105D100003BD70BDB400002070B5304C0820B4F94C
:105D2000881004F00BFD322005F080FEB4F9B810A5
:105D3000092004F003FD322005F078FEE07900250B
:105D400001282DD1E57194F82B00012805D00220FF
:105D500003F002FBE07C70B111E0062003F0FCFAD6
:105D6000E07C18B91521012004F0D6FCE07C012864
:105D70000CD1162107E00221012004F0CDFCE07CCB
:105D8000012803D10421012004F0C6FC6079401CE5
:105D9000C1B26171022004F0BFFC012084F8C1008F
:105DA000E079022819D1E57194F82B00012806D07A
:105DB0005FF0030003F0D0FAE07C10B105E00720AB
:105DC000F8E70121084604F0A7FCE07C012804D193
:105DD000BDE87040032104F09FBC70BDB4000020FA
:105DE0002DE9F0415F4D0820B5F9881004F0A6FCBC
:105DF000142005F01BFEB5F9B810092004F09EFC34
:105E0000142005F013FE012004F0ECFC322005F014
:105E10000DFE052004F0E6FC322005F007FEE87BCD
:105E200001220027504E012829D0504C40F27751D2
:105E3000DFF83C816068A0F20970884205D22A72BE
:105E400000222021404601F050FF606840F2A4612A
:105E5000884205D22F7201222021404601F045FFE1
:105E6000287AB17888427BD0B0706879401CC1B282
:105E70006971022004F050FC287AA8B357E0EF7350
:105E8000B5F89A102C460120322901D9227200E07F
:105E90002772401CC0B20628F6D3B4F89600322808
:105EA00010D9B4F8980032281FD9284632291CD9B5
:105EB000B0F89C10322918D9B5F89E00322814D9B0
:105EC0001F2713E0284610D2B0F89820322A0CD2AF
:105ED00032290AD2B0F89C10322906D2B5F89E00B9
:105EE000322802D2002701E00CE01027F078874228
:105EF000B6D094F88A0018B139460A2004F00CFC98
:105F0000F770ADE7032003F027FA0121084604F0FB
:105F100003FC0321012004F0FFFB687E012803D16C
:105F20000021042004F0F8FB642005F07FFD287AAE
:105F3000012815D1022003F00FFA0221012004F0FC
:105F4000EBFB0421012004F0E7FB687E18B9012176
:105F5000042004F0E1FBBDE8F041642005F066BDDB
:105F6000BDE8F081B40000201C000020300C0020AF
:105F7000000801402DE9F041A74C0C2194F82900BC
:105F8000404201EB4000C6B2B4F9881008207A34D0
:105F900004F0D4FB322005F049FDB4F93E1009208D
:105FA00004F0CCFB322005F041FDA07C9B4F7A3CF5
:105FB00010B101287ED0FEE0032003F0CDF90121CD
:105FC000022003F057F86FF01D0509E00A2005F0E4
:105FD0002DFD94F88A0000286DD0A07800286AD1A1
:105FE000B4F98600A842F1DC94F88A0010B10120CF
:105FF00003F0B2F90121084603F03CF8142005F043
:1060000015FD0121022003F035F8142005F00EFDE6
:106010000121082003F02EF80121032003F02AF8C3
:106020000121042003F026F80121052003F022F8C5
:106030000121062003F01EF80121072003F01AF8C1
:106040004FF096086FF003050FE00A2005F0EEFC14
:1060500094F88A0000282ED0A07800282BD1A8F12F
:10606000010080B25FEA000803D0B4F98600A842BC
:10607000EBDB0021012002F0FDFF142005F0D6FC2F
:106080000021022002F0F6FF142005F0CFFC0021D1
:10609000082002F0EFFF0121032002F0EBFF0121B5
:1060A000042002F0E7FF0021052002F0E3FF0021B9
:1060B000062001E033E097E002F0DCFF002107203A
:1060C00002F0D8FFC82005F0B1FC0221032002F045
:1060D000D1FF0221042002F0CDFFC82509E00A20EB
:1060E00005F0A4FC94F88A0000287DD0A078002850
:1060F0007AD16D1E2D042D0CF1D13889A4F88E00B3
:10610000E07C18B91521012004F006FBE07C012891
:1061100002D1162104F000FB012084F88C0038899C
:1061200080B2A4F89000B4F88E10314488421DD992
:1061300094F8280008B1012818D1032003F00CF9C5
:10614000032084F88C00E07C18B90121084604F093
:10615000E3FAE07C012802D1032104F0DDFA607942
:10616000401CC1B26171022004F0D6FAB4F88E105E
:10617000B4F89000891B88421DDA94F8280008B111
:10618000022818D1022003F0E7F8022084F88C00DE
:10619000E07C18B90221012004F0BEFAE07C01285D
:1061A00002D1042104F0B8FA6079401CC1B26171D7
:1061B000022004F0B1FA94F88C00022829D3642557
:1061C00009E00A2005F032FC94F88A00002820D06B
:1061D000A07800281DD16D1E2D042D0CF1D194F84E
:1061E0008D00401CC0B200E013E084F88D00217DDA
:1061F000884203D394F88C10022906D0617D88422E
:1062000007D394F88C00032803D1002004F88C0FE6
:106210006070BDE8F0810000B4000020300C002068
:106220002DE9F041A24C0C2194F82900404201EBE9
:106230004000C6B2B4F9881008207A3404F07EFA1F
:10624000322005F0F3FBB4F93E10092004F076FA91
:10625000322005F0EBFBA07C964F7A3C10B1012870
:106260007ED0F4E0032003F077F80121022002F051
:1062700001FF6FF01D0509E00A2005F0D7FB94F837
:106280008A0000286DD0A07800286AD1B4F9860071
:10629000A842F1DC94F88A0010B1012003F05CF808
:1062A0000121084602F0E6FE142005F0BFFB0121A3
:1062B000022002F0DFFE142005F0B8FB01210820C7
:1062C00002F0D8FE0121032002F0D4FE01210420B7
:1062D00002F0D0FE0121052002F0CCFE01210620B3
:1062E00002F0C8FE0121072002F0C4FE4FF096081C
:1062F0006FF003050FE00A2005F098FB94F88A0080
:1063000000282ED0A07800282BD1A8F1010080B25F
:106310005FEA000803D0B4F98600A842EBDB002155
:10632000012002F0A7FE142005F080FB00210220CE
:1063300002F0A0FE142005F079FB0021082002F0F5
:1063400099FE0121032002F095FE0121042002F0B4
:1063500091FE0021052002F08DFE0021062001E0C3
:1063600033E097E002F086FE0021072002F082FE73
:10637000C82005F05BFB0221032002F07BFE022116
:10638000042002F077FEC82509E00A2005F04EFB44
:1063900094F88A0000287DD0A07800287AD16D1E5C
:1063A0002D042D0CF1D13889A4F88E00E07C18B9A9
:1063B0001521012004F0B0F9E07C012802D116215A
:1063C00004F0AAF9012084F88C00388980B2A4F87E
:1063D0009000B4F88E103144884218D9022002F09F
:1063E000BBFF032084F88C00E07C18B9012108462B
:1063F00004F092F9E07C012802D1032104F08CF929
:106400006079401CC1B26171022004F085F9B4F8D2
:106410008E10B4F89000891B884218DA032002F02D
:106420009BFF022084F88C00E07C18B90221012037
:1064300004F072F9E07C012802D1042104F06CF927
:106440006079401CC1B26171022004F065F994F8D2
:106450008C00022829D3642509E00A2005F0E6FA19
:1064600094F88A00002820D0A07800281DD16D1E45
:106470002D042D0CF1D194F88D00401CC0B284F88D
:106480008D00217D884203D394F88C10022908D016
:10649000617D00E009E0884207D394F88C0003286E
:1064A00003D1002004F88C0F6070BDE8F08100007B
:1064B000B4000020300C00202DE9F041B84C8027BA
:1064C0000820B4F9881004F039F9322005F0AEFA4A
:1064D000B4F9B810092004F031F9322005F0A6FA19
:1064E000E079002601287CD1E07F00287AD1A07EC7
:1064F000012831D1E07E01282ED1207F01282BD127
:10650000607F012828D1A07F012825D1207802288A
:1065100022D8042002F020FF0121042002F0AAFD6D
:106520000121052002F0A6FD0121062002F0A2FDB6
:106530000121072002F09EFDC82005F077FA022114
:10654000042002F097FD0221052002F093FD0221B4
:10655000062002F08FFD4BE0E671042002F0FCFE05
:10656000A07E012803D10121032002F083FDE07EFB
:10657000012803D10121042002F07CFD207F0128A5
:1065800003D10121052002F075FD607F012803D1B0
:106590000121062002F06EFDA07F012803D1012118
:1065A000072002F067FDC82005F040FAA07E012810
:1065B00003D10221032002F05DFDE07E012803D11A
:1065C0000221042002F056FD207F012803D1022180
:1065D000052002F04FFD607F012806D10221062030
:1065E00001E020E04AE002F045FDA07F012803D150
:1065F0000221072002F03EFDA07AE17A000100EBC3
:10660000C100217B00EB8100617B00EB4100A17B9D
:106610000844802807D0C7B294F88A0018B13946D8
:106620000A2004F079F8E079022824D1E07F0028DC
:106630007BD1E671052002F08FFEA07AE17A00019D
:1066400000EBC100217B00EB8100617B00EB41008E
:10665000A17B0844B84207D0C7B294F88A0018B1A9
:1066600039460A2004F058F86079401CC1B26171C3
:10667000022004F051F8E079012853D1E07F01288D
:106680006CD1E671042002F067FE94F8760094F86D
:10669000771094F87920084494F87810637F1144B7
:1066A000084494F87A10E27E0844A17E1144227FC7
:1066B0001A441144A27F1144884209D184F87660BB
:1066C00084F8776084F8786084F8796084F87A6078
:1066D00001256019417E012902D190F87500E0B3CF
:1066E0006D1CEDB2052DF4D9A07AE17A000100EB22
:1066F000C100217B00EB8100617B00EB4100A17BAD
:106700000844B84207D0C7B294F88A0018B1394695
:106710000A2004F001F86079401CC1B261710220C6
:1067200003F0FAFFE079022837D1E07F012834D165
:10673000E671052002F010FEA07AE17A000100EB7C
:10674000C100217B00EB8100617B00EB4100A17B5C
:106750000844B84221D0C1B201E009E01DE094F83C
:106760008A00002819D0BDE8F0410A2003F0D4BF08
:1067700001206119052D81F8750084F8C050B3D847
:10678000AD1CE8B2012102F075FCC82005F04EF9FD
:10679000E8B2022102F06EFCA6E7BDE8F08100003D
:1067A000B40000202DE9F041A14D0820B5F9881072
:1067B00003F0C4FF322005F039F9B5F9B81009200B
:1067C00003F0BCFF322005F031F9E87900270128F9
:1067D00033D195F87D0095F87E1095F88020084417
:1067E00095F87F1095F823301144084495F88110EE
:1067F00095F82120084495F82010114495F822209E
:106800001A44114495F824201144884209D185F88E
:106810007D7085F87E7085F87F7085F8807085F8CA
:10682000817002242819817F012902D190F87B0010
:1068300070B1641CE4B2062CF4D9E87902287CD14A
:10684000EF71052002F088FDE87C002876D0E5E0B5
:106850000126052C54D8281980F87B6085F8C040A3
:10686000EF71042002F078FD0121032002F002FC08
:10687000022C06D0032C07D0042C08D0052C1AD0EB
:1068800009E00121042004E00121052001E00121AB
:10689000062002F0EFFBC82005F0C8F80221032013
:1068A00002F0E8FB022C09D0032C0AD0042C0BD0F8
:1068B000052C11D00CE001210720EAE70221042079
:1068C00004E00221052001E00221062002F0D2FBB3
:1068D000E87C2E4618B107E002210720F6E7E01C0D
:1068E000C1B2012003F018FFF07C012803D1E41DA0
:1068F000E1B203F011FF7079401CC1B2717185E003
:10690000287802283BD895F8BF0078B9042002F017
:1069100023FDE87C2C4618B91C21012003F0FCFE65
:10692000E07C012802D1232103F0F6FE012104209E
:1069300002F0A0FB0121052001E077E06AE002F00F
:1069400099FB0121062002F095FB0121072002F0AE
:1069500091FBC82005F06AF80221042002F08AFBAE
:106960000221052002F086FB0221062002F082FBB4
:106970000221072002F07EFB85F8BF605DE7281941
:1069800085F8BF7080F87B6085F8C040EF71042007
:1069900002F0E2FC0121032002F06CFB0121042043
:1069A00002F068FB0121052002F064FB01210620B2
:1069B00002F060FB0121072002F05CFBC82005F01B
:1069C00035F80221032002F055FB0221042002F0D9
:1069D00051FB0221052002F04DFB0221062002F0AE
:1069E00049FB0221072002F045FBE87C18B902218F
:1069F000012003F091FEE87C2C46012802D10421FD
:106A000003F08AFE6079401CC1B26171022003F07C
:106A100083FE12E70121084603F07EFEE87C012890
:106A200004D1BDE8F041032103F076BEBDE8F0815A
:106A3000B4000020014800F0EFBC00006C0C002006
:106A4000014800F0E9BC000064090020014800F0A2
:106A5000E3BC00009C090020014800F0DDBC000000
:106A600084080020014800F0D7BC0000BC080020CA
:106A7000014800F0D1BC00002C090020014800F0C2
:106A8000CBBC0000F4080020014800F0C5BC0000A9
:106A900034050020014800F0BFBC0000FC040020C9
:106AA0000D4808B5416941F0020141614069012288
:106AB00000F0020000901146382001F091F93820D2
:106AC00001F082F901221146392001F089F9BDE86F
:106AD0000840392001F078B90010024010B5046870
:106AE00063604368102B036803D099600068C2603C
:106AF00010BD9A600068C16010BD10B5012826D095
:106B0000002845D10021012002F0B4FA0A2004F047
:106B10008DFF0021022002F0ADFA0021082002F0D2
:106B2000A9FA0021032002F0A5FA0021042002F0B6
:106B3000A1FA0021052002F09DFA0021062002F0B2
:106B400099FA0021BDE81040072002F093BA012114
:106B5000084602F08FFA0A2004F068FF01210220A3
:106B600002F088FA0121082002F084FA01210320B2
:106B700002F080FA0121042002F07CFA01210520B4
:106B800002F078FA0121062002F074FA0121D9E717
:106B900010BD000006490020C8610648016941F0A7
:106BA00004010161016941F0400101617047000089
:106BB0001040002000200240064A0021D161064911
:106BC0000A6942F002020A614861086940F0400027
:106BD000086170471040002000200240044B002252
:106BE000DA61044A136943F00103136101807047BD
:106BF00010400020002002400E49C868C2060E481E
:106C000003D5C26942F00202C261CA68520703D5C5
:106C1000C26942F00102C261CA69D20707D0C269E3
:106C200042F00402C261C86920F00100C86114206A
:106C3000C8607047002002401040002070B5054633
:106C400001F058F80646114C09E0681C07D025B140
:106C500001F050F8801BA84201D9032070BDE06804
:106C6000C007F2D1E068800601D52020E060E0682E
:106C7000C00605D4E069C00702D1E068400703D52B
:106C8000FFF7BAFF012070BD002070BD0020024058
:106C90002DE9F04F754885B0816941F004018161AB
:106CA000816901F004010491816941F00801816169
:106CB000816901F008010491816941F0100181614D
:106CC000806900F0100004906948416821F0E0619B
:106CD00041F00071416001222021664801F005F871
:106CE00001224021634801F000F8012216023146DA
:106CF000604800F0FAFF7700002239465E4800F055
:106D0000F4FF002231465C4800F0EFFF00228021B2
:106D1000594800F0EAFF00224021574800F0E5FF03
:106D20004FF4004A00225146524800F0DEFF4FF473
:106D3000804B002259464F4800F0D7FF00227101D6
:106D40004C4800F0D2FF002231014A4800F0CDFF4C
:106D500000223946474800F0C8FF0022102145486C
:106D600000F0C3FF01220221444800F0BEFF4FF0B3
:106D700020090124CDE90094022569463D48039588
:106D800000F0B6FE4FF04008CDE90084694639486E
:106D9000039500F0ADFECDE90064694635480395E2
:106DA00000F0A6FECDE9007469463248039500F074
:106DB0009FFECDE9007469462F48039500F098FEC8
:106DC000CDE9006469462C48039500F091FE8020CF
:106DD000CDE9000469460395274800F089FECDE916
:106DE000008469462448039500F082FECDE900A4A2
:106DF00069462048039500F07BFECDE900B40326E8
:106E000069461C48039600F073FE6003CDE9000458
:106E100069460396174800F06BFE2003CDE9000495
:106E200069460395134800F063FE1020CDE9000485
:106E3000694603950F4800F05BFECDE90094694672
:106E40000E48039500F054FECDE9005469460B4806
:106E5000039500F04DFE0020CDE90040694605484D
:106E6000029400F045FE05B0BDE8F08F001002402E
:106E700000000140000C01400010014000080140EA
:106E8000F8B500250446009590F82400012808D0A4
:106E9000012084F824002046FDF7FCF9060002D00A
:106EA0004BE00220F8BDA06A20F4885040F00200B8
:106EB000A062022000F0D8FF22490968B1FBF0F07F
:106EC000400000E0401E00900028FBD12046FDF766
:106ED00041FA2068816841F00801816000F00AFFF2
:106EE000074604E000F006FFC01B0A2811D82068FE
:106EF00080680007F6D42068816841F00401816051
:106F000000F0F8FE07460EE000F0F4FEC01B0A2871
:106F100009D9A06A20F0020040F01000A06284F8B5
:106F200024500120F8BD206880684007ECD4A06A96
:106F300020F0020040F00100A06284F824503046A6
:106F4000F8BD00003C000020F8B50025009590F841
:106F50002420AE46012A1ED0012280F824204A684F
:106F60001F244FF47873072A17D20668776B93FAB9
:106F7000A3FCBCFA8CFC521E02FB0CFC04FA0CF4C1
:106F8000A74393FAA3F3B3FA83F30C685A439440EC
:106F9000274377632DE00220F8BD06680D2A14D23E
:106FA000376B93FAA3FCBCFA8CFCD21F02FB0CFCDF
:106FB00004FA0CF4A74393FAA3F3B3FA83F30C682F
:106FC0005A4394402743376313E0F76A93FAA3FCCC
:106FD000BCFA8CFC0D3A02FB0CFC04FA0CF4A7433F
:106FE00093FAA3F3B3FA83F30C685A43944027430C
:106FF000F7620A683823072406680A2A14D3F76858
:1070000093FAA3FCBCFA8CFC0A3A02FB0CFC04FACF
:107010000CF4A74393FAA3F3B3FA83F38C685A43AF
:1070200094402743F76012E0376993FAA3FCBCFA57
:107030008CFC02FB0CFC04FA0CF4A74393FAA3F3B8
:10704000B3FA83F38C685A439440274337610A6844
:10705000102A01D0112A20D1124B02689A4217D16E
:1070600093681B0219D4936843F400039360096882
:10707000102912D10C490D4A0968B1FBF2F101EB5C
:107080008101490000E0491E00910029FBD104E084
:10709000816A41F020018162012580F824E02846C0
:1070A000F8BD0000002401403C00002040420F00D9
:1070B00070477047704700002DE9F04104004FF021
:1070C000000503D0A06A002618B108E00120BDE841
:1070D000F081E66284F82460204600F091F82046B2
:1070E000FDF7D8F80146A06AC00600D421B1A06A15
:1070F00040F01000A0627AE0A06A20F4885040F0CE
:107100000200A0623B4823688342E06904D1B0F5E5
:10711000402F01D14FF40020022292FAA2F2E76838
:10712000B2FA82F207FA02F2104362684FF4807CEE
:107130001043A268624509D0012A07D05FF000021F
:10714000D4F814E0BEF1010F02D00AE06246F7E77E
:10715000C7B1A76A47F02007A762E76A47F00107AF
:10716000E7625F6827F4694717435F6023689A689E
:10717000214F3A4002439A60A268624510D0012A2A
:107180000ED016E04FF4604EA7699EFAAEFEBEFA2E
:107190008EFE7F1E07FA0EF7174347F40062E0E702
:1071A0004FF47002256992FAA2F2B2FA82F26D1ED1
:1071B00095402268D36A23F470032B43D36222687C
:1071C00092680E4B1A40824207D1E662A06A20F014
:1071D000020040F00100A0620AE0A06A20F0020074
:1071E00040F01000A062E06A40F00100E06201217E
:1071F00008466CE7003C0140FDF7E1FFFE0E1FFF73
:1072000070B505460068254986B0884243D12449B7
:10721000886940F400708861886900F40070049007
:10722000486940F001004861486900F0010004909D
:10723000886940F010008861886900F010000490AF
:10724000886940F00800886188692026032400F0DE
:107250000800CDE9006404906946124800F048FC3B
:107260000220CDE9000469460F4800F041FC104CB3
:107270000E48206000206060A0608020E0608000F8
:1072800020618000C4E905068000E061204600F02E
:107290001FFB2C62656206B070BD00000024014037
:1072A0000010024000100140000C014008000240A4
:1072B0006C0C00202DE9F047894604463B490068E4
:1072C0003B4F0E1D9046884201D0B84207D130682E
:1072D00010F4702F03D001252846BDE8F08794F8FC
:1072E000240001280CD0012084F824002046FDF75A
:1072F00031F805004FF0000004D084F82400EBE7DB
:107300000220EAE7A16A40F60162914341F48071EC
:10731000A1622168B94218D1326812F4702F14D0DA
:10732000A16A41F48011A1623168490505D5A16ABD
:1073300021F4005141F48051A162A16AC9040AD527
:10734000E16A21F00601E16206E0A26A22F48012FD
:10735000A2624968E9E7E06284F82400216A1548DE
:107360008862216A1448C862216A14480863216847
:107370006FF0020008602068816841F480718160CC
:10738000216843464A464C31206A00F0C9FA206819
:107390008168C1F342410729816803D041F480111B
:1073A000816099E741F4A001FAE700000024014060
:1073B00000280140E1420008494300082F4300082B
:1073C0002DE9F04104460068016821F001010160E7
:1073D00000F090FC054600264FF47A7710E000BFDD
:1073E00000F088FC401BB8420AD954F8340F40F032
:1073F000200044F81409032060702670BDE8F08175
:1074000020680068C007EBD1012084F8210084F8CF
:1074100020600020F2E700002DE9F05F0446F94A01
:10742000F84DF84EF74F0068DFF8D893DFF8D4A393
:10743000DFF8D0B3D114783D643E503F4FF4000ED6
:107440004FF4004C4FF40028A9F13C09AAF1280A96
:10745000ABF1140B904221D9EB4A1368A8420FD02C
:10746000B0420FD0B84213D0484513D0504513D086
:10747000584501D1724624E0E34A083290423CD19B
:1074800008221EE080221CE0DF4A3032904239D1CF
:107490000A4616E0624614E0424612E0D94A803AB3
:1074A0001368A842ECD0B042ECD0B842F0D04845C6
:1074B000F0D05045F0D05845DCD0D24A9042DBD1D4
:1074C0000205134279D00268D243120775D40268CC
:1074D00022F008020260CB4A2068904232D9A842CA
:1074E00019D0B0421DD0B84228D0484523D05045CD
:1074F00023D058450BD1714620E0C34A1C3290423C
:10750000C2D1BFE7C04A44329042C5D1C2E7BE4AA9
:107510000832904201D1082110E0BB4A1C3290424F
:1075200001D180210AE0B84A3032904206D0B649F3
:107530004431884201D1614600E04146B248001D15
:1075400001602CE0A84214D0B04218D0B84223D039
:1075500048451ED050451ED0584501D171461BE00C
:10756000904202D14FF0006116E0A74A08329042E3
:1075700001D1082110E0A44A1C32904201D180219F
:107580000AE0A14A3032904206D09F4944318842F5
:1075900001D1614600E041469A4880384160606B05
:1075A00040F001006063042084F82100002084F88A
:1075B0002000216B09B120468847924A20681115A6
:1075C0004FF4800E4FF4804C4FF48028904221D924
:1075D0008D4A1368A8420FD0B0420FD0B84213D0E2
:1075E000484513D0504513D0584501D1724624E088
:1075F000854A083290423FD104221EE040221CE01E
:10760000814A303290423CD10A4616E0624614E08C
:10761000424612E07B4A803A1368A842ECD0B0425E
:10762000ECD0B842F0D04845F0D05045F0D05845A5
:10763000DCD0744A9042DBD1C204134275D0026898
:10764000D243520771D40268920603D4026822F032
:10765000040202606B4A2068904232D9A84219D0D5
:10766000B0421DD0B84228D0484523D0504523D041
:1076700058450BD1714620E0634A1C329042BFD17D
:10768000BCE7614A44329042C2D1BFE75E4A083249
:10769000904201D1042110E05B4A1C32904201D19A
:1076A00040210AE0584A3032904206D056494431CF
:1076B000884201D1614600E041465348001D016007
:1076C0002CE0A84214D0B04218D0B84223D048458C
:1076D0001ED050451ED0584501D171461BE0904246
:1076E00002D14FF0806116E0474A0832904201D142
:1076F000042110E0444A1C32904201D140210AE0AA
:10770000414A3032904206D03F494431884201D14B
:10771000614600E041463B4880384160112084F8D2
:107720002100E16A09B120468847364A2068511590
:107730004FF4005C4FF4003E904228D9324B1B6856
:10774000A84212D0B04213D0B8421AD048451AD03D
:1077500050451AD0584502D14FF400182AE0DFF8FE
:10776000A88008F10808404544D14FF0020821E004
:107770004FF020081EE0DFF8908008F13008404507
:1077800044D1884616E0E04614E0F04612E01D4B76
:10779000803B1B68A842E8D0B042E9D0B842F0D0A4
:1077A0004845F0D05045F0D05845D5D09042D6D17C
:1077B0004FF0007813EA080F70D00368DB439B0793
:1077C0007FD403689B0603D4036823F0020303609D
:1077D0002068904239D9A84221D0B04225D0B84281
:1077E0002FD048452AD050452AD0584513D14FF4C0
:1077F000001126E0DFF8108008F11C084045BAD1DE
:10780000B6E700008000024000040240DFF8B880C4
:107810004045BAD1B7E72C4A3C3A904201D1022107
:107820000FE0294A283A904201D1202109E0264A56
:10783000143A904205D02449884201D1614600E0C3
:1078400071462148403801602CE0A84215D0B04272
:1078500019D0B84224D048451ED050451FD05845B5
:1078600002D14FF400111BE0904202D14FF00071A1
:1078700016E0154A3C3A904201D1022110E0124A2A
:10788000283A904201D120210AE00F4A143A90424E
:1078900006D00D49884202D1614601E011E07146EF
:1078A0000A484160606B6063012084F82100002079
:1078B00084F82000A16A002903D02046BDE8F05FCB
:1078C0000847BDE8F09F0000440402400000024069
:1078D00070B520B190F82110002411B103E001200F
:1078E00070BD80F82040022180F8211003681A68DA
:1078F00043F6F0718A43D0E901152943D0E90356D4
:10790000354329434569294385692943C569294385
:10791000114319604463012180F82110002070BDDB
:1079200070B5044690F82000012823D0012084F887
:107930002000022084F821002068056825F0010558
:1079400005602046FFF7CAF82068016841F002018F
:1079500001602068016841F004010160206801684D
:1079600041F0080101602068016841F001010160F7
:10797000002070BD022070BD31B500F0BBF9044697
:1079800000F0B8F90099001B8842F9D338BD000017
:107990002DE9F047054626480F460126017E0129BC
:1079A0000FD00121814601762868DFF888804CF2EB
:1079B0005034022808D0A2462046FFF73FF9A8B16C
:1079C00031E00220BDE8F0872046FFF737F908BB19
:1079D0000120FFF7DFF82046FFF730F9D8F8101044
:1079E000064621F00401C8F810101CE04FF0FF30EB
:1079F0003860AC6811E02046FFF7DEF85046FFF72C
:107A00001DF9D8F81010060021F00201C8F8101076
:107A100001D03C6007E004F50064D5E9020100EB09
:107A2000C120A042E7D8002189F818103046C9E7E4
:107A300010400020002002400348016941F080010D
:107A40000161002070470000002002402DE9F05F36
:107A500007461C4888460024017E15461E4601291B
:107A600009D00121814601764CF2503A5046FFF789
:107A7000E5F818B122E00220BDE8F09F012F02D006
:107A8000022F00D00427D346DFF83CA0220128466D
:107A90003146FCF7B5FB81B208EB4400FFF79EF8D6
:107AA0005846FFF7CBF8DAF8102022F00102CAF8A6
:107AB000102018B9641CE4B2BC42E7D3002289F854
:107AC0001820D9E710400020002002400548016935
:107AD000090605D50449416004494160002070470A
:107AE000012070470020024023016745AB89EFCD9C
:107AF0002DE9F84FDFF8B8A100220AF1040B144673
:107B000001274FF00F090BF1040E00BF0B6807FAB5
:107B100004F52B40AB4274D1DFF898C14E68A6EB58
:107B20000C0866452BD00DDC032E34D005DC36B3B3
:107B3000012E19D0022E2FD11BE0112E16D0122E9D
:107B40002AD119E0B8F5881F19D006DCB8F5803FB6
:107B500015D0B8F5801F1FD111E0B8F5001F0ED069
:107B6000B8F5041F18D10AE0CA6815E0CA68121DEA
:107B700012E0CA6808320FE0CA680C320CE08A686A
:107B80002AB1012A4FF0080203D0456104E0042223
:107B900002E0056100E00022FF2B01D8064601E06B
:107BA00000F104064FEA840501D9A5F12005D6F8B5
:107BB00000C009FA05F82CEA080C02FA05F54CEAAF
:107BC000050CC6F800C04D68ED006AD53A4DAE69A7
:107BD00046F00106AE61AD6924F0030605F001052B
:107BE0000095364D06EB050CDCF80850A6074FEA69
:107BF000167809FA08F6B543314EB04202D1002694
:107C00001AE04EE02F4EB04201D1012614E02E4E74
:107C1000B04201D102260FE02C4EB04201D1032622
:107C20000AE02B4EB04201D1042605E0294EB042B5
:107C300001D1052600E0062606FA08F62E43CCF808
:107C400008604D68DAF80060ED03554601D51E4323
:107C500000E09E432E604D68AD0305D5DBF8006063
:107C60001E43CBF8006004E0DBF800509D43CBF8E6
:107C700000504D68DEF80060ED02754601D51E43E8
:107C800000E09E432E604D68AD0205D5084D0C35D1
:107C90002E681E432E6004E0054E0C3635689D4369
:107CA0003560641C102CFFF431AFBDE8F88F000084
:107CB00000040140000011100010024000000140CB
:107CC00000080140000C0140001001400014014078
:107CD00000180140001C01408068084000D00120CD
:107CE0007047C2684A40C26070470AB1016170477C
:107CF0000904FBE70148006870470000AC00002061
:107D000002480168491C016070470000AC00002077
:107D1000074810B5016841F010010160032000F030
:107D20007FF8002000F006F800F016F8002010BDE3
:107D30000020024010B5044600F0DAF94FF47A71E1
:107D4000B0FBF1F000F01AFD00222146501E00F0B9
:107D500047F8002010BD00001A4808B5816941F0BD
:107D600001018161806900F001000090052000F0B0
:107D700057F8002211466FF00B0000F031F8002296
:107D800011466FF00A0000F02BF8002211466FF048
:107D9000090000F025F800221146501F00F020F8DD
:107DA00000221146101F00F01BF800221146901E01
:107DB00000F016F80022BDE808401146501E00F001
:107DC0000FB800000010024000F01F020121914096
:107DD0004009800000F1E020C0F800117047000069
:107DE000F0B40E4B1B680C46C3F30223C3F1070526
:107DF000042D00D90425191D072901D2002300E014
:107E0000DB1E012606FA05F1491E214099409E40DD
:107E1000761E16403143F0BC01F01CB90CED00E0B9
:107E2000064900F0070208684FF6FF03184040EAD1
:107E30000220034A10430860704700000CED00E088
:107E40000000FA05BFF34F8F05480168054A01F4A9
:107E5000E06111430160BFF34F8F00BFFDE70000F9
:107E60000CED00E00400FA0510B537A401461DCC66
:107E700086B08DE81D0038A0384C006804900020C2
:107E8000042944D012DC012944D002293DD100F05C
:107E90004DF961684FF4804292FAA2F201F4404138
:107EA000B2FA82F2D140491C49002CE008292ED0B8
:107EB00010292AD161682268D20126D54FF47012A8
:107EC00092FAA2F201F47010B2FA82F2D040C90321
:107ED0001DF8000010D561684FF4003292FAA2F24A
:107EE00001F40031B2FA82F2D14004AA515C1C4A7A
:107EF000B2FBF1F1484301E01A4948436168490285
:107F000003D440000321B0FBF1F006B010BD00F037
:107F100025F9FAE7226AC2F30121012903D1920768
:107F200001D5C803F1E7022905D1626A920702D59B
:107F300049F64040E9E70329E7D121688903E4D500
:107F40004FF22440E1E70000020304050607080998
:107F50000A0B0C0D0E0F1010010200000010024061
:107F600000127A0000093D002DE9F047DFF870812A
:107F700005460E46D8F8000000F00700B0420CD2CB
:107F8000D8F8001021F007013143C8F80010D8F8E4
:107F9000000000F00700B04277D12878514C8007EC
:107FA00005D56068A96820F0F00008436060287873
:107FB000C00759D06968012001290DD0022929D0B4
:107FC0005FF0020393FAA3F2B2FA82F242F02002C7
:107FD000520904D0226803E04FF40033F2E7626AEA
:107FE00093FAA3F3B3FA83F303F01F03984002421A
:107FF0004BD0606820F0030008436060FFF77AFE12
:108000006968074641F2883001290DD0022981466E
:1080100017D025E04FF00073D4E700BFFFF76AFEEA
:10802000C11B494501D918E081466068C0F3810051
:108030000128F3D118E000BFFFF75CFEC11B4945E2
:108040000BD86068C0F381000228F5D10CE000BFB6
:10805000FFF750FEC11B494502D90320BDE8F08758
:10806000606810F00C0FF3D1D8F80010404601F012
:108070000701B1420BD9016821F0070131430160CA
:10808000006800F00700B04201D00120E6E7287840
:10809000400705D56068E96820F4E0600843606047
:1080A0002878000706D56068296920F4605040EA06
:1080B000C100606000F052F86168F02292FAA2F20A
:1080C00001F0F001B2FA82F2D140074A515CC84097
:1080D000064908600020FFF72DFE0020BEE70000E3
:1080E000002002400010024098C300083C0000201D
:1080F00001480068704700003C000020084809491A
:10810000006849684FF4E06292FAA2F201F4E0617B
:10811000B2FA82F2D140044A515CC8407047000074
:108120003C00002000100240A8C30008084809498C
:10813000006849684FF4605292FAA2F201F460516B
:10814000B2FA82F2D140044A515CC8407047000044
:108150003C00002000100240A8C3000810B519A37D
:1081600085B00FCB8DE80F001AA01B4B0068049060
:108170005A681A4802F00C0104291DD008291BD1A5
:108180004FF4701494FAA4F402F47011B4FA84F465
:10819000E140D2031DF8011010D55A684FF40033A6
:1081A00093FAA3F302F40032B3FA83F3DA4004AB98
:1081B0009A5CB0FBF2F0484305B010BD0848484354
:1081C000FAE7000002030405060708090A0B0C0D74
:1081D0000E0F1010010200000010024000127A0081
:1081E00000093D002DE9F84F04460078F74DC0071F
:1081F0004FF0010625D068687704C0F3810001289C
:1082000007D06868C0F3810002281BD16868C003EA
:1082100018D597FAA7F0B0FA80F040F02000400996
:1082200001D0286800E0686A97FAA7F1B1FA81F1F5
:1082300001F01F0106FA01F108425ED060680028D3
:108240007CD05AE06068B0F5803F0BD010B1B0F53B
:10825000A02F11D0286820F480302860286820F4EE
:10826000802002E0286840F480302860606828B3ED
:10827000FFF740FD80460BE0286840F4802028602E
:10828000F0E700BFFFF736FDA0EB0800642871D8C7
:1082900097FAA7F0B0FA80F040F02000400901D032
:1082A000286800E0686A97FAA7F1B1FA81F101F055
:1082B0001F0106FA01F10842E4D01EE0FFF71AFDA3
:1082C000804605E0FFF716FDA0EB08006428DED825
:1082D00097FAA7F0B0FA80F040F02000400901D0F2
:1082E000286800E0686A97FAA7F1B1FA81F101F015
:1082F0001F0106FA01F10842E4D12078DFF8D082AC
:1083000080074FF000094FF002075BD568684FF017
:10831000F80B10F00C0F07D06868C0F3810002283A
:108320001CD16868C00319D497FAA7F0B0FA80F09E
:1083300040F02000400902D0286801E08BE0686A24
:1083400097FAA7F1B1FA81F101F01F0106FA01F1E4
:1083500008422CD0206901287DD128E0206990B303
:1083600096FAA6F0B0FA80F048F82060FFF7C2FC59
:10837000824607E011E100BFFFF7BCFCA0EB0A005A
:10838000022884D897FAA7F0B0FA80F040F02000D5
:10839000400901D0286800E0686A97FAA7F1B1FAAD
:1083A00081F101F01F0106FA01F10842E4D02868CA
:1083B0009BFAABF26169B2FA82F220F0F8009140C8
:1083C0000843286025E0FFE796FAA6F1B1FA81F1AB
:1083D00048F82190FFF78EFC824605E0FFF78AFC03
:1083E000A0EB0A000228CCD897FAA7F0B0FA80F0E8
:1083F00040F02000400901D0286800E0686A97FA40
:10840000A7F1B1FA81F101F01F0106FA01F108426A
:10841000E4D1207800076ED5A069B8B396FAA6F02B
:10842000B0FA80F008EB8000C0F88064FFF762FCCF
:10843000824605E0FFF75EFCA0EB0A000228A0D808
:1084400097FAA7F0B0FA80F040F06000B6EB501F4A
:1084500002D128680CE062E197FAA7F0B0FA80F048
:1084600040F06000B7EB501F01D1286A00E0686A55
:1084700097FAA7F1B1FA81F101F01F0106FA01F2B2
:108480001042D7D00120FFF777FA34E0FFE796FAE1
:10849000A6F1B1FA81F108EB8101C1F88094FFF7F0
:1084A00029FC824606E000BFFFF724FCA0EB0A008F
:1084B000022872D897FAA7F0B0FA80F040F0600076
:1084C000B6EB501F01D128680BE097FAA7F0B0FA7D
:1084D00080F040F06000B7EB501F01D1286A00E047
:1084E000686A97FAA7F1B1FA81F101F01F0106FA63
:1084F00001F21042D8D12078400765D5E86940F0F4
:108500008050E861E869DFF8CCB000F0805000905E
:10851000DBF8001041F48071CBF80010FFF7EAFBA4
:10852000824605E0FFF7E6FBA0EB0A00642834D89A
:10853000DBF80000C005F5D5E06801280AD008B1D5
:10854000052813D0286A20F001002862286A20F04C
:10855000040002E0286A40F001002862E06841F26D
:10856000883B90B3FFF7C6FB82460BE0286A40F0D9
:1085700004002862EEE700BFFFF7BCFBA0EB0A0196
:1085800059450AD897FAA7F0B0FA80F040F04000B9
:10859000B6EB501F02D128680CE0A3E097FAA7F0D1
:1085A000B0FA80F040F04000B7EB501F01D1286ACC
:1085B00000E0686A97FAA7F1B1FA81F101F01F02B1
:1085C00006FA02F10842D7D031E005E0001002407F
:1085D0000000424200700040FFF78CFB824605E03D
:1085E000FFF788FBA0EB0A0159457BD897FAA7F063
:1085F000B0FA80F040F04000B6EB501F01D128687F
:108600000BE097FAA7F0B0FA80F040F04000B7EB2B
:10861000501F01D1286A00E0686A97FAA7F1B1FA01
:1086200081F101F01F0206FA02F10842D8D1E06997
:1086300080B36968C1F38101022970D04FF0807165
:108640004F000228484609D091FAA1F1B1FA81F110
:1086500048F82100FFF74EFB044669E08A4691FA8C
:10866000A1F1B1FA81F1C14648F82100FFF742FBC0
:10867000804605E0FFF73EFBA0EB0800022854D837
:1086800097FAA7F0B0FA80F040F02000400902D03D
:10869000286801E061E0686A97FAA7F1B1FA81F110
:1086A00001F01F0106FA01F10842E3D1206AB0F59A
:1086B000803F05D16868A16820F4003008436860F5
:1086C000D4E908010843696821F47411084368601B
:1086D0009AFAAAF0B0FA80F049F82060FFF70AFB96
:1086E000044606E021E000BFFFF704FB001B022860
:1086F0001BD897FAA7F0B0FA80F040F020004009AC
:1087000001D0286800E0686A97FAA7F1B1FA81F110
:1087100001F01F0106FA01F10842E5D01DE01EE05C
:10872000FFF7E8FA001B022802D90320BDE8F88F02
:1087300097FAA7F0B0FA80F040F02000400901D08D
:10874000286800E0686A97FAA7F1B1FA81F101F0B0
:108750001F0106FA01F10842E2D10020E6E70120FC
:10876000E4E74FF0E0210428086903D020F004007A
:108770000861704740F00400FAE7704710B5401EEA
:10878000B0F1807F01D3012010BD4FF0E024606183
:108790000F21601700F05EFC0020A061072020611F
:1087A000002010BD10B5FFF7E8FF10BD30B590F800
:1087B0003820012A20D0012280F83820022380F8B6
:1087C000393003685C6824F070045C6003685C689E
:1087D0000D682C435C6003689C6824F080049C60F6
:1087E00003689C6849680C439C6080F8392000212C
:1087F00080F83810084630BD022030BD10B50400A6
:1088000003D094F8390010B107E0012010BD00201A
:1088100084F83800204600F00DF8022084F8390072
:10882000211D206801F098F8012084F8390000200B
:1088300010BD00002DE9F84F0546006825490026C7
:10884000254F4FF010084FF080094FF4007A4FF495
:10885000006B88421AD1F86940F00800F861F869A5
:108860001F4C00F0080000901C48C4E900082020BC
:10887000C4E905B00002E06104F10801204681E886
:108880004006FFF725F8AC62EC616562154928687F
:1088900088421CD1B86940F40050B861B869104CE6
:1088A00000F4005000900D4838341438C4E9000832
:1088B0002020C4E905B00002E06104F1080120466F
:1088C00081E84006FFF704F8AC62EC616562BDE840
:1088D000F88F0000000C0040001002401C04024011
:1088E000FC04002000340140022180F839100168A6
:1088F0000A6842F001020A60012180F83910002064
:10890000704770B5044690F83800012817D001254B
:1089100084F83850022084F839002068826822F0F8
:10892000770222F47F4282600868502837D00DDC3D
:10893000202859D005DC88B3102841D151E002200D
:1089400070BD302853D040283AD13FE060282ED067
:1089500070280BD0B0F5805F03D0B0F5005F2FD149
:1089600010E02068816821F0070115E0CB68D1E9AB
:108970000121206801F032F82168886840F0770012
:1089800088601DE0CB68D1E90121206801F026F85C
:108990002068816841F48041816011E01EE0CA686E
:1089A0004968206801F0ACF85021206806E0CA68E8
:1089B0004968206801F0B5F86021206801F018F8D6
:1089C00084F83950002084F8380070BDCA684968BE
:1089D000206801F095F840212068EFE70021206829
:1089E000ECE710212068E9E720212068E6E7302144
:1089F0002068E3E710B504460068416921F0C00132
:108A00004161206B08B1FEF7DBFC606B08B1FEF73B
:108A1000D7FC012084F83900002010BD7047000009
:108A200038B5044600680168C26811F0010F02F40D
:108A3000807204D01AB1E16B41F00101E163016879
:108A4000C1F34002416901F0010122B119B1E26BA9
:108A500042F00402E2630268C2F3800222B119B15B
:108A6000E26B42F00202E2630268C2F3C00222B18A
:108A700019B1E16B41F00801E1630168C068C1F31D
:108A8000401100F0200019B110B1204601F084FF20
:108A900020680168C068C1F3C01100F0800019B1FE
:108AA00010B1204602F084F821680868CA68C0F353
:108AB000801002F04002012570B16AB1CA682046F8
:108AC00022F04002CA6094F83910322911D080F89F
:108AD000395000BF00F072FAE06B002808D020681F
:108AE00001684068009084F839502046FFF796FFEF
:108AF00038BD222180F83910ECE770B5040004D0AD
:108B000094F83900002510B106E0012070BD84F80A
:108B10003850204600F020F8022084F83900206800
:108B2000C16821F40051C160204601F089FF20682E
:108B3000016921F4904101612068416921F02A0115
:108B400041612068C16841F40051C160E5630120C2
:108B500084F83900002070BD2DE9F04F044600680C
:108B600093490025934F85B04FF0020A4FF0030B55
:108B70004FF080084FF40059884257D1B86940F44B
:108B80008040B861B8698C4E00F48040049048156C
:108B9000CDE9000A6946CDF80CB03046FEF7A8FFD3
:108BA0003015CDE90005694630460295FEF7A0FF75
:108BB000002201212520FFF713F92520FFF704F9F2
:108BC0007F4E7E4801C61020A6E821017C4846F869
:108BD00010597561C6E90659FEF77AFE266301222F
:108BE00011460E207462FFF7FBF80E20FFF7ECF839
:108BF000734E724838361430C6E90005C6E902588B
:108C000035617561C6E906593046FEF761FE666357
:108C1000002201210F207462FFF7E2F80F20FFF716
:108C2000D3F82068C16841F01001C160654920682F
:108C300088425AD1F86940F40030F861F8695E4E14
:108C400000F4003004900420CDE9000A6946CDF814
:108C50000CB03046FEF74CFF0820CDE90005694610
:108C600030460295FEF744FF012211462620FFF709
:108C7000B7F82620FFF7A8F8514E504870363C3020
:108C800001C61020A6E821014D4846F81059703061
:108C90007561C6E90659FEF71BFE266301221146DF
:108CA00011207462FFF79CF81120FFF78DF8444EF5
:108CB0004248A8362830C6E90005C6E902583561A1
:108CC0007561C6E906593046FEF702FE6663012269
:108CD000114610207462FFF783F81020FFF774F834
:108CE0002068C16841F01001C1603749206888429E
:108CF0005AD1F86940F48020F861F869334E00F4E5
:108D0000802004900815CDE9000A6946CDF80CB022
:108D10003046FEF7EDFEF014CDE900056946304619
:108D20000295FEF7E5FE012211462720FFF758F8CD
:108D30002720FFF749F8224E2048E036283801C6A0
:108D40001020A6E821011E4846F810594F467561CB
:108D5000C6E90659E030FEF7BBFD26630122114645
:108D60000C207462FFF73CF80C20FFF72DF8134835
:108D7000174E1438C6E90005C6E902583561756119
:108D8000C6E906573046FEF7A3FD66630122114689
:108D90000D207462FFF724F80D20FFF715F8206806
:108DA000C16841F01001C16005B0BDE8F08F00005E
:108DB0000038014000100240000801404400024019
:108DC000840800200044004000480040000C01409E
:108DD0009C09002070B5044690F83900012801D0A4
:108DE000122832D169B362B394F8380001282CD02C
:108DF000012084F83800A162A2850025E56394F87B
:108E0000390012281FD0222084F83900636B1048E3
:108E10009862636B0F48D862636B0F48186308460B
:108E20001346666B216802463046091DFEF778FD41
:108E30002068416941F04001416184F838500020C8
:108E400070BD012070BD3220DEE7022070BD000041
:108E500021A9000857A9000801A900087047704718
:108E60002DE9F047044690F8390099460D4601284F
:108E700001D0222858D12DB322B394F8380001280C
:108E800052D0012684F838600027E76394F839004F
:108E900022281AD05FF0120084F83900A284E284FC
:108EA0004FF48058E08C4B46401EE084A0684FF0A1
:108EB000000240454FF08001204613D101F0ABFE87
:108EC00008BB04E00120BDE8F0873220E4E72888F1
:108ED0002168C0F308004860206908B16D1C08E0F3
:108EE000AD1C06E001F097FE68B9216815F8010B8A
:108EF0004860E08C0028D5D14B4600224021204616
:108F000001F089FE08B10320DDE794F8390032282A
:108F100006D084F8396000BF84F838700020D2E7AA
:108F2000222084F83900F7E70220CCE770B5044628
:108F300090F83900012801D0222836D181B37AB3C4
:108F400094F83800012830D0012084F838002162DC
:108F5000A284E2840025E56394F83900222822D017
:108F60005FF0120084F83900236B11489862236B7C
:108F70001048D862236B1048186326681346321DC8
:108F8000206BFEF7CDFC21686FF040000860206880
:108F9000416941F08001416184F83850002070BD82
:108FA000FFE70120FBE73220DCE70220F7E70000C3
:108FB00061A900088FA9000801A9000870B504463E
:108FC00000680C490C4D884202D1686800F030F806
:108FD0000A492068884202D1A86800F029F80849A7
:108FE0002068884204D1E868BDE8704000F020B8ED
:108FF00070BD000000380140000000200044004027
:10900000004800407047000008B500236A4602F09F
:109010008BFF0098002807D004494FF0805008606B
:10902000BFF34F8FBFF36F8F08BD000004ED00E06A
:1090300008B5694602F0B4FF0098002807D004493B
:109040004FF080500860BFF34F8FBFF36F8F08BDA4
:1090500004ED00E00907090E002806DA00F00F0011
:1090600000F1E02080F8141D704700F1E02080F846
:10907000001470472DE9F041B64DB54C142200277D
:109080004FF0010E95F82E60A4F1500342E1012843
:109090000ED0022831D0032854D004287ED00528D1
:1090A00074D0062873D0072872D00828EED11CE1AE
:1090B00039B953F822C02CF4804C4CF0804C43F862
:1090C00022C0012907D153F822C02CF0804C4CF467
:1090D000804C43F822C002297ED1002E7DD053F867
:1090E00022C0032A04D92CF4804C4CF0804CF9E0C7
:1090F0002CF0804C4CF4804CF4E039B953F822C089
:109100002CF4005C4CF0005C43F822C0012907D12C
:1091100053F822C02CF0005C4CF4005C43F822C0F1
:10912000022959D1002E58D053F822C0032A04D95D
:109130002CF4005C4CF0005CD4E02CF0005C4CF4AF
:10914000005CCFE041B954F822C02CF4007C4CF014
:10915000007C44F822C0AF72012909D154F822C022
:109160002CF0007C4CF4007C44F822C085F80AE026
:10917000022931D1002E30D054F822C00B2A08D950
:109180002CF4007C4CF0007C82E007E031E058E0F9
:1091900081E02CF0007C4CF4007C79E041B954F87B
:1091A00022C02CF4807C4CF0807C44F822C0EF720A
:1091B000012909D154F822C02CF0807C4CF4807C29
:1091C00044F822C085F80BE0022905D1002E04D016
:1091D0000B2A54F822C001E05CE0A3E004D92CF48F
:1091E000807C4CF0807C53E02CF0807C4CF4807CC4
:1091F0004EE041B954F822C02CF0800C4CF4000C25
:1092000044F822C02F73012909D154F822C02CF44C
:10921000000C4CF0800C44F822C085F80CE00229C8
:1092200078D1002E7ED054F822C00B2A04D92CF01D
:10923000800C4CF4000C2BE02CF4000C4CF0800C57
:1092400026E041B954F822C02CF0400C4CF4800CBC
:1092500044F822C06F73012909D154F822C02CF4BC
:10926000800C4CF0400C44F822C085F80DE0022937
:1092700050D1002E69D054F822C00B2A04D92CF00A
:10928000400C4CF4800C03E02CF4800C4CF0400CAF
:1092900044F822C03EE041B953F822C02CF4004CFF
:1092A0004CF0004C43F822C0AF73012909D153F8A8
:1092B00022C02CF0004C4CF4004C43F822C085F83E
:1092C0000EE0022926D1002E3FD053F822C00B2AEF
:1092D00004D92CF4004C4CF0004C03E02CF0004C72
:1092E0004CF4004C43F822C014E039B953F822C0C2
:1092F0002CF4805C4CF0805C43F822C0012907D13B
:1093000053F822C02CF0805C4CF4805C43F822C0FF
:1093100002290AD0521E92B2BFF4B9AEBDE8F041A4
:10932000012000E011E002F081BB002E0DD053F8C7
:1093300022C0032A04D92CF4805C4CF0805CD1E775
:109340002CF0805C4CF4805CCCE7BDE8F081000040
:1093500034040020B400002010B5A44B4FF4007179
:10936000F0B3012843D0022847D0032866D0042850
:109370007ED005287DD006287CD007287BD101210E
:109380000320FFF777FE01210420FFF773FE14206E
:1093900002F04CFB00210120FFF76CFE142002F0CC
:1093A00045FB01210220FFF765FE142002F03EFB81
:1093B00000210820FFF75EFE142002F037FB012099
:1093C000FFF7CAFFC82002F031FB02210320FFF79C
:1093D00051FE02210420FFF74DFE0221084600E065
:1093E00003E0BDE81040FFF745BE002200E0012287
:1093F000BDE810401846FEF778BC00210220FFF7B8
:1094000039FE142002F012FB01210846FFF732FE5C
:10941000142002F00BFB00210320FFF72BFE00219C
:109420000420FFF727FE00210520FFF723FE00217F
:109430000620FFF71FFE002107202BE0012103205B
:10944000FFF718FE01210420FFF714FE142002F09C
:10945000EDFA00210120FFF70DFE142002F0E6FADC
:1094600001210220FFF706FE142002F0DFFA03E0DC
:1094700007E021E082E0B8E000210820FFF7FAFDD4
:109480009DE701210846FFF7F5FD142002F0CEFA12
:1094900000210220FFF7EEFD142002F0C7FA0021A0
:1094A0000820FFF7E7FD0120FFF756FFC82002F074
:1094B000BDFA0221012092E701210846FFF7DAFDFB
:1094C00001210820FFF7D6FD00210220FFF7D2FD81
:1094D0004748817AC27A437B1144027B807B1A44DD
:1094E0001144084405284FF000014FF0030032D02A
:1094F000FFF7C0FD642002F099FA00210420FFF775
:10950000B9FD642002F092FA00210520FFF7B2FDB8
:10951000642002F08BFA00210620FFF7ABFD6420E7
:1095200002F084FA00210720FFF7A4FD642002F076
:109530007DFA0120FFF710FF4FF4FA7002F076FA7F
:1095400000210120FFF796FD00210220FFF792FD88
:109550000021082043E7FFF78DFD00210420FFF7DD
:1095600089FD00210520FFF785FD00210620FFF77A
:1095700081FD00210720FFF77DFDDAE701210820AA
:10958000FFF778FD142002F051FA00210220FFF7C6
:1095900071FD142002F04AFA01210846FFF76AFD26
:1095A000142002F043FA00210320FFF763FD00219D
:1095B0000420FFF75FFD00210520FFF75BFD002180
:1095C0000620FFF757FD00210720FFF753FD142069
:1095D00002F02CFA0120FFF7BFFEC82002F026FAA5
:1095E00002210820FFF746FD63E710BD000C014093
:1095F000B400002010B5002306E000BF30F8024B95
:1096000021F813405B1C9BB29342F7D310BD0000BE
:109610002DE9F84F83460020ABF1006415468A46D9
:109620000090B4F5802F56D2FEF750FAE70AC4F343
:109630004906C6F58064A54200D82C46DFF89C9008
:109640004FF0006000EBC72080464FF48062234952
:10965000FFF7D0FF00204FF6FF7206E0331839F80D
:109660001310914203D1401C80B2A042F6D3A04215
:109670002BD21B48002101600121C0E9028169460B
:10968000FEF786F90020494607E000BF3AF81020AF
:109690008319401C21F8132080B2A042F6D30F4951
:1096A00040464FF4806200BF00F01CF8A54210D085
:1096B000281B0AEB440AA344002685B24FF48064B9
:1096C0007F1CA542BCD82C46BAE7224651465846D4
:1096D000EAE7FEF7B1F9BDE8F88F0000A40C00201E
:1096E000A41400202DE9F04116460F46054600243B
:1096F0000AE000BF37F81420002329460120FEF7B6
:10970000A5F9641CA4B2AD1CB442F3D3BDE8F0814A
:1097100030B45EA0D0E9001482680020CBB24A2B9E
:1097200014D0462B22D04D2B2BD0412B34D04D2B97
:1097300042D04A2B0ED0412B32D0532B5BD04F2B33
:1097400064D04E2B73D0442B7CD083E0C1F307232D
:10975000612B04D0C1F30723752B38D07AE0C1F315
:1097600007416E2976D1110C012259E0C1F307237C
:10977000652B6FD1C1F3074162296BD1110C022215
:109780004EE0C1F30723612B64D1C1F30743722B71
:1097900016D1110C032243E0C1F30723702B04D030
:1097A000C1F30723752B1FD054E0C1F30741722981
:1097B00050D1110C042233E0C1F30723612B49D1AE
:1097C000C1F30741792945D1110C052228E0C1F3E5
:1097D00007416E2902D06C2903D03BE0110C062210
:1097E0001EE0110C07221BE0C1F30741672931D1AC
:1097F000110C082214E0C1F30723652B2AD1C1F311
:109800000741702926D1110C092209E0C1F3072371
:10981000632B1FD1C1F3074174291BD1110C0A22FC
:1098200002EB011161F3070014E000E00AE0C1F36C
:1098300007236F2B0ED1C1F3074176290AD1110CF2
:109840000B22EDE7C1F30723652B03D1C1F30741D9
:1098500063290BD0E1B230290BD9303901EB8101FA
:10986000D02303EB410101EB142104E0110C0C2285
:10987000D6E7210A303961F30F20010A01EB0020FD
:1098800001B230BC072000F059BF000046656220DD
:10989000313420323032330030B58FB001200090A7
:1098A00000040024CDE901040225CDE907504FF45E
:1098B000E01009906846FEF795FC0F20CDE90A05F7
:1098C0006802CDE90C4002210AA80E94FEF74CFB79
:1098D000FEF70EFC4FF47A71B0FBF1F0FEF74EFF8D
:1098E0000420FEF73EFF00221146501EFEF778FAD4
:1098F0000FB030BD10B5FEF703FAFEF753FF02F0CC
:10990000D1FB012803D0BDE8104002F08BB910BD97
:109910000D48016841F00101016041680B4A1140A6
:10992000416001680A4A11400160016821F4802108
:109930000160416821F4FE0141604FF41F01816024
:109940000449C00308607047001002400000FFF89F
:10995000FFFFF6FE08ED00E0F0B502681A4B1B4D64
:109960001B4E1C4F1C4C4FF0804C984209D0A0421B
:1099700007D0604505D0A84203D0B04201D0B8421C
:1099800004D122F0700E4A6842EA0E02984209D0D1
:10999000A04207D0604505D0A84203D0B04201D014
:1099A000B84203D122F44075CA682A4302608A682B
:1099B000C2620A688262984201D0A04201D109695C
:1099C000016301214161F0BD002C01400004004011
:1099D00000080040000C00400034014010B58468CD
:1099E00042EA032224F47F440A432243826010BDEA
:1099F000826822F070020A4342F0070181607047DA
:109A00002DE9F04186B00024394D00940194029470
:109A1000039404943548059428604726C5E90164F9
:109A20004FF07D08C5E9038428466C61FEF7E6FE29
:109A30004FF48057694628460097FEF762FF04946A
:109A400004A928460594FEF7B1FE1420294AA5F181
:109A5000DC0102E0136841F82030401E0004000CD5
:109A6000F8D12868C16841F48071C160204914238D
:109A7000DC39E869FDF754FF1D48FEF735FF1C4D42
:109A80001D483C3D2860C5E90164C5E903842846BA
:109A90006C61FEF7B3FE694628460097FEF731FF7A
:109AA000049404A928460594FEF780FE1420134A66
:109AB000A5F1500102E0136941F82030401E000476
:109AC000000CF8D12868C16841F48071C1600B4A6C
:109AD0000749142310328C39E869FDF721FF044847
