:020000040800F2
:1040000038450020DD410008E5410008E74100088F
:10401000E9410008EB410008ED4100080000000004
:104020000000000000000000000000004541000802
:10403000F14100080000000089410008D98700080C
:10404000F7410008F7410008F7410008F741000870
:10405000F7410008F7410008F7410008F741000860
:10406000F7410008F7410008F741000865580008CB
:10407000715800087D5800088958000895580008B4
:10408000A1580008AD580008F7410008F7410008A2
:10409000F7410008F7410008F7410008F741000820
:1040A000F7410008F7410008F7410008F741000810
:1040B000F7410008F7410008F7410008F741000800
:1040C000F7410008F7410008F7410008F7410008F0
:1040D000F7410008359E0008F19E0008AD9F0008DA
:1040E000F7410008F7410008F7410008F7410008D0
:1040F000F7410008F7410008F7410008F7410008C0
:10410000F7410008F7410008F7410008F7410008AF
:10411000F7410008F7410008F7410008F74100089F
:10412000B9580008C5580008F7410008F7410008D1
:10413000DFF80CD000F072F900480047C9A0000871
:1041400038450020224B19680868B0E8F00F80F36A
:104150000988BFF36F8F4FF0000080F311884EF095
:104160000D0E70470000000006480068006880F3EC
:10417000088862B661B6BFF34F8FBFF36F8F00DF61
:1041800000BF00BF08ED00E0EFF30980BFF36F8FC1
:104190000F4B1A6820E9F00F106008B54FF050007F
:1041A00080F31188BFF34F8FBFF36F8F06F000FDD0
:1041B0004FF0000080F31188BDE8084019680868D6
:1041C000B0E8F00F80F30988BFF36F8F704700BF2E
:1041D00024000020EFF30580704700000648804768
:1041E00006480047FEE7FEE7FEE7FEE7FEE7FEE7DC
:1041F000FEE7FEE7FEE7FEE7F5870008314100082D
:10420000202A04DB203A21FA02F00021704721FA2B
:1042100002F3D040C2F12002914008431946704792
:1042200040EA01039B0703D009E008C9121F08C038
:10423000042AFAD203E011F8013B00F8013B521EB8
:10424000F9D2704770B521F0004303430CD0C1F39D
:104250000A550024D5EB040564EB0403D617AD1A08
:10426000B34102DB0020014670BD201841EB025132
:1042700070BD0EB5C10F80EAE0700844CA07002186
:1042800040F233438DE80E000A460B4600F078F802
:1042900003B000BD20F00040C10DC0F3160040F493
:1042A00000007F2901DA00207047962903DCC1F164
:1042B0009601C840704796398840704701F0004326
:1042C00030B421F0004150EA010206D00A0DA2F5F7
:1042D0006072C1F31301002A02DC30BC0020704779
:1042E000440F44EAC104C100E01830BC00EBC250E6
:1042F000AFF300800029A8BF7047401C490008BFE9
:1043000020F00100704710B4B0FA80FC00FA0CF005
:1043100050EA010404BF10BC704749B1CCF120043D
:1043200021FA04F411FA0CF118BF012121430843CA
:10433000A3EB0C01CB1D4FEA00614FEA102042BFF6
:10434000002010BC704700EBC35010440029A4BFEC
:1043500010BC7047401C490008BF20F0010010BC91
:10436000704710B5141E73F1000408DA401C41F1C7
:10437000000192185B411A4301D120F0010010BDE9
:104380002DE9F04D92469B4611B1B1FA81F202E05F
:10439000B0FA80F22032904600F052F804460F4600
:1043A00040EA0A0041EA0B0153465A46084313D03B
:1043B000114653EA010019D0C8F140025046FFF7F8
:1043C0001FFF05460E4650465946424600F038F853
:1043D000084305D0012004E020463946BDE8F08DB1
:1043E0000020054346EAE0762C4337430A986305EC
:1043F000E40AA0EB08000022FD0A44EA47540A3010
:1044000002D500200146E9E7010510196941DDE9FF
:10441000084500196941BDE8F04DA2E7064C074D7B
:1044200006E0E06840F0010394E807009847103484
:10443000AC42F6D3FFF780FEB0B30008D0B300085B
:10444000202A04DB203A00FA02F100207047914054
:10445000C2F1200320FA03F3194390407047000093
:1044600070B5044600688168C943C9071CD18168DA
:1044700021F00101816002F019FC05460FE000BF48
:1044800002F014FC401B022809D9A06A40F0100079
:10449000A062E06A40F00100E062012070BD206887
:1044A0008068C043C007EBD0002070BD10B5014646
:1044B000406A826A12F0500F05D0006A026BBDE8B4
:1044C000104008461047816A41F40071816201681A
:1044D0008968C1F3424107290CD1C16851B9816A89
:1044E00021F480718162816AC90403D4816A41F038
:1044F0000101816201F0C8FD10BD10B5406A816AFA
:1045000041F040018162C16A41F00401C16201F0E1
:10451000BDFD10BD10B5406A01F0B7FD10BD000033
:10452000F8B500260446009600688168C943C907AB
:1045300028D0816841F00101816013481349006867
:10454000B0FBF1F000E0401E00900028FBD102F02B
:10455000ADFB054611E000BF02F0A8FB401B02289E
:104560000BD9A06A40F01000A062E06A40F00100A0
:10457000E06284F824600120F8BD20688068C043B0
:10458000C007E9D10020F8BD2000002040420F0004
:104590003EB526482449012401608915C0E902146A
:1045A0000021416106254FF460220561C26141602E
:1045B00001F06EFD072002901020CDE9000469464D
:1045C0001A4801F0ADFC0F200090022001906946CE
:1045D000164801F0A5FC0D200090032001906946CB
:1045E000124801F09DFC0C200090042001906946C7
:1045F0000E4801F095FC0B200090052001906946C3
:104600000A4801F08DFC0A20CDE9000569460748FB
:1046100001F086FC054801F01FFC04490622183908
:10462000024801F023FE3EBD00240140400D002061
:104630007CB503220021012006F00AFB324C032244
:1046400000212060012006F003FB606003220021AE
:10465000012006F0FDFAA06000220421012006F0EE
:10466000F7FAE06000220421012006F0F1FA20614F
:1046700000220421012006F0EBFA606100240426E8
:10468000CDE900642346C82220A1234806F0DEFCC1
:104690000320CDE900040023C82220A1224806F00F
:1046A000D5FC0225CDE900540023C8221FA12248D1
:1046B00006F0CCFCCDE900640023C8221FA12248EB
:1046C00006F0C4FCCDE900540023C8221FA12248F3
:1046D00006F0BCFC0126CDE900640023C8221FA11E
:1046E000214806F0B3FCCDE900640023C8221BA1D9
:1046F0001E4806F0ABFCCDE900540023C8221CA1E3
:104700001E4806F0A3FC7CBD000000205461736BC2
:104710005F485278000000003D9000085461736BC0
:104720005F48547800000000659000085461736B86
:104730005F54696D000000002D9500085461736B93
:104740005F53616600000000C59000085461736B00
:104750005F41637400000000398C00085461736B82
:104760005F546D7000000000CD950008A99400080A
:104770005461736B5F44527800000000159000088C
:1047800010B501F06CF9442001F074F901F067F9FB
:10479000BE2001F06FF901F053F9044601F050F921
:1047A000000201B251EA04006FF0030401D5C043D6
:1047B000401CFFF75EFD2246FFF744FDBDE81040B8
:1047C000FFF77CBD10B502F07FFA03F0D7FF01F0D0
:1047D00035FAFFF7DDFE05F047FC04F02FF801F095
:1047E00077F8BDE8104004F0BFB8000010B5C82944
:1047F00000D9C8210A460146034803F0D7FBBDE8AB
:104800001040142006F012B9BC08002010B5C829C9
:1048100000D9C8210A460146034803F0C7FBBDE89A
:104820001040142006F002B93C0900207047000037
:1048300070B5FB4C0820B4F9921005F07BF83220DB
:1048400006F0F4F8B4F9CC10092005F073F8322022
:1048500006F0ECF894F8D3000025012826D1207842
:10486000042823D184F8D35003F0ACFD00210320A9
:1048700003F040FC0021042003F03CFC0021052053
:1048800003F038FC0021062003F034FC002107204F
:1048900003F030FCE07C18B90221012005F038F863
:1048A000E07C012802D1042105F032F8E0790128EA
:1048B00050D1A07E01280BD1E07E012808D1207FB5
:1048C000012805D1607F012802D1A07F01281ED0D8
:1048D000E5710121032003F00DFC0121042003F008
:1048E00009FC0121052003F005FC0121062003F04D
:1048F00001FC0121072003F0FDFB142006F096F8CF
:10490000042003F05FFDA07E012824D027E0E5719C
:10491000042003F057FD0021042003F0EBFB0021ED
:10492000052003F0E7FB0021062003F0E3FB002154
:10493000072003F0DFFBE07C18B91C21012004F004
:10494000E7FFE07C012802D1232104F0E1FF0120F0
:1049500084F8D3009EE10021032003F0CBFBE07E2E
:10496000012803D10021042003F0C4FB207F01288B
:1049700003D10021052003F0BDFB607F012803D196
:104980000021062003F0B6FBA07F012803D10021FF
:10499000072003F0AFFBE07C00287CD1A07E01283B
:1049A00046D1E07E01280FD1207F002874D1607F9E
:1049B0000028CFD1A07F0028CCD10521012004F010
:1049C000A7FFA07E012833D1E07E002862D1207F9E
:1049D00001280FD1607F00285DD1A07F00285AD127
:1049E0000621012004F094FFA07E012820D1E07E62
:1049F000002872D1207F00284DD1607F01280ED180
:104A0000A07F002847D10721012004F081FFA07E6C
:104A100001280DD1E07EE8BB207F00287DD1607F9A
:104A200000287AD1A07F012877D1082104F070FFF7
:104A3000A07E90BBE07E01280BD1207F70BB607F01
:104A400048BBA07F38BB1821012004F061FFA07E85
:104A500018BBE07E78BB207F01280BD1607FD0B9E6
:104A6000A07FC0B91921012004F052FFA07EA0B997
:104A7000E07E00BB207F70B9607F012811D1A07F4C
:104A800048B91A21012004F043FFA07E28B9E07E36
:104A900088B904E021E040E022E01BE00EE0207F46
:104AA000D8BB607FC8BBA07F012836D11B2104F092
:104AB0002FFFA07E70B9E07E01282ED1207F012833
:104AC0002BD1607F012828D1A07F012825D11C216E
:104AD00004F01EFFA07E01281FD1E07E01281CD11A
:104AE000207F012819D1607F70B9A07FA8B91D214E
:104AF000012004F00DFFA07E01280ED1E07E0128E8
:104B00000BD1207F012808D1607F012805D1A07F2B
:104B1000012802D1022104F0FBFEE07C012846D1ED
:104B2000A07E01283CD1E07E01280DD1207FE8BB8A
:104B3000607F00283BD1A07FC8BB0921012004F081
:104B4000E7FEA07E01282BD1E07E88BB207F0128D4
:104B50000CD1607F58BBA07F48BB0A21012004F024
:104B6000D7FEA07E01281BD1E07E08BB207FF0B9D4
:104B7000607F01280CD1A07FC8B90B21012004F06F
:104B8000C7FEA07E01280BD1E07E88B9207F70B9D6
:104B9000607F60B9A07F01287CD10C2104F0B8FEB1
:104BA000A07EF8BBE07E01280FD102E055E03BE09B
:104BB00050E0207FB8BB607FB0BBA07FA0BB1F21AF
:104BC000012004F0A5FEA07E60BBE07E68BB207FD4
:104BD00001280BD1607F38BBA07F28BB202101209A
:104BE00004F096FEA07EE8B9E07EF0B9207FD8B947
:104BF000607F01280BD1A07FB0B92121012004F0F2
:104C000087FEA07E70B9E07E78B9207F60B9607FB2
:104C100050B9A07F01283DD1222104F079FE05E0A2
:104C20009400002013E006E034E001E0A07E70B9BB
:104C3000E07E01282ED1207F01282BD1607F012822
:104C400028D1A07F012825D1232104F061FEA07E78
:104C500001281FD1E07E01281CD1207F012819D115
:104C6000607F70B9A07FA8B92421012004F050FE14
:104C7000A07E01280ED1E07E01280BD1207F0128E3
:104C800008D1607F012805D1A07F012802D104212D
:104C900004F03EFEE07902280FD1E571052003F013
:104CA00091FBE07C18B90121084604F031FEE07C5C
:104CB000012802D1032104F02BFEA079012809D19B
:104CC000A5716079401CC1B26171BDE870400220DD
:104CD00004F01EBE70BD0000F0B585B00025009543
:104CE0000120019504F08CFE4FF49676304605F0D5
:104CF0009DFE052004F084FE304605F097FE704CC2
:104D0000E07B70B90121052004F002FE05E00A20D5
:104D100005F08CFEA07800287BD1761E3604360C78
:104D2000F5D1E07B012874D1E5736A464FEA0006AD
:104D300004EB4003B3F8A8101154322901D91654DA
:104D400000E0155441B1B42904D084F8D160B3F81F
:104D5000A81009B184F8D260401CC0B20628E7D37D
:104D60009DF801009DF80210000100EBC1009DF8C4
:104D7000031000EB81009DF8041000EB41009DF84A
:104D800005100844C1B20A2004F0C2FD94F8CF0017
:104D900001282FD184F8CF500DF1080704EB400112
:104DA000B1F8A81027F81010401CC0B20628F5D39F
:104DB000042004F025FE322005F038FE052004F022
:104DC0001FFE642005F032FE5FF0010004EB40029C
:104DD00037F81010B2F8A820914207D009B1B429D1
:104DE00002D11AB1B42A01D084F8D160401CC0B2FB
:104DF0000628EBD394F8CF0002281BD184F8CF50BB
:104E0000032004F0FDFD94F8D200012802D00A210D
:104E10000DE04BE094F8D100264618B90921052091
:104E200004F076FD96F8D100012803D10821052071
:104E300004F06EFD94F8CF00032804D184F8CF501D
:104E4000042004F0DDFD94F8CF0004282ED184F86E
:104E5000CF50032004F0D4FD642609E00A2005F0B9
:104E6000E5FD94F89E00002820D0A07800281DD1F0
:104E7000761E16F0FF06F1D1062004F0C1FD1E26B5
:104E800009E00A2005F0D2FD94F89E0000280DD01C
:104E9000A07800280AD1761E16F0FF06F1D1207CFA
:104EA000012805D00721052004F032FD05B0F0BD32
:104EB00025740621052004F02BFD25716570F5E7AA
:104EC00094000020704770477047000070B50A20BA
:104ED00005F0ACFD554CB4F8E60001280CD10020DB
:104EE000A4F8E60003F06EFA002000F0F3FDB4F938
:104EF000E810A32004F01EFDB4F8E6000525022802
:104F000046D1B4F99400B4F99610B4F99A20084443
:104F1000B4F9981011440844B4F99C10084490FB6B
:104F2000F5F2B4F9EA108A4206DD052003F04AFAE8
:104F30000320A4F8E6002FE090FBF5F088421ADA8F
:104F4000042003F03FFA0021032003F0D3F80021EE
:104F5000042003F0CFF80021052003F0CBF8002156
:104F6000062003F0C7F80021072003F0C3F804204F
:104F7000A4F8E60035E0002003F024FA002000F059
:104F8000A9FDA4F8E650B4F9E810A32004F0D2FC7F
:104F9000B4F8E600032820D1B4F99400B4F99610CF
:104FA000B4F99A200844B4F9981011440844B4F9AB
:104FB0009C10084490FBF5F0B4F9EA10884233DC09
:104FC000002003F0FFF9002000F084FDA4F8E65073
:104FD000B4F9E810A32004F0ADFCB4F8E60004280E
:104FE00022D1B4F99400B4F99610B4F99A20084487
:104FF000B4F9981011440844B4F99C10084490FB8B
:10500000F5F0B4F9EA1088420EDB002003F0DAF97B
:10501000002000F05FFD24F8E65FA320B4F9021041
:10502000BDE8704004F086BC70BD00009400002014
:1050300070B5974C142194F82900B4F89A20404296
:1050400001EB4000C6B2B4F89400B4F896100844DE
:10505000B4F8981011440844B4F89C108E340844F5
:1050600001B2082004F066FC0A2005F0DFFCB4F968
:1050700006200821012004F071FC0A2005F0D6FC6E
:10508000B4F908200821022004F068FC0A2005F089
:10509000CDFCB4F90A200821032004F05FFC0A20AB
:1050A00005F0C4FCB4F90C200821042004F056FCDF
:1050B0000A2005F0BBFCB4F90E200821052004F0FD
:1050C0004DFC0A2005F0B2FCB4F93E10092004F0B2
:1050D00031FC0A2005F0AAFC607C6E4D8E3C70BB52
:1050E000002003F06FF9012000F0F4FC4FF4FA60A7
:1050F00005F09CFC002000F0EDFC012084F89F00EE
:105100004FF47A7005F092FCE07C18B9152101206B
:1051100004F0FEFBE07C012802D1162104F0F8FB2C
:10512000B4F89400B4F89610B4F89A200844B4F88F
:10513000981011440844B4F89C100844688094F80E
:105140009F0001287DD1B4F99400B4F99610B4F908
:105150009A200844B4F9981011440844B4F99C10FA
:105160000844B5F90210314488421DDD94F8280046
:1051700008B1012818D1052003F024F9032084F890
:105180009F00E07C18B90121084604F0C1FBE07CD7
:10519000012802D1032104F0BBFB6079401CC1B29D
:1051A0006171022004F0B4FBB4F99400B4F99610D4
:1051B000B4F99A200844B4F9981011440844B4F999
:1051C0009C100844B5F90210891B884231DA94F822
:1051D000280008B102282CD1042003F0F3F80021A4
:1051E000032002F087FF0021042002F083FF00214A
:1051F000052002F07FFF0021062002F07BFF002146
:10520000072002F077FF022084F89F00E07C18B9A5
:105210000221012004F07CFBE07C012802D1042162
:1052200004F076FB6079401CC1B26171022004F089
:105230006FFBB4F89400B4F896100844B4F89810D2
:1052400000E007E0B4F89A2011440844B4F89C1038
:105250000844688094F89F10022918D394F8A0009D
:105260000522401CC0B2B0FBF2F384F8A000257DFB
:10527000AB4201D3022906D0B0FBF2F0627D90422E
:1052800005D3032903D1002004F89F0F607070BD7F
:10529000940000201800002070B5914C142194F85F
:1052A0002900B4F89A20404201EB4000C6B2B4F89D
:1052B0009400B4F896100844B4F8981011440844C7
:1052C000B4F89C108E34084401B2082004F032FB7C
:1052D0000A2005F0ABFBB4F906200821012004F0F8
:1052E0003DFB0A2005F0A2FBB4F9082008210220AA
:1052F00004F034FB0A2005F099FBB4F90A200821D8
:10530000032004F02BFB0A2005F090FBB4F90C20DD
:105310000821042004F022FB0A2005F087FBB4F9E1
:105320000E200821052004F019FB0A2005F07EFB61
:10533000B4F93E10092004F0FDFA0A2005F076FBCE
:10534000607C684D8E3C70BB002003F03BF8012070
:1053500000F0C0FB4FF4FA6005F068FB002000F09D
:10536000B9FB012084F89F004FF47A7005F05EFBD2
:10537000E07C18B91521012004F0CAFAE07C01286C
:1053800002D1162104F0C4FAB4F89400B4F89610CF
:10539000B4F89A200844B4F8981011440844B4F8BA
:1053A0009C100844A88094F89F0001287AD1B4F991
:1053B0009400B4F99610B4F99A200844B4F99810FE
:1053C00011440844B4F99C100844B5F90410314460
:1053D00088422CDD042002F0F5FF0021032002F0BA
:1053E00089FE0021042002F085FE0021052002F044
:1053F00081FE0021062002F07DFE0021072002F040
:1054000079FE032084F89F00E07C18B9012108464A
:1054100004F07EFAE07C012802D1032104F078FA3E
:105420006079401CC1B26171022004F071FAB4F9D4
:105430009400B4F99610B4F99A200844B4F998107D
:1054400011440844B4F99C100844B5F90410891BB0
:10545000884218DA052002F0B5FF022084F89F0088
:10546000E07C18B90221012004F052FAE07C012806
:1054700002D1042104F04CFA6079401CC1B2617180
:10548000022004F045FAB4F89400B4F89610B4F889
:105490009A200844B4F8981011440844B4F89C10B9
:1054A0000844A88094F89F10022918D394F8A0000B
:1054B0000522401CC0B2B0FBF2F384F8A000257DA9
:1054C000AB4201D3022906D0B0FBF2F0627D9042DC
:1054D00005D3032903D1002004F89F0F607070BD2D
:1054E0009400002018000020704700002DE9F041D2
:1054F0006E4E0820B6F9921004F01CFA142005F044
:1055000095FAB6F9CC10092004F014FA142005F02D
:105510008DFA012004F074FA142005F087FA0520B2
:1055200004F06EFA142005F081FAF07B604F012838
:1055300063D100223446F2736FF013054FEA000383
:1055400004EB4001B1F9C0C0BCF1140F04DCB1F8A8
:10555000A8C0BCF1960F03D304EB000C8CF8093003
:10556000B1F9C0C0AC4503DBB1F8A8101E2901D8C1
:1055700021184A72401CC0B20528E1D9A07AE17A0C
:10558000000100EBC100217B00EB8100617B00EB9F
:105590004100A17B01447878814260D010B11F287E
:1055A00002D002E0237200E0227211F0FF01797054
:1055B00002D01F2902D002E0227200E0237294F888
:1055C0009E0010B10A2004F0A3F9207A012812D11C
:1055D00001256019407A012805F10200C0B20DD002
:1055E0005FF0010102F086FD6D1CEDB2052DF0D9D2
:1055F000042002F0E7FE207A10B130E00021F1E74C
:1056000001256019407A002805F10200C0B235D0AA
:105610005FF0010102F06EFD6D1CEDB2052DF0D9B9
:10562000244C01221102204601F03BFB64210120A1
:1056300002F0BCFE00224021204601F032FB002196
:10564000022002F0B3FE0021012002F053FD0021F0
:10565000022002F04FFD0021082002F04BFD307ABD
:10566000397888421CD038707079401CC1B2717191
:10567000022004F04DF9307A10B108E00021C9E7AA
:10568000707E01280CD10021042004F041F9307A09
:10569000012805D1707E18B90121042004F038F9E1
:1056A000BDE8F041C82005F0C1B900009400002019
:1056B00018000020000C014070B5664D0820B5F9B7
:1056C000921004F037F9322005F0B0F9B5F9CC109A
:1056D000092004F02FF9322005F0A8F9E879002616
:1056E00001284AD12C46EE710121032002F002FD6F
:1056F0000121042002F0FEFC0121052002F0FAFC49
:105700000121062002F0F6FC0121072002F0F2FC44
:10571000142005F08BF9042002F054FE94F8820066
:1057200094F8831094F82620084494F884100844D0
:1057300094F82510114494F827201144884205D18B
:1057400084F8826084F8836084F8846000200122F9
:10575000211891F82530012B0BD191F8823043B9F3
:1057600081F8822084F8D40090B1012837D0022833
:1057700048D0401CC0B20228EAD9E879022867D193
:10578000EE71052002F01EFEE87C002854D057E0A0
:105790000021032002F0AEFC0021042002F0AAFC4C
:1057A0000021052002F0A6FC0021062002F0A2FC48
:1057B0000021072002F09EFCE07C18B91021012096
:1057C00004F0A6F8E07C012801D1142130E06079D2
:1057D000401CC1B26171022004F09AF8CDE70021AB
:1057E000032002F087FC0021042002F083FCE07C0F
:1057F00018B90E21012004F08BF8E07C0128E6D1D5
:10580000122115E00021032002F074FC0021042085
:1058100002F070FC0021052002F06CFCE07C18B95D
:105820000F21012004F074F8E07C0128CFD113216E
:10583000012004F06DF8CAE70D21012004F068F89A
:10584000E87C012804D1BDE87040112104F060B863
:1058500070BD00009400002070477047704770478B
:1058600070477047014800F0B3BD0000700D002084
:10587000014800F0ADBD00005C0A0020014800F0C6
:10588000A7BD0000940A0020014800F0A1BD00005F
:105890007C090020014800F09BBD0000B4090020F5
:1058A000014800F095BD0000240A0020014800F0E6
:1058B0008FBD0000EC090020014800F089BD000008
:1058C0002C060020014800F083BD0000F4050020F4
:1058D0000D4808B5416941F002014161406901226A
:1058E00000F0020000901146382001F055FA3820EF
:1058F00001F046FA01221146392001F04DFABDE8C7
:105900000840392001F03CBA0010024010B504688C
:1059100063604368102B036803D099600068C2601D
:1059200010BD9A600068C16010BD06E00021491CEE
:10593000C9B20A29FBD3401E80B20028F6D17047B5
:105940001FB52020009000200190012002906946A0
:10595000014801F0A9F81FBD000801401FB5202033
:10596000009001200190032003906946014801F056
:105970009BF81FBD0008014070B50024FFF7E0FF51
:10598000124D04E0641CE4B20120FFF7CEFF202199
:10599000284601F07DF910B1642CF3D30FE0642C9C
:1059A0000DD2002404E0641CE4B20120FFF7BDFF27
:1059B0002021284601F06CF918B1F02C04D3012005
:1059C00070BDF02CEFD3FAE7002070BD0008014055
:1059D00010B5FFF7C3FF0A4C00222021204601F03A
:1059E00060F940F2EE20FFF7A0FF012220212046BF
:1059F00001F057F9BDE810400F20FFF796BF0000F7
:105A00000008014010B5FFF7A9FF0C4C002220212F
:105A1000204601F046F90A20FFF787FFFFF790FFC5
:105A20002021204601F034F9012805D000222D2044
:105A3000FFF77BFF104610BD0122F8E70008014088
:105A400070B500254FEA0504FFF7DCFFA0402843AE
:105A5000641CE4B2C5B2082CF6D3284670BD10B55C
:105A6000FFF7B6FFFFF788FFBDE81040CC2000F03D
:105A700001B8000070B50546FFF770FF144E002412
:105A800015F0010F4FEA55054FF000024FF02001CD
:105A900030460BD001F005F90820FFF746FF012240
:105AA0002021304601F0FDF83A200AE001F0F9F833
:105AB0004620FFF73AFF01222021304601F0F1F89D
:105AC0000220FFF732FF641CE4B2082CD8D370BD6B
:105AD0000008014010B501281BD000282FD100215B
:105AE000082002F007FB0121032002F003FB012143
:105AF000042002F0FFFA0121052002F0FBFA012147
:105B0000062002F0F7FA0121BDE81040072002F05C
:105B1000F1BA0121082002F0EDFA0021032002F081
:105B2000E9FA0021042002F0E5FA0021052002F044
:105B3000E1FA0021062002F0DDFA0021E4E710BDC1
:105B400006490020C8610648016941F0040101616D
:105B5000016941F0400101617047000018410020D7
:105B600000200240064A0021D16106490A6942F03C
:105B700002020A614861086940F04000086170470C
:105B80001841002000200240044B0022DA61044A40
:105B9000136943F00103136101807047184100202D
:105BA000002002400E49C868C2060E4803D5C269EB
:105BB00042F00202C261CA68520703D5C26942F0CC
:105BC0000102C261CA69D20707D0C26942F0040269
:105BD000C261C86920F00100C8611420C860704724
:105BE000002002401841002070B5054601F05EF823
:105BF0000646114C09E0681C07D025B101F056F8A3
:105C0000801BA84201D9032070BDE068C007F2D113
:105C1000E068800601D52020E060E068C00605D479
:105C2000E069C00702D1E068400703D5FFF7BAFF7B
:105C3000012070BD002070BD002002402DE9F04F12
:105C4000804885B080697F4940F004008861886998
:105C500000F004000490886940F0080088618869B9
:105C600000F008000490886940F01000886188699D
:105C700000F01000049074484068734920F0E06020
:105C800040F00070486001222021704801F009F8BE
:105C9000012210216E4801F004F80122D702394692
:105CA0006B4800F0FEFF4FF4007900224946684837
:105CB00000F0F7FFFE1000223146654800F0F1FFCA
:105CC00000228021624800F0ECFF00224021604861
:105CD00000F0E7FF4FF4004A002251465B4800F015
:105CE000E0FF4FF4804B00225946584800F0D9FF9E
:105CF00000227101554800F0D4FF002231015348C1
:105D000000F0CFFF00223146504800F0CAFF0022C9
:105D100040214E4800F0C5FF002210214B4800F002
:105D2000C0FF012202214B4800F0BBFF20200124CC
:105D3000CDE90004022569460395444800F0B4FE0D
:105D40004FF01008CDE9008469464148039500F002
:105D5000ABFECDE9007469463D48039500F0A4FE12
:105D6000CDE9006469463948039500F09DFE40275F
:105D7000CDE9007469463548039500F095FECDE9FC
:105D8000009469463248039500F08EFECDE9006428
:105D900069462F48039500F087FE8026CDE9006410
:105DA00069462B48039500F07FFECDE900746946F3
:105DB0002748039500F078FECDE900A46946234802
:105DC000039500F071FECDE900B4032769461F4832
:105DD000039700F069FE6003CDE90004694603976C
:105DE0001A4800F061FE2003CDE9000469460395DE
:105DF000164800F059FECDE9008469461348039522
:105E000000F052FECDE9005469461248039500F0B7
:105E10004BFE00960026CDE9016469460D4800F06E
:105E200043FECDE9004669460848029400F03CFE76
:105E30000095CDE901646946044800F035FE05B0DF
:105E4000BDE8F08F0010024000000140000C01404E
:105E50000010014000080140F8B5002504460095F7
:105E600090F82400012808D0012084F8240020465E
:105E7000FEF7F6FA060002D04BE00220F8BDA06A59
:105E800020F4885040F00200A062022000F0C8FF19
:105E900022490968B1FBF0F0400000E0401E00908C
:105EA0000028FBD12046FEF73BFB2068816841F0CB
:105EB0000801816000F0FAFE074604E000F0F6FEFB
:105EC000C01B0A2811D8206880680007F6D4206813
:105ED000816841F00401816000F0E8FE07460EE0B1
:105EE00000F0E4FEC01B0A2809D9A06A20F00200D5
:105EF00040F01000A06284F824500120F8BD206812
:105F000080684007ECD4A06A20F0020040F0010055
:105F1000A06284F824503046F8BD00002000002024
:105F2000F8B50025009590F82420AE46012A1ED031
:105F3000012280F824204A681F244FF47873072A2E
:105F400017D20668776B93FAA3FCBCFA8CFC521E3E
:105F500002FB0CFC04FA0CF4A74393FAA3F3B3FA84
:105F600083F30C685A439440274377632DE0022063
:105F7000F8BD06680D2A14D2376B93FAA3FCBCFA5D
:105F80008CFCD21F02FB0CFC04FA0CF4A74393FA1E
:105F9000A3F3B3FA83F30C685A439440274337635F
:105FA00013E0F76A93FAA3FCBCFA8CFC0D3A02FBEF
:105FB0000CFC04FA0CF4A74393FAA3F3B3FA83F3AB
:105FC0000C685A4394402743F7620A683823072431
:105FD00006680A2A14D3F76893FAA3FCBCFA8CFC6F
:105FE0000A3A02FB0CFC04FA0CF4A74393FAA3F35D
:105FF000B3FA83F38C685A4394402743F76012E066
:10600000376993FAA3FCBCFA8CFC02FB0CFC04FA83
:106010000CF4A74393FAA3F3B3FA83F38C685A43BF
:106020009440274337610A68102A01D0112A20D1F1
:10603000124B02689A4217D193681B0219D49368D5
:1060400043F4000393600968102912D10C490D4AEA
:106050000968B1FBF2F101EB8101490000E0491E42
:1060600000910029FBD104E0816A41F020018162A6
:10607000012580F824E02846F8BD000000240140F6
:106080002000002040420F0070477047704700001A
:106090002DE9F04104004FF0000503D0A06A00266E
:1060A00018B108E00120BDE8F081E66284F82460C0
:1060B000204600F091F82046FEF7D2F90146A06A8A
:1060C000C00600D421B1A06A40F01000A0627AE0BE
:1060D000A06A20F4885040F00200A0623B48236888
:1060E0008342E06904D1B0F5402F01D14FF4002084
:1060F000022292FAA2F2E768B2FA82F207FA02F2F8
:10610000104362684FF4807C1043A268624509D056
:10611000012A07D05FF00002D4F814E0BEF1010FAD
:1061200002D00AE06246F7E7C7B1A76A47F0200746
:10613000A762E76A47F00107E7625F6827F46947EB
:1061400017435F6023689A68214F3A4002439A6080
:10615000A268624510D0012A0ED016E04FF4604EBE
:10616000A7699EFAAEFEBEFA8EFE7F1E07FA0EF7F4
:10617000174347F40062E0E74FF47002256992FA92
:10618000A2F2B2FA82F26D1E95402268D36A23F41D
:1061900070032B43D362226892680E4B1A408242EE
:1061A00007D1E662A06A20F0020040F00100A06280
:1061B0000AE0A06A20F0020040F01000A062E06A4D
:1061C00040F00100E062012108466CE7003C01401C
:1061D000FDF7E1FFFE0E1FFF30B5054600681E49C2
:1061E00085B0884235D11D49886940F400708861C6
:1061F000886900F400700490486940F0010048612B
:10620000486900F001000490886940F0100088613E
:106210008869694600F0100004902F200090032048
:1062200001900F4800F040FC0F4C0E482060002009
:106230006060A0608020E06080002061800060617C
:106240002020A0610002E061204600F01DFB2C62CE
:10625000656205B030BD000000240140001002401E
:106260000010014008000240700D00202DE9F047A9
:10627000894604463B4900683B4F0E1D90468842C4
:1062800001D0B84207D1306810F4702F03D0012537
:106290002846BDE8F08794F8240001280CD001209E
:1062A00084F824002046FEF73BF905004FF000007B
:1062B00004D084F82400EBE70220EAE7A16A40F664
:1062C0000162914341F48071A1622168B94218D101
:1062D000326812F4702F14D0A16A41F48011A162C7
:1062E0003168490505D5A16A21F4005141F4805176
:1062F000A162A16AC9040AD5E16A21F00601E1623E
:1063000006E0A26A22F48012A2624968E9E7E0622C
:1063100084F82400216A15488862216A1448C862FA
:10632000216A1448086321686FF002000860206841
:10633000816841F480718160216843464A464C314E
:10634000206A00F0C9FA20688168C1F34241072938
:10635000816803D041F48011816099E741F4A00184
:10636000FAE700000024014000280140AD44000885
:1063700015450008FB4400082DE9F041044600687B
:10638000016821F00101016000F090FC0546002643
:106390004FF47A7710E000BF00F088FC401BB84251
:1063A0000AD954F8340F40F0200044F814090320AF
:1063B00060702670BDE8F08120680068C007EBD1EE
:1063C000012084F8210084F820600020F2E700001A
:1063D0002DE9F05F0446F94AF84DF84EF74F006892
:1063E000DFF8D893DFF8D4A3DFF8D0B3D114783D29
:1063F000643E503F4FF4000E4FF4004C4FF4002821
:10640000A9F13C09AAF1280AABF1140B904221D959
:10641000EB4A1368A8420FD0B0420FD0B84213D055
:10642000484513D0504513D0584501D1724624E059
:10643000E34A083290423CD108221EE080221CE050
:10644000DF4A3032904239D10A4616E0624614E003
:10645000424612E0D94A803A1368A842ECD0B042D2
:10646000ECD0B842F0D04845F0D05045F0D0584577
:10647000DCD0D24A9042DBD10205134279D00268C7
:10648000D243120775D4026822F008020260CB4A98
:106490002068904232D9A84219D0B0421DD0B842EB
:1064A00028D0484523D0504523D058450BD17146BC
:1064B00020E0C34A1C329042C2D1BFE7C04A4432F6
:1064C0009042C5D1C2E7BE4A0832904201D10821AC
:1064D00010E0BB4A1C32904201D180210AE0B84A48
:1064E0003032904206D0B6494431884201D16146EB
:1064F00000E04146B248001D01602CE0A84214D0E3
:10650000B04218D0B84223D048451ED050451ED0C6
:10651000584501D171461BE0904202D14FF0006115
:1065200016E0A74A0832904201D1082110E0A44A9F
:106530001C32904201D180210AE0A14A30329042BF
:1065400006D09F494431884201D1614600E041466E
:106550009A4880384160606B40F00100606304201D
:1065600084F82100002084F82000216B09B1204626
:106570008847924A206811154FF4800E4FF4804CE2
:106580004FF48028904221D98D4A1368A8420FD039
:10659000B0420FD0B84213D0484513D0504513D065
:1065A000584501D1724624E0854A083290423FD1D5
:1065B00004221EE040221CE0814A303290423CD14D
:1065C0000A4616E0624614E0424612E07B4A803AF0
:1065D0001368A842ECD0B042ECD0B842F0D04845A5
:1065E000F0D05045F0D05845DCD0744A9042DBD111
:1065F000C204134275D00268D243520771D40268B4
:10660000920603D4026822F0040202606B4A2068FA
:10661000904232D9A84219D0B0421DD0B84228D0F9
:10662000484523D0504523D058450BD1714620E032
:10663000634A1C329042BFD1BCE7614A4432904267
:10664000C2D1BFE75E4A0832904201D1042110E076
:106650005B4A1C32904201D140210AE0584A303254
:10666000904206D056494431884201D1614600E04B
:1066700041465348001D01602CE0A84214D0B042AE
:1066800018D0B84223D048451ED050451ED058459A
:1066900001D171461BE0904202D14FF0806116E0BB
:1066A000474A0832904201D1042110E0444A1C328A
:1066B000904201D140210AE0414A3032904206D056
:1066C0003F494431884201D1614600E041463B48A0
:1066D00080384160112084F82100E16A09B1204628
:1066E0008847364A206851154FF4005C4FF4003E4D
:1066F000904228D9324B1B68A84212D0B04213D026
:10670000B8421AD048451AD050451AD0584502D13F
:106710004FF400182AE0DFF8A88008F10808404587
:1067200044D14FF0020821E04FF020081EE0DFF8CE
:10673000908008F13008404544D1884616E0E04694
:1067400014E0F04612E01D4B803B1B68A842E8D0E5
:10675000B042E9D0B842F0D04845F0D05045F0D032
:106760005845D5D09042D6D14FF0007813EA080FA3
:1067700070D00368DB439B077FD403689B0603D478
:10678000036823F0020303602068904239D9A842CD
:1067900021D0B04225D0B8422FD048452AD050450C
:1067A0002AD0584513D14FF4001126E0DFF81080AD
:1067B00008F11C084045BAD1B6E70000800002404D
:1067C00000040240DFF8B8804045BAD1B7E72C4A50
:1067D0003C3A904201D102210FE0294A283A9042E6
:1067E00001D1202109E0264A143A904205D02449DB
:1067F000884201D1614600E071462148403801607D
:106800002CE0A84215D0B04219D0B84224D0484557
:106810001ED050451FD0584502D14FF400111BE047
:10682000904202D14FF0007116E0154A3C3A904276
:1068300001D1022110E0124A283A904201D12021D0
:106840000AE00F4A143A904206D00D49884202D11C
:10685000614601E011E071460A484160606B606387
:10686000012084F82100002084F82000A16A00297A
:1068700003D02046BDE8F05F0847BDE8F09F000068
:10688000440402400000024070B520B190F821108D
:10689000002411B103E0012070BD80F820400221E6
:1068A00080F8211003681A6843F6F0718A43D0E932
:1068B00001152943D0E90356354329434569294346
:1068C00085692943C569294311431960446301213E
:1068D00080F82110002070BD70B5044690F82000AB
:1068E000012823D0012084F82000022084F8210010
:1068F0002068056825F0010505602046FFF706F8C9
:106900002068016841F0020101602068016841F0DF
:10691000040101602068016841F0080101602068FD
:10692000016841F001010160002070BD022070BDCE
:1069300031B500F0BBF9044600F0B8F90099001B2E
:106940008842F9D338BD00002DE9F04705462648B6
:106950000F460126017E01290FD0012181460176D3
:106960002868DFF888804CF25034022808D0A2460C
:106970002046FFF739F9A8B131E00220BDE8F087E1
:106980002046FFF731F908BB0120FFF7D9F8204670
:10699000FFF72AF9D8F81010064621F00401C8F8CC
:1069A00010101CE04FF0FF303860AC6811E020465A
:1069B000FFF7D8F85046FFF717F9D8F8101006007F
:1069C00021F00201C8F8101001D03C6007E004F586
:1069D0000064D5E9020100EBC120A042E7D8002104
:1069E00089F818103046C9E71841002000200240FD
:1069F0000348016941F080010161002070470000F7
:106A0000002002402DE9F05F07461C48884600241C
:106A1000017E15461E46012909D0012181460176D5
:106A20004CF2503A5046FFF7DFF818B122E002204E
:106A3000BDE8F09F012F02D0022F00D00427D346DB
:106A4000DFF83CA0220128463146FDF7D9FB81B290
:106A500008EB4400FFF798F85846FFF7C5F8DAF856
:106A6000102022F00102CAF8102018B9641CE4B208
:106A7000BC42E7D3002289F81820D9E7184100204A
:106A80000020024005480169090605D50449416016
:106A900004494160002070470120704700200240F7
:106AA00023016745AB89EFCD2DE9F84FDFF8B8A199
:106AB00000220AF1040B144601274FF00F090BF1D5
:106AC000040E00BF0B6807FA04F52B40AB4274D1EB
:106AD000DFF898C14E68A6EB0C0866452BD00DDC9C
:106AE000032E34D005DC36B3012E19D0022E2FD15F
:106AF0001BE0112E16D0122E2AD119E0B8F5881FEE
:106B000019D006DCB8F5803F15D0B8F5801F1FD12D
:106B100011E0B8F5001F0ED0B8F5041F18D10AE037
:106B2000CA6815E0CA68121D12E0CA6808320FE090
:106B3000CA680C320CE08A682AB1012A4FF00802B8
:106B400003D0456104E0042202E0056100E0002278
:106B5000FF2B01D8064601E000F104064FEA840548
:106B600001D9A5F12005D6F800C009FA05F82CEAEC
:106B7000080C02FA05F54CEA050CC6F800C04D6891
:106B8000ED006AD53A4DAE6946F00106AE61AD69D9
:106B900024F0030605F001050095364D06EB050CC3
:106BA000DCF80850A6074FEA167809FA08F6B5434C
:106BB000314EB04202D100261AE04EE02F4EB042D4
:106BC00001D1012614E02E4EB04201D102260FE081
:106BD0002C4EB04201D103260AE02B4EB04201D127
:106BE000042605E0294EB04201D1052600E0062624
:106BF00006FA08F62E43CCF808604D68DAF8006013
:106C0000ED03554601D51E4300E09E432E604D68BE
:106C1000AD0305D5DBF800601E43CBF8006004E04F
:106C2000DBF800509D43CBF800504D68DEF8006063
:106C3000ED02754601D51E4300E09E432E604D686F
:106C4000AD0205D5084D0C352E681E432E6004E0BC
:106C5000054E0C3635689D433560641C102CFFF4DE
:106C600031AFBDE8F88F00000004014000001110B2
:106C7000001002400000014000080140000C0140EB
:106C8000001001400014014000180140001C0140A8
:106C90008068084000D001207047C2684A40C26046
:106CA00070470AB1016170470904FBE701480068B9
:106CB000704700009000002002480168491C0160F4
:106CC0007047000090000020074810B5016841F0AF
:106CD00010010160032000F07FF8002000F006F8AA
:106CE00000F016F8002010BD0020024010B5044648
:106CF00000F0DAF94FF47A71B0FBF1F000F01AFD10
:106D000000222146501E00F047F8002010BD000070
:106D10001A4808B5816941F001018161806900F07C
:106D200001000090052000F057F8002211466FF096
:106D30000B0000F031F8002211466FF00A0000F05D
:106D40002BF8002211466FF0090000F025F8002210
:106D50001146501F00F020F800221146101F00F0CD
:106D60001BF800221146901E00F016F80022BDE824
:106D700008401146501E00F00FB8000000100240FD
:106D800000F01F02012191404009800000F1E02045
:106D9000C0F8001170470000F0B40E4B1B680C46A1
:106DA000C3F30223C3F10705042D00D90425191DDF
:106DB000072901D2002300E0DB1E012606FA05F1B7
:106DC000491E214099409E40761E16403143F0BC3A
:106DD00001F080B90CED00E0064900F007020868F8
:106DE0004FF6FF03184040EA0220034A10430860B0
:106DF000704700000CED00E00000FA05BFF34F8F74
:106E000005480168054A01F4E06111430160BFF3E0
:106E10004F8F00BFFDE700000CED00E00400FA0515
:106E200010B537A401461DCC86B08DE81D0038A0F2
:106E3000384C006804900020042944D012DC012959
:106E400044D002293DD100F04DF961684FF48042F1
:106E500092FAA2F201F44041B2FA82F2D140491C06
:106E600049002CE008292ED010292AD16168226817
:106E7000D20126D54FF4701292FAA2F201F47010EA
:106E8000B2FA82F2D040C9031DF8000010D5616843
:106E90004FF4003292FAA2F201F40031B2FA82F217
:106EA000D14004AA515C1C4AB2FBF1F1484301E015
:106EB0001A4948436168490203D440000321B0FBEA
:106EC000F1F006B010BD00F025F9FAE7226AC2F32E
:106ED0000121012903D1920701D5C803F1E7022955
:106EE00005D1626A920702D549F64040E9E70329D5
:106EF000E7D121688903E4D54FF22440E1E700009F
:106F000002030405060708090A0B0C0D0E0F1010EA
:106F1000010200000010024000127A0000093D004A
:106F20002DE9F047DFF8708105460E46D8F80000DD
:106F300000F00700B0420CD2D8F8001021F0070191
:106F40003143C8F80010D8F8000000F00700B04244
:106F500077D12878514C800705D56068A96820F062
:106F6000F000084360602878C00759D069680120A4
:106F700001290DD0022929D05FF0020393FAA3F270
:106F8000B2FA82F242F02002520904D0226803E0F1
:106F90004FF40033F2E7626A93FAA3F3B3FA83F390
:106FA00003F01F03984002424BD0606820F00300BA
:106FB00008436060FFF77AFE6968074641F288304F
:106FC00001290DD00229814617D025E04FF000732A
:106FD000D4E700BFFFF76AFEC11B494501D918E09D
:106FE00081466068C0F381000128F3D118E000BF3A
:106FF000FFF75CFEC11B49450BD86068C0F38100F8
:107000000228F5D10CE000BFFFF750FEC11B494537
:1070100002D90320BDE8F087606810F00C0FF3D1AF
:10702000D8F80010404601F00701B1420BD90168C1
:1070300021F0070131430160006800F00700B04211
:1070400001D00120E6E72878400705D56068E968A7
:1070500020F4E060084360602878000706D5606887
:10706000296920F4605040EAC100606000F052F8E5
:107070006168F02292FAA2F201F0F001B2FA82F213
:10708000D140074A515CC840064908600020FFF71C
:107090002DFE0020BEE7000000200240001002404C
:1070A00098B30008200000200148006870470000E5
:1070B0002000002008480949006849684FF4E06250
:1070C00092FAA2F201F4E061B2FA82F2D140044AEB
:1070D000515CC840704700002000002000100240B2
:1070E000A8B3000808480949006849684FF460528D
:1070F00092FAA2F201F46051B2FA82F2D140044A4B
:10710000515CC84070470000200000200010024081
:10711000A8B3000810B519A385B00FCB8DE80F00F8
:107120001AA01B4B006804905A681A4802F00C0120
:1071300004291DD008291BD14FF4701494FAA4F42B
:1071400002F47011B4FA84F4E140D2031DF8011086
:1071500010D55A684FF4003393FAA3F302F40032C7
:10716000B3FA83F3DA4004AB9A5CB0FBF2F0484325
:1071700005B010BD08484843FAE7000002030405C3
:10718000060708090A0B0C0D0E0F10100102000073
:107190000010024000127A0000093D002DE9F84F6E
:1071A00004460078F74DC0074FF0010625D0686807
:1071B0007704C0F38100012807D06868C0F381001C
:1071C00002281BD16868C00318D597FAA7F0B0FA57
:1071D00080F040F02000400901D0286800E0686A93
:1071E00097FAA7F1B1FA81F101F01F0106FA01F156
:1071F00008425ED0606800287CD05AE06068B0F534
:10720000803F0BD010B1B0F5A02F11D0286820F42A
:1072100080302860286820F4802002E0286840F44C
:1072200080302860606828B3FFF740FD80460BE09F
:10723000286840F480202860F0E700BFFFF736FDA3
:10724000A0EB0800642871D897FAA7F0B0FA80F094
:1072500040F02000400901D0286800E0686A97FAF1
:10726000A7F1B1FA81F101F01F0106FA01F108421C
:10727000E4D01EE0FFF71AFD804605E0FFF716FD9B
:10728000A0EB08006428DED897FAA7F0B0FA80F0E7
:1072900040F02000400901D0286800E0686A97FAB1
:1072A000A7F1B1FA81F101F01F0106FA01F10842DC
:1072B000E4D12078DFF8D08280074FF000094FF04A
:1072C00002075BD568684FF0F80B10F00C0F07D081
:1072D0006868C0F3810002281CD16868C00319D413
:1072E00097FAA7F0B0FA80F040F02000400902D0F1
:1072F000286801E08BE0686A97FAA7F1B1FA81F19A
:1073000001F01F0106FA01F108422CD02069012882
:107310007DD128E0206990B396FAA6F0B0FA80F00B
:1073200048F82060FFF7C2FC824607E011E100BF89
:10733000FFF7BCFCA0EB0A00022884D897FAA7F05C
:10734000B0FA80F040F02000400901D0286800E049
:10735000686A97FAA7F1B1FA81F101F01F0106FA04
:1073600001F10842E4D028689BFAABF26169B2FAF5
:1073700082F220F0F80091400843286025E0FFE702
:1073800096FAA6F1B1FA81F148F82190FFF78EFC48
:10739000824605E0FFF78AFCA0EB0A000228CCD861
:1073A00097FAA7F0B0FA80F040F02000400901D031
:1073B000286800E0686A97FAA7F1B1FA81F101F054
:1073C0001F0106FA01F10842E4D1207800076ED5CA
:1073D000A069B8B396FAA6F0B0FA80F008EB800086
:1073E000C0F88064FFF762FC824605E0FFF75EFCB0
:1073F000A0EB0A000228A0D897FAA7F0B0FA80F014
:1074000040F06000B6EB501F02D128680CE062E14A
:1074100097FAA7F0B0FA80F040F06000B7EB501F89
:1074200001D1286A00E0686A97FAA7F1B1FA81F100
:1074300001F01F0106FA01F21042D7D00120FFF738
:1074400077FA34E0FFE796FAA6F1B1FA81F108EB9A
:107450008101C1F88094FFF729FC824606E000BF55
:10746000FFF724FCA0EB0A00022872D897FAA7F0D5
:10747000B0FA80F040F06000B6EB501F01D12868F0
:107480000BE097FAA7F0B0FA80F040F06000B7EB9D
:10749000501F01D1286A00E0686A97FAA7F1B1FA93
:1074A00081F101F01F0106FA01F21042D8D12078D3
:1074B000400765D5E86940F08050E861E869DFF889
:1074C000CCB000F080500090DBF8001041F48071E7
:1074D000CBF80010FFF7EAFB824605E0FFF7E6FB7A
:1074E000A0EB0A00642834D8DBF80000C005F5D50D
:1074F000E06801280AD008B1052813D0286A20F0D6
:1075000001002862286A20F0040002E0286A40F0A6
:1075100001002862E06841F2883B90B3FFF7C6FBA8
:1075200082460BE0286A40F004002862EEE700BFC4
:10753000FFF7BCFBA0EB0A0159450AD897FAA7F060
:10754000B0FA80F040F04000B6EB501F02D128683E
:107550000CE0A3E097FAA7F0B0FA80F040F040000A
:10756000B7EB501F01D1286A00E0686A97FAA7F1CB
:10757000B1FA81F101F01F0206FA02F10842D7D0F8
:1075800031E005E00010024000004242007000407F
:10759000FFF78CFB824605E0FFF788FBA0EB0A01B2
:1075A00059457BD897FAA7F0B0FA80F040F0400038
:1075B000B6EB501F01D128680BE097FAA7F0B0FA9C
:1075C00080F040F04000B7EB501F01D1286A00E086
:1075D000686A97FAA7F1B1FA81F101F01F0206FA81
:1075E00002F10842D8D1E06980B36968C1F3810132
:1075F000022970D04FF080714F000228484609D010
:1076000091FAA1F1B1FA81F148F82100FFF74EFBA0
:10761000044669E08A4691FAA1F1B1FA81F1C146C6
:1076200048F82100FFF742FB804605E0FFF73EFBEC
:10763000A0EB0800022854D897FAA7F0B0FA80F01F
:1076400040F02000400902D0286801E061E0686A4B
:1076500097FAA7F1B1FA81F101F01F0106FA01F1E1
:107660000842E3D1206AB0F5803F05D16868A1687F
:1076700020F4003008436860D4E9080108436968D1
:1076800021F47411084368609AFAAAF0B0FA80F005
:1076900049F82060FFF70AFB044606E021E000BF3E
:1076A000FFF704FB001B02281BD897FAA7F0B0FADB
:1076B00080F040F02000400901D0286800E0686AAE
:1076C00097FAA7F1B1FA81F101F01F0106FA01F171
:1076D0000842E5D01DE01EE0FFF7E8FA001B022893
:1076E00002D90320BDE8F88F97FAA7F0B0FA80F02E
:1076F00040F02000400901D0286800E0686A97FA4D
:10770000A7F1B1FA81F101F01F0106FA01F1084277
:10771000E2D10020E6E70120E4E74FF0E021042871
:10772000086903D020F004000861704740F00400AD
:10773000FAE7704710B5401EB0F1807F01D30120F9
:1077400010BD4FF0E02460610F21601700F0C2FC13
:107750000020A06107202061002010BD10B5FFF7B8
:10776000E8FF10BD30B590F83820012A20D0012262
:1077700080F83820022380F8393003685C6824F0F0
:1077800070045C6003685C680D682C435C6003688F
:107790009C6824F080049C6003689C6849680C43E2
:1077A0009C6080F83920002180F83810084630BDF0
:1077B000022030BD10B5040003D094F8390010B198
:1077C00007E0012010BD002084F83800204600F0BA
:1077D0000DF8022084F83900211D206801F064F8BA
:1077E000012084F83900002010BD00002DE9F84F79
:1077F0000546006825490026254F4FF010084FF038
:1078000080094FF4007A4FF4006B88421AD1F8696E
:1078100040F00800F861F8691F4C00F00800009083
:107820001C48C4E900082020C4E905B00002E0615A
:1078300004F10801204681E84006FFF725F8AC6214
:10784000EC6165621549286888421CD1B86940F42A
:107850000050B861B869104C00F4005000900D4819
:1078600038341438C4E900082020C4E905B0000207
:10787000E06104F10801204681E84006FFF704F8C2
:10788000AC62EC616562BDE8F88F0000000C00405E
:10789000001002401C040240F405002000340140A6
:1078A000022180F8391001680A6842F001020A607A
:1078B000012180F839100020704770B5044690F817
:1078C0003800012817D0012584F83850022084F8A8
:1078D00039002068826822F0770222F47F428260B9
:1078E0000868502837D00DDC202859D005DC88B333
:1078F000102841D151E0022070BD302853D04028DB
:107900003AD13FE060282ED070280BD0B0F5805FD0
:1079100003D0B0F5005F2FD110E02068816821F01E
:10792000070115E0CB68D1E90121206801F009F8D1
:107930002168886840F0770088601DE0CB68D1E955
:107940000121206800F0FDFF2068816841F480413A
:10795000816011E01EE0CA684968206801F048F9BA
:107960005021206806E0CA684968206801F051F992
:107970006021206800F0EFFF84F83950002084F87F
:10798000380070BDCA684968206801F031F94021AB
:107990002068EFE700212068ECE710212068E9E784
:1079A00020212068E6E730212068E3E71FB5006862
:1079B000074988420AD14FF42070009002200190BC
:1079C0000320039069460348FFF76EF81FBD0000CF
:1079D00000080040000C014070B5044690F83800E3
:1079E0000D4601280DD0012684F83860022084F865
:1079F000390042B1042A18D0082A2AD00C2A4DD1C5
:107A000039E0022070BD206801F030F820688169FB
:107A100041F0080181612068816921F004018161E0
:107A2000206881692A69114311E0206801F04EF84D
:107A30002068816941F4006181612068816921F4D5
:107A400080618161206881692A6941EA022181613E
:107A500024E0206801F070F82068C16941F0080155
:107A6000C1612068C16921F00401C1612068C16958
:107A70002A69114311E0206801F092F82068C16979
:107A800041F40061C1612068C16921F48061C16174
:107A90002068C1692A6941EA0221C16184F839601C
:107AA000002084F8380070BD10B5040003D094F8AD
:107AB000390010B107E0012010BD002084F8380023
:107AC000204600F00DF8022084F83900211D2068BE
:107AD00000F0EAFE012084F83900002010BD00000B
:107AE00008B500680649884208D10648C16941F0D6
:107AF0000401C161C06900F00400009008BD0000ED
:107B0000000800400010024010B504460068012241
:107B100000F00CFF08492068884202D007498842DB
:107B200003D1416C41F4004141642068016841F097
:107B300001010160002010BD002C01400034014013
:107B400010B504460068416921F0C0014161206B15
:107B500008B1FEF711FC606B08B1FEF70DFC0120C7
:107B600084F83900002010BD7047000038B5044685
:107B700000680168C26811F0010F02F4807204D03D
:107B80001AB1E16B41F00101E1630168C1F3400208
:107B9000416901F0010122B119B1E26B42F0040226
:107BA000E2630268C2F3800222B119B1E26B42F0D3
:107BB0000202E2630268C2F3C00222B119B1E16BB2
:107BC00041F00801E1630168C068C1F3401100F0B1
:107BD000200019B110B1204601F0ECFF20680168C7
:107BE000C068C1F3C01100F0800019B110B1204687
:107BF00002F0ECF821680868CA68C0F3801002F04F
:107C00004002012570B16AB1CA68204622F04002E4
:107C1000CA6094F83910322911D080F8395000BF69
:107C200000F00CFAE06B002808D02068016840687A
:107C3000009084F839502046FFF796FF38BD222186
:107C400080F83910ECE770B5040004D094F83900DE
:107C5000002510B106E0012070BD84F838502046A0
:107C600000F020F8022084F839002068C16821F46F
:107C70000051C160204601F0F1FF2068016921F444
:107C8000904101612068416921F02A014161206829
:107C9000C16841F40051C160E563012084F83900F6
:107CA000002070BD2DE9F04F04460068934900257F
:107CB000934F85B04FF0020A4FF0030B4FF080084E
:107CC0004FF40059884257D1B86940F48040B861F8
:107CD000B8698C4E00F4804004904815CDE9000A44
:107CE0006946CDF80CB03046FEF7DEFE3015CDE922
:107CF0000005694630460295FEF7D6FE00220121B6
:107D00002520FFF749F82520FFF73AF87F4E7E48F7
:107D100001C61020A6E821017C4846F8105975617B
:107D2000C6E90659FEF7B0FD2663012211460E2072
:107D30007462FFF731F80E20FFF722F8734E724895
:107D400038361430C6E90005C6E902583561756158
:107D5000C6E906593046FEF797FD66630022012109
:107D60000F207462FFF718F80F20FFF709F820685A
:107D7000C16841F01001C1606549206888425AD14C
:107D8000F86940F40030F861F8695E4E00F40030A4
:107D900004900420CDE9000A6946CDF80CB03046C5
:107DA000FEF782FE0820CDE90005694630460295BF
:107DB000FEF77AFE012211462620FEF7EDFF26206F
:107DC000FEF7DEFF514E504870363C3001C61020A1
:107DD000A6E821014D4846F8105970307561C6E992
:107DE0000659FEF751FD26630122114611207462E7
:107DF000FEF7D2FF1120FEF7C3FF444E4248A836DB
:107E00002830C6E90005C6E9025835617561C6E942
:107E100006593046FEF738FD6663012211461020F0
:107E20007462FEF7B9FF1020FEF7AAFF2068C16850
:107E300041F01001C1603749206888425AD1F86981
:107E400040F48020F861F869334E00F480200490FB
:107E50000815CDE9000A6946CDF80CB03046FEF7AA
:107E600023FEF014CDE90005694630460295FEF781
:107E70001BFE012211462720FEF78EFF2720FEF76A
:107E80007FFF224E2048E036283801C61020A6E8A1
:107E900021011E4846F810594F467561C6E906593A
:107EA000E030FEF7F1FC2663012211460C207462DB
:107EB000FEF772FF0C20FEF763FF1348174E1438CD
:107EC000C6E90005C6E9025835617561C6E906577D
:107ED0003046FEF7D9FC6663012211460D2074621C
:107EE000FEF75AFF0D20FEF74BFF2068C16841F0F6
:107EF0001001C16005B0BDE8F08F000000380140FE
:107F00000010024000080140440002407C090020AB
:107F10000044004000480040000C0140940A00204A
:107F200070B5044690F83900012801D0122832D1EA
:107F300069B362B394F8380001282CD0012084F88A
:107F40003800A162A2850025E56394F83900122863
:107F50001FD0222084F83900636B10489862636B4D
:107F60000F48D862636B0F48186308461346666B68
:107F7000216802463046091DFEF7AEFC20684169C3
:107F800041F04001416184F83850002070BD01206B
:107F900070BD3220DEE7022070BD00003D9B00086E
:107FA000739B00081D9B00087047704770B504461E
:107FB00090F83900012801D0222836D181B37AB354
:107FC00094F83800012830D0012084F8380021626C
:107FD000A284E2840025E56394F83900222822D0A7
:107FE0005FF0120084F83900236B11489862236B0C
:107FF0001048D862236B1048186326681346321D58
:10800000206BFEF769FC21686FF040000860206873
:10801000416941F08001416184F83850002070BD11
:10802000FFE70120FBE73220DCE70220F7E7000052
:108030007D9B0008AB9B00081D9B000870B50446A3
:1080400000680C490C4D884202D1286800F030F8D5
:108050000A492068884202D1686800F029F8084976
:108060002068884204D1A868BDE8704000F020B8BC
:1080700070BD0000003801400000002000440040B6
:10808000004800407047000008B500236A4602F02F
:108090004BFF0098002807D004494FF0805008603B
:1080A000BFF34F8FBFF36F8F08BD000004ED00E0FA
:1080B00008B5694602F074FF0098002807D004490B
:1080C0004FF080500860BFF34F8FBFF36F8F08BD34
:1080D00004ED00E00907090E002806DA00F00F00A1
:1080E00000F1E02080F8141D704700F1E02080F8D6
:1080F00000147047F0B4AC4BAA4C142293F82E50E5
:10810000A4F1500332E101280ED0022831D0032817
:1081100054D004287BD0052871D0062870D00728B9
:108120006FD00828EED10CE139B953F8226026F45B
:10813000804646F0804643F82260012907D153F873
:10814000226026F0804646F4804643F822600229E9
:108150007DD1002D7CD053F82260032A04D926F467
:10816000804646F08046E9E026F0804646F48046A8
:10817000E4E039B953F8226026F4005646F0005680
:1081800043F82260012907D153F8226026F00056F7
:1081900046F4005643F82260022958D1002D57D0EA
:1081A00053F82260032A04D926F4005646F00056FC
:1081B000C4E026F0005646F40056BFE039B954F842
:1081C000226026F4007646F0007644F82260012909
:1081D00007D154F8226026F0007646F4007644F881
:1081E0002260022933D1002D32D054F822600B2AAC
:1081F00008D926F4007646F0007678E007E02DE016
:1082000051E077E026F0007646F400766FE039B969
:1082100054F8226026F4807646F0807644F8226096
:10822000012907D154F8226026F0807646F4807642
:1082300044F8226002290AD1002D09D054F82260A6
:108240000B2A06D926F4807646F080764FE050E07F
:108250009AE026F0807646F4807648E039B954F802
:10826000226026F0800646F4000644F822600129C8
:1082700007D154F8226026F4000646F0800644F840
:108280002260022972D1002D7ED054F822600B2A80
:1082900004D926F0800646F4000628E026F40006FD
:1082A00046F0800623E039B954F8226026F04006F3
:1082B00046F4800644F82260012907D154F8226070
:1082C00026F4800646F0400644F8226002294DD18B
:1082D000002D65D054F822600B2A04D926F0400600
:1082E00046F4800603E026F4800646F0400644F893
:1082F00022603BE039B953F8226026F4004646F08C
:10830000004643F82260012907D153F8226026F085
:10831000004646F4004643F82260022926D1002D8B
:108320003ED053F822600B2A04D926F4004646F0CA
:10833000004603E026F0004646F4004643F822607B
:1083400014E039B953F8226026F4805646F080567E
:1083500043F82260012907D153F8226026F08056A5
:1083600046F4805643F82260022907D0521E92B28A
:10837000BFF4C9AEF0BC012002F058BB002D0FD0F5
:10838000032A53F8226000E00AE004D926F480565C
:1083900046F08056D2E726F0805646F48056CDE768
:1083A000F0BC7047F004002094000020044A01282B
:1083B000126803D0022800D191637047116470479E
:1083C0004005002070B5424C4FF48076D8B3414D43
:1083D000012848D004285BD0052878D101223146F5
:1083E0002046FEF75EFC95F82C100120FFF7DEFF1B
:1083F000002240212046FEF754FC00210220FFF716
:10840000D5FF00210120FFF775FE00210220FFF7B4
:1084100071FE00210820FFF76DFE00210320FFF709
:1084200069FE00210420FFF765FE00210520FFF70B
:1084300061FE00210620FFF75DFE00210720BDE858
:108440007040FFF757BE002231462046FEF729FC58
:10845000002240212046FEF724FC00210120FFF7E6
:10846000A5FF00210FE0012231462046FEF719FC4E
:10847000012240212046FEF714FC15F82C1F012094
:10848000FFF794FF6978BDE870400220FFF78EBFC8
:10849000012240212046FEF704FC95F82D10022011
:1084A000FFF784FF002231462046FEF7FAFB002149
:1084B0000120FFF77BFF01210846FFF71BFE00218B
:1084C0000220FFF717FE00210820B8E7FFE770BD84
:1084D000000C01409400002010B5002306E000BF0E
:1084E00030F8024B21F813405B1C9BB29342F7D348
:1084F00010BD00002DE9F84F83460020ABF1006469
:1085000015468A460090B4F5802F56D2FEF7BAFA87
:10851000E70AC4F34906C6F58064A54200D82C4694
:10852000DFF89C904FF0006000EBC72080464FF4CE
:1085300080622349FFF7D0FF00204FF6FF7206E06C
:10854000331839F81310914203D1401C80B2A04275
:10855000F6D3A0422BD21B48002101600121C0E9C3
:1085600002816946FEF7F0F90020494607E000BFA6
:108570003AF810208319401C21F8132080B2A04241
:10858000F6D30F4940464FF4806200BF00F01CF85C
:10859000A54210D0281B0AEB440AA344002685B24A
:1085A0004FF480647F1CA542BCD82C46BAE7224613
:1085B00051465846EAE7FEF71BFABDE8F88F00007F
:1085C000A80D0020A81500202DE9F04116460F4601
:1085D000054600240AE000BF37F81420002329468E
:1085E0000120FEF70FFA641CA4B2AD1CB442F3D311
:1085F000BDE8F08130B45EA0D0E9001482680020AC
:10860000CBB24A2B14D0462B22D04D2B2BD0412B52
:1086100034D04D2B42D04A2B0ED0412B32D0532B8D
:108620005BD04F2B64D04E2B73D0442B7CD083E097
:10863000C1F30723612B04D0C1F30723752B38D076
:108640007AE0C1F307416E2976D1110C012259E07D
:10865000C1F30723652B6FD1C1F3074162296BD1A9
:10866000110C02224EE0C1F30723612B64D1C1F348
:108670000743722B16D1110C032243E0C1F30723E9
:10868000702B04D0C1F30723752B1FD054E0C1F326
:108690000741722950D1110C042233E0C1F30723A2
:1086A000612B49D1C1F30741792945D1110C05222C
:1086B00028E0C1F307416E2902D06C2903D03BE0CA
:1086C000110C06221EE0110C07221BE0C1F307412A
:1086D000672931D1110C082214E0C1F30723652B5F
:1086E0002AD1C1F30741702926D1110C092209E0D2
:1086F000C1F30723632B1FD1C1F3074174291BD199
:10870000110C0A2202EB011161F3070014E000E0F2
:108710000AE0C1F307236F2B0ED1C1F3074176297D
:108720000AD1110C0B22EDE7C1F30723652B03D10E
:10873000C1F3074163290BD0E1B230290BD930399D
:1087400001EB8101D02303EB410101EB142104E093
:10875000110C0C22D6E7210A303961F30F20010AEF
:1087600001EB002001B230BC072001F0E3B80000AB
:108770004D617220313620323032330030B58FB047
:108780000120009000040024CDE901040225CDE978
:1087900007504FF4E01009906846FEF7FFFC0F20E9
:1087A000CDE90A056802CDE90C4002210AA80E9421
:1087B000FEF7B6FBFEF778FC4FF47A71B0FBF1F0F0
:1087C000FEF7B8FF0420FEF7A8FF00221146501E56
:1087D000FEF7E2FA0FB030BD10B5FEF76DFAFEF706
:1087E000BDFF02F05FFC012803D0BDE8104002F09D
:1087F00019BA10BD0D48016841F0010101604168DE
:108800000B4A1140416001680A4A11400160016849
:1088100021F480210160416821F4FE0141604FF4A0
:108820001F0181600449C0030860704700100240C6
:108830000000FFF8FFFFF6FE08ED00E010B5194854
:108840008AB01749016047210024C0E9011464215E
:10885000C0E90314FFF728F9079407A91148089401
:10886000FEF780FF6020CDE90004029404226946EF
:1088700004940C48FFF7B0F80C22694609480194AB
:10888000FFF7AAF80748FFF791F804210548FFF71A
:108890003BF90C210348FFF737F90AB010BD00007F
:1088A0000008004040050020F0B502681A4B1B4D3F
:1088B0001B4E1C4F1C4C4FF0804C984209D0A042DC
:1088C00007D0604505D0A84203D0B04201D0B842DD
:1088D00004D122F0700E4A6842EA0E02984209D092
:1088E000A04207D0604505D0A84203D0B04201D0D5
:1088F000B84203D122F44075CA682A4302608A68EC
:10890000C2620A688262984201D0A04201D109691C
:10891000016301214161F0BD002C014000040040D1
:1089200000080040000C00400034014010B5012355
:10893000046A8B409C430462036A8A4013430362C7
:1089400010BD10B5846842EA032224F47F440A4330
:108950002243826010BD826822F070020A4342F016
:1089600007018160704700002DE9F04186B00024C6
:10897000394D00940194029403940494354805946D
:1089800028604726C5E901644FF07D08C5E90384E6
:1089900028466C61FEF70EFF4FF480576946284663
:1089A0000097FEF78AFF049404A928460594FEF771
:1089B000D9FE1420294AA5F58C7102E0136841F80C
:1089C0002030401E0004000CF8D12868C16841F432
:1089D0008071C16014232249E869FDF77DFF1E48BC
:1089E000FEF75EFF1C4D1F483C3D2860C5E9016451
:1089F000C5E9038428466C61FEF7DCFE694628461B
:108A00000097FEF75AFF049404A928460594FEF740
:108A1000A9FE1420144AA5F18C0102E0136941F863
:108A20002030401E0004000CF8D12868C16841F4D1
:108A30008071C1600C4A0A49142310325031E86930
:108A4000FDF74AFF04483C38FEF72AFF06B0BDE8B0
:108A5000F081000000340140B8050020100C0140F6
:108A6000A0040020000C004000100140F0B5026A94
:108A700022F001020262036A42688469124E24F005
:108A800073050C682C4323F002058B682B430D4DB6
:108A9000A84201D0B04205D123F00807CB683B4380
:108AA00023F00403A84201D0B04205D14D6922F45D
:108AB000407215438A692A43426084614968416370
:108AC0000362F0BD002C014000340140F0B5026AA1
:108AD00022F010020262026A436884690D6824F47D
:108AE000E64444EA05248D6822F0200242EA051299
:108AF0000F4D104EA84201D0B04206D1CF6822F0EF
:108B0000800242EA071222F04002A84201D0B0429D
:108B100007D14D6923F4406343EA85038D6943EA35
:108B2000850343608461496881630262F0BD00008F
:108B3000002C014000340140F0B5026A22F480723A
:108B40000262026A4368C46922F4007224F0730569
:108B50000C68124E2C438D6842EA05220E4DA84245
:108B600001D0B04206D1CF6822F4006242EA072267
:108B700022F48062A84201D0B04207D14D6923F4AB
:108B8000405343EA05138D6943EA05134360C4610A
:108B90004968C1630262F0BD002C0140003401400D
:108BA00030B5026A22F480520262046A4268C369E4
:108BB0000D6823F4E64343EA05238D6824F400544A
:108BC00044EA0534084DA84202D0084DA84204D119
:108BD0004D6922F4804242EA85124260C3614968CD
:108BE0000164046230BD0000002C014000340140EB
:108BF00010B5036A046A24F001040462846924F055
:108C0000F00444EA021423F00A020A438461026277
:108C100010BD10B5036A23F0100303628369046A70
:108C200023F4704343EA023224F0A00343EA011123
:108C30008261016210BD0000F54C4FF0030901256F
:108C400084F8019065744FF0060A84F814A084F843
:108C500015A0E5754FF0020884F829800920211835
:108C6000401CC0B24D741628F9D9002794F89E0014
:108C7000012877D1A078012874D1C82001F0D6FE50
:108C80006078022802D0042803D00FE0A7700B20E0
:108C900076E0A770E77184F8D3700520FFF792FBA8
:108CA000207D801C2070257184F80680607805285E
:108CB00005D1A7700120FFF785FB84F80480607858
:108CC000072809D1A770E7710520FFF77BFB207DFE
:108CD000801C207084F804906078082808D00D2843
:108CE0000AD009280CD013280FD00A2812D017E078
:108CF000A770E7710C2043E0A770E7710D203FE0FB
:108D0000A7702770E77104203AE0A7702770E77119
:108D1000112035E0A7700120FFF754FB05202071DA
:108D200060780B2809D1A77084F89F7084F8A07030
:108D30000120FFF747FB84F804A060780C2809D1D4
:108D4000A77084F89F7084F8A0700120FFF73AFBA9
:108D5000072020716078112805D012280AD00F282A
:108D600010D019E02AE0A77084F89F7084F8A070F2
:108D70000F2005E0A77084F89F7084F8A070102081
:108D80002071E7E0A770E7710520FFF71BFB207D4E
:108D9000801C207008202071607806280BD1A770F5
:108DA000E77184F8D3700520FFF70CFB207D801C51
:108DB00020700920207160780E2803D06078012887
:108DC00009D01BE0A770E773277484F8D17084F88A
:108DD000D2700A20D4E70020FFF7F4FA94F8CE000E
:108DE00001280BD184F8CE700020FCF773FE94F8B4
:108DF0009E0018B90121062000F08AFD6078102835
:108E000002D0032803D01FE00E2020711CE0FFF7E2
:108E1000F1FB142001F00AFEB4F99210082000F0D2
:108E200089FD142001F002FEB4F9E2100D2000F0DB
:108E300081FD142001F0FAFDB4F9E4100E2000F0D9
:108E400079FD142001F0F2FDA078022825D1A77049
:108E5000952627710020FFF7B5FA0120FCF73AFEAE
:108E6000A078012807D0032805D0022800D1A770D8
:108E7000761EF6B2EDD20020FCF72CFE644894F882
:108E8000D41082300F54624994F8D400753147549D
:108E90005F4894F8D4107B300F54A078032859D140
:108EA0000020FFF78FFA00210320FFF723F90021AC
:108EB0000420FFF71FF900210520FFF71BF900210F
:108EC0000620FFF717F900210720FFF713F984F8B0
:108ED000827084F8837084F8847084F8767084F8E3
:108EE000777084F8787084F8797084F87A7084F8F0
:108EF0007D7084F87E7084F87F7084F8807084F8C8
:108F00008170A771677167702771A77084F89F706F
:108F100084F8A07084F8D370A4F8E670012065345A
:108F2000FCF7D8FD4FF4FA7001F080FD642604F8D8
:108F3000637C653C07E00A2001F078FD94F89E0010
:108F400028B1A07818B9761E16F0FF06F3D10020DC
:108F5000FCF7C0FD012001F069FD207908B9FBF79D
:108F600065FC2079012801D1FBF762FC20790228F9
:108F700001D1FCF7BBFA2079032801D1FCF79CFB57
:108F80002079042801D1FCF767FC2079052801D15C
:108F9000FCF763FC2079062801D1FCF75FFC2079FF
:108FA000072801D1FCF75BFC2079082801D1FCF7E8
:108FB00057FC2079092801D1FCF753FC20790A28B5
:108FC00001D1FBF789FE20790B2801D1FBF77AFF4D
:108FD00020790C2801D1FBF776FF20790D2801D1EB
:108FE000FBF772FF20790E2801D1FBF76FFF207984
:108FF0000F2801D1FCF71CF82079102801D1FCF7CB
:109000004BF9207911287FF431AEFCF76DFA2DE68B
:109010009400002008B5084C4FF0FF3500232A4685
:109020006946606901F032FE0128F7D1009890F896
:10903000C81000F0A5FCF1E70000002008B5084CBE
:109040004FF0FF3500232A466946206801F01EFED6
:109050000128F7D1009890F8C81000F0DFFAF1E786
:109060000C0000200526164C4FF019080025207929
:109070000E2818D1B80090FBF6F1B4F99400B4F9B9
:109080009620B4F99A301044B4F998201A44104448
:10909000B4F99C20024492FBF8F0084407B2394628
:1090A000082000F047FC642001F0C0FCE0780128B3
:1090B000DDD1E57001210B2000F02AFCD7E700008C
:1090C00094000020F54800274FF0010ADFF8D09304
:1090D00080F89EA03D463E4683465C469BF82C00A9
:1090E000142802D2142084F82C0094F82D0014289F
:1090F00002D2142084F82D000120DFF8A8C340F22A
:10910000E2480A215CF8202040F23D635A4392FB7A
:10911000F8F204EB4003A2F20F5212B2A3F892202D
:1091200092FBF1F2401CC0B2A3F886200528E9D9D1
:10913000B4F9920090FBF1F0A4F88600A4F89270C4
:109140005FF0010004EB4001B4F99220B1F99210F4
:10915000914201DDA4F89210401CC0B20528F1D95B
:10916000142001F063FC80214846FDF791FD94F83E
:109170009E10A046884269D0642001F057FC8021EF
:109180004846FDF785FD98F89E1088425ED0802104
:109190004846FDF77DFD88F89E00E8BB01210620CA
:1091A00000F0B6FB98F80110032939D05FF0630492
:1091B00088F804700020FFF705F90120FCF78AFC0D
:1091C0000A2001F033FC80214846FDF761FD0128AB
:1091D00010D188F804700020FFF7F4F80120FCF7A4
:1091E00079FC642001F022FC80214846FDF750FD07
:1091F00001281AD0641EE4B2DAD20020FCF76AFC1F
:109200004046A64910F8D42F8231575402780D39C0
:10921000575498F8D41000E002E0A0487B300F5477
:1092200098F89E0001280DD010E088F80470002006
:10923000FFF7C8F80120FCF74DFC4FF4AF6001F0D8
:10924000F5FBDAE70021062000F062FBB8F98600A2
:109250004446462804DB50280BDC2179022908D13A
:10926000514661F30F056AF30F0661F31F456AF378
:109270001F46822809DD6178032908D02904090CDA
:1092800005D0491C61F30F0501E0502807DDA17CE2
:10929000012904D1290C02D0491C61F31F455A2829
:1092A00007DD617C29B93104090C02D0491C61F346
:1092B0000F06642807DD607C022804D1300C02D040
:1092C000401C60F31F46A8B2142808D8280C1428A4
:1092D00005D8B0B2142802D8300C142878D92079D7
:1092E00001280DD003280BD0042809D0082807D066
:1092F000092805D00B2803D00C2801D00D2803D154
:109300002278217D8A421FD3022807D005281BD04E
:109310002146062813D0072811D09BE0A17A2046C9
:10932000012911D0C17A01290ED0017B01290BD06E
:10933000417B012908D0A07B012805D08AE091F863
:10934000A000217D88427DD20020FFF73BF8A8B223
:1093500014287FD92079A046042824D0052822D0BB
:10936000062820D007281ED00D281CD00120FCF78D
:10937000B1FB0020FFF726F84FF4617001F056FBB7
:1093800098F80400012813D0032811D004280FD026
:1093900008280DD009280BD00B2809D00C2807D09D
:1093A0000D2805D00AE001210820FEF7A3FEE0E722
:1093B00098F8001098F81420914223D3022808D07E
:1093C000052861D04146062816D0072814D02DE084
:1093D00048E098F80A10404601291DD0C17A0129B9
:1093E0001AD0017B012917D0417B012914D098F8AC
:1093F0000E00012810D027E091F8A02098F8141052
:109400008A4213D204283FD005283DD006283BD0FD
:10941000072839D00D2837D00120FCF75BFB00204E
:10942000FEF7D0FF4FF4617001F000FB98F80400E4
:1094300004282ED005282CD006282AD0072828D08A
:109440000D2800E006E024D00020FCF743FB0020BC
:10945000FEF7B8FF67F30F0567F30F0667F31F45C5
:1094600067F31F46B4F986003C287FF736AEE07DEF
:1094700000287FF432AE94F82C100320B1FBF0F1F9
:109480000120FEF793FF28E601210820FEF732FEB7
:10949000C5E700210820FEF72DFED8E79400002044
:1094A00000080140280D0020DFF878A06421DFF8D3
:1094B00078908AF82C108AF82D1001214846FDF783
:1094C000E7FB404508D001214846FDF7E1FB804617
:1094D000012801D1761CB6B202214846FDF7D8FB1F
:1094E000B84208D002214846FDF7D2FB07460128C2
:1094F00001D16D1CADB22046641CA4B2C8280CD9A1
:10950000C6EB06108100AAF8E210C5EB0511890030
:109510000024AAF8E41026462546052001F086FA24
:10952000CBE7000094000020000C01400727002634
:10953000244CDFF8949001254FF47A78207D03289D
:1095400000D22775607D032800D26775207D617D7C
:109550002278014491420BD82670A27912B1022AD6
:1095600002D002E0A57100E0A671042284F8E02098
:109570002278824204D8012A02D1E57184F8E050B1
:10958000824209D9914207D9401C824204D102206B
:10959000E071032084F8E000404601F047FA2079AA
:1095A00010B12078401C207094F89E0028B1002251
:1095B00010214846FDF775FBC0E710214846FDF72E
:1095C0006CFBBBE794000020000C0140124F1420FC
:1095D0004FF47A78A7F8CC000025FBF7D1F8FAF71A
:1095E00059FEC6B25FF00104FBF7CAF8FAF752FE63
:1095F000C0B2B04201D16D1CEDB2C82001F016FA24
:10960000641CE4B2052CEFD9052D01D3A7F8CC607A
:10961000404601F00BFADFE7940000202DE9F04FFF
:1096200006464078317840F2062B00EB01201FFA05
:1096300080F8F078B178B34C00EB012087B27079F4
:10964000317985B000EB012085B24FF001094FF070
:10965000050AD84574D141F20100012F15D0874287
:109660004CD1002004210322192D6AD2DFE805F035
:10967000CC6A6F717375797B7D7F81838587898BD8
:109680008D8F9497999BA0A2A4004FF48071132D05
:1096900034D2DFE805F0970A0C0F111416191B1EBF
:1096A000202325282A2D2F344300012100E000210A
:1096B000012021E0012100E0002102201CE0012125
:1096C00000E00021032017E0012100E00021042038
:1096D00012E0012100E0002105200DE0012100E061
:1096E0000021062008E0012100E00021072003E01E
:1096F000012100E000210820FEF7FCFC62E00122CD
:109700008148FDF7CEFA012240217F48FDF7C9FAD2
:1097100064210120FEF74AFE64210DE000227A4810
:10972000FDF7BFFA002240217748FDF7BAFA002181
:109730000120FEF73BFE00210220FEF737FE41E04C
:109740003CE061E084F8019084F8CE903AE0022198
:1097500001E0627003E0617001E084F801A0A07094
:1097600030E00621F7E70721F5E70821F3E70921B3
:10977000F1E70A21EFE70B21EDE70C21EBE70D21E3
:10978000E9E70E21E7E70F21E5E71021E3E784F899
:10979000029084F8039015E00220A07005E0A2700A
:1097A00003E0A17001E084F802A084F8039009E0CE
:1097B0001121D0E71221CEE71321CCE7A8F50070E4
:1097C000163808D0A8F50071163915D0D84519D12A
:1097D000022F2BD018E0A7F5805002380CD1322D83
:1097E0000AD300BF06EB40012218401CC979C0B261
:1097F00051743228F6D305E0A7F580500B3801D11B
:109800000C2D06D0D84556D1032F12D0052F3DD0B0
:109810003EE0002006EB40012218401CC979C0B28E
:1098200091760628F6D305B0BDE8F08F84F8D050C5
:10983000EAE728B2A4F8E800B4F99410B4F9962045
:10984000B4F99A301144B4F998201A441144B4F987
:109850009C200A4492FBFAF31B1A13F10A0F07DC4F
:1098600092FBFAF1091A0A2902DBA4F8E6900FE04C
:109870000221A4F8E610002802DD00F1140002E045
:1098800006DAA0F11400A4F8EA0001E084F8CF5051
:10989000062F05D1E9B284F82C100120FEF786FDD1
:1098A000072FC0D1E9B284F82D1005B00220BDE821
:1098B000F04FFEF77BBD4AF25A508045B3D1B7F561
:1098C000034FB0D1F179B27901EB0221ADF800106C
:1098D000317AADF80410ADF80800012269460B4852
:1098E000FEF708FE0948012201A9801CFEF702FECE
:1098F0000648012202A9001DFEF7FCFDFDF77EFAD5
:1099000091E7000094000020000C014020F80308BB
:10991000074A30B401231370062353700024947057
:10992000D0701471517130BC19461046FAF75EBF01
:109930001003002030B4084A0123002413700623CA
:1099400053709470D070080A1071517130BC194670
:109950001046FAF74BBF00008001002030B4074BDF
:1099600001241C7006245C709870D970100A18715C
:109970005A71214630BC1846FAF738BF4802002019
:1099800010B501788278012909D101231B490A2ADF
:1099900006D0022A03D10079032800D10B7410BD30
:1099A000CB730279C37802EB0322A1F8AA20827953
:1099B000437902EB0322A1F8AC20027AC37902EBCF
:1099C0000322A1F8AE20827A437A02EB0322A1F8A7
:1099D000B020027BC07A02EB0020A1F8B200012087
:1099E00001EB4002401C32F8A83FC0B294891C1B16
:1099F000148393810528F3D910BD00009400002042
:109A00002DE9F00F00210123424AF02505270C46DD
:109A10004FF006084FF002094FF0030C4FF0040A14
:109A20004FF0070B01280BD0CA26022813D00328B9
:109A30001AD0042823D005282FD0062852D063E05E
:109A4000137082F801809570D470147153717B206B
:109A500090710A201EE0137082F801809570D47016
:109A600014715471BA2007E0137082F80180957068
:109A7000D370147153712A209071D6710BE013705A
:109A800082F801809570D370147182F805906A2075
:109A90009071CB20D071082136E01F48C57CE020B2
:109AA000012D01D05DB12FE0137082F801C09070DC
:109AB000D47014715771B22090710920EAE75354A1
:109AC000491C02F801A0491C5054491CC920545497
:109AD000491C5454491C5754491C02F801B0491CF4
