:020000040800F2
:10000000D00C0020450100084D0100084F010008F8
:1000100051010008530100085501000800000000CC
:100020000000000000000000000000005701000870
:1000300059010008000000005B010008E1190008F8
:100040005F0100085F0100085F0100085F01000810
:100050005F0100085F0100085F0100085F01000800
:100060005F0100085F0100085F0100085F010008F0
:100070005F0100085F0100085F0100085F010008E0
:100080005F0100085F0100085F0100085F010008D0
:100090005F0100085F0100085F0100085F010008C0
:1000A0005F0100085F0100085F0100085F010008B0
:1000B0005F0100085F0100085F0100085F010008A0
:1000C0005F0100085F0100085F0100085F01000890
:1000D0005F010008491D00085F0100085F0100087A
:1000E0005F0100085F0100085F0100085F01000870
:1000F0005F0100085F0100085F0100085F01000860
:100100005F0100085F0100085F0100085F0100084F
:100110005F0100085F0100085F0100085F0100083F
:100120005F0100085F0100085F0100085F0100082F
:10013000DFF80CD000F03EF800480047A91F000887
:10014000D00C00200648804706480047FEE7FEE73F
:10015000FEE7FEE7FEE7FEE7FEE7FEE7FEE7FEE777
:10016000F119000831010008202A04DB203A21FAA5
:1001700002F00021704721FA02F3D040C2F12002C0
:10018000914008431946704730B50B4601460020A0
:100190002022012409E021FA02F59D4205D303FA49
:1001A00002F5491B04FA02F52844151EA2F10102CA
:1001B000F1DC30BD064C074D06E0E06840F001037D
:1001C00094E8070098471034AC42F6D3FFF7B4FF29
:1001D000E821000808220008034610B50020024666
:1001E00003E09C5C6040521C92B28A42F9D310BD7D
:1001F00008B54FF6FF70ADF80000012269460248CD
:1002000001F0E2FA08BD000024F8030806490020C6
:10021000C8610648016941F004010161016941F0CA
:100220004001016170470000B0080020002002403A
:10023000064A0021D16106490A6942F002020A61B8
:100240004861086940F0400008617047B00800202C
:1002500000200240044B0022DA61044A136943F093
:100260000103136101807047B008002000200240A4
:100270000E49C868C2060E4803D5C26942F00202A0
:10028000C261CA68520703D5C26942F00102C26165
:10029000CA69D20707D0C26942F00402C261C869C4
:1002A00020F00100C8611420C8607047002002409F
:1002B000B008002070B5054600F0B0FA0646114CB3
:1002C00009E0681C07D025B100F0A8FA801BA842FD
:1002D00001D9032070BDE068C007F2D1E068800654
:1002E00001D52020E060E068C00605D4E069C007C1
:1002F00002D1E068400703D5FFF7BAFF012070BDC7
:10030000002070BD0020024070B5264886B081698B
:1003100041F004018161816901F004010491816966
:1003200041F008018161816901F00801049181694E
:1003300041F010018161806900F0100004901A48BA
:10034000416821F0E06141F000714160174E0122E7
:100350002021304600F05CFA01221402214630468A
:1003600000F056FA01221021304600F051FA0094B4
:1003700001240225694630460395019400F054F9A2
:100380002020CDE9000469460395304600F04CF981
:100390001020CDE9000469460395304600F044F989
:1003A00006B070BD0010024000000140000C01408A
:1003B00031B500F033FA044600F030FA0099001B22
:1003C0008842F9D338BD00002DE9F047054626489C
:1003D0000F460126017E01290FD0012181460176B9
:1003E0002868DFF888804CF25034022808D0A246F2
:1003F0002046FFF75FFFA8B131E00220BDE8F0879B
:100400002046FFF757FF08BB0120FFF7FFFE2046FD
:10041000FFF750FFD8F81010064621F00401C8F885
:1004200010101CE04FF0FF303860AC6811E020463F
:10043000FFF7FEFE5046FFF73DFFD8F8101006000C
:1004400021F00201C8F8101001D03C6007E004F56B
:100450000064D5E9020100EBC120A042E7D80021E9
:1004600089F818103046C9E7B00800200020024083
:100470000348016941F080010161002070470000DC
:10048000002002402DE9F05F07461C488846002402
:10049000017E15461E46012909D0012181460176BB
:1004A0004CF2503A5046FFF705FF18B122E0022007
:1004B000BDE8F09F012F02D0022F00D00427D346C1
:1004C000DFF83CA0220128463146FFF74DFE81B2FD
:1004D00008EB4400FFF7BEFE5846FFF7EBFEDAF8E4
:1004E000102022F00102CAF8102018B9641CE4B2EE
:1004F000BC42E7D3002289F81820D9E7B0080020D1
:100500000020024005480169090605D504494160FB
:1005100004494160002070470120704700200240DC
:1005200023016745AB89EFCD2DE9F04300230F246C
:10053000DFF8D4C063E001229A400A405ED0FF2A6F
:1005400001D8074601E000F104074FEA830601D90C
:10055000A6F12006D7F8008004FA06F54FF004094A
:1005600028EA050809FA06F948EA0908C7F80080E8
:10057000C56825EA0205C56023F003056544AF6838
:100580004FEA83764FEA167604FA06F909EA070875
:100590001E4FB84201D1002719E01D4FB84201D1CA
:1005A000012714E01B4FB84201D102270FE01A4F78
:1005B000B84201D103270AE0184FB84201D10427FD
:1005C00005E0174FB84201D1052700E00627B740E4
:1005D000474513D1AF6827EA0907AF60114D2E6870
:1005E00096432E602D1D2E6896432E602D1D2E687D
:1005F00096432E602D1D2E6896432E605B1C31FAAB
:1006000003F298D1BDE8F0830000014000080140EA
:10061000000C01400010014000140140001801408E
:10062000001C0140000401402DE9F84FDFF8B8A19B
:1006300000220AF1040B144601274FF00F090BF1B9
:10064000040E00BF0B6807FA04F52B40AB4274D1CF
:10065000DFF898C14E68A6EB0C0866452BD00DDC80
:10066000032E34D005DC36B3012E19D0022E2FD143
:100670001BE0112E16D0122E2AD119E0B8F5881FD2
:1006800019D006DCB8F5803F15D0B8F5801F1FD112
:1006900011E0B8F5001F0ED0B8F5041F18D10AE01C
:1006A000CA6815E0CA68121D12E0CA6808320FE075
:1006B000CA680C320CE08A682AB1012A4FF008029D
:1006C00003D0456104E0042202E0056100E000225D
:1006D000FF2B01D8064601E000F104064FEA84052D
:1006E00001D9A5F12005D6F800C009FA05F82CEAD1
:1006F000080C02FA05F54CEA050CC6F800C04D6876
:10070000ED006AD53A4DAE6946F00106AE61AD69BD
:1007100024F0030605F001050095364D06EB050CA7
:10072000DCF80850A6074FEA167809FA08F6B54330
:10073000314EB04202D100261AE04EE02F4EB042B8
:1007400001D1012614E02E4EB04201D102260FE065
:100750002C4EB04201D103260AE02B4EB04201D10B
:10076000042605E0294EB04201D1052600E0062608
:1007700006FA08F62E43CCF808604D68DAF80060F7
:10078000ED03554601D51E4300E09E432E604D68A3
:10079000AD0305D5DBF800601E43CBF8006004E034
:1007A000DBF800509D43CBF800504D68DEF8006048
:1007B000ED02754601D51E4300E09E432E604D6854
:1007C000AD0205D5084D0C352E681E432E6004E0A1
:1007D000054E0C3635689D433560641C102CFFF4C3
:1007E00031AFBDE8F88F0000000401400000111097
:1007F000001002400000014000080140000C0140D0
:10080000001001400014014000180140001C01408C
:100810000AB1016170470904FBE700000148006864
:10082000704700001400002002480168491C016064
:100830007047000014000020074810B5016841F01F
:1008400010010160032000F089F8002000F006F894
:1008500000F016F8002010BD0020024010B504463C
:1008600000F07CF94FF47A71B0FBF1F000F0BCFCC1
:1008700000222146501E00F051F8002010BD00005B
:100880001A4808B5816941F001018161806900F071
:1008900001000090052000F061F8002211466FF081
:1008A0000B0000F03BF8002211466FF00A0000F048
:1008B00035F8002211466FF0090000F02FF80022F1
:1008C0001146501F00F02AF800221146101F00F0B8
:1008D00025F800221146901E00F020F80022BDE805
:1008E00008401146501E00F019B8000000100240E8
:1008F00000F01F02012191404009800000F1E0203A
:10090000C0F88011704700F01F020121914040099A
:10091000800000F1E020C0F800117047F0B40E4BE9
:100920001B680C46C3F30223C3F10705042D00D94D
:100930000425191D072901D2002300E0DB1E012632
:1009400006FA05F1491E214099409E40761E164048
:100950003143F0BC00F0F8BE0CED00E0064900F0B9
:10096000070208684FF6FF03184040EA0220034AD6
:1009700010430860704700000CED00E00000FA052D
:100980002DE9F047DFF8708105460E46D8F80000E3
:1009900000F00700B0420CD2D8F8001021F0070197
:1009A0003143C8F80010D8F8000000F00700B0424A
:1009B00077D12878514C800705D56068A96820F068
:1009C000F000084360602878C00759D069680120AA
:1009D00001290DD0022929D05FF0020393FAA3F276
:1009E000B2FA82F242F02002520904D0226803E0F7
:1009F0004FF40033F2E7626A93FAA3F3B3FA83F396
:100A000003F01F03984002424BD0606820F00300BF
:100A100008436060FFF702FF6968074641F28830CB
:100A200001290DD00229814617D025E04FF000732F
:100A3000D4E700BFFFF7F2FEC11B494501D918E01A
:100A400081466068C0F381000128F3D118E000BF3F
:100A5000FFF7E4FEC11B49450BD86068C0F3810075
:100A60000228F5D10CE000BFFFF7D8FEC11B4945B5
:100A700002D90320BDE8F087606810F00C0FF3D1B5
:100A8000D8F80010404601F00701B1420BD90168C7
:100A900021F0070131430160006800F00700B04217
:100AA00001D00120E6E72878400705D56068E968AD
:100AB00020F4E060084360602878000706D560688D
:100AC000296920F4605040EAC100606000F07CF8C1
:100AD0006168F02292FAA2F201F0F001B2FA82F219
:100AE000D140074A515CC840064908600020FFF722
:100AF000B5FE0020BEE700000020024000100240CA
:100B0000D021000804000020104810B5416821F0F1
:100B10000301416001680E4A11400160016821F43F
:100B200080210160002141600268F82494FAA4F455
:100B30001023B4FA84F422F0F802A3401A430260AE
:100B4000816005490348086010BD000000100240A4
:100B5000FFFFF6FE00127A00040000200148006842
:100B600070470000040000200848094900684968EF
:100B70004FF4E06292FAA2F201F4E061B2FA82F27A
:100B8000D140044A515CC840704700000400002076
:100B900000100240E021000808480949006849683F
:100BA0004FF4605292FAA2F201F46051B2FA82F26A
:100BB000D140044A515CC840704700000400002046
:100BC00000100240E021000810B519A385B00FCB3A
:100BD0008DE80F001AA01B4B006804905A681A4851
:100BE00002F00C0104291DD008291BD14FF4701408
:100BF00094FAA4F402F47011B4FA84F4E140D2033C
:100C00001DF8011010D55A684FF4003393FAA3F37E
:100C100002F40032B3FA83F3DA4004AB9A5CB0FB1F
:100C2000F2F0484305B010BD08484843FAE7000019
:100C300002030405060708090A0B0C0D0E0F10101D
:100C4000010200000010024000127A0000093D007D
:100C50002DE9F84F04460078F74DC0074FF0010624
:100C600025D068687704C0F38100012807D0686840
:100C7000C0F3810002281BD16868C00318D597FA19
:100C8000A7F0B0FA80F040F02000400901D02868B9
:100C900000E0686A97FAA7F1B1FA81F101F01F014B
:100CA00006FA01F108425ED0606800287CD05AE064
:100CB0006068B0F5803F0BD010B1B0F5A02F11D017
:100CC000286820F480302860286820F4802002E022
:100CD000286840F480302860606828B3FFF79EFDE4
:100CE00080460BE0286840F480202860F0E700BFD1
:100CF000FFF794FDA0EB0800642871D897FAA7F0DD
:100D0000B0FA80F040F02000400901D0286800E0EF
:100D1000686A97FAA7F1B1FA81F101F01F0106FAAA
:100D200001F10842E4D01EE0FFF778FD804605E0BF
:100D3000FFF774FDA0EB08006428DED897FAA7F04F
:100D4000B0FA80F040F02000400901D0286800E0AF
:100D5000686A97FAA7F1B1FA81F101F01F0106FA6A
:100D600001F10842E4D12078DFF8D08280074FF00B
:100D700000094FF002075BD568684FF0F80B10F0E0
:100D80000C0F07D06868C0F3810002281CD1686886
:100D9000C00319D497FAA7F0B0FA80F040F0200011
:100DA000400902D0286801E08BE0686A97FAA7F151
:100DB000B1FA81F101F01F0106FA01F108422CD0CD
:100DC000206901287DD128E0206990B396FAA6F029
:100DD000B0FA80F048F82060FFF720FD824607E077
:100DE00011E100BFFFF71AFDA0EB0A00022884D82A
:100DF00097FAA7F0B0FA80F040F02000400901D047
:100E0000286800E0686A97FAA7F1B1FA81F101F069
:100E10001F0106FA01F10842E4D028689BFAABF200
:100E20006169B2FA82F220F0F8009140084328602C
:100E300025E0FFE796FAA6F1B1FA81F148F8219092
:100E4000FFF7ECFC824605E0FFF7E8FCA0EB0A00A8
:100E50000228CCD897FAA7F0B0FA80F040F0200032
:100E6000400901D0286800E0686A97FAA7F1B1FA52
:100E700081F101F01F0106FA01F10842E4D1207866
:100E800000076ED5A069B8B396FAA6F0B0FA80F064
:100E900008EB8000C0F88064FFF7C0FC824605E0E4
:100EA000FFF7BCFCA0EB0A000228A0D897FAA7F035
:100EB000B0FA80F040F06000B6EB501F02D1286815
:100EC0000CE062E197FAA7F0B0FA80F040F0600021
:100ED000B7EB501F01D1286A00E0686A97FAA7F1C2
:100EE000B1FA81F101F01F0106FA01F21042D7D0E8
:100EF0000120FFF75DFA34E0FFE796FAA6F1B1FAB8
:100F000081F108EB8101C1F88094FFF787FC8246EC
:100F100006E000BFFFF782FCA0EB0A00022872D8AF
:100F200097FAA7F0B0FA80F040F06000B6EB501FDF
:100F300001D128680BE097FAA7F0B0FA80F040F0F2
:100F40006000B7EB501F01D1286A00E0686A97FA89
:100F5000A7F1B1FA81F101F01F0106FA01F2104286
:100F6000D8D12078400765D5E86940F08050E86125
:100F7000E869DFF8CCB000F080500090DBF800109A
:100F800041F48071CBF80010FFF748FC824605E081
:100F9000FFF744FCA0EB0A00642834D8DBF800001B
:100FA000C005F5D5E06801280AD008B1052813D09E
:100FB000286A20F001002862286A20F0040002E07C
:100FC000286A40F001002862E06841F2883B90B353
:100FD000FFF724FC82460BE0286A40F004002862F8
:100FE000EEE700BFFFF71AFCA0EB0A0159450AD84B
:100FF00097FAA7F0B0FA80F040F04000B6EB501F2F
:1010000002D128680CE0A3E097FAA7F0B0FA80F0CC
:1010100040F04000B7EB501F01D1286A00E0686A39
:1010200097FAA7F1B1FA81F101F01F0206FA02F175
:101030000842D7D031E005E00010024000004242F3
:1010400000700040FFF7EAFB824605E0FFF7E6FB91
:10105000A0EB0A0159457BD897FAA7F0B0FA80F0C7
:1010600040F04000B6EB501F01D128680BE097FA22
:10107000A7F0B0FA80F040F04000B7EB501F01D16C
:10108000286A00E0686A97FAA7F1B1FA81F101F0E5
:101090001F0206FA02F10842D8D1E06980B36968FC
:1010A000C1F38101022970D04FF080714F000228F6
:1010B000484609D091FAA1F1B1FA81F148F821002E
:1010C000FFF7ACFB044669E08A4691FAA1F1B1FA58
:1010D00081F1C14648F82100FFF7A0FB804605E0FA
:1010E000FFF79CFBA0EB0800022854D897FAA7F062
:1010F000B0FA80F040F02000400902D0286801E0FA
:1011000061E0686A97FAA7F1B1FA81F101F01F0175
:1011100006FA01F10842E3D1206AB0F5803F05D11B
:101120006868A16820F4003008436860D4E90801C9
:101130000843696821F47411084368609AFAAAF0B8
:10114000B0FA80F049F82060FFF768FB044606E03B
:1011500021E000BFFFF762FB001B02281BD897FAB3
:10116000A7F0B0FA80F040F02000400901D02868D4
:1011700000E0686A97FAA7F1B1FA81F101F01F0166
:1011800006FA01F10842E5D01DE01EE0FFF746FB3C
:10119000001B022802D90320BDE8F88F97FAA7F0B8
:1011A000B0FA80F040F02000400901D0286800E04B
:1011B000686A97FAA7F1B1FA81F101F01F0106FA06
:1011C00001F10842E2D10020E6E70120E4E74FF018
:1011D000E0210428086903D020F00400086170476A
:1011E00040F00400FAE7704710B5401EB0F1807F70
:1011F00001D3012010BD4FF0E02460610F21601782
:1012000000F0A2FA0020A06107202061002010BD9C
:1012100010B5FFF7E8FF10BD70B5040018D002202C
:1012200084F839002068C16821F40051C160206849
:101230000025C5602068056120684561204600F0F2
:10124000A7F8E56384F8395084F83850002070BD61
:10125000012070BD7047000038B504460068016881
:10126000C26811F0010F02F4807204D01AB1E16B70
:1012700041F00101E1630168C1F34002416901F0FD
:10128000010122B119B1E26B42F00402E26302688B
:10129000C2F3800222B119B1E26B42F00202E263B2
:1012A0000268C2F3C00222B119B1E16B41F008013A
:1012B000E1630168C068C1F3401100F0200019B17A
:1012C00010B1204600F0B8FB20680168C068C1F387
:1012D000C01100F0800019B110B1204600F0B8FC38
:1012E00021680868CA68C0F3801002F04002012536
:1012F00070B16AB1CA68204622F04002CA6094F810
:101300003910322911D080F8395000BF00F0A6F909
:10131000E06B002808D0206801684068009084F8DD
:1013200039502046FFF796FF38BD222180F839104A
:10133000ECE770B5040004D094F83900002510B132
:1013400006E0012070BD84F83850204600F05CF8BB
:10135000022084F839002068C16821F40051C1607E
:10136000204600F0BDFB2068016921F49041016135
:101370002068416921F02A0141612068C16841F477
:101380000051C160E563012084F83900002070BD80
:101390002DE9F041054617490068174C0E158842A3
:1013A0000FD1A06920F48040A061144F4915384640
:1013B000FFF7BAF831463846FFF7B6F82520FFF7B1
:1013C00097FA0F492868884211D1E06920F48020FB
:1013D000E0610C4C31462046FFF7A6F8E1142046A8
:1013E000FFF7A2F8BDE8F0412720FFF781BABDE87A
:1013F000F081000000380140001002400008014068
:1014000000480040000C01402DE9F0470646006806
:1014100029490025294C022786B04FF003094FF4D3
:101420008068884221D1A06940F48040A061A06911
:10143000DFF88CA000F4804004904815CDE9000747
:101440006946CDF80C905046FFF7EEF8CDE90085DF
:10145000694650460295FFF7E7F800220121252052
:10146000FFF75CFA2520FFF74EFA164930688842EC
:101470001FD1E06940F48020E061E069124C00F483
:101480008020CDE90390CDE9008769462046FFF72B
:10149000CBF8E014CDE90005694620460295FFF738
:1014A000C3F8012211462720FFF738FA2720FFF75B
:1014B0002AFA06B0BDE8F08700380140001002406B
:1014C0000008014000480040000C014090F839300D
:1014D000012B01D0122B2CD139B332B390F8383014
:1014E000012B26D0012380F8383081628285C285A5
:1014F0000021C16390F83920122A18D05FF022022F
:1015000080F8392080F838100168CA6842F4807287
:10151000CA6001684A6942F001024A610068C16814
:1015200041F02001C1600020704701207047322245
:10153000E6E702207047000030B400680F49884297
:101540001AD10F480288B2F5204F0ED20D49A0F5EE
:1015500020444B78A3540288521C92B202800A485D
:101560000088824201D1012008700649012230BC66
:10157000491C0648FFF7AABF30BC7047003801403D
:1015800000B00020000000200C0000201C00002003
:101590002DE9F047044690F8390099460D46012898
:1015A00001D0222858D12DB322B394F83800012855
:1015B00052D0012684F838600027E76394F8390098
:1015C00022281AD05FF0120084F83900A284E28445
:1015D0004FF48058E08C4B46401EE084A0684FF0EA
:1015E000000240454FF08001204613D100F063FB1C
:1015F00008BB04E00120BDE8F0873220E4E728883A
:101600002168C0F308004860206908B16D1C08E03B
:10161000AD1C06E000F04FFB68B9216815F8010B1E
:101620004860E08C0028D5D14B460022402120465E
:1016300000F041FB08B10320DDE794F839003228BF
:1016400006D084F8396000BF84F838700020D2E7F3
:10165000222084F83900F7E70220CCE77047000029
:10166000F8B504461B481C4EC7031C4D84420AD1E2
:10167000012080F3108820683040B84229D160688A
:101680000090A8601EE0B4F1006F22D1FFF73CFA91
:101690001348FFF7C1FD1348FFF7BEFD72B60020E7
:1016A0004FF0E02108614861886120683040B8420D
:1016B0000FD160680090A860216881F3098800213B
:1016C00081F31488216881F3088801B0BDE8F040F7
:1016D0000047F8BD004000080000FE2F0800002071
:1016E0001C0000205C0000202DE9F04700249046FB
:1016F00007460D4626464FF48069DFF848A014E0FF
:10170000687815F8021B4A4601EB00202AF81400FD
:10171000641CA4B2944206D100240A49384600F061
:1017200053F807F50067B61CB6B24645E8D3002C5F
:1017300006D022463846BDE8F047024900F044B8DA
:10174000BDE8F08702B000200907090E002806DA7C
:1017500000F00F0000F1E02080F8141D704700F148
:10176000E02080F8001470471CB500240094032288
:1017700069460C48019400F019F8BDF804100A48B5
:10178000A1F525425A3A03D00470848044801CBDE0
:1017900001210170BDF800108180BDF80210418068
:1017A0001CBD000020F803080800002010B500232D
:1017B00006E000BF30F8024B21F813405B1C9BB2DF
:1017C0009342F7D310BD00002DE9F84F8346002067
:1017D000ABF1006415468A460090B4F5802F56D2CE
:1017E000FEF790FEE70AC4F34906C6F58064A542F9
:1017F00000D82C46DFF89C904FF0006000EBC7202B
:1018000080464FF480622349FFF7D0FF00204FF657
:10181000FF7206E0331839F81310914203D1401CCF
:1018200080B2A042F6D3A0422BD21B480021016017
:101830000121C0E902816946FEF7C6FD0020494644
:1018400007E000BF3AF810208319401C21F813204C
:1018500080B2A042F6D30F4940464FF4806200BFE9
:1018600000F01CF8A54210D0281B0AEB440AA34440
:10187000002685B24FF480647F1CA542BCD82C465C
:10188000BAE7224651465846EAE7FEF7F1FDBDE8C1
:10189000F88F00009C0000209C0800202DE9F041FA
:1018A00016460F46054600240AE000BF37F814200C
:1018B000002329460120FEF7E5FD641CA4B2AD1CFF
:1018C000B442F3D3BDE8F08100B585B0A5228DF810
:1018D00000205A238DF80130030A8DF802308DF86C
:1018E000030000208DF8040001228DF805208DF8FA
:1018F000061007216846FEF76FFC8DF807000822E6
:101900004FF47A7369460248FFF742FE05B000BD06
:101910001C000020FEB50B46A5218DF800105A21B1
:101920008DF8011003248DF80240022101220424C5
:1019300000266D468DF80310012802D0022808D039
:1019400010E08DF804608DF805208DF8062007243E
:1019500008E08DF804608DF805108DF806108DF8FC
:101960000730082421462846FEF736FC2855621C1D
:101970004FF47A7369460248FFF70AFEFEBD000085
:101980001C00002030B58FB001200090000400241E
:10199000CDE901040225CDE907504FF4E01009908C
:1019A0006846FFF755F90F20CDE90A056802CDE931
:1019B0000C4002210AA80E94FEF7E2FFFFF7CEF8D2
:1019C0004FF47A71B0FBF1F0FFF70EFC0420FFF743
:1019D000FEFB00221146501EFEF7A0FF0FB030BDE7
:1019E00010B5FEF721FFBDE81040FFF711BC000065
:1019F0000D48016841F00101016041680B4A114046
:101A0000416001680A4A11400160016821F48021A7
:101A10000160416821F4FE0141604FF41F018160C3
:101A20000449C00308607047001002400000FFF83E
:101A3000FFFFF6FE08ED00E010B590F839102229FE
:101A400003D0322901D0022010BD8168B1F5805F3A
:101A500011D00169002901681FD0496801F07F0396
:101A6000816A4A1C82620B70C18D491E0904090CEF
:101A7000C18518D030E00269816A002A0268526884
:101A800005D0D2B20A80816A491C8162ECE7C2F3B8
:101A900008020A80816A891CF7E74A68816A4B1C40
:101AA00083620A70E0E70168CA6822F02002CA6017
:101AB00090F83910322911D00168CA6822F4807276
:101AC000CA6001684A6922F001024A615FF00101BF
:101AD00080F83910FFF730FD002010BD1221F7E724
:101AE0002DE9F041044600680169E26821F44051A3
:101AF000114301612169A0680843616908432168B5
:101B0000CA6841F20C639A430243CA602068416983
:101B1000A26921F44071114341614C492068642558
:101B2000322688423CD1FFF737F800EBC00101EBC9
:101B3000001061688900B0FBF1F7FFF72DF800EBAA
:101B4000C00101EB00106168B0468900B0FBF1F004
:101B5000B0FBF5F06FF01801484307EB800106EB8E
:101B60000110B0FBF5F000F0F006FFF715F800EB00
:101B7000C00101EB001061688900B0FBF1F0B0FB1F
:101B8000F5F006EB0016FFF707F800EBC00101EBDC
:101B9000001061688900B0FBF1F7FEF7FDFF3BE044
:101BA000FEF7E2FF00EBC00101EB00106168890065
:101BB000B0FBF1F7FEF7D8FF00EBC00101EB00101E
:101BC0006168B0468900B0FBF1F0B0FBF5F06FF052
:101BD0001801484307EB800106EB0110B0FBF5F05C
:101BE00000F0F006FEF7C0FF00EBC00101EB0010B3
:101BF00061688900B0FBF1F0B0FBF5F006EB001670
:101C0000FEF7B2FF00EBC00101EB00106168890034
:101C1000B0FBF1F7FEF7A8FF00EBC00101EB0010ED
:101C200061688900B0FBF1F0B0FBF5F06FF01801CE
:101C3000484307EB800108EB0110B0FBF5F0216889
:101C400000F00F0030448860BDE8F08100380140AA
:101C500090F83910122903D0322901D002207047A0
:101C60008168B1F5805F016A0BD04A1C026202688C
:101C700009785160C18C491E0904090CC1840ED039
:101C800017E009880268C1F3080151600169002961
:101C9000016A02D0491C0162ECE7891CFBE701687C
:101CA000CA6822F08002CA600068C16841F0400141
:101CB000C160002070472DE9F0471D4690460E4652
:101CC0000446FEF7ABFD07465FEA08004FF0000947
:101CD0004FF0010808D030E0681C05D095B1FEF740
:101CE0009DFDC01BA8420DD82068006836EA0000A0
:101CF000F2D127E0681C20D025B1FEF78FFDC01B74
:101D0000A8421AD92068C16821F08001C16020680A
:101D1000C16821F02001C1602068C16821F4807190
:101D2000C1602068416921F00101416184F8398076
:101D300084F838900320BDE8F0872068006836EA10
:101D40000000D7D00020F6E70148FFF785BA000071
:101D50001C0000200D4882B0816941F004018161BE
:101D600080690B4900F0040000900A4801604FF4BC
:101D7000E1314160002181600C22C160C0E90412A0
:101D80008161C16102B0FFF7D4BA000000100240C7
:101D9000003801401C0000200D4882B0816941F0EC
:101DA0000801816180690B4900F0080000900A4831
:101DB00001604FF461414160002181600C22C160EB
:101DC000C0E904128161C16102B0FFF7B2BA00003C
:101DD00000100240004800405C00002010B5FFF7F2
:101DE000B9FFFFF7D9FFBDE81040012201490248C1
:101DF000FFF76CBB010000201C0000200FB4054B56
:101E000010B503A9044A029800F018F810BC5DF858
:101E100014FB0000911F00081800002002E008C811
:101E2000121F08C1002AFAD170477047002001E054
:101E300001C1121F002AFBD1704700002DE9FF4F9E
:101E400089B09B460446002506E025280BD05A465B
:101E50000B999047641C6D1C20780028F5D10DB0BB
:101E60002846BDE8F08F0027B8460122474900E028
:101E7000074314F8013F203B02FA03F00842F7D170
:101E800020782E2819D114F8010F47F004072A28CA
:101E90000ED06FF02F022078A0F1300109290CD864
:101EA00008EB880102EB410100EB0108641CF2E73A
:101EB0000A98641C50F8048B0A9020780028CED031
:101EC000642808D0692806D075281ED05A460B9978
:101ED00090476D1C58E00A994FF00A0901C90A9110
:101EE000002802DA40422D2102E0390504D52B21D9
:101EF0008DF82010012103E0F90704D02021F7E735
:101F00008A4608AE0DE00021FAE70A994FF00A0967
:101F100001C90A91F7E74946FEF736F9303106F86C
:101F2000011D0028F7D1ADEB060000F1200978076C
:101F300001D44FF00108C84502DDA8EB090000E01C
:101F400000208046002706E008A85A46C05D0B998D
:101F500090476D1C7F1C5745F6DB04E030205A4645
:101F60000B9990476D1CB8F10001A8F10108F5DC50
:101F700005E016F8010B5A460B9990476D1CB9F114
:101F80000001A9F10109F4DC641C65E709280100DE
:101F900013B54FF47A73012269460248FFF7F8FA45
:101FA00000981CBD5C0000200EB562B6FEF744FC34
:101FB000FFF7E8FCFEF7A8F9FFF710FF5DA0FFF7B9
:101FC0001DFF5F4CFFF7D0FB2078012808D00028C8
:101FD000F8D15CA0FFF712FF5D48FFF741FBF1E786
:101FE0005CA0FFF70BFF01214FF44070FFF76CFC82
:101FF0005C4DDFF86CA1DFF870914FF0000805F53B
:1020000020464FF0080B00BF4FF47A70FEF7D0F96E
:102010003288BAF8001055A0FFF7F0FE0024285DC2
:10202000A52806D12F1978785A2802D1B8788328A4
:1020300037D0641CA4B2C82CF1D399F800004C46E8
:102040000128E1D180F310884EA0FFF7D7FE84F875
:10205000008031884348FEF7BFF84D49098888421F
:102060005FD14C4840685C46BBEB106F4BD1384F9A
:1020700032883C493846FFF737FB7868B4EB106F7D
:10208000C2D1FEF7B5F800210120FFF743FC42A0C2
:10209000FFF7B4FE2BA0FFF7B1FE3846FFF7E0FADA
:1020A000B2E740A0FFF7AAFE2819B979C07901224A
:1020B00000EB0120ADF80000387AADF804004AF2D8
:1020C0005A50ADF8080069463A48FFF77DFB394899
:1020D000012201A9801CFFF777FB3648012202A9E3
:1020E000001DFFF771FBFFF73FFB01214FF440702C
:1020F000FFF7EAFBA6F8008005F8048087F8018066
:1021000087F8028099E7FEF773F802210846FFF787
:1021100001FC29A0FFF772FE0AA0FFF76FFE0C4832
:10212000BCE7FEF765F801210220FFF7F3FB25A0CD
:10213000F0E7000020BDF8C8EB426F6F742000008C
:102140000800002020BDF8C8EB41505020000000DE
:102150000040000820D7BCB1B8BDD3CAD5200000CC
:102160000C0000200010002000000020415050B35F
:10217000A4B6C820256420B5B1C7B0D6B8D5EB2029
:102180002564000020BFAACABCD0A3D1E92000006A
:102190000A0000200010002020C9D5D0B4B3C9B96E
:1021A000A620000020D4D9B4CED7BCB1B8BDD3CAC4
:1021B000D520000020F8030820C9D5D0B4CAA7B0A4
:1021C000DC20000020D0A3D1E9CAA7B0DC200000A9
:1021D00000000000000000000102030406070809D7
:1021E0000000000001020304082200080000002093
:1021F0001C0000001C1E0008242200081C000020F7
:10220000E8B700002C1E00080000000000A24A04ED
:1022100000000000000000000000000000000000BE
:0422200000000000BA
:0400000508000131BD
:00000001FF
