:020000040800F2
:1040000058450020DD410008E5410008E74100086F
:10401000E9410008EB410008ED4100080000000004
:104020000000000000000000000000004541000802
:10403000F14100080000000089410008DD910008FE
:10404000F7410008F7410008F7410008F741000870
:10405000F7410008F7410008F7410008F741000860
:10406000F7410008F7410008F74100081D62000809
:104070002962000835620008416200084D620008AC
:104080005962000865620008F7410008F74100081E
:10409000F7410008F7410008F7410008F741000820
:1040A000F7410008F7410008F7410008F741000810
:1040B000F7410008F7410008F7410008F741000800
:1040C000F7410008F7410008F7410008F7410008F0
:1040D000F741000831A80008EDA80008A9A90008C8
:1040E000F7410008F7410008F7410008F7410008D0
:1040F000F7410008F7410008F7410008F7410008C0
:10410000F7410008F7410008F7410008F7410008AF
:10411000F7410008F7410008F7410008F74100089F
:10412000716200087D620008F7410008F74100084D
:10413000DFF80CD000F072F900480047C5AA00086B
:1041400058450020224B19680868B0E8F00F80F34A
:104150000988BFF36F8F4FF0000080F311884EF095
:104160000D0E70470000000006480068006880F3EC
:10417000088862B661B6BFF34F8FBFF36F8F00DF61
:1041800000BF00BF08ED00E0EFF30980BFF36F8FC1
:104190000F4B1A6820E9F00F106008B54FF050007F
:1041A00080F31188BFF34F8FBFF36F8F07F042FA90
:1041B0004FF0000080F31188BDE8084019680868D6
:1041C000B0E8F00F80F30988BFF36F8F704700BF2E
:1041D00038000020EFF30580704700000648804754
:1041E00006480047FEE7FEE7FEE7FEE7FEE7FEE7DC
:1041F000FEE7FEE7FEE7FEE7F9910008314100081F
:10420000202A04DB203A21FA02F00021704721FA2B
:1042100002F3D040C2F12002914008431946704792
:1042200040EA01039B0703D009E008C9121F08C038
:10423000042AFAD203E011F8013B00F8013B521EB8
:10424000F9D2704770B521F0004303430CD0C1F39D
:104250000A550024D5EB040564EB0403D617AD1A08
:10426000B34102DB0020014670BD201841EB025132
:1042700070BD0EB5C10F80EAE0700844CA07002186
:1042800040F233438DE80E000A460B4600F078F802
:1042900003B000BD20F00040C10DC0F3160040F493
:1042A00000007F2901DA00207047962903DCC1F164
:1042B0009601C840704796398840704701F0004326
:1042C00030B421F0004150EA010206D00A0DA2F5F7
:1042D0006072C1F31301002A02DC30BC0020704779
:1042E000440F44EAC104C100E01830BC00EBC250E6
:1042F000AFF300800029A8BF7047401C490008BFE9
:1043000020F00100704710B4B0FA80FC00FA0CF005
:1043100050EA010404BF10BC704749B1CCF120043D
:1043200021FA04F411FA0CF118BF012121430843CA
:10433000A3EB0C01CB1D4FEA00614FEA102042BFF6
:10434000002010BC704700EBC35010440029A4BFEC
:1043500010BC7047401C490008BF20F0010010BC91
:10436000704710B5141E73F1000408DA401C41F1C7
:10437000000192185B411A4301D120F0010010BDE9
:104380002DE9F04D92469B4611B1B1FA81F202E05F
:10439000B0FA80F22032904600F052F804460F4600
:1043A00040EA0A0041EA0B0153465A46084313D03B
:1043B000114653EA010019D0C8F140025046FFF7F8
:1043C0001FFF05460E4650465946424600F038F853
:1043D000084305D0012004E020463946BDE8F08DB1
:1043E0000020054346EAE0762C4337430A986305EC
:1043F000E40AA0EB08000022FD0A44EA47540A3010
:1044000002D500200146E9E7010510196941DDE9FF
:10441000084500196941BDE8F04DA2E7064C074D7B
:1044200006E0E06840F0010394E807009847103484
:10443000AC42F6D3FFF780FE34BE000854BE00083D
:10444000202A04DB203A00FA02F100207047914054
:10445000C2F1200320FA03F3194390407047000093
:1044600070B5044600688168C943C9071CD18168DA
:1044700021F00101816003F0F5F805460FE000BF6F
:1044800003F0F0F8401B022809D9A06A40F01000A0
:10449000A062E06A40F00100E062012070BD206887
:1044A0008068C043C007EBD0002070BD10B5014646
:1044B000406A826A12F0500F05D0006A026BBDE8B4
:1044C000104008461047816A41F40071816201681A
:1044D0008968C1F3424107290CD1C16851B9816A89
:1044E00021F480718162816AC90403D4816A41F038
:1044F0000101816202F0A4FA10BD10B5406A816A20
:1045000041F040018162C16A41F00401C16202F0E0
:1045100099FA10BD10B5406A02F093FA10BD000080
:10452000F8B500260446009600688168C943C907AB
:1045300028D0816841F00101816013481349006867
:10454000B0FBF1F000E0401E00900028FBD103F02A
:1045500089F8054611E000BF03F084F8401B0228EB
:104560000BD9A06A40F01000A062E06A40F00100A0
:10457000E06284F824600120F8BD20688068C043B0
:10458000C007E9D10020F8BD3400002040420F00F0
:104590003EB526482449012401608915C0E902146A
:1045A0000021416106254FF460220561C26141602E
:1045B00002F04AFA072002901020CDE90004694673
:1045C0001A4802F089F90F200090022001906946F4
:1045D000164802F081F90D200090032001906946F1
:1045E000124802F079F90C200090042001906946ED
:1045F0000E4802F071F90B200090052001906946E9
:104600000A4802F069F90A20CDE900056946074821
:1046100002F062F9054802F0FBF804490622183955
:10462000024802F0FFFA3EBD00240140640D002064
:104630007CB536480024032204602146012007F09F
:1046400049F8334D032200212860012007F042F889
:10465000686003220021012007F03CF8A8600022D6
:104660000421012007F036F8E8600022042101202F
:1046700007F030F8286100220421012007F02AF811
:1046800068610426CDE900640023C82221A12448E2
:1046900007F01EFA0320CDE900040023C82221A15F
:1046A000234807F015FA0225CDE900540023C8225B
:1046B00020A1234807F00CFACDE900640023C822AA
:1046C00020A1234807F004FACDE900540023C822B2
:1046D00020A1234807F0FCF90126CDE9006400235E
:1046E000C82220A1224807F0F3F9CDE90064002395
:1046F000C8221CA11F4807F0EBF9CDE900540023A4
:10470000C8221DA11F4807F0E3F97CBDA8000020C6
:10471000000000205461736B5F4852780000000075
:10472000419A00085461736B5F48547800000000A0
:10473000699A00085461736B5F54696D0000000052
:10474000319F00085461736B5F5361660000000085
:10475000C99A00085461736B5F41637400000000E4
:104760003D9600085461736B5F546D70000000004B
:10477000D99F0008AD9E00085461736B5F44527866
:1047800000000000199A000810B501F044FE442012
:1047900001F04CFE01F03FFEBE2001F047FE01F0AB
:1047A0002BFE044601F028FE000201B251EA04008B
:1047B0006FF0030401D5C043401CFFF75AFD2246A9
:1047C000FFF740FDBDE81040FFF778BD10B502F0DF
:1047D00057FF04F0D5FC01F00DFFFFF7D9FE06F0FE
:1047E00041F904F02DFD01F04FFDBDE8104004F04B
:1047F000BDBD000010B5C82900D9C8210A46014630
:10480000034804F0AFF8BDE81040142006F050BE95
:10481000E008002010B5C82900D9C8210A46014681
:10482000034804F09FF8BDE81040142006F040BE95
:10483000600900207047000070B5FE4C0820B4F9F4
:10484000961005F075FD322006F032FEB4F9D01056
:10485000092005F06DFD322006F02AFE94F8D700FD
:104860000025012826D12079042823D184F8D750A7
:1048700004F084FA0021032004F018F90021042038
:1048800004F014F90021052004F010F9002106209D
:1048900004F00CF90021072004F008F9E07D18B9B4
:1048A0000221012005F032FDE07D012802D1042122
:1048B00005F02CFDE07A012853D1A07F01280ED10C
:1048C000E07F01280BD194F82000012807D194F84B
:1048D0002100012803D194F8220001281ED0E5729E
:1048E0000121032004F0E2F80121042004F0DEF8A5
:1048F0000121052004F0DAF80121062004F0D6F8A1
:104900000121072004F0D2F8142006F0D1FD042084
:1049100004F034FAA07F012824D027E0E5720420B7
:1049200004F02CFA0021042004F0C0F80021052036
:1049300004F0BCF80021062004F0B8F8002107209C
:1049400004F0B4F8E07D18B91C21012005F0DEFC6C
:10495000E07D012802D1232105F0D8FC012084F854
:10496000D700EAE10021032004F0A0F8E07F01284D
:1049700003D10021042004F099F894F820000128C4
:1049800003D10021052004F091F894F821000128BA
:1049900003D10021062004F089F894F822000128B0
:1049A00003D10021072004F081F8E07D00287DD1AB
:1049B000A07F012852D1E07F012812D194F8200075
:1049C000002875D194F821000028CAD194F822005B
:1049D0000028C6D10521012005F098FCA07F012800
:1049E0003CD1E07F002862D194F82000012811D149
:1049F00094F82100002859D194F82200002855D1BC
:104A00000621012005F082FCA07F012826D1E07F4D
:104A100000284CD194F82000002847D194F82100B8
:104A2000012810D194F8220000283FD1072101204D
:104A300005F06CFCA07F012810D1E07FB8BB94F892
:104A40002000002832D194F8210000282ED194F8BB
:104A5000220001282AD1082105F058FCA07F40BB84
:104A6000E07F01280ED194F82000E8BB94F82100E3
:104A7000E0B994F82200C8B91821012005F046FCDD
:104A8000A07FB0B9E07F80BB94F82000012812D14C
:104A900094F8210050B994F8220038B91921012066
:104AA00005F034FCA07F20B9E07F03E044E03BE068
:104AB0003DE036E0C8B994F82000E8BB94F8210046
:104AC00001280DD194F82200B0BB1A21012005F075
:104AD0001DFCA07F28BBE07F38B994F8200058BBAC
:104AE00094F8210040BB01E00CE008E094F82200BB
:104AF000012841D11B2105F009FCA07F88B9E07F86
:104B0000012839D194F82000012835D194F82100EA
:104B1000012831D194F8220001282DD11C2105F063
:104B2000F5FBA07F012827D1E07F012824D194F84C
:104B30002000012820D100E01EE094F8210080B977
:104B400094F82200C0B91D21012005F0DFFBA07FF1
:104B5000012811D1E07F01280ED194F8200001280E
:104B60000AD194F82100012806D194F822000128E6
:104B700002D1022105F0CAFBE07D012846D1A07FC9
:104B800001284CD1E07F012810D194F82000E0BB2F
:104B900094F82100002839D194F82200B0BB0921F3
:104BA000012005F0B3FBA07F012838D1E07F70BB66
:104BB00094F8200001280ED194F8210030BB94F81D
:104BC000220018BB0A21012005F0A0FBA07F0128CC
:104BD00025D1E07FD8B994F82000B8B994F8210025
:104BE00001280ED194F8220080B90B21012005F094
:104BF0008DFBA07F012812D1E07F40B994F82000FE
:104C000020B994F8210008B902E071E04AE06CE0B4
:104C100094F82200012845D10C2105F077FBA07FF4
:104C2000F0BBE07F012811D194F82000C8BB94F8B4
:104C3000210001E0A8000020A0BB94F8220088BB5E
:104C40001F21012005F062FBA07F48BBE07F50BB25
:104C500094F8200001280DD194F8210010BB94F89D
:104C60002200F8B92021012005F050FBA07FB8B93F
:104C7000E07FC0B994F82000A0B994F82100012881
:104C80000DD194F8220068B92121012005F03EFBE6
:104C9000A07F28B9E07F30B994F8200010B903E074
:104CA00020E010E041E00BE094F82100E8BB94F82C
:104CB0002200012841D1222105F028FBA07F88B9DC
:104CC000E07F012839D194F82000012835D194F8EB
:104CD0002100012831D194F8220001282DD123216F
:104CE00005F014FBA07F012827D1E07F012824D103
:104CF00094F82000012820D194F8210080B994F87C
:104D0000220090B92421012005F000FBA07F01289A
:104D100013D1E07F012810D194F8200001280CD194
:104D200094F82100012808D100E006E094F8220060
:104D3000012802D1042105F0E9FAE07A02280FD116
:104D4000E572052004F01AF8E07D18B90121084643
:104D500005F0DCFAE07D012802D1032105F0D6FA46
:104D6000A07A012809D1A572607A401CC1B2617293
:104D7000BDE87040022005F0C9BA70BDF0B585B03D
:104D8000002500950120019505F038FB4FF496763B
:104D9000304606F08DFB052005F030FB304606F06E
:104DA00087FB704CE07C70B90121052005F0AEFA5C
:104DB00005E00A2006F07CFBA07900287BD1761E56
:104DC0003604360CF5D1E07C012874D1E5746A46CE
:104DD0004FEA000604EB4003B3F8AC10115432293B
:104DE00001D9165400E0155441B1B42904D084F817
:104DF000D560B3F8AC1009B184F8D660401CC0B2DD
:104E00000628E7D39DF801009DF80210000100EB91
:104E1000C1009DF8031000EB81009DF8041000EB29
:104E200041009DF805100844C1B20A2005F06EFA51
:104E300094F8D30001282FD184F8D3500DF108073E
:104E400004EB4001B1F8AC1027F81010401CC0B2C0
:104E50000628F5D3042005F0D1FA322006F028FB0D
:104E6000052005F0CBFA642006F022FB5FF001007C
:104E700004EB400237F81010B2F8AC20914207D092
:104E800009B1B42902D11AB1B42A01D084F8D5608D
:104E9000401CC0B20628EBD394F8D30002281BD1E3
:104EA00084F8D350032005F0A9FA94F8D60001281D
:104EB00002D00A210DE04BE094F8D500264618B93F
:104EC0000921052005F022FA96F8D500012803D122
:104ED0000821052005F01AFA94F8D300032804D11C
:104EE00084F8D350042005F089FA94F8D3000428FC
:104EF0002ED184F8D350032005F080FA642609E00F
:104F00000A2006F0D5FA94F8A200002820D0A07953
:104F100000281DD1761E16F0FF06F1D1062005F0FF
:104F20006DFA1E2609E00A2006F0C2FA94F8A200E3
:104F300000280DD0A07900280AD1761E16F0FF06B1
:104F4000F1D1207D012805D00721052005F0DEF9EB
:104F500005B0F0BD25750621052005F0D7F92572AD
:104F60006571F5E7A80000207047000070B506F0F5
:104F700099F90146082005F0DBF9322006F098FA8D
:104F8000374C0920B4F9D01005F0D2F9322006F0E0
:104F90008FFA344D0026287A012802D0022804D046
:104FA00011E0E07A022803D00DE0E07A01280AD16E
:104FB0002E72002003F0E2FE607A401CC1B26172E2
:104FC000022005F0A3F9A07904282AD103F0D6FE27
:104FD0000021032003F06AFD0021042003F066FD98
:104FE0000021052003F062FD0021062003F05EFD94
:104FF0000021072003F05AFD01202071E072287281
:10500000A6711F210A2005F081F9E07D18B902215F
:10501000012005F07BF9E07D012802D1042105F093
:1050200075F9A07905281AD103F0A8FE207E002189
:10503000401C20710220E0722872A6710A2005F03F
:1050400065F9E07D18B90121084605F05FF9E07DBA
:10505000012804D1BDE87040032105F057B970BDA7
:10506000A800002018000020FFF780BF70B50A20BC
:1050700006F01EFA414CB4F8EA0001280CD10020D9
:10508000A4F8EA0003F07AFE002001F0FFF9B4F979
:10509000EC10A32005F04CF9B4F8EA00052502282D
:1050A0003AD106F0FFF8B4F9EE10884206DD05208B
:1050B00003F064FE0320A4F8EA0031E006F0F2F801
:1050C000B4F9EE1088421ADA042003F057FE0021EA
:1050D000032003F0EBFC0021042003F0E7FC002197
:1050E000052003F0E3FC0021062003F0DFFC002193
:1050F000072003F0DBFC0420A4F8EA0027E00020EE
:1051000003F03CFE002001F0C1F9A4F8EA50B4F924
:10511000EC10A32005F00CF9B4F8EA00032812D132
:1051200006F0C0F8B4F9EE1088420CDC002003F061
:1051300025FE002001F0AAF9A4F8EA50B4F9EC1019
:10514000A32005F0F5F8B4F8EA00042814D106F01D
:10515000A9F8B4F9EE1088420EDB002003F00EFE31
:10516000002001F093F924F8EA5FA320B4F90210BB
:10517000BDE8704005F0DCB870BD0000A80000205C
:1051800070B5974C142194F82D00B4F89E2040423D
:1051900001EB4000C6B2B4F89800B4F89A10084485
:1051A000B4F89C1011440844B4F8A0109234084498
:1051B00001B2082005F0BCF80A2006F079F9B4F92C
:1051C00006200821012005F0C7F80A2006F070F932
:1051D000B4F908200821022005F0BEF80A2006F0E4
:1051E00067F9B4F90A200821032005F0B5F80A2070
:1051F00006F05EF9B4F90C200821042005F0ACF8A3
:105200000A2006F055F9B4F90E200821052005F012
:10521000A3F80A2006F04CF9B4F93E10092005F075
:1052200087F80A2006F044F9607C6E4D923C70BB12
:10523000002003F0A3FD012001F028F94FF4FA60EB
:1052400006F036F9002001F021F9012084F8A300CE
:105250004FF47A7006F02CF9E07D18B91521012081
:1052600005F054F8E07D012802D1162105F04EF832
:10527000B4F89800B4F89A10B4F89E200844B4F832
:105280009C1011440844B4F8A0100844288294F8F3
:10529000A30001287DD1B4F99800B4F99A10B4F9AB
:1052A0009E200844B4F99C1011440844B4F9A0109D
:1052B0000844B5F91010314488421DDD94F82C00E3
:1052C00008B1012818D1052003F058FD032084F807
:1052D000A300E07D18B90121084605F017F8E07D2C
:1052E000012802D1032105F011F8607A401CC1B2F7
:1052F0006172022005F00AF8B4F99800B4F99A1026
:10530000B4F99E200844B4F99C1011440844B4F93F
:10531000A0100844B5F91010891B884231DA94F8BE
:105320002C0008B102282CD1042003F027FD002115
:10533000032003F0BBFB0021042003F0B7FB002196
:10534000052003F0B3FB0021062003F0AFFB002192
:10535000072003F0ABFB022084F8A300E07D18B91E
:105360000221012004F0D2FFE07D012802D10421B6
:1053700004F0CCFF607A401CC1B26172022004F0DC
:10538000C5FFB4F89800B4F89A100844B4F89C101B
:1053900000E007E0B4F89E2011440844B4F8A010DF
:1053A0000844288294F8A310022918D394F8A40082
:1053B0000522401CC0B2B0FBF2F384F8A400257EA5
:1053C000AB4201D3022906D0B0FBF2F0627E9042DC
:1053D00005D3032903D1002004F8A30F607070BD2A
:1053E000A80000201800002070B5914C142194F8FA
:1053F0002D00B4F89E20404201EB4000C6B2B4F844
:105400009800B4F89A100844B4F89C101144084469
:10541000B4F8A0109234084401B2082004F088FFC8
:105420000A2006F045F8B4F906200821012004F00E
:1054300093FF0A2006F03CF8B4F908200821022066
:1054400004F08AFF0A2006F033F8B4F90A20082194
:10545000032004F081FF0A2006F02AF8B4F90C209A
:105460000821042004F078FF0A2006F021F8B4F99E
:105470000E200821052004F06FFF0A2006F018F81E
:10548000B4F93E10092004F053FF0A2006F010F88A
:10549000607C684D923C70BB002003F06FFC0120E3
:1054A00000F0F4FF4FF4FA6006F002F8002000F07C
:1054B000EDFF012084F8A3004FF47A7005F0F8FFA7
:1054C000E07D18B91521012004F020FFE07D0128BE
:1054D00002D1162104F01AFFB4F89800B4F89A101B
:1054E000B4F89E200844B4F89C1011440844B4F861
:1054F000A0100844688294F8A30001287AD1B4F976
:105500009800B4F99A10B4F99E200844B4F99C109C
:1055100011440844B4F9A0100844B5F912103144FC
:1055200088422CDD042003F029FC0021032003F035
:10553000BDFA0021042003F0B9FA0021052003F090
:10554000B5FA0021062003F0B1FA0021072003F08C
:10555000ADFA032084F8A300E07D18B901210846C4
:1055600004F0D4FEE07D012802D1032104F0CEFE38
:10557000607A401CC1B26172022004F0C7FEB4F927
:105580009800B4F99A10B4F99E200844B4F99C101C
:1055900011440844B4F9A0100844B5F91210891B4D
:1055A000884218DA052003F0E9FB022084F8A30002
:1055B000E07D18B90221012004F0A8FEE07D012859
:1055C00002D1042104F0A2FE607A401CC1B26172D3
:1055D000022004F09BFEB4F89800B4F89A10B4F8D6
:1055E0009E200844B4F89C1011440844B4F8A0105C
:1055F0000844688294F8A310022918D394F8A400F0
:105600000522401CC0B2B0FBF2F384F8A400257E52
:10561000AB4201D3022906D0B0FBF2F0627E904289
:1056200005D3032903D1002004F8A30F607070BDD7
:10563000A80000201800002070B505F033FE0146D8
:10564000082004F075FE322005F032FF1E4C0920C0
:10565000B4F9D01004F06CFE322005F029FFE07A96
:10566000002501280FD1E572062003F087FBE07DBD
:1056700018B91521012004F049FEE07D012802D16E
:10568000162104F043FEE07A02280FD1E5720720CC
:1056900003F074FBE07D18B90121084604F036FEE2
:1056A000E07D012802D1032104F030FEA07A012818
:1056B00009D1A572607A401CC1B26172BDE8704028
:1056C000022004F023BE70BDA80000202DE9F041A7
:1056D0006E4E0820B6F9961004F02AFE142005F04C
:1056E000E7FEB6F9D010092004F022FE142005F0E0
:1056F000DFFE012004F082FE142005F0D9FE052013
:1057000004F07CFE142005F0D3FEF07C604F0128ED
:1057100063D100223446F2746FF013054FEA0003A0
:1057200004EB4001B1F9C4C0BCF1140F04DCB1F8C2
:10573000ACC0BCF1960F03D304EB000C8CF80D3019
:10574000B1F9C4C0AC4503DBB1F8AC101E2901D8D7
:1057500021184A73401CC0B20528E1D9A07BE17B27
:10576000000100EBC100217C00EB8100617C00EBBB
:105770004100A17C01443879814260D010B11F28DA
:1057800002D002E0237300E0227311F0FF013971AF
:1057900002D01F2902D002E0227300E0237394F8A4
:1057A000A20010B10A2004F0B1FD207B012812D123
:1057B00001256019407B012805F10200C0B20DD01F
:1057C0005FF0010103F072F96D1CEDB2052DF0D907
:1057D000042003F0D3FA207B10B130E00021F1E780
:1057E00001256019407B002805F10200C0B235D0C8
:1057F0005FF0010103F05AF96D1CEDB2052DF0D9EF
:10580000244C01221102204601F027FF64210120CF
:1058100003F0A8FA00224021204601F01EFF0021DB
:10582000022003F09FFA0021012003F03FF900213C
:10583000022003F03BF90021082003F037F9307B08
:10584000F97888421CD0F870707A401CC1B271722D
:10585000022004F05BFD307B10B108E00021C9E7B5
:10586000707F01280CD10021042004F04FFD307B13
:10587000012805D1707F18B90121042004F046FDEC
:10588000BDE8F041C82005F013BE0000A8000020CC
:1058900018000020000C014070B5664D0820B5F9D5
:1058A000961004F045FD322005F002FEB5F9D01047
:1058B000092004F03DFD322005F0FAFDE87A0026CB
:1058C00001284AD12C46EE720121032003F0EEF8A4
:1058D0000121042003F0EAF80121052003F0E6F895
:1058E0000121062003F0E2F80121072003F0DEF891
:1058F000142005F0DDFD042003F040FA94F8860042
:1059000094F8871094F82A20084494F888100844E2
:1059100094F82910114494F82B201144884205D1A1
:1059200084F8866084F8876084F88860002001220B
:10593000211891F82930012B0BD191F8863043B909
:1059400081F8862084F8D80090B1012837D0022849
:1059500048D0401CC0B20228EAD9E87A022867D1B0
:10596000EE72052003F00AFAE87D002854D057E0D3
:105970000021032003F09AF80021042003F096F898
:105980000021052003F092F80021062003F08EF894
:105990000021072003F08AF8E07D18B910210120CA
:1059A00004F0B4FCE07D012801D1142130E0607ADC
:1059B000401CC1B26172022004F0A8FCCDE70021B6
:1059C000032003F073F80021042003F06FF8E07D5A
:1059D00018B90E21012004F099FCE07D0128E6D1E0
:1059E000122115E00021032003F060F800210420BB
:1059F00003F05CF80021052003F058F8E07D18B9A9
:105A00000F21012004F082FCE07D0128CFD1132179
:105A1000012004F07BFCCAE70D21012004F076FC94
:105A2000E87D012804D1BDE87040112104F06EBC6E
:105A300070BD0000A800002070B505F033FC0146E1
:105A4000082004F075FC322005F032FD2F4C0920AF
:105A5000B4F9D01004F06CFC322005F029FDE07A96
:105A60000025012832D1E57294F82F0028B10620D4
:105A700003F084F9E07DC0B11BE0042003F07EF95F
:105A80000021032003F012F80021042003F00EF897
:105A90000021052003F00AF80021062003F006F893
:105AA0000021072003F002F8E4E70221012004F0BE
:105AB0002DFCE07D012802D1042104F027FC607A4E
:105AC000401CC1B26172022004F020FCE07A02287E
:105AD0001BD1E57294F82F0010B9052003F04EF9A0
:105AE00094F82F00012802D1072003F047F9E07D48
:105AF00018B90121084604F009FCE07D012804D111
:105B0000BDE87040032104F001BC70BDA800002076
:105B10002DE9F04105F0C6FB0146082004F008FC21
:105B2000322005F0C5FC534C0920B4F9D01004F024
:105B3000FFFB322005F0BCFC012004F05FFC1420C8
:105B400005F0B6FC052004F059FC142005F0B0FC6B
:105B5000E07C494E01285AD10021E17407466FF0DC
:105B6000130300BF04EB4002B2F9C450142D03DC50
:105B7000B2F8AC50962D01D325186F73B2F9C4500A
:105B80009D4203DBB2F8AC201E2A01D822185173C3
:105B9000401CC0B20528E5D9A07BE27B000100EBE8
:105BA000C200227C00EB8200627C00EB4200A27CFF
:105BB0001044B27990422AD010F0FF002546B0710F
:105BC00003D12973052003F0D9F8B0791F2817D124
:105BD0002F73042003F0D2F80021032002F066FFA7
:105BE0000021042002F062FF0021052002F05EFF88
:105BF0000021062002F05AFF0021072002F056FF84
:105C000095F8A20018B1B1790A2004F07FFB207B3F
:105C1000717988422BD07071607A401CC1B2617278
:105C2000022004F073FB207B70B90121084604F0C8
:105C30006DFB0321012004F069FB607F012803D183
:105C40000021042004F062FB207B01280FD10221F7
:105C500004F05CFB0421012004F058FB607F002865
:105C600005D1BDE8F0410121042004F04FBBBDE89F
:105C7000F0810000A8000020180000202DE9F0416C
:105C80005D4C0A2194F82D00404201EB400046B2E1
:105C900005F008FB0146082004F04AFB322005F01D
:105CA00007FCB4F9D010092004F042FB322005F0C3
:105CB000FFFB94F8A300514DA0B9002000F0E6FBD3
:105CC00005F0F0FAA881012084F8A300E07D18B95E
:105CD0001521012004F01AFBE07D012802D11621D4
:105CE00004F014FB94F8A300012864D105F0DAFA5B
:105CF000B5F90C10891B884233DA94F82C0008B1EE
:105D000002282ED1042003F039F80021032002F0EC
:105D1000CDFE0021042002F0C9FE0021052002F082
:105D2000C5FE0021062002F0C1FE0021072002F07E
:105D3000BDFE20686861022084F8A300E07D18B9E8
:105D40000221012004F0E2FAE07D012802D10421C1
:105D500004F0DCFA607A401CC1B26172022004F0E7
:105D6000D5FA05F09FFAB5F90C10314488421FDDD1
:105D700094F82C0008B101281AD1052002F0FEFF8A
:105D800020686861032084F8A300E07D18B9012130
:105D9000084604F0BBFAE07D012802D1032104F09B
:105DA000B5FA607A401CC1B26172022004F0AEFA0A
:105DB00005F078FAA88194F8A30000264FF47A77CA
:105DC000022814D0032810D120686969401A617E26
:105DD00088420AD3002002F0D1FF012000F056FBD8
:105DE000384605F065FB84F8A360BDE8F0812068C3
:105DF0006969401A217EEBE7A80000201800002006
:105E00002DE9F041584C0A2194F82D00404201EB55
:105E1000400046B205F046FA0146082004F088FA30
:105E2000322005F045FBB4F9D010092004F080FAC7
:105E3000322005F03DFB94F8A3004C4DA0B90020A2
:105E400000F024FB05F02EFAE881012084F8A3007D
:105E5000E07D18B91521012004F058FAE07D0128F1
:105E600002D1162104F052FA94F8A30001285AD165
:105E700005F018FAB5F90E10314488422EDD0420E1
:105E800002F07CFF0021032002F010FE002104201C
:105E900002F00CFE0021052002F008FE0021062081
:105EA00002F004FE0021072002F000FE2068A86135
:105EB000022084F8A300E07D18B90221012004F03B
:105EC00025FAE07D012802D1042104F01FFA607A4E
:105ED000401CC1B26172022004F018FA05F0E2F928
:105EE000B5F90E10891B88421ADA052002F046FF28
:105EF0002068A861032084F8A300E07D18B901217F
:105F0000084604F003FAE07D012802D1032104F0E1
:105F1000FDF9607A401CC1B26172022004F0F6F90A
:105F200005F0C0F9E88194F8A30000264FF47A77D1
:105F3000022814D0032810D12068A969401A617E74
:105F400088420AD3002002F019FF012000F09EFAD7
:105F5000384605F0ADFA84F8A360BDE8F08120680A
:105F6000A969401A217EEBE7A80000201800002054
:105F70002DE9F05F05F096F90146082004F0D8F904
:105F8000322005F095FAA14C0920B4F9D01004F0A4
:105F9000CFF9322005F08CFAE07ADFF874A2002500
:105FA000DFF870924FF0010B012830D194F82300F4
:105FB000002876D1E572042002F0E0FE0126A71940
:105FC000787F012806F10200C0B224D0012102F03E
:105FD0006DFD761CF6B2052EF1D9A07BE17B0001A8
:105FE00000EBC100217C99F8072000EB8100617C67
:105FF00000EB4100A17C0144914208D0C9B289F86C
:10600000071094F8A20010B10A2004F07FF9E07A9A
:10601000022806D042E0002102F048FD87F80DB0CA
:10602000D7E794F8230000287ED10122E5721102FF
:106030005646504601F011FB94F83010012002F052
:1060400091FE00224021304601F007FB0021022092
:1060500002F088FE0021012002F028FD012102202B
:1060600002F024FD0021082002F020FDA573E57355
:1060700025746574A57499F8071041B189F8075023
:1060800094F8A200294610B10A2004F03FF9607A82
:10609000401CC1B26172022004F038F9E07A012894
:1060A00066D194F8230001287DD104F80B5F042009
:1060B00002F064FE94F86F0094F8701094F8722067
:1060C000084494F87110A37D1144084494F87310A7
:1060D000227D0844E17C1144627D1A441144E27D32
:1060E0000B3C1144884209D184F87A5084F87B50E3
:1060F00084F87C5084F87D5084F87E500027012677
:1061000004EB060898F81D00012804D198F87900DE
:1061100008B9002F6BD0B01CC0B2012102F0C6FC40
:10612000761CF6B2052E00E025E0E9D9A07BE17BE4
:10613000000100EBC100217C99F8072000EB8100F1
:10614000617C274600EB4100A17C0144914208D0CC
:10615000C9B289F8071097F8A20010B10A2004F01C
:10616000D5F8787A401CC1B27972022004F0CEF8DA
:10617000E07A022848D194F82300012844D1010292
:10618000E57201225646504601F067FA94F8301045
:10619000012002F0E7FD00224021304601F05DFAC7
:1061A0000021022000E02FE002F0DCFD00210120B0
:1061B00002F07CFC0121022002F078FC0021082082
:1061C00002F074FCA573E57325746574A57499F8E1
:1061D0000710002918D089F8075094F8A200294622
:1061E000002811D0BDE8F05F0A2004F08FB888F8CD
:1061F00079B0B01C012784F8D860C0B2002102F049
:1062000055FC88F80DB08BE7BDE8F09FA800002092
:10621000000C01401800002070470000014800F009
:10622000B3BD0000940D0020014800F0ADBD00009A
:10623000800A0020014800F0A7BD0000B80A002035
:10624000014800F0A1BD0000A0090020014800F0B5
:106250009BBD0000D8090020014800F095BD00005A
:10626000480A0020014800F08FBD0000100A0020FD
:10627000014800F089BD000050060020014800F0F0
:1062800083BD0000180600200D4808B5416941F0A3
:10629000020141614069012200F0020000901146B4
:1062A000382001F055FA382001F046FA0122114653
:1062B000392001F04DFABDE80840392001F03CBA20
:1062C0000010024010B5046863604368102B036837
:1062D00003D099600068C26010BD9A600068C16018
:1062E00010BD06E00021491CC9B20A29FBD3401E9B
:1062F00080B20028F6D170471FB520200090002002
:106300000190012002906946014801F0A9F81FBDE3
:10631000000801401FB520200090012001900320BB
:1063200003906946014801F09BF81FBD0008014039
:1063300070B50024FFF7E0FF124D04E0641CE4B2E6
:106340000120FFF7CEFF2021284601F07DF910B192
:10635000642CF3D30FE0642C0DD2002404E0641C01
:10636000E4B20120FFF7BDFF2021284601F06CF9BF
:1063700018B1F02C04D3012070BDF02CEFD3FAE754
:10638000002070BD0008014010B5FFF7C3FF0A4CA4
:1063900000222021204601F060F940F2EE20FFF7B4
:1063A000A0FF01222021204601F057F9BDE810404E
:1063B0000F20FFF796BF00000008014010B5FFF75F
:1063C000A9FF0C4C00222021204601F046F90A20AA
:1063D000FFF787FFFFF790FF2021204601F034F9F7
:1063E000012805D000222D20FFF77BFF104610BDAD
:1063F0000122F8E70008014070B500254FEA0504C6
:10640000FFF7DCFFA0402843641CE4B2C5B2082CAF
:10641000F6D3284670BD10B5FFF7B6FFFFF788FF2B
:10642000BDE81040CC2000F001B8000070B5054672
:10643000FFF770FF144E002415F0010F4FEA5505C9
:106440004FF000024FF0200130460BD001F005F96B
:106450000820FFF746FF01222021304601F0FDF819
:106460003A200AE001F0F9F84620FFF73AFF01224E
:106470002021304601F0F1F80220FFF732FF641CC2
:10648000E4B2082CD8D370BD0008014010B5012833
:106490001BD000282FD10021082002F007FB01218A
:1064A000032002F003FB0121042002F0FFFA012186
:1064B000052002F0FBFA0121062002F0F7FA012183
:1064C000BDE81040072002F0F1BA0121082002F0D7
:1064D000EDFA0021032002F0E9FA0021042002F085
:1064E000E5FA0021052002F0E1FA0021062002F081
:1064F000DDFA0021E4E710BD06490020C861064826
:10650000016941F004010161016941F0400101614B
:10651000704700003841002000200240064A002158
:10652000D16106490A6942F002020A6148610869BC
:1065300040F04000086170473841002000200240D0
:10654000044B0022DA61044A136943F0010313612A
:106550000180704738410020002002400E49C86881
:10656000C2060E4803D5C26942F00202C261CA687F
:10657000520703D5C26942F00102C261CA69D2075B
:1065800007D0C26942F00402C261C86920F001006C
:10659000C8611420C86070470020024038410020C4
:1065A00070B5054601F05EF80646114C09E0681C1E
:1065B00007D025B101F056F8801BA84201D903206D
:1065C00070BDE068C007F2D1E068800601D52020E8
:1065D000E060E068C00605D4E069C00702D1E06869
:1065E000400703D5FFF7BAFF012070BD002070BD42
:1065F000002002402DE9F04F804885B080697F4936
:1066000040F004008861886900F004000490886903
:1066100040F008008861886900F0080004908869EB
:1066200040F010008861886900F010000490744800
:106630004068734920F0E06040F00070486001223B
:106640002021704801F009F8012210216E4801F064
:1066500004F80122D70239466B4800F0FEFF4FF4E0
:10666000007900224946684800F0F7FFFE1000223A
:106670003146654800F0F1FF00228021624800F0B9
:10668000ECFF00224021604800F0E7FF4FF4004A91
:10669000002251465B4800F0E0FF4FF4804B00229F
:1066A0005946584800F0D9FF00227101554800F0C2
:1066B000D4FF00223101534800F0CFFF00223146C1
:1066C000504800F0CAFF002240214E4800F0C5FFAC
:1066D000002210214B4800F0C0FF012202214B484C
:1066E00000F0BBFF20200124CDE90004022569460B
:1066F0000395444800F0B4FE4FF01008CDE9008443
:1067000069464148039500F0ABFECDE90074694647
:106710003D48039500F0A4FECDE900646946394880
:10672000039500F09DFE4027CDE900746946354889
:10673000039500F095FECDE9009469463248039533
:1067400000F08EFECDE9006469462F48039500F005
:1067500087FE8026CDE9006469462B48039500F04A
:106760007FFECDE9007469462748039500F078FE66
:10677000CDE900A469462348039500F071FECDE9F8
:1067800000B4032769461F48039700F069FE6003C1
:10679000CDE90004694603971A4800F061FE200322
:1067A000CDE9000469460395164800F059FECDE98D
:1067B000008469461348039500F052FECDE9005469
:1067C00069461248039500F04BFE00960026CDE97D
:1067D000016469460D4800F043FECDE90046694674
:1067E0000848029400F03CFE0095CDE9016469463A
:1067F000044800F035FE05B0BDE8F08F00100240FF
:1068000000000140000C0140001001400008014060
:10681000F8B500250446009590F82400012808D01A
:10682000012084F824002046FDF71AFE060002D05D
:106830004BE00220F8BDA06A20F4885040F002002E
:10684000A062022000F0C8FF22490968B1FBF0F005
:10685000400000E0401E00900028FBD12046FDF7DC
:106860005FFE2068816841F00801816000F0FAFE57
:10687000074604E000F0F6FEC01B0A2811D8206885
:1068800080680007F6D42068816841F004018160C7
:1068900000F0E8FE07460EE000F0E4FEC01B0A2808
:1068A00009D9A06A20F0020040F01000A06284F82C
:1068B00024500120F8BD206880684007ECD4A06A0D
:1068C00020F0020040F00100A06284F8245030461D
:1068D000F8BD000034000020F8B50025009590F8C0
:1068E0002420AE46012A1ED0012280F824204A68C6
:1068F0001F244FF47873072A17D20668776B93FA30
:10690000A3FCBCFA8CFC521E02FB0CFC04FA0CF437
:10691000A74393FAA3F3B3FA83F30C685A43944062
:10692000274377632DE00220F8BD06680D2A14D2B4
:10693000376B93FAA3FCBCFA8CFCD21F02FB0CFC55
:1069400004FA0CF4A74393FAA3F3B3FA83F30C68A5
:106950005A4394402743376313E0F76A93FAA3FC42
:10696000BCFA8CFC0D3A02FB0CFC04FA0CF4A743B5
:1069700093FAA3F3B3FA83F30C685A439440274382
:10698000F7620A683823072406680A2A14D3F768CE
:1069900093FAA3FCBCFA8CFC0A3A02FB0CFC04FA46
:1069A0000CF4A74393FAA3F3B3FA83F38C685A4326
:1069B00094402743F76012E0376993FAA3FCBCFACE
:1069C0008CFC02FB0CFC04FA0CF4A74393FAA3F32F
:1069D000B3FA83F38C685A439440274337610A68BB
:1069E000102A01D0112A20D1124B02689A4217D1E5
:1069F00093681B0219D4936843F4000393600968F9
:106A0000102912D10C490D4A0968B1FBF2F101EBD2
:106A10008101490000E0491E00910029FBD104E0FA
:106A2000816A41F020018162012580F824E0284636
:106A3000F8BD0000002401403400002040420F0057
:106A400070477047704700002DE9F04104004FF097
:106A5000000503D0A06A002618B108E00120BDE8B7
:106A6000F081E66284F82460204600F091F8204628
:106A7000FDF7F6FC0146A06AC00600D421B1A06A69
:106A800040F01000A0627AE0A06A20F4885040F044
:106A90000200A0623B4823688342E06904D1B0F55C
:106AA000402F01D14FF40020022292FAA2F2E768AF
:106AB000B2FA82F207FA02F2104362684FF4807C65
:106AC0001043A268624509D0012A07D05FF0000296
:106AD000D4F814E0BEF1010F02D00AE06246F7E7F5
:106AE000C7B1A76A47F02007A762E76A47F0010726
:106AF000E7625F6827F4694717435F6023689A6815
:106B0000214F3A4002439A60A268624510D0012AA0
:106B10000ED016E04FF4604EA7699EFAAEFEBEFAA4
:106B20008EFE7F1E07FA0EF7174347F40062E0E778
:106B30004FF47002256992FAA2F2B2FA82F26D1E47
:106B400095402268D36A23F470032B43D3622268F2
:106B500092680E4B1A40824207D1E662A06A20F08A
:106B6000020040F00100A0620AE0A06A20F00200EA
:106B700040F01000A062E06A40F00100E0620121F4
:106B800008466CE7003C0140FDF7E1FFFE0E1FFFE9
:106B900030B5054600681E4985B0884235D11D498B
:106BA000886940F400708861886900F4007004907E
:106BB000486940F001004861486900F00100049014
:106BC000886940F0100088618869694600F010000B
:106BD00004902F200090032001900F4800F040FC0B
:106BE0000F4C0E48206000206060A0608020E060B4
:106BF00080002061800060612020A0610002E061CF
:106C0000204600F01DFB2C62656205B030BD00001F
:106C10000024014000100240001001400800024022
:106C2000940D00202DE9F047894604463B49006851
:106C30003B4F0E1D9046884201D0B84207D13068C4
:106C400010F4702F03D001252846BDE8F08794F892
:106C5000240001280CD0012084F824002046FDF7F0
:106C60005FFC05004FF0000004D084F82400EBE73F
:106C70000220EAE7A16A40F60162914341F4807183
:106C8000A1622168B94218D1326812F4702F14D071
:106C9000A16A41F48011A1623168490505D5A16A54
:106CA00021F4005141F48051A162A16AC9040AD5BE
:106CB000E16A21F00601E16206E0A26A22F4801294
:106CC000A2624968E9E7E06284F82400216A154875
:106CD0008862216A1448C862216A144808632168DE
:106CE0006FF0020008602068816841F48071816063
:106CF000216843464A464C31206A00F0C9FA2068B0
:106D00008168C1F342410729816803D041F48011B1
:106D1000816099E741F4A001FAE7000000240140F6
:106D200000280140AD44000815450008FB44000858
:106D30002DE9F04104460068016821F0010101607D
:106D400000F090FC054600264FF47A7710E000BF73
:106D500000F088FC401BB8420AD954F8340F40F0C8
:106D6000200044F81409032060702670BDE8F0810B
:106D700020680068C007EBD1012084F8210084F866
:106D800020600020F2E700002DE9F05F0446F94A98
:106D9000F84DF84EF74F0068DFF8D893DFF8D4A32A
:106DA000DFF8D0B3D114783D643E503F4FF4000E6D
:106DB0004FF4004C4FF40028A9F13C09AAF1280A2D
:106DC000ABF1140B904221D9EB4A1368A8420FD0C3
:106DD000B0420FD0B84213D0484513D0504513D01D
:106DE000584501D1724624E0E34A083290423CD132
:106DF00008221EE080221CE0DF4A3032904239D166
:106E00000A4616E0624614E0424612E0D94A803A49
:106E10001368A842ECD0B042ECD0B842F0D048455C
:106E2000F0D05045F0D05845DCD0D24A9042DBD16A
:106E30000205134279D00268D243120775D4026862
:106E400022F008020260CB4A2068904232D9A84260
:106E500019D0B0421DD0B84228D0484523D0504563
:106E600023D058450BD1714620E0C34A1C329042D2
:106E7000C2D1BFE7C04A44329042C5D1C2E7BE4A40
:106E80000832904201D1082110E0BB4A1C329042E6
:106E900001D180210AE0B84A3032904206D0B6498A
:106EA0004431884201D1614600E04146B248001DAC
:106EB00001602CE0A84214D0B04218D0B84223D0D0
:106EC00048451ED050451ED0584501D171461BE0A3
:106ED000904202D14FF0006116E0A74A083290427A
:106EE00001D1082110E0A44A1C32904201D1802136
:106EF0000AE0A14A3032904206D09F49443188428C
:106F000001D1614600E041469A4880384160606B9B
:106F100040F001006063042084F82100002084F820
:106F20002000216B09B120468847924A206811153C
:106F30004FF4800E4FF4804C4FF48028904221D9BA
:106F40008D4A1368A8420FD0B0420FD0B84213D078
:106F5000484513D0504513D0584501D1724624E01E
:106F6000854A083290423FD104221EE040221CE0B4
:106F7000814A303290423CD10A4616E0624614E023
:106F8000424612E07B4A803A1368A842ECD0B042F5
:106F9000ECD0B842F0D04845F0D05045F0D058453C
:106FA000DCD0744A9042DBD1C204134275D002682F
:106FB000D243520771D40268920603D4026822F0C9
:106FC000040202606B4A2068904232D9A84219D06C
:106FD000B0421DD0B84228D0484523D0504523D0D8
:106FE00058450BD1714620E0634A1C329042BFD114
:106FF000BCE7614A44329042C2D1BFE75E4A0832E0
:10700000904201D1042110E05B4A1C32904201D130
:1070100040210AE0584A3032904206D05649443165
:10702000884201D1614600E041465348001D01609D
:107030002CE0A84214D0B04218D0B84223D0484522
:107040001ED050451ED0584501D171461BE09042DC
:1070500002D14FF0806116E0474A0832904201D1D8
:10706000042110E0444A1C32904201D140210AE040
:10707000414A3032904206D03F494431884201D1E2
:10708000614600E041463B4880384160112084F869
:107090002100E16A09B120468847364A2068511527
:1070A0004FF4005C4FF4003E904228D9324B1B68ED
:1070B000A84212D0B04213D0B8421AD048451AD0D4
:1070C00050451AD0584502D14FF400182AE0DFF895
:1070D000A88008F10808404544D14FF0020821E09B
:1070E0004FF020081EE0DFF8908008F1300840459E
:1070F00044D1884616E0E04614E0F04612E01D4B0D
:10710000803B1B68A842E8D0B042E9D0B842F0D03A
:107110004845F0D05045F0D05845D5D09042D6D112
:107120004FF0007813EA080F70D00368DB439B0729
:107130007FD403689B0603D4036823F00203036033
:107140002068904239D9A84221D0B04225D0B84217
:107150002FD048452AD050452AD0584513D14FF456
:10716000001126E0DFF8108008F11C084045BAD174
:10717000B6E700008000024000040240DFF8B8805B
:107180004045BAD1B7E72C4A3C3A904201D102219E
:107190000FE0294A283A904201D1202109E0264AED
:1071A000143A904205D02449884201D1614600E05A
:1071B00071462148403801602CE0A84215D0B04209
:1071C00019D0B84224D048451ED050451FD058454C
:1071D00002D14FF400111BE0904202D14FF0007138
:1071E00016E0154A3C3A904201D1022110E0124AC1
:1071F000283A904201D120210AE00F4A143A9042E5
:1072000006D00D49884202D1614601E011E0714685
:107210000A484160606B6063012084F8210000200F
:1072200084F82000A16A002903D02046BDE8F05F61
:107230000847BDE8F09F00004404024000000240FF
:1072400070B520B190F82110002411B103E00120A5
:1072500070BD80F82040022180F8211003681A6870
:1072600043F6F0718A43D0E901152943D0E903566A
:10727000354329434569294385692943C56929431C
:10728000114319604463012180F82110002070BD72
:1072900070B5044690F82000012823D0012084F81E
:1072A0002000022084F821002068056825F00105EF
:1072B00005602046FFF706F82068016841F00201EA
:1072C00001602068016841F00401016020680168E4
:1072D00041F0080101602068016841F0010101608E
:1072E000002070BD022070BD31B500F0BBF904462E
:1072F00000F0B8F90099001B8842F9D338BD0000AE
:107300002DE9F047054626480F460126017E012952
:107310000FD00121814601762868DFF888804CF281
:107320005034022808D0A2462046FFF739F9A8B108
:1073300031E00220BDE8F0872046FFF731F908BBB5
:107340000120FFF7D9F82046FFF72AF9D8F81010E6
:10735000064621F00401C8F810101CE04FF0FF3081
:107360003860AC6811E02046FFF7D8F85046FFF7C8
:1073700017F9D8F81010060021F00201C8F8101013
:1073800001D03C6007E004F50064D5E9020100EBA0
:10739000C120A042E7D8002189F818103046C9E77B
:1073A00038410020002002400348016941F080017B
:1073B0000161002070470000002002402DE9F05FCD
:1073C00007461C4888460024017E15461E460129B2
:1073D00009D00121814601764CF2503A5046FFF720
:1073E000DFF818B122E00220BDE8F09F012F02D0A3
:1073F000022F00D00427D346DFF83CA02201284604
:107400003146FCF7FDFE81B208EB4400FFF798F827
:107410005846FFF7C5F8DAF8102022F00102CAF842
:10742000102018B9641CE4B2BC42E7D3002289F8EA
:107430001820D9E7384100200020024005480169A2
:10744000090605D5044941600449416000207047A0
:10745000012070470020024023016745AB89EFCD32
:107460002DE9F84FDFF8B8A100220AF1040B144609
:1074700001274FF00F090BF1040E00BF0B6807FA4C
:1074800004F52B40AB4274D1DFF898C14E68A6EBEF
:107490000C0866452BD00DDC032E34D005DC36B34A
:1074A000012E19D0022E2FD11BE0112E16D0122E34
:1074B0002AD119E0B8F5881F19D006DCB8F5803F4D
:1074C00015D0B8F5801F1FD111E0B8F5001F0ED000
:1074D000B8F5041F18D10AE0CA6815E0CA68121D81
:1074E00012E0CA6808320FE0CA680C320CE08A6801
:1074F0002AB1012A4FF0080203D0456104E00422BA
:1075000002E0056100E00022FF2B01D8064601E001
:1075100000F104064FEA840501D9A5F12005D6F84B
:1075200000C009FA05F82CEA080C02FA05F54CEA45
:10753000050CC6F800C04D68ED006AD53A4DAE693D
:1075400046F00106AE61AD6924F0030605F00105C1
:107550000095364D06EB050CDCF80850A6074FEAFF
:10756000167809FA08F6B543314EB04202D100262A
:107570001AE04EE02F4EB04201D1012614E02E4E0B
:10758000B04201D102260FE02C4EB04201D10326B9
:107590000AE02B4EB04201D1042605E0294EB0424C
:1075A00001D1052600E0062606FA08F62E43CCF89F
:1075B00008604D68DAF80060ED03554601D51E43BA
:1075C00000E09E432E604D68AD0305D5DBF80060FA
:1075D0001E43CBF8006004E0DBF800509D43CBF87D
:1075E00000504D68DEF80060ED02754601D51E437F
:1075F00000E09E432E604D68AD0205D5084D0C3568
:107600002E681E432E6004E0054E0C3635689D43FF
:107610003560641C102CFFF431AFBDE8F88F00001A
:107620000004014000001110001002400000014061
:1076300000080140000C014000100140001401400E
:1076400000180140001C01408068084000D0012063
:107650007047C2684A40C26070470AB10161704712
:107660000904FBE70148006870470000A4000020FF
:1076700002480168491C016070470000A400002016
:10768000074810B5016841F010010160032000F0C7
:107690007FF8002000F006F800F016F8002010BD7A
:1076A0000020024010B5044600F0DAF94FF47A7178
:1076B000B0FBF1F000F01AFD00222146501E00F050
:1076C00047F8002010BD00001A4808B5816941F054
:1076D00001018161806900F001000090052000F047
:1076E00057F8002211466FF00B0000F031F800222D
:1076F00011466FF00A0000F02BF8002211466FF0DF
:10770000090000F025F800221146501F00F020F873
:1077100000221146101F00F01BF800221146901E97
:1077200000F016F80022BDE808401146501E00F097
:107730000FB800000010024000F01F02012191402C
:107740004009800000F1E020C0F8001170470000FF
:10775000F0B40E4B1B680C46C3F30223C3F10705BC
:10776000042D00D90425191D072901D2002300E0AA
:10777000DB1E012606FA05F1491E214099409E4074
:10778000761E16403143F0BC01F080B90CED00E0EC
:10779000064900F0070208684FF6FF03184040EA68
:1077A0000220034A10430860704700000CED00E01F
:1077B0000000FA05BFF34F8F05480168054A01F440
:1077C000E06111430160BFF34F8F00BFFDE7000090
:1077D0000CED00E00400FA0510B537A401461DCCFD
:1077E00086B08DE81D0038A0384C00680490002059
:1077F000042944D012DC012944D002293DD100F0F3
:107800004DF961684FF4804292FAA2F201F44041CE
:10781000B2FA82F2D140491C49002CE008292ED04E
:1078200010292AD161682268D20126D54FF470123E
:1078300092FAA2F201F47010B2FA82F2D040C903B7
:107840001DF8000010D561684FF4003292FAA2F2E0
:1078500001F40031B2FA82F2D14004AA515C1C4A10
:10786000B2FBF1F1484301E01A494843616849021B
:1078700003D440000321B0FBF1F006B010BD00F0CE
:1078800025F9FAE7226AC2F30121012903D19207FF
:1078900001D5C803F1E7022905D1626A920702D532
:1078A00049F64040E9E70329E7D121688903E4D597
:1078B0004FF22440E1E7000002030405060708092F
:1078C0000A0B0C0D0E0F10100102000000100240F8
:1078D00000127A0000093D002DE9F047DFF87081C1
:1078E00005460E46D8F8000000F00700B0420CD262
:1078F000D8F8001021F007013143C8F80010D8F87B
:10790000000000F00700B04277D12878514C800782
:1079100005D56068A96820F0F00008436060287809
:10792000C00759D06968012001290DD0022929D04A
:107930005FF0020393FAA3F2B2FA82F242F020025D
:10794000520904D0226803E04FF40033F2E7626A80
:1079500093FAA3F3B3FA83F303F01F0398400242B0
:107960004BD0606820F0030008436060FFF77AFEA8
:107970006968074641F2883001290DD00229814605
:1079800017D025E04FF00073D4E700BFFFF76AFE81
:10799000C11B494501D918E081466068C0F38100E8
:1079A0000128F3D118E000BFFFF75CFEC11B494579
:1079B0000BD86068C0F381000228F5D10CE000BF4D
:1079C000FFF750FEC11B494502D90320BDE8F087EF
:1079D000606810F00C0FF3D1D8F80010404601F0A9
:1079E0000701B1420BD9016821F007013143016061
:1079F000006800F00700B04201D00120E6E72878D7
:107A0000400705D56068E96820F4E06008436060DD
:107A10002878000706D56068296920F4605040EA9C
:107A2000C100606000F052F86168F02292FAA2F2A0
:107A300001F0F001B2FA82F2D140074A515CC8402D
:107A4000064908600020FFF72DFE0020BEE7000079
:107A500000200240001002401CBE0008340000203C
:107A600001480068704700003400002008480949B8
:107A7000006849684FF4E06292FAA2F201F4E06112
:107A8000B2FA82F2D140044A515CC840704700000B
:107A900034000020001002402CBE000808480949AC
:107AA000006849684FF4605292FAA2F201F4605102
:107AB000B2FA82F2D140044A515CC84070470000DB
:107AC00034000020001002402CBE000810B519A39D
:107AD00085B00FCB8DE80F001AA01B4B00680490F7
:107AE0005A681A4802F00C0104291DD008291BD13C
:107AF0004FF4701494FAA4F402F47011B4FA84F4FC
:107B0000E140D2031DF8011010D55A684FF400333C
:107B100093FAA3F302F40032B3FA83F3DA4004AB2E
:107B20009A5CB0FBF2F0484305B010BD08484843EA
:107B3000FAE7000002030405060708090A0B0C0D0A
:107B40000E0F1010010200000010024000127A0017
:107B500000093D002DE9F84F04460078F74DC007B5
:107B60004FF0010625D068687704C0F38100012832
:107B700007D06868C0F3810002281BD16868C00381
:107B800018D597FAA7F0B0FA80F040F0200040092D
:107B900001D0286800E0686A97FAA7F1B1FA81F18C
:107BA00001F01F0106FA01F108425ED0606800286A
:107BB0007CD05AE06068B0F5803F0BD010B1B0F5D2
:107BC000A02F11D0286820F480302860286820F485
:107BD000802002E0286840F480302860606828B384
:107BE000FFF740FD80460BE0286840F480202860C5
:107BF000F0E700BFFFF736FDA0EB0800642871D85E
:107C000097FAA7F0B0FA80F040F02000400901D0C8
:107C1000286800E0686A97FAA7F1B1FA81F101F0EB
:107C20001F0106FA01F10842E4D01EE0FFF71AFD39
:107C3000804605E0FFF716FDA0EB08006428DED8BB
:107C400097FAA7F0B0FA80F040F02000400901D088
:107C5000286800E0686A97FAA7F1B1FA81F101F0AB
:107C60001F0106FA01F10842E4D12078DFF8D08242
:107C700080074FF000094FF002075BD568684FF0AE
:107C8000F80B10F00C0F07D06868C0F381000228D1
:107C90001CD16868C00319D497FAA7F0B0FA80F035
:107CA00040F02000400902D0286801E08BE0686ABB
:107CB00097FAA7F1B1FA81F101F01F0106FA01F17B
:107CC00008422CD0206901287DD128E0206990B39A
:107CD00096FAA6F0B0FA80F048F82060FFF7C2FCF0
:107CE000824607E011E100BFFFF7BCFCA0EB0A00F1
:107CF000022884D897FAA7F0B0FA80F040F020006C
:107D0000400901D0286800E0686A97FAA7F1B1FA43
:107D100081F101F01F0106FA01F10842E4D0286860
:107D20009BFAABF26169B2FA82F220F0F80091405E
:107D30000843286025E0FFE796FAA6F1B1FA81F141
:107D400048F82190FFF78EFC824605E0FFF78AFC99
:107D5000A0EB0A000228CCD897FAA7F0B0FA80F07E
:107D600040F02000400901D0286800E0686A97FAD6
:107D7000A7F1B1FA81F101F01F0106FA01F1084201
:107D8000E4D1207800076ED5A069B8B396FAA6F0C2
:107D9000B0FA80F008EB8000C0F88064FFF762FC66
:107DA000824605E0FFF75EFCA0EB0A000228A0D89F
:107DB00097FAA7F0B0FA80F040F06000B6EB501FE1
:107DC00002D128680CE062E197FAA7F0B0FA80F0DF
:107DD00040F06000B7EB501F01D1286A00E0686AEC
:107DE00097FAA7F1B1FA81F101F01F0106FA01F249
:107DF0001042D7D00120FFF777FA34E0FFE796FA78
:107E0000A6F1B1FA81F108EB8101C1F88094FFF786
:107E100029FC824606E000BFFFF724FCA0EB0A0025
:107E2000022872D897FAA7F0B0FA80F040F060000C
:107E3000B6EB501F01D128680BE097FAA7F0B0FA13
:107E400080F040F06000B7EB501F01D1286A00E0DD
:107E5000686A97FAA7F1B1FA81F101F01F0106FAF9
:107E600001F21042D8D12078400765D5E86940F08A
:107E70008050E861E869DFF8CCB000F080500090F5
:107E8000DBF8001041F48071CBF80010FFF7EAFB3B
:107E9000824605E0FFF7E6FBA0EB0A00642834D831
:107EA000DBF80000C005F5D5E06801280AD008B16C
:107EB000052813D0286A20F001002862286A20F0E3
:107EC000040002E0286A40F001002862E06841F204
:107ED000883B90B3FFF7C6FB82460BE0286A40F070
:107EE00004002862EEE700BFFFF7BCFBA0EB0A012D
:107EF00059450AD897FAA7F0B0FA80F040F0400050
:107F0000B6EB501F02D128680CE0A3E097FAA7F067
:107F1000B0FA80F040F04000B7EB501F01D1286A62
:107F200000E0686A97FAA7F1B1FA81F101F01F0247
:107F300006FA02F10842D7D031E005E00010024015
:107F40000000424200700040FFF78CFB824605E0D3
:107F5000FFF788FBA0EB0A0159457BD897FAA7F0F9
:107F6000B0FA80F040F04000B6EB501F01D1286815
:107F70000BE097FAA7F0B0FA80F040F04000B7EBC2
:107F8000501F01D1286A00E0686A97FAA7F1B1FA98
:107F900081F101F01F0206FA02F10842D8D1E0692E
:107FA00080B36968C1F38101022970D04FF08071FC
:107FB0004F000228484609D091FAA1F1B1FA81F1A7
:107FC00048F82100FFF74EFB044669E08A4691FA23
:107FD000A1F1B1FA81F1C14648F82100FFF742FB57
:107FE000804605E0FFF73EFBA0EB0800022854D8CE
:107FF00097FAA7F0B0FA80F040F02000400902D0D4
:10800000286801E061E0686A97FAA7F1B1FA81F1A6
:1080100001F01F0106FA01F10842E3D1206AB0F530
:10802000803F05D16868A16820F40030084368608B
:10803000D4E908010843696821F4741108436860B1
:108040009AFAAAF0B0FA80F049F82060FFF70AFB2C
:10805000044606E021E000BFFFF704FB001B0228F6
:108060001BD897FAA7F0B0FA80F040F02000400942
:1080700001D0286800E0686A97FAA7F1B1FA81F1A7
:1080800001F01F0106FA01F10842E5D01DE01EE0F3
:10809000FFF7E8FA001B022802D90320BDE8F88F99
:1080A00097FAA7F0B0FA80F040F02000400901D024
:1080B000286800E0686A97FAA7F1B1FA81F101F047
:1080C0001F0106FA01F10842E2D10020E6E7012093
:1080D000E4E74FF0E0210428086903D020F0040011
:1080E0000861704740F00400FAE7704710B5401E81
:1080F000B0F1807F01D3012010BD4FF0E02460611A
:108100000F21601700F0C2FC0020A0610720206151
:10811000002010BD10B5FFF7E8FF10BD30B590F896
:108120003820012A20D0012280F83820022380F84C
:10813000393003685C6824F070045C6003685C6834
:108140000D682C435C6003689C6824F080049C608C
:1081500003689C6849680C439C6080F839200021C2
:1081600080F83810084630BD022030BD10B504003C
:1081700003D094F8390010B107E0012010BD0020B1
:1081800084F83800204600F00DF8022084F8390009
:10819000211D206801F08AF8012084F839000020B0
:1081A00010BD00002DE9F84F05460068254900265E
:1081B000254F4FF010084FF080094FF4007A4FF42C
:1081C000006B88421AD1F86940F00800F861F8693C
:1081D0001F4C00F0080000901C48C4E90008202053
:1081E000C4E905B00002E06104F10801204681E81D
:1081F0004006FFF725F8AC62EC6165621549286816
:1082000088421CD1B86940F40050B861B869104C7C
:1082100000F4005000900D4838341438C4E90008C8
:108220002020C4E905B00002E06104F10801204605
:1082300081E84006FFF704F8AC62EC616562BDE8D6
:10824000F88F0000000C0040001002401C040240A7
:108250001806002000340140022180F8391001681E
:108260000A6842F001020A60012180F839100020FA
:10827000704770B5044690F83800012817D00125E2
:1082800084F83850022084F839002068826822F08F
:10829000770222F47F4282600868502837D00DDCD4
:1082A000202859D005DC88B3102841D151E00220A4
:1082B00070BD302853D040283AD13FE060282ED0FE
:1082C00070280BD0B0F5805F03D0B0F5005F2FD1E0
:1082D00010E02068816821F0070115E0CB68D1E942
:1082E0000121206801F02FF82168886840F07700AC
:1082F00088601DE0CB68D1E90121206801F023F8F6
:108300002068816841F48041816011E01EE0CA6804
:108310004968206801F06EF95021206806E0CA68BB
:108320004968206801F077F96021206801F015F8AC
:1083300084F83950002084F8380070BDCA68496854
:10834000206801F057F940212068EFE700212068FC
:10835000ECE710212068E9E720212068E6E73021DA
:108360002068E3E71FB50068074988420AD14FF447
:10837000207000900220019003200390694603487A
:10838000FFF76EF81FBD000000080040000C014020
:1083900070B5044690F838000D4601280DD001262E
:1083A00084F83860022084F8390042B1042A18D0D9
:1083B000082A2AD00C2A4DD139E0022070BD20684D
:1083C00001F056F82068816941F008018161206858
:1083D000816921F004018161206881692A69114362
:1083E00011E0206801F074F82068816941F40061AF
:1083F00081612068816921F48061816120688169DF
:108400002A6941EA0221816124E0206801F096F89E
:108410002068C16941F00801C1612068C16921F08B
:108420000401C1612068C1692A69114311E0206813
:1084300001F0B8F82068C16941F40061C1612068A9
:10844000C16921F48061C1612068C1692A6941EA7A
:108450000221C16184F83960002084F8380070BDC1
:1084600010B5040003D094F8390010B107E00120E2
:1084700010BD002084F83800204600F00DF80220DE
:1084800084F83900211D206800F010FF012084F8D5
:108490003900002010BD000008B500680649884278
:1084A00008D10648C16941F00401C161C06900F00A
:1084B0000400009008BD00000008004000100240C9
:1084C00010B504460068012200F032FF0849206818
:1084D000884202D00749884203D1416C41F40041EF
:1084E00041642068016841F001010160002010BD75
:1084F000002C01400034014010B504460068416979
:1085000021F0C0014161206B08B1FEF711FC606BE6
:1085100008B1FEF70DFC012084F83900002010BDE1
:108520007047000038B5044600680168C26811F061
:10853000010F02F4807204D01AB1E16B41F0010125
:10854000E1630168C1F34002416901F0010122B118
:1085500019B1E26B42F00402E2630268C2F38002E6
:1085600022B119B1E26B42F00202E2630268C2F387
:10857000C00222B119B1E16B41F00801E163016869
:10858000C068C1F3401100F0200019B110B12046BD
:1085900002F00EF820680168C068C1F3C01100F055
:1085A000800019B110B1204602F00EF92168086868
:1085B000CA68C0F3801002F04002012570B16AB1B0
:1085C000CA68204622F04002CA6094F83910322965
:1085D00011D080F8395000BF00F00CFAE06B002891
:1085E00008D0206801684068009084F8395020461F
:1085F000FFF796FF38BD222180F83910ECE770B5FF
:10860000040004D094F83900002510B106E00120E0
:1086100070BD84F83850204600F020F8022084F81D
:1086200039002068C16821F40051C160204602F081
:1086300013F82068016921F49041016120684169C3
:1086400021F02A0141612068C16841F40051C160F4
:10865000E563012084F83900002070BD2DE9F04F5A
:108660000446006893490025934F85B04FF0020AF5
:108670004FF0030B4FF080084FF40059884257D158
:10868000B86940F48040B861B8698C4E00F480400D
:1086900004904815CDE9000A6946CDF80CB0304683
:1086A000FEF7DEFE3015CDE900056946304602953D
:1086B000FEF7D6FE002201212520FFF749F82520EC
:1086C000FFF73AF87F4E7E4801C61020A6E8210148
:1086D0007C4846F810597561C6E90659FEF7B0FDA9
:1086E0002663012211460E207462FFF731F80E2036
:1086F000FFF722F8734E724838361430C6E9000589
:10870000C6E9025835617561C6E906593046FEF77B
:1087100097FD6663002201210F207462FFF718F8AD
:108720000F20FFF709F82068C16841F01001C1600F
:108730006549206888425AD1F86940F40030F861F0
:10874000F8695E4E00F4003004900420CDE9000A80
:108750006946CDF80CB03046FEF782FE0820CDE920
:108760000005694630460295FEF77AFE0122114661
:108770002620FEF7EDFF2620FEF7DEFF514E504883
:1087800070363C3001C61020A6E821014D4846F85D
:10879000105970307561C6E90659FEF751FD266320
:1087A0000122114611207462FEF7D2FF1120FEF75C
:1087B000C3FF444E4248A8362830C6E90005C6E942
:1087C000025835617561C6E906593046FEF738FD35
:1087D00066630122114610207462FEF7B9FF102073
:1087E000FEF7AAFF2068C16841F01001C160374957
:1087F000206888425AD1F86940F48020F861F8690D
:10880000334E00F4802004900815CDE9000A694633
:10881000CDF80CB03046FEF723FEF014CDE900058C
:10882000694630460295FEF71BFE012211462720BD
:10883000FEF78EFF2720FEF77FFF224E2048E0360E
:10884000283801C61020A6E821011E4846F8105914
:108850004F467561C6E90659E030FEF7F1FC266324
:10886000012211460C207462FEF772FF0C20FEF705
:1088700063FF1348174E1438C6E90005C6E90258CD
:1088800035617561C6E906573046FEF7D9FC666367
:10889000012211460D207462FEF75AFF0D20FEF7EB
:1088A0004BFF2068C16841F01001C16005B0BDE810
:1088B000F08F000000380140001002400008014025
:1088C00044000240A009002000440040004800404D
:1088D000000C0140B80A002070B5044690F8390039
:1088E000012801D0122832D169B362B394F838005C
:1088F00001282CD0012084F83800A162A28500252F
:10890000E56394F8390012281FD0222084F839003A
:10891000636B10489862636B0F48D862636B0F48B3
:10892000186308461346666B216802463046091DE7
:10893000FEF7AEFC2068416941F04001416184F8D6
:108940003850002070BD012070BD3220DEE70220CB
:1089500070BD000039A500086FA5000819A5000822
:108960007047704770B5044690F83900012801D06F
:10897000222836D181B37AB394F83800012830D058
:10898000012084F838002162A284E2840025E56396
:1089900094F83900222822D05FF0120084F83900C0
:1089A000236B11489862236B1048D862236B1048E0
:1089B000186326681346321D206BFEF769FC216898
:1089C0006FF0400008602068416941F0800141611A
:1089D00084F83850002070BDFFE70120FBE732200B
:1089E000DCE70220F7E7000079A50008A7A500084A
:1089F00019A5000870B5044600680C490C4D884262
:108A000002D1286800F030F80A492068884202D173
:108A1000686800F029F808492068884204D1A868ED
:108A2000BDE8704000F020B870BD00000038014083
:108A30000000002000440040004800407047000053
:108A400008B500236A4602F0B1FF0098002807D05D
:108A500004494FF080500860BFF34F8FBFF36F8F12
:108A600008BD000004ED00E008B5694602F0DAFF39
:108A70000098002807D004494FF080500860BFF3E9
:108A80004F8FBFF36F8F08BD04ED00E00907090E9B
:108A9000002806DA00F00F0000F1E02080F8141D35
:108AA000704700F1E02080F800147047F0B4AC4B40
:108AB000AA4C142293F83250A4F1500332E1012859
:108AC0000ED0022831D0032854D004287BD00528AA
:108AD00071D0062870D007286FD00828EED10CE19D
:108AE00039B953F8226026F4804646F0804643F8B0
:108AF0002260012907D153F8226026F0804646F40F
:108B0000804643F8226002297DD1002D7CD053F8A5
:108B10002260032A04D926F4804646F08046E9E024
:108B200026F0804646F48046E4E039B953F82260E6
:108B300026F4005646F0005643F82260012907D17A
:108B400053F8226026F0005646F4005643F822609F
:108B5000022958D1002D57D053F82260032A04D996
:108B600026F4005646F00056C4E026F0005646F4BF
:108B70000056BFE039B954F8226026F4007646F07A
:108B8000007644F82260012907D154F8226026F0CB
:108B9000007646F4007644F82260022933D1002D95
:108BA00032D054F822600B2A08D926F4007646F019
:108BB000007678E007E02DE051E077E026F00076DF
:108BC00046F400766FE039B954F8226026F48076D6
:108BD00046F0807644F82260012907D154F82260DB
:108BE00026F0807646F4807644F8226002290AD185
:108BF000002D09D054F822600B2A06D926F480767D
:108C000046F080764FE050E09AE026F0807646F419
:108C1000807648E039B954F8226026F0800646F4A0
:108C2000000644F82260012907D154F8226026F496
:108C3000000646F0800644F82260022972D1002D19
:108C40007ED054F822600B2A04D926F0800646F420
:108C5000000628E026F4000646F0800623E039B935
:108C600054F8226026F0400646F4800644F822605C
:108C7000012907D154F8226026F4800646F0400608
:108C800044F8226002294DD1002D65D054F82260AD
:108C90000B2A04D926F0400646F4800603E026F4A9
:108CA000800646F0400644F822603BE039B953F8AC
:108CB000226026F4004646F0004643F8226001296F
:108CC00007D153F8226026F0004646F4004643F8E8
:108CD0002260022926D1002D3ED053F822600B2AB3
:108CE00004D926F4004646F0004603E026F000468C
:108CF00046F4004643F8226014E039B953F8226084
:108D000026F4805646F0805643F82260012907D1A8
:108D100053F8226026F0805646F4805643F82260CD
:108D2000022907D0521E92B2BFF4C9AEF0BC012096
:108D300002F0BEBB002D0FD0032A53F8226000E0E2
:108D40000AE004D926F4805646F08056D2E726F091
:108D5000805646F48056CDE7F0BC704714050020DD
:108D6000A8000020044A0128126803D0022800D17C
:108D700091637047116470476405002070B5554CCD
:108D80004FF4807670B1544D01281BD004282ED0AA
:108D900005284AD0062865D007287DD1BDE8704057
:108DA0000520EBE7002231462046FEF756FC002264
:108DB00040212046FEF751FC00210120FFF7D2FFA1
:108DC00000210FE0012231462046FEF746FC012239
:108DD00040212046FEF741FC15F8301F0120FFF727
:108DE000C1FF6978BDE870400220FFF7BBBF0122D8
:108DF00040212046FEF731FC95F831100220FFF7A4
:108E0000B1FF002231462046FEF727FC0021012059
:108E1000FFF7A8FF01210846FFF748FE00210220C6
:108E2000FFF744FE002108204FE001223146204692
:108E3000FEF713FC95F830100120FFF793FF002296
:108E400040212046FEF709FC00210220FFF78AFF9F
:108E500000210120FFF72AFE01210220FFF726FE54
:108E600000211DE0012231462046FEF7F6FB95F871
:108E700030100120FFF776FF002240212046FEF748
:108E8000ECFB00210220FFF76DFF01210846FFF7F0
:108E90000DFE0121022000E01BE0FFF707FE01218B
:108EA0000820FFF703FE00210320FFF7FFFD00214C
:108EB0000420FFF7FBFD00210520FFF7F7FD00214F
:108EC0000620FFF7F3FD00210720BDE87040FFF703
:108ED000EDBD70BD000C0140A800002010B50023BE
:108EE00006E000BF30F8024B21F813405B1C9BB238
:108EF0009342F7D310BD00002DE9F84F83460020C0
:108F0000ABF1006415468A460090B4F5802F56D226
:108F1000FEF794FAE70AC4F34906C6F58064A54251
:108F200000D82C46DFF89C904FF0006000EBC72083
:108F300080464FF480622349FFF7D0FF00204FF6B0
:108F4000FF7206E0331839F81310914203D1401C28
:108F500080B2A042F6D3A0422BD21B480021016070
:108F60000121C0E902816946FEF7CAF9002049469D
:108F700007E000BF3AF810208319401C21F81320A5
:108F800080B2A042F6D30F4940464FF4806200BF42
:108F900000F01CF8A54210D0281B0AEB440AA34499
:108FA000002685B24FF480647F1CA542BCD82C46B5
:108FB000BAE7224651465846EAE7FEF7F5F9BDE81A
:108FC000F88F0000CC0D0020CC1500202DE9F041D9
:108FD00016460F46054600240AE000BF37F8142065
:108FE000002329460120FEF7E9F9641CA4B2AD1C58
:108FF000B442F3D3BDE8F08130B45EA0D0E90014F0
:1090000082680020CBB24A2B14D0462B22D04D2BA5
:109010002BD0412B34D04D2B42D04A2B0ED0412B9C
:1090200032D0532B5BD04F2B64D04E2B73D0442BBC
:109030007CD083E0C1F30723612B04D0C1F3072365
:10904000752B38D07AE0C1F307416E2976D1110C27
:10905000012259E0C1F30723652B6FD1C1F307410A
:1090600062296BD1110C02224EE0C1F30723612B60
:1090700064D1C1F30743722B16D1110C032243E0D4
:10908000C1F30723702B04D0C1F30723752B1FD026
:1090900054E0C1F30741722950D1110C042233E08E
:1090A000C1F30723612B49D1C1F30741792945D188
:1090B000110C052228E0C1F307416E2902D06C296A
:1090C00003D03BE0110C06221EE0110C07221BE02E
:1090D000C1F30741672931D1110C082214E0C1F313
:1090E0000723652B2AD1C1F30741702926D1110C22
:1090F000092209E0C1F30723632B1FD1C1F3074104
:1091000074291BD1110C0A2202EB011161F3070033
:1091100014E000E00AE0C1F307236F2B0ED1C1F386
:10912000074176290AD1110C0B22EDE7C1F3072381
:10913000652B03D1C1F3074163290BD0E1B230297C
:109140000BD9303901EB8101D02303EB410101EB55
:10915000142104E0110C0C22D6E7210A303961F306
:109160000F20010A01EB002001B230BC072001F002
:10917000DFB80000417072203133203230323300CA
:1091800030B58FB00120009000040024CDE9010427
:109190000225CDE907504FF4E01009906846FEF72C
:1091A000D9FC0F20CDE90A056802CDE90C40022167
:1091B0000AA80E94FEF790FBFEF752FC4FF47A716A
:1091C000B0FBF1F0FEF792FF0420FEF782FF0022D1
:1091D0001146501EFEF7BCFA0FB030BD10B5FEF7B9
:1091E00047FAFEF797FF02F09FFC012803D0BDE885
:1091F000104002F059BA10BD0D48016841F001015C
:10920000016041680B4A1140416001680A4A1140FF
:109210000160016821F480210160416821F4FE01B0
:1092200041604FF41F0181600449C003086070472A
:10923000001002400000FFF8FFFFF6FE08ED00E01E
:1092400010B519488AB01749016047210024C0E9C8
:1092500001146421C0E90314FFF702F9079407A978
:1092600011480894FEF75AFF6020CDE900040294EB
:109270000422694604940C48FFF78AF80C226946D8
:1092800009480194FFF784F80748FFF76BF80421B9
:109290000548FFF715F90C210348FFF711F90AB04B
:1092A00010BD00000008004064050020F0B5026811
:1092B0001A4B1B4D1B4E1C4F1C4C4FF0804C9842C0
:1092C00009D0A04207D0604505D0A84203D0B042E3
:1092D00001D0B84204D122F0700E4A6842EA0E0270
:1092E000984209D0A04207D0604505D0A84203D0DB
:1092F000B04201D0B84203D122F44075CA682A4373
:1093000002608A68C2620A688262984201D0A04202
:1093100001D10969016301214161F0BD002C0140C7
:109320000004004000080040000C004000340140F0
:1093300010B50123046A8B409C430462036A8A408F
:109340001343036210BD10B5846842EA032224F47B
:109350007F440A432243826010BD826822F070027B
:109360000A4342F007018160704700002DE9F04197
:1093700086B00024394D009401940294039404941F
:109380003548059428604726C5E901644FF07D08FB
:10939000C5E9038428466C61FEF7E8FE4FF4805768
:1093A000694628460097FEF764FF049404A92846FE
:1093B0000594FEF7B3FE1420294AA5F58C7102E04E
:1093C000136841F82030401E0004000CF8D12868D2
:1093D000C16841F48071C16014232249E869FDF736
:1093E00057FF1E48FEF738FF1C4D1F483C3D2860C4
:1093F000C5E90164C5E9038428466C61FEF7B6FE41
:10940000694628460097FEF734FF049404A92846CD
:109410000594FEF783FE1420144AA5F18C0102E0A6
:10942000136941F82030401E0004000CF8D1286870
:10943000C16841F48071C1600C4A0A49142310329A
:109440005031E869FDF724FF04483C38FEF704FF7B
:1094500006B0BDE8F081000000340140DC050020CA
:10946000100C0140C4040020000C0040001001401A
:10947000F0B5026A22F001020262036A426884695E
:10948000124E24F073050C682C4323F002058B6800
:109490002B430D4DA84201D0B04205D123F008075F
:1094A000CB683B4323F00403A84201D0B04205D16E
:1094B0004D6922F4407215438A692A4342608461EF
:1094C000496841630362F0BD002C01400034014053
:1094D000F0B5026A22F010020262026A43688469EF
:1094E0000D6824F4E64444EA05248D6822F0200245
:1094F00042EA05120F4D104EA84201D0B04206D1EB
:10950000CF6822F0800242EA071222F04002A8420D
:1095100001D0B04207D14D6923F4406343EA85038B
:109520008D6943EA8503436084614968816302620F
:10953000F0BD0000002C014000340140F0B5026A8B
:1095400022F480720262026A4368C46922F40072E3
:1095500024F073050C68124E2C438D6842EA0522F4
:109560000E4DA84201D0B04206D1CF6822F400626D
:1095700042EA072222F48062A84201D0B04207D119
:109580004D6923F4405343EA05138D6943EA0513FB
:109590004360C4614968C1630262F0BD002C0140B0
:1095A0000034014030B5026A22F480520262046A3B
:1095B0004268C3690D6823F4E64343EA05238D68D6
:1095C00024F4005444EA0534084DA84202D0084D62
:1095D000A84204D14D6922F4804242EA85124260D9
:1095E000C36149680164046230BD0000002C014081
:1095F0000034014010B5036A046A24F001040462D7
:10960000846924F0F00444EA021423F00A020A43B5
:109610008461026210BD10B5036A23F01003036277
:109620008369046A23F4704343EA023224F0A003FE
:1096300043EA01118261016210BD0000F54C4FF058
:109640000309012584F8059065754FF0060A84F832
:1096500018A084F819A0E5764FF0020884F82D8050
:1096600009202118401CC0B24D751628F9D90027D1
:1096700094F8A200012877D1A079012874D1C820DC
:1096800001F016FF6079022802D0042803D00FE011
:10969000A7710B2076E0A771E77284F8D7700520D8
:1096A000FFF76CFB207E801C2071257284F80A80F5
:1096B0006079052805D1A7710120FFF75FFB84F8C9
:1096C00008806079072809D1A771E7720520FFF7A4
:1096D00055FB207E801C207184F808906079082852
:1096E00008D00D280AD009280CD013280FD00A283A
:1096F00012D017E0A771E7720C2043E0A771E77260
:109700000D203FE0A7712771E77204203AE0A771AE
:109710002771E772112035E0A7710120FFF72EFBBA
:109720000520207260790B2809D1A77184F8A370F5
:1097300084F8A4700120FFF721FB84F808A0607969
:109740000C2809D1A77184F8A37084F8A4700120B3
:10975000FFF714FB072020726079112805D012282A
:109760000AD00F2810D019E02AE0A77184F8A3705E
:1097700084F8A4700F2005E0A77184F8A37084F822
:10978000A47010202072E7E0A771E7720520FFF7B0
:10979000F5FA207E801C207108202072607906284E
:1097A0000BD1A771E77284F8D7700520FFF7E6FAAE
:1097B000207E801C20710920207260790E2803D041
:1097C0006079012809D01BE0A771E774277584F838
:1097D000D57084F8D6700A20D4E70020FFF7CEFABF
:1097E00094F8D20001280BD184F8D2700020FCF745
:1097F0004DFE94F8A20018B90121062000F086FD64
:109800006079102802D0032803D01FE00E202072B8
:109810001CE0FFF7F1FB142001F04AFEB4F99610AA
:10982000082000F085FD142001F042FEB4F9E61096
:109830000D2000F07DFD142001F03AFEB4F9E8108F
:109840000E2000F075FD142001F032FEA0790228F0
:1098500025D1A771952627720020FFF78FFA0120E6
:10986000FCF714FEA079012807D0032805D00228B0
:1098700000D1A771761EF6B2EDD20020FCF706FEED
:10988000644894F8D81086300F54624994F8D80090
:10989000793147545F4894F8D8107F300F54A0793D
:1098A000032859D10020FFF769FA00210320FFF7B0
:1098B000FDF800210420FFF7F9F800210520FFF74B
:1098C000F5F800210620FFF7F1F800210720FFF747
:1098D000EDF884F8867084F8877084F8887084F8CE
:1098E0007A7084F87B7084F87C7084F87D7084F8DA
:1098F0007E7084F8817084F8827084F8837084F8B4
:10990000847084F88570A772677267712772A77177
:1099100084F8A37084F8A47084F8D770A4F8EA706F
:1099200001206934FCF7B2FD4FF4FA7001F0C0FD7C
:10993000642604F8637C693C07E00A2001F0B8FD66
:1099400094F8A20028B1A07918B9761E16F0FF0687
:10995000F3D10020FCF79AFD012001F0A9FD207A47
:1099600008B9FAF767FF207A012801D1FAF764FFF6
:10997000207A022801D1FBF7A9FE207A032801D121
:10998000FBF78AFF207A042801D1FCF755F8207AEA
:10999000052801D1FCF7BCF8207A062801D1FCF794
:1099A0006DF9207A072801D1FCF72AFA207A0828D5
:1099B00001D1FCF7DDFA207A092801D1FCF72CFC53
:1099C000207A0A2801D1FBF7D9F9207A0B2801D196
:1099D000FBF7CAFA207A0C2801D1FBF7C7FA207AE4
:1099E0000D2801D1FBF740FB207A0E2801D1FBF7AF
:1099F0003DFB207A0F2801D1FBF7C2FB207A10280B
:109A000001D1FBF7F1FC207A11287FF431AEFBF78E
:109A100013FE2DE6A800002008B5084C4FF0FF35D6
:109A200000232A466946606901F072FE0128F7D1D9
:109A3000009890F8C81000F0A1FCF1E700000020A9
:109A400008B5084C4FF0FF3500232A4669462068C8
:109A500001F05EFE0128F7D1009890F8C81000F0E0
:109A6000E3FAF1E70C0000200526164C4FF0190828
:109A70000025207A0E2818D1B80090FBF6F1B4F931
:109A80009800B4F99A20B4F99E301044B4F99C209F
:109A90001A441044B4F9A020024492FBF8F00844A0
:109AA00007B23946082000F043FC642001F000FDB5
:109AB000E0790128DDD1E57101210B2000F026FCC1
:109AC000D7E70000A8000020F54800274FF0010A62
:109AD000DFF8D09380F8A2A03D463E4683465C4620
