:020000040800F2
:20000000D00C0020450100084D0100084F01000851010008530100085501000800000000D4
:200020000000000000000000000000005701000859010008000000005B010008E119000898
:200040005F0100085F0100085F0100085F0100085F0100085F0100085F0100085F01000860
:200060005F0100085F0100085F0100085F0100085F0100085F0100085F0100085F01000840
:200080005F0100085F0100085F0100085F0100085F0100085F0100085F0100085F01000820
:2000A0005F0100085F0100085F0100085F0100085F0100085F0100085F0100085F01000800
:2000C0005F0100085F0100085F0100085F0100085F010008491D00085F0100085F010008DA
:2000E0005F0100085F0100085F0100085F0100085F0100085F0100085F0100085F010008C0
:200100005F0100085F0100085F0100085F0100085F0100085F0100085F0100085F0100089F
:200120005F0100085F0100085F0100085F010008DFF80CD000F03EF800480047A91F0008E7
:20014000D00C00200648804706480047FEE7FEE7FEE7FEE7FEE7FEE7FEE7FEE7FEE7FEE707
:20016000F119000831010008202A04DB203A21FA02F00021704721FA02F3D040C2F12002D6
:20018000914008431946704730B50B46014600202022012409E021FA02F59D4205D303FA7A
:2001A00002F5491B04FA02F52844151EA2F10102F1DC30BD064C074D06E0E06840F00103F8
:2001C00094E8070098471034AC42F6D3FFF7B4FFE421000804220008034610B50020024668
:2001E00003E09C5C6040521C92B28A42F9D310BD08B54FF6FF70ADF800000122694602483B
:2002000001F0E2FA08BD000024F8030806490020C8610648016941F004010161016941F0A2
:200220004001016170470000B008002000200240064A0021D16106490A6942F002020A6124
:200240004861086940F0400008617047B008002000200240044B0022DA61044A136943F011
:200260000103136101807047B0080020002002400E49C868C2060E4803D5C26942F00202B6
:20028000C261CA68520703D5C26942F00102C261CA69D20707D0C26942F00402C261C869BB
:2002A00020F00100C8611420C860704700200240B008002070B5054600F0B0FA0646114C04
:2002C00009E0681C07D025B100F0A8FA801BA84201D9032070BDE068C007F2D1E068800623
:2002E00001D52020E060E068C00605D4E069C00702D1E068400703D5FFF7BAFF012070BD7A
:20030000002070BD0020024070B5264886B0816941F004018161816901F004010491816904
:2003200041F008018161816901F008010491816941F010018161806900F0100004901A483B
:20034000416821F0E06141F000714160174E01222021304600F05CFA0122140221463046C4
:2003600000F056FA01221021304600F051FA009401240225694630460395019400F054F9C9
:200380002020CDE9000469460395304600F04CF91020CDE9000469460395304600F044F99D
:2003A00006B070BD0010024000000140000C014031B500F033FA044600F030FA0099001B5F
:2003C0008842F9D338BD00002DE9F047054626480F460126017E01290FD001218146017628
:2003E0002868DFF888804CF25034022808D0A2462046FFF75FFFA8B131E00220BDE8F08780
:200400002046FFF757FF08BB0120FFF7FFFE2046FFF750FFD8F81010064621F00401C8F896
:2004200010101CE04FF0FF303860AC6811E02046FFF7FEFE5046FFF73DFFD8F8101006007F
:2004400021F00201C8F8101001D03C6007E004F50064D5E9020100EBC120A042E7D80021A8
:2004600089F818103046C9E7B0080020002002400348016941F080010161002070470000D3
:20048000002002402DE9F05F07461C4888460024017E15461E46012909D001218146017651
:2004A0004CF2503A5046FFF705FF18B122E00220BDE8F09F012F02D0022F00D00427D3467C
:2004C000DFF83CA0220128463146FFF74DFE81B208EB4400FFF7BEFE5846FFF7EBFEDAF8B5
:2004E000102022F00102CAF8102018B9641CE4B2BC42E7D3002289F81820D9E7B0080020B3
:200500000020024005480169090605D50449416004494160002070470120704700200240EC
:2005200023016745AB89EFCD2DE9F04300230F24DFF8D4C063E001229A400A405ED0FF2A10
:2005400001D8074601E000F104074FEA830601D9A6F12006D7F8008004FA06F54FF00409AB
:2005600028EA050809FA06F948EA0908C7F80080C56825EA0205C56023F003056544AF6895
:200580004FEA83764FEA167604FA06F909EA07081E4FB84201D1002719E01D4FB84201D1D4
:2005A000012714E01B4FB84201D102270FE01A4FB84201D103270AE0184FB84201D104272A
:2005C00005E0174FB84201D1052700E00627B740474513D1AF6827EA0907AF60114D2E6829
:2005E00096432E602D1D2E6896432E602D1D2E6896432E602D1D2E6896432E605B1C31FA1D
:2006000003F298D1BDE8F0830000014000080140000C01400010014000140140001801408E
:20062000001C0140000401402DE9F84FDFF8B8A100220AF1040B144601274FF00F090BF18A
:20064000040E00BF0B6807FA04F52B40AB4274D1DFF898C14E68A6EB0C0866452BD00DDCA5
:20066000032E34D005DC36B3012E19D0022E2FD11BE0112E16D0122E2AD119E0B8F5881F8B
:2006800019D006DCB8F5803F15D0B8F5801F1FD111E0B8F5001F0ED0B8F5041F18D10AE0C4
:2006A000CA6815E0CA68121D12E0CA6808320FE0CA680C320CE08A682AB1012A4FF00802C8
:2006C00003D0456104E0042202E0056100E00022FF2B01D8064601E000F104064FEA840560
:2006E00001D9A5F12005D6F800C009FA05F82CEA080C02FA05F54CEA050CC6F800C04D683D
:20070000ED006AD53A4DAE6946F00106AE61AD6924F0030605F001050095364D06EB050C7B
:20072000DCF80850A6074FEA167809FA08F6B543314EB04202D100261AE04EE02F4EB0421F
:2007400001D1012614E02E4EB04201D102260FE02C4EB04201D103260AE02B4EB04201D1C7
:20076000042605E0294EB04201D1052600E0062606FA08F62E43CCF808604D68DAF8006076
:20078000ED03554601D51E4300E09E432E604D68AD0305D5DBF800601E43CBF8006004E06E
:2007A000DBF800509D43CBF800504D68DEF80060ED02754601D51E4300E09E432E604D6853
:2007C000AD0205D5084D0C352E681E432E6004E0054E0C3635689D433560641C102CFFF43B
:2007E00031AFBDE8F88F00000004014000001110001002400000014000080140000C01405E
:20080000001001400014014000180140001C01400AB1016170470904FBE700000148006808
:20082000704700001400002002480168491C01607047000014000020074810B5016841F0BB
:2008400010010160032000F089F8002000F006F800F016F8002010BD0020024010B5044628
:2008600000F07CF94FF47A71B0FBF1F000F0BCFC00222146501E00F051F8002010BD000094
:200880001A4808B5816941F001018161806900F001000090052000F061F8002211466FF08A
:2008A0000B0000F03BF8002211466FF00A0000F035F8002211466FF0090000F02FF80022F1
:2008C0001146501F00F02AF800221146101F00F025F800221146901E00F020F80022BDE895
:2008E00008401146501E00F019B800000010024000F01F02012191404009800000F1E0201A
:20090000C0F88011704700F01F02012191404009800000F1E020C0F800117047F0B40E4B9C
:200920001B680C46C3F30223C3F10705042D00D90425191D072901D2002300E0DB1E0126B8
:2009400006FA05F1491E214099409E40761E16403143F0BC00F0F8BE0CED00E0064900F05A
:20096000070208684FF6FF03184040EA0220034A10430860704700000CED00E00000FA057C
:200980002DE9F047DFF8708105460E46D8F8000000F00700B0420CD2D8F8001021F0070113
:2009A0003143C8F80010D8F8000000F00700B04277D12878514C800705D56068A96820F06B
:2009C000F000084360602878C00759D06968012001290DD0022929D05FF0020393FAA3F2F9
:2009E000B2FA82F242F02002520904D0226803E04FF40033F2E7626A93FAA3F3B3FA83F386
:200A000003F01F03984002424BD0606820F0030008436060FFF702FF6968074641F28830A4
:200A200001290DD00229814617D025E04FF00073D4E700BFFFF7F2FEC11B494501D918E083
:200A400081466068C0F381000128F3D118E000BFFFF7E4FEC11B49450BD86068C0F381000E
:200A60000228F5D10CE000BFFFF7D8FEC11B494502D90320BDE8F087606810F00C0FF3D1E4
:200A8000D8F80010404601F00701B1420BD9016821F0070131430160006800F00700B04278
:200AA00001D00120E6E72878400705D56068E96820F4E060084360602878000706D56068F4
:200AC000296920F4605040EAC100606000F07CF86168F02292FAA2F201F0F001B2FA82F2B4
:200AE000D140074A515CC840064908600020FFF7B5FE0020BEE700000020024000100240E6
:200B0000CC21000804000020104810B5416821F00301416001680E4A11400160016821F44F
:200B200080210160002141600268F82494FAA4F41023B4FA84F422F0F802A3401A4302603E
:200B4000816005490348086010BD000000100240FFFFF6FE00127A00040000200148006841
:200B6000704700000400002008480949006849684FF4E06292FAA2F201F4E061B2FA82F2E4
:200B8000D140044A515CC840704700000400002000100240DC210008084809490068496854
:200BA0004FF4605292FAA2F201F46051B2FA82F2D140044A515CC84070470000040000206B
:200BC00000100240DC21000810B519A385B00FCB8DE80F001AA01B4B006804905A681A486A
:200BE00002F00C0104291DD008291BD14FF4701494FAA4F402F47011B4FA84F4E140D2033F
:200C00001DF8011010D55A684FF4003393FAA3F302F40032B3FA83F3DA4004AB9A5CB0FBB9
:200C2000F2F0484305B010BD08484843FAE7000002030405060708090A0B0C0D0E0F101072
:200C4000010200000010024000127A0000093D002DE9F84F04460078F74DC0074FF00106FD
:200C600025D068687704C0F38100012807D06868C0F3810002281BD16868C00318D597FAD5
:200C8000A7F0B0FA80F040F02000400901D0286800E0686A97FAA7F1B1FA81F101F01F01A0
:200CA00006FA01F108425ED0606800287CD05AE06068B0F5803F0BD010B1B0F5A02F11D037
:200CC000286820F480302860286820F4802002E0286840F480302860606828B3FFF79EFDE2
:200CE00080460BE0286840F480202860F0E700BFFFF794FDA0EB0800642871D897FAA7F0AA
:200D0000B0FA80F040F02000400901D0286800E0686A97FAA7F1B1FA81F101F01F0106FAB6
:200D200001F10842E4D01EE0FFF778FD804605E0FFF774FDA0EB08006428DED897FAA7F04B
:200D4000B0FA80F040F02000400901D0286800E0686A97FAA7F1B1FA81F101F01F0106FA76
:200D600001F10842E4D12078DFF8D08280074FF000094FF002075BD568684FF0F80B10F068
:200D80000C0F07D06868C0F3810002281CD16868C00319D497FAA7F0B0FA80F040F0200034
:200DA000400902D0286801E08BE0686A97FAA7F1B1FA81F101F01F0106FA01F108422CD0DB
:200DC000206901287DD128E0206990B396FAA6F0B0FA80F048F82060FFF720FD824607E07D
:200DE00011E100BFFFF71AFDA0EB0A00022884D897FAA7F0B0FA80F040F02000400901D06E
:200E0000286800E0686A97FAA7F1B1FA81F101F01F0106FA01F10842E4D028689BFAABF287
:200E20006169B2FA82F220F0F80091400843286025E0FFE796FAA6F1B1FA81F148F82190FC
:200E4000FFF7ECFC824605E0FFF7E8FCA0EB0A000228CCD897FAA7F0B0FA80F040F0200038
:200E6000400901D0286800E0686A97FAA7F1B1FA81F101F01F0106FA01F10842E4D1207836
:200E800000076ED5A069B8B396FAA6F0B0FA80F008EB8000C0F88064FFF7C0FC824605E0E6
:200EA000FFF7BCFCA0EB0A000228A0D897FAA7F0B0FA80F040F06000B6EB501F02D1286808
:200EC0000CE062E197FAA7F0B0FA80F040F06000B7EB501F01D1286A00E0686A97FAA7F1C1
:200EE000B1FA81F101F01F0106FA01F21042D7D00120FFF75DFA34E0FFE796FAA6F1B1FA9E
:200F000081F108EB8101C1F88094FFF787FC824606E000BFFFF782FCA0EB0A00022872D8BA
:200F200097FAA7F0B0FA80F040F06000B6EB501F01D128680BE097FAA7F0B0FA80F040F010
:200F40006000B7EB501F01D1286A00E0686A97FAA7F1B1FA81F101F01F0106FA01F210426E
:200F6000D8D12078400765D5E86940F08050E861E869DFF8CCB000F080500090DBF800103E
:200F800041F48071CBF80010FFF748FC824605E0FFF744FCA0EB0A00642834D8DBF800003B
:200FA000C005F5D5E06801280AD008B1052813D0286A20F001002862286A20F0040002E0D9
:200FC000286A40F001002862E06841F2883B90B3FFF724FC82460BE0286A40F0040028622A
:200FE000EEE700BFFFF71AFCA0EB0A0159450AD897FAA7F0B0FA80F040F04000B6EB501F79
:2010000002D128680CE0A3E097FAA7F0B0FA80F040F04000B7EB501F01D1286A00E0686A25
:2010200097FAA7F1B1FA81F101F01F0206FA02F10842D7D031E005E00010024000004242A8
:2010400000700040FFF7EAFB824605E0FFF7E6FBA0EB0A0159457BD897FAA7F0B0FA80F0B8
:2010600040F04000B6EB501F01D128680BE097FAA7F0B0FA80F040F04000B7EB501F01D10E
:20108000286A00E0686A97FAA7F1B1FA81F101F01F0206FA02F10842D8D1E06980B3696881
:2010A000C1F38101022970D04FF080714F000228484609D091FAA1F1B1FA81F148F82100E4
:2010C000FFF7ACFB044669E08A4691FAA1F1B1FA81F1C14648F82100FFF7A0FB804605E032
:2010E000FFF79CFBA0EB0800022854D897FAA7F0B0FA80F040F02000400902D0286801E05C
:2011000061E0686A97FAA7F1B1FA81F101F01F0106FA01F10842E3D1206AB0F5803F05D1B1
:201120006868A16820F4003008436860D4E908010843696821F47411084368609AFAAAF0C2
:20114000B0FA80F049F82060FFF768FB044606E021E000BFFFF762FB001B02281BD897FA4F
:20116000A7F0B0FA80F040F02000400901D0286800E0686A97FAA7F1B1FA81F101F01F01BB
:2011800006FA01F10842E5D01DE01EE0FFF746FB001B022802D90320BDE8F88F97FAA7F095
:2011A000B0FA80F040F02000400901D0286800E0686A97FAA7F1B1FA81F101F01F0106FA12
:2011C00001F10842E2D10020E6E70120E4E74FF0E0210428086903D020F004000861704763
:2011E00040F00400FAE7704710B5401EB0F1807F01D3012010BD4FF0E02460610F216017F3
:2012000000F0A2FA0020A06107202061002010BD10B5FFF7E8FF10BD70B5040018D00220EA
:2012200084F839002068C16821F40051C16020680025C5602068056120684561204600F07D
:20124000A7F8E56384F8395084F83850002070BD012070BD7047000038B504460068016844
:20126000C26811F0010F02F4807204D01AB1E16B41F00101E1630168C1F34002416901F0EF
:20128000010122B119B1E26B42F00402E2630268C2F3800222B119B1E26B42F00202E263DF
:2012A0000268C2F3C00222B119B1E16B41F00801E1630168C068C1F3401100F0200019B176
:2012C00010B1204600F0B8FB20680168C068C1F3C01100F0800019B110B1204600F0B8FCA1
:2012E00021680868CA68C0F3801002F04002012570B16AB1CA68204622F04002CA6094F848
:201300003910322911D080F8395000BF00F0A6F9E06B002808D0206801684068009084F809
:2013200039502046FFF796FF38BD222180F83910ECE770B5040004D094F83900002510B1BF
:2013400006E0012070BD84F83850204600F05CF8022084F839002068C16821F40051C1609C
:20136000204600F0BDFB2068016921F4904101612068416921F02A0141612068C16841F42F
:201380000051C160E563012084F83900002070BD2DE9F041054617490068174C0E158842C6
:2013A0000FD1A06920F48040A061144F49153846FFF7BAF831463846FFF7B6F82520FFF7B4
:2013C00097FA0F492868884211D1E06920F48020E0610C4C31462046FFF7A6F8E114204686
:2013E000FFF7A2F8BDE8F0412720FFF781BABDE8F0810000003801400010024000080140E5
:2014000000480040000C01402DE9F0470646006829490025294C022786B04FF003094FF4FD
:201420008068884221D1A06940F48040A061A069DFF88CA000F4804004904815CDE900079C
:201440006946CDF80C905046FFF7EEF8CDE90085694650460295FFF7E7F800220121252095
:20146000FFF75CFA2520FFF74EFA1649306888421FD1E06940F48020E061E069124C00F4F3
:201480008020CDE90390CDE9008769462046FFF7CBF8E014CDE90005694620460295FFF707
:2014A000C3F8012211462720FFF738FA2720FFF72AFA06B0BDE8F08700380140001002408A
:2014C0000008014000480040000C014090F83930012B01D0122B2CD139B332B390F8383005
:2014E000012B26D0012380F8383081628285C2850021C16390F83920122A18D05FF02202D8
:2015000080F8392080F838100168CA6842F48072CA6001684A6942F001024A610068C168C0
:2015200041F02001C16000207047012070473222E6E702207047000030B400680F49884221
:201540001AD10F480288B2F5204F0ED20D49A0F520444B78A3540288521C92B202800A48B0
:201560000088824201D1012008700649012230BC491C0648FFF7AABF30BC70470038014028
:2015800000B00020000000200C0000201C0000202DE9F047044690F8390099460D46012840
:2015A00001D0222858D12DB322B394F83800012852D0012684F838600027E76394F83900B2
:2015C00022281AD05FF0120084F83900A284E2844FF48058E08C4B46401EE084A0684FF014
:2015E000000240454FF08001204613D100F063FB08BB04E00120BDE8F0873220E4E728885B
:201600002168C0F308004860206908B16D1C08E0AD1C06E000F04FFB68B9216815F8010B7F
:201620004860E08C0028D5D14B4600224021204600F041FB08B10320DDE794F83900322863
:2016400006D084F8396000BF84F838700020D2E7222084F83900F7E70220CCE77047000082
:20166000F8B504461B481C4EC7031C4D84420AD1012080F3108820683040B84229D16068F2
:201680000090A8601EE0B4F1006F22D1FFF73CFA1348FFF7C1FD1348FFF7BEFD72B600201E
:2016A0004FF0E02108614861886120683040B8420FD160680090A860216881F3098800210E
:2016C00081F31488216881F3088801B0BDE8F0400047F8BD004000080000FE2F080000204E
:2016E0001C0000205C0000202DE9F0470024904607460D4626464FF48069DFF848A014E000
:20170000687815F8021B4A4601EB00202AF81400641CA4B2944206D100240A49384600F085
:2017200053F807F50067B61CB6B24645E8D3002C06D022463846BDE8F047024900F044B880
:20174000BDE8F08702B000200907090E002806DA00F00F0000F1E02080F8141D704700F12B
:20176000E02080F8001470471CB500240094032269460C48019400F019F8BDF804100A48C4
:20178000A1F525425A3A03D00470848044801CBD01210170BDF800108180BDF802104180EF
:2017A0001CBD000020F803080800002010B5002306E000BF30F8024B21F813405B1C9BB2D3
:2017C0009342F7D310BD00002DE9F84F83460020ABF1006415468A460090B4F5802F56D21C
:2017E000FEF790FEE70AC4F34906C6F58064A54200D82C46DFF89C904FF0006000EBC7202B
:2018000080464FF480622349FFF7D0FF00204FF6FF7206E0331839F81310914203D1401C4E
:2018200080B2A042F6D3A0422BD21B48002101600121C0E902816946FEF7C6FD00204946A3
:2018400007E000BF3AF810208319401C21F8132080B2A042F6D30F4940464FF4806200BF9D
:2018600000F01CF8A54210D0281B0AEB440AA344002685B24FF480647F1CA542BCD82C4624
:20188000BAE7224651465846EAE7FEF7F1FDBDE8F88F00009C0000209C0800202DE9F04163
:2018A00016460F46054600240AE000BF37F81420002329460120FEF7E5FD641CA4B2AD1CD3
:2018C000B442F3D3BDE8F08100B585B0A5228DF800205A238DF80130030A8DF802308DF864
:2018E000030000208DF8040001228DF805208DF8061007216846FEF76FFC8DF807000822E8
:201900004FF47A7369460248FFF742FE05B000BD1C000020FEB50B46A5218DF800105A21E0
:201920008DF8011003248DF8024002210122042400266D468DF80310012802D0022808D047
:2019400010E08DF804608DF805208DF80620072408E08DF804608DF805108DF806108DF8A3
:201960000730082421462846FEF736FC2855621C4FF47A7369460248FFF70AFEFEBD00002B
:201980001C00002030B58FB00120009000040024CDE901040225CDE907504FF4E010099053
:2019A0006846FFF755F90F20CDE90A056802CDE90C4002210AA80E94FEF7E2FFFFF7CEF8CC
:2019C0004FF47A71B0FBF1F0FFF70EFC0420FFF7FEFB00221146501EFEF7A0FF0FB030BD13
:2019E00010B5FEF721FFBDE81040FFF711BC00000D48016841F00101016041680B4A1140B4
:201A0000416001680A4A11400160016821F480210160416821F4FE0141604FF41F01816094
:201A20000449C00308607047001002400000FFF8FFFFF6FE08ED00E010B590F83910222986
:201A400003D0322901D0022010BD8168B1F5805F11D00169002901681FD0496801F07F033A
:201A6000816A4A1C82620B70C18D491E0904090CC18518D030E00269816A002A02685268FD
:201A800005D0D2B20A80816A491C8162ECE7C2F308020A80816A891CF7E74A68816A4B1CA2
:201AA00083620A70E0E70168CA6822F02002CA6090F83910322911D00168CA6822F4807257
:201AC000CA6001684A6922F001024A615FF0010180F83910FFF730FD002010BD1221F7E7CD
:201AE0002DE9F041044600680169E26821F44051114301612169A068084361690843216862
:201B0000CA6841F20C639A430243CA6020684169A26921F44071114341614C492068642506
:201B2000322688423CD1FFF737F800EBC00101EB001061688900B0FBF1F7FFF72DF800EBBE
:201B4000C00101EB00106168B0468900B0FBF1F0B0FBF5F06FF01801484307EB800106EBFD
:201B60000110B0FBF5F000F0F006FFF715F800EBC00101EB001061688900B0FBF1F0B0FBAA
:201B8000F5F006EB0016FFF707F800EBC00101EB001061688900B0FBF1F7FEF7FDFF3BE0CB
:201BA000FEF7E2FF00EBC00101EB001061688900B0FBF1F7FEF7D8FF00EBC00101EB00104E
:201BC0006168B0468900B0FBF1F0B0FBF5F06FF01801484307EB800106EB0110B0FBF5F099
:201BE00000F0F006FEF7C0FF00EBC00101EB001061688900B0FBF1F0B0FBF5F006EB00162E
:201C0000FEF7B2FF00EBC00101EB001061688900B0FBF1F7FEF7A8FF00EBC00101EB00104D
:201C200061688900B0FBF1F0B0FBF5F06FF01801484307EB800108EB0110B0FBF5F02168A3
:201C400000F00F0030448860BDE8F0810038014090F83910122903D0322901D002207047B6
:201C60008168B1F5805F016A0BD04A1C0262026809785160C18C491E0904090CC1840ED051
:201C800017E009880268C1F30801516001690029016A02D0491C0162ECE7891CFBE7016889
:201CA000CA6822F08002CA600068C16841F04001C160002070472DE9F0471D4690460E465F
:201CC0000446FEF7ABFD07465FEA08004FF000094FF0010808D030E0681C05D095B1FEF773
:201CE0009DFDC01BA8420DD82068006836EA0000F2D127E0681C20D025B1FEF78FFDC01B20
:201D0000A8421AD92068C16821F08001C1602068C16821F02001C1602068C16821F48071C7
:201D2000C1602068416921F00101416184F8398084F838900320BDE8F0872068006836EAD3
:201D40000000D7D00020F6E70148FFF785BA00001C0000200D4882B0816941F0040181619C
:201D600080690B4900F0040000900A4801604FF4E1314160002181600C22C160C0E90412E9
:201D80008161C16102B0FFF7D4BA000000100240003801401C0000200D4882B0816941F060
:201DA0000801816180690B4900F0080000900A4801604FF461414160002181600C22C160E9
:201DC000C0E904128161C16102B0FFF7B2BA000000100240004800405C00002010B5FFF71B
:201DE000B9FFFFF7D9FFBDE81040012201490248FFF76CBB010000201C0000200FB4054B24
:201E000010B503A9044A029800F018F810BC5DF814FB0000911F00081800002002E008C897
:201E2000121F08C1002AFAD170477047002001E001C1121F002AFBD1704700002DE9FF4F40
:201E400089B09B460446002506E025280BD05A460B999047641C6D1C20780028F5D10DB084
:201E60002846BDE8F08F0027B8460122474900E0074314F8013F203B02FA03F00842F7D126
:201E800020782E2819D114F8010F47F004072A280ED06FF02F022078A0F1300109290CD8DC
:201EA00008EB880102EB410100EB0108641CF2E70A98641C50F8048B0A9020780028CED039
:201EC000642808D0692806D075281ED05A460B9990476D1C58E00A994FF00A0901C90A9176
:201EE000002802DA40422D2102E0390504D52B218DF82010012103E0F90704D02021F7E71C
:201F00008A4608AE0DE00021FAE70A994FF00A0901C90A91F7E74946FEF736F9303106F802
:201F2000011D0028F7D1ADEB060000F12009780701D44FF00108C84502DDA8EB090000E0D7
:201F400000208046002706E008A85A46C05D0B9990476D1C7F1C5745F6DB04E030205A4641
:201F60000B9990476D1CB8F10001A8F10108F5DC05E016F8010B5A460B9990476D1CB9F1F3
:201F80000001A9F10109F4DC641C65E70928010013B54FF47A73012269460248FFF7F8FAD2
:201FA00000981CBD5C0000200EB562B6FEF744FCFFF7E8FCFEF7A8F9FFF710FF5CA0FFF7BD
:201FC0001DFF5E4CFFF7D0FB2078012808D00028F8D15BA0FFF712FF5C48FFF741FBF1E740
:201FE0005BA0FFF70BFF01214FF44070FFF76CFC5B4DDFF868B1DFF86CA14FF47A784FF083
:20200000000905F520464046FEF7D2F93288BBF8001055A0FFF7F2FE0024285DA52806D16C
:202020002F1978785A2802D1B878832837D0641CA4B24445F1D39AF8000054460128E2D106
:2020400080F310884EA0FFF7D9FE84F8009031884348FEF7C1F84D49098888425FD14C4807
:2020600040680824B4EB106F4BD1384F32883C493846FFF739FB7868B4EB106FC3D1FEF75D
:20208000B7F800210120FFF745FC42A0FFF7B6FE2BA0FFF7B3FE3846FFF7E2FAB3E740A050
:2020A000FFF7ACFE2819B979C079012200EB0120ADF80000387AADF804004AF25A50ADF81A
:2020C000080069463A48FFF77FFB3948012201A9801CFFF779FB3648012202A9001DFFF7A4
:2020E00073FBFFF741FB01214FF44070FFF7ECFBA6F8009005F8049087F8019087F802906E
:2021000099E7FEF775F802210846FFF703FC29A0FFF774FE0AA0FFF771FE0C48BCE7FEF74B
:2021200067F801210220FFF7F5FB25A0F0E7000020BDF8C8EB426F6F742000000800002016
:2021400020BDF8C8EB415050200000000040000820D7BCB1B8BDD3CAD52000000C00002017
:202160000010002000000020415050B3A4B6C820256420B5B1C7B0D6B8D5EB2025640000BC
:2021800020BFAACABCD0A3D1E92000000A0000200010002020C9D5D0B4B3C9B9A62000004C
:2021A00020D4D9B4CED7BCB1B8BDD3CAD520000020F8030820C9D5D0B4CAA7B0DC20000003
:2021C00020D0A3D1E9CAA7B0DC20000000000000000000000102030406070809000000006D
:2021E0000102030404220008000000201C0000001C1E0008202200081C000020E8B7000004
:202200002C1E00080000000000A24A0400000000000000000000000000000000000000007C
:2040000030440020DD410008E5410008E7410008E9410008EB410008ED41000800000000EC
:2040200000000000000000000000000045410008F141000800000000894100086D930008DE
:20404000F7410008F7410008F7410008F7410008F7410008F7410008F7410008F741000860
:20406000F7410008F7410008F74100088D61000899610008A5610008B1610008BD6100083A
:20408000C9610008D5610008F7410008F7410008F7410008F7410008F7410008F741000830
:2040A000F7410008F7410008F7410008F7410008F7410008F7410008F7410008F741000800
:2040C000F7410008F7410008F7410008F7410008F7410008D1A700088DA8000849A90008E9
:2040E000F7410008F7410008F7410008F7410008F7410008F7410008F7410008F7410008C0
:20410000F7410008F7410008F7410008F7410008F7410008F7410008F7410008F74100089F
:20412000E1610008ED610008F7410008F7410008DFF80CD000F072F90048004765AA0008AB
:2041400030440020224B19680868B0E8F00F80F30988BFF36F8F4FF0000080F311884EF099
:204160000D0E70470000000006480068006880F3088862B661B6BFF34F8FBFF36F8F00DFFE
:2041800000BF00BF08ED00E0EFF30980BFF36F8F0F4B1A6820E9F00F106008B54FF0500011
:2041A00080F31188BFF34F8FBFF36F8F07F0CEF94FF0000080F31188BDE8084019680868CC
:2041C000B0E8F00F80F30988BFF36F8F704700BF30000020EFF3058070470000064880479B
:2041E00006480047FEE7FEE7FEE7FEE7FEE7FEE7FEE7FEE7FEE7FEE789930008314100089A
:20420000202A04DB203A21FA02F00021704721FA02F3D040C2F1200291400843194670470F
:2042200040EA01039B0703D009E008C9121F08C0042AFAD203E011F8013B00F8013B521E62
:20424000F9D2704770B521F0004303430CD0C1F30A550024D5EB040564EB0403D617AD1A37
:20426000B34102DB0020014670BD201841EB025170BD0EB5C10F80EAE0700844CA0700216A
:2042800040F233438DE80E000A460B4600F078F803B000BD20F00040C10DC0F3160040F467
:2042A00000007F2901DA00207047962903DCC1F19601C840704796398840704701F000437C
:2042C00030B421F0004150EA010206D00A0DA2F56072C1F31301002A02DC30BC0020704782
:2042E000440F44EAC104C100E01830BC00EBC250AFF300800029A8BF7047401C490008BF01
:2043000020F00100704710B4B0FA80FC00FA0CF050EA010404BF10BC704749B1CCF1200495
:2043200021FA04F411FA0CF118BF012121430843A3EB0C01CB1D4FEA00614FEA102042BF33
:20434000002010BC704700EBC35010440029A4BF10BC7047401C490008BF20F0010010BC10
:20436000704710B5141E73F1000408DA401C41F1000192185B411A4301D120F0010010BD63
:204380002DE9F04D92469B4611B1B1FA81F202E0B0FA80F22032904600F052F804460F4632
:2043A00040EA0A0041EA0B0153465A46084313D0114653EA010019D0C8F140025046FFF726
:2043C0001FFF05460E4650465946424600F038F8084305D0012004E020463946BDE8F08D17
:2043E0000020054346EAE0762C4337430A986305E40AA0EB08000022FD0A44EA47540A302F
:2044000002D500200146E9E7010510196941DDE9084500196941BDE8F04DA2E7064C074DCE
:2044200006E0E06840F0010394E8070098471034AC42F6D3FFF780FE4CBD00086CBD000807
:20444000202A04DB203A00FA02F1002070479140C2F1200320FA03F319439040704700007B
:2044600070B5044600688168C943C9071CD1816821F00101816003F0C1F805460FE000BF31
:2044800003F0BCF8401B022809D9A06A40F01000A062E06A40F00100E062012070BD20682F
:2044A0008068C043C007EBD0002070BD10B50146406A826A12F0500F05D0006A026BBDE8EE
:2044C000104008461047816A41F40071816201688968C1F3424107290CD1C16851B9816AB7
:2044E00021F480718162816AC90403D4816A41F00101816202F072FA10BD10B5406A816ABE
:2045000041F040018162C16A41F00401C16202F067FA10BD10B5406A02F061FA10BD000019
:20452000F8B500260446009600688168C943C90728D0816841F00101816013481349006887
:20454000B0FBF1F000E0401E00900028FBD103F055F8054611E000BF03F050F8401B022812
:204560000BD9A06A40F01000A062E06A40F00100E06284F824600120F8BD20688068C04305
:20458000C007E9D10020F8BD2400002040420F003EB516481449012401608915C0E902145F
:2045A0000021416102254FF460220561C261416002F018FA072002901020CDE900046946CC
:2045C0000A4802F057F90F20CDE900056946074802F050F9054802F0E9F802220449034848
:2045E00002F0ECFA3EBD0000002401403C0C0020280000207CB503220021012006F0F6FF50
:204600002E4C032200216060012006F0EFFFA06003220021012006F0E9FFE0600022042149
:20462000012006F0E3FF206100220421012006F0DDFF606100220421012006F0D7FFA061D0
:2046400000240426CDE900642346C8221CA11F4807F0CAF90320CDE900040023C8221CA11A
:204660001E4807F0C1F90225CDE900540023C8221BA11E4807F0B8F9CDE900640023C822F4
:204680001BA11E4807F0B0F9CDE900540023C8221BA11E4807F0A8F90120CDE90004002389
:2046A000C8221BA11D4807F09FF9CDE900540023C8221BA11D4807F097F97CBD0000002048
:2046C0005461736B5F48527800000000259B00085461736B5F485478000000004D9B000818
:2046E0005461736B5F54696D00000000C19F00085461736B5F53616600000000ED9B00089A
:204700005461736B5F41637400000000CD9700085461736B5F546D700000000051A0000807
:204720005461736B5F44527800000000FD9A000810B501F028FE442001F030FE01F023FE69
:20474000BE2001F02BFE01F00FFE044601F00CFE000201B251EA04006FF0030401D5C043EB
:20476000401CFFF786FD2246FFF76CFDBDE81040FFF7A4BD10B502F04FFF04F0C9FD01F0A1
:2047800007FFFFF705FF06F03DF904F021FE01F033FDBDE8104004F0B1BE000010B5C829AB
:2047A00000D9C8210A460146034804F0A7F8BDE81040142006F008BED007002010B5C82930
:2047C00000D9C8210A460146034804F097F8BDE81040142006F0F8BD5008002070470000AF
:2047E00070B5FB4C082034F9881F05F091FD322006F0EAFDB4F91810092005F089FD3220D4
:2048000006F0E2FDE07F0025883C01283DD1207804283AD184F8A75004F072FA012103205D
:2048200004F010F90121042004F00CF90121052004F008F90121062004F004F9012107207E
:2048400004F000F9C82006F0BFFD0221032004F0F9F80221042004F0F5F80221052004F042
:20486000F1F80221062004F0EDF80221072004F0E9F8E07C18B90221012005F037FDE07C18
:20488000012802D1042105F031FDE07901284CD1A07E01280BD1E07E012808D1207F0128EA
:2048A00005D1607F012802D1A07F012807D0E571042004F025FAA07E012837D03AE0E571DD
:2048C000042004F01DFA0121042004F0BBF80121052004F0B7F80121062004F0B3F80121C9
:2048E000072004F0AFF8C82006F06EFD0221042004F0A8F80221052004F0A4F802210620B1
:2049000004F0A0F80221072004F09CF8E07C18B91C21012005F0EAFCE07C012802D1232137
:2049200005F0E4FC012084F8A700C4E10121032004F088F8E07E012803D10121042004F06B
:2049400081F8207F012803D10121052004F07AF8607F012803D10121062004F073F8A07FF3
:20496000012803D10121072004F06CF8C82006F02BFDA07E012803D10221032004F062F8E4
:20498000E07E012803D10221042004F05BF8207F012803D10221052004F054F8607F012802
:2049A00003D10221062004F04DF8A07F012803D10221072004F046F8E07C002869D1A07E2D
:2049C000012843D1E07E01280FD1207F00287ED1607F0028A9D1A07F0028A6D10521012097
:2049E00005F084FCA07E012830D1E07E00284FD1207F01280ED1607F00284AD1A07F002844
:204A000047D10621012005F071FCA07E01281DD1E07EE8BB207F00283BD1607F01280DD1E5
:204A2000A07F002835D10721012005F05FFCA07E01280BD1E07E58BB207F50BB607F40BB78
:204A4000A07F01287BD1082105F050FCA07EE8BBE07E01280BD1207FD0BB607FC8B9A07F8B
:204A6000B8B91821012005F041FCA07E70BBE07E78BB207F01280ED1607F50B9A07F40B9B8
:204A80001921012005F032FCA07EF8B9E07E01E033E041E0E8B9207FF0BB607F01280BD187
:204AA000A07FC8BB1A21012005F020FCA07E68B9E07E70B9207F78BB607F68BBA07F012805
:204AC0003DD11B2105F012FCA07E03E012E017E004E000E070B9E07E012830D1207F012862
:204AE0002DD1607F01282AD1A07F012827D11C2105F0FCFBA07E012821D1E07E01281ED19D
:204B0000207F01281BD1607F80B9A07F20B91D21012005F0EBFB00E011E0A07E01280ED1A0
:204B2000E07E01280BD1207F012808D1607F012805D1A07F012802D1022105F0D7FBE07C32
:204B4000012848D1A07E01283BD1E07E01280CD1207FF8BB607FF0BBA07FE0BB092101207B
:204B600005F0C4FBA07E01282BD1E07EA0BB207F01280CD1607F70BBA07F60BB0A21012050
:204B800005F0B4FBA07E01281BD1E07E20BB207F08BB607F01280CD1A07FE0B90B210120B9
:204BA00005F0A4FBA07E01280BD1E07EA0B9207F88B9607F78B9A07F01287CD10C2105F0E0
:204BC00095FBA07EE8BBE07E012811D1207F04E0A000002052E036E04DE098BB607F90BBE6
:204BE000A07F80BB1F21012005F080FBA07E40BBE07E48BB207F01280BD1607F18BBA07F9B
:204C000008BB2021012005F071FBA07EC8B9E07ED0B9207FB8B9607F01280BD1A07F90B92C
:204C20002121012005F062FBA07E50B9E07E58B9207F40B9607F30B9A07F01283BD1222132
:204C400003E015E008E036E003E005F04FFBA07E70B9E07E01282ED1207F01282BD1607FEC
:204C6000012828D1A07F012825D1232105F03EFBA07E01281FD1E07E01281CD1207F0128EF
:204C800019D1607F70B9A07FA8B92421012005F02DFBA07E01280ED1E07E01280BD1207FF7
:204CA000012808D1607F012805D1A07F012802D1042105F01BFBE07902280FD1E5710520EB
:204CC00004F01EF8E07C18B90121084605F00EFBE07C012802D1032105F008FBA079012879
:204CE00009D1A5716079401CC1B26171BDE87040022005F0FBBA70BDF0B585B00025009568
:204D00000120019505F04AFB4FF49676304606F05BFB052005F042FB304606F055FB704CC2
:204D2000E07B70B90121052005F0E0FA05E00A2006F04AFBA07800287BD1761E3604360CF3
:204D4000F5D1E07B012874D1E5736A464FEA000604EB4003B3F894101154322901D91654F8
:204D600000E0155441B1B42904D084F8A560B3F8941009B184F8A660401CC0B20628E7D385
:204D80009DF801009DF80210000100EBC1009DF8031000EB81009DF8041000EB41009DF8AB
:204DA00005100844C1B20A2005F0A0FA94F8A30001282FD184F8A3500DF1080704EB400162
:204DC000B1F8941027F81010401CC0B20628F5D3042005F0E3FA322006F0F6FA052005F03B
:204DE000DDFA642006F0F0FA5FF0010004EB400237F81010B2F89420914207D009B1B42909
:204E000002D11AB1B42A01D084F8A560401CC0B20628EBD394F8A30002281BD184F8A35056
:204E2000032005F0BBFA94F8A600012802D00A210DE04BE094F8A500264618B90921052078
:204E400005F054FA96F8A500012803D10821052005F04CFA94F8A300032804D184F8A350B8
:204E6000042005F09BFA94F8A30004282ED184F8A350032005F092FA642609E00A2006F084
:204E8000A3FA94F88A00002820D0A07800281DD1761E16F0FF06F1D1062005F07FFA1E26E0
:204EA00009E00A2006F090FA94F88A0000280DD0A07800280AD1761E16F0FF06F1D1207C2C
:204EC000012805D00721052005F010FA05B0F0BD25740621052005F009FA25716570F5E702
:204EE000A000002010B5012005F058FA322006F06BFA052005F052FA322006F065FA214C9E
:204F0000E07B012817D10020E073B4F8961032290FD8B4F8981032290BD8B4F89A103229DB
:204F200007D8B4F89C10322903D8B4F89E10322900D9012020721449207A0A7990421FD088
:204F4000087160B9032003F0DBFE607E012803D10021042005F0CAF9642006F035FA207AB5
:204F600001280DD1022003F0CBFE607E18B90121042005F0BBF9BDE81040642006F024BA61
:204F800010BD0000A00000201C0000202DE9F041384F394C00267979E079012902D002295D
:204FA00003D00FE0022802D00CE001280AD17E71002003F0A5FE6079401CC1B26171022002
:204FC00005F094F9A078042835D103F099FE0121032003F037FD0121042003F033FD012184
:204FE000052003F02FFD0121062003F02BFD0121072003F027FDC82006F0E6F902210320A7
:2050000003F020FD0221042003F01CFD0221052003F018FD0221062003F014FD0221072046
:2050200003F010FD26700120E0717871A6701F210A2005F05BF9A078052818D103F060FE37
:205040000125A81CC0B2002103F0FCFC6D1CEDB2052DF6D9207D0021401C20700220E071A2
:205060007871A670BDE8F0410A2005F03FB9BDE8F08100001C000020A000002070B51E4EA1
:205080001E4C0025B179E079012902D0022903D00FE0022802D00CE001280AD1B5710020E3
:2050A00003F02EFE6079401CC1B26171022005F01DF9A07804280BD1022003F021FE257041
:2050C0000120E071B071A5701F210A2005F00EF9A07805280FD1032003F012FE207D0021B9
:2050E000401C20700220E071B071A570BDE870400A2005F0FBB870BD1C000020A0000020CB
:2051000070B5744D0820B5F9881005F001F9142006F05AF9B5F9A010092005F0F9F814202E
:2051200006F052F9012005F039F9142006F04CF9052005F033F9142006F046F9E87B01283C
:2051400026D10026EE73012405EB4400B0F89400322818D92819407A20B9A01CC0B20121CD
:2051600003F070FC641CE4B2052CEDD9A97AEA7A6B7B11442A7B1A441144AA7BD14206D09B
:205180000121297204E0A01CC0B20021E8E72E72A87AE97A000100EBC100297B4E4C00EB55
:2051A0008100697B00EB4100A97B08446178884217D0042003F0A4FDA87AE97A000100EB3B
:2051C000C100297B00EB8100697B00EB4100A97B0844C1B2617095F88A0010B10A2005F043
:2051E00085F8287A217888424AD02070322006F0EBF86879401CC1B26971022005F076F849
:20520000287A88BB687E012803D10021042005F06DF80121084603F015FC142006F0D4F8BD
:205220000121082003F00EFC0021022003F00AFC142006F0C9F8012003F062FD4FF4967044
:2052400006F0C2F80021012003F0FCFB142006F0BBF80021022003F0F5FB142006F0B4F899
:205260000021082003F0EEFB287A012808D1042003F046FD687E18B90121042005F036F8EB
:20528000C82006F0A1F8A87A012803D10221032003F0D8FBE87A012803D10221042003F0D3
:2052A000D1FB287B012803D10221052003F0CAFB687B012803D10221062003F0C3FBA87B85
:2052C000012805D1BDE870400221072003F0BABB70BD0000A00000201C00002070B5744DB9
:2052E0000820B5F9881005F013F8322006F06CF8B5F9A010092005F00BF8322006F064F871
:20530000E8790026012833D12C46EE71042003F0F7FC94F8820094F8831094F826200844B3
:2053200094F88410084494F82510114494F827201144884205D184F8826084F8836084F8EA
:20534000846000200122211891F82530012B0BD191F8823043B981F8822084F8A80090B150
:2053600001284ED002286AD0401CC0B20228EAD9E87902287DD1EE71052003F0C1FCE87C56
:20538000002877D08BE00121032003F05BFB0121042003F057FB0121052003F053FB012170
:2053A000062003F04FFB0121072003F04BFBC82006F00AF80221032003F044FB0221042069
:2053C00003F040FB0221052003F03CFB0221062003F038FB0221072003F034FBE07C18B925
:2053E0001021012004F082FFE07C012801D114214DE06079401CC1B26171022004F076FF28
:20540000B6E70121032003F01DFB0121042003F019FBC82005F0D8FF0221032003F012FB58
:205420000221042003F00EFBE07C18B90E21012004F05CFFE07C0128DBD1122127E00121D0
:20544000032003F0FFFA0121042003F0FBFA0121052003F0F7FAC82005F0B6FF022103200C
:2054600003F0F0FA0221042003F0ECFA0221052001E01CE00FE003F0E5FAE07C18B90F21EC
:20548000012004F033FFE07C0128B2D11321012004F02CFFADE70D21012004F027FFE87CE8
:2054A000012804D1BDE87040112104F01FBF70BDA000002070B5304C0820B4F9881004F0A6
:2054C00027FF322005F080FFB4F9A010092004F01FFF322005F078FFE079002501282DD1E5
:2054E000E57194F82B00012805D0022003F008FCE07C70B111E0062003F002FCE07C18B9D6
:205500001521012004F0F2FEE07C01280CD1162107E00221012004F0E9FEE07C012803D158
:205520000421012004F0E2FE6079401CC1B26171022004F0DBFE012084F8A900E07902281F
:2055400019D1E57194F82B00012806D05FF0030003F0D6FBE07C10B105E00720F8E7012115
:20556000084604F0C3FEE07C012804D1BDE87040032104F0BBBE70BDA00000202DE9F041B4
:20558000504D0820B5F9881004F0C2FE142005F01BFFB5F9A010092004F0BAFE142005F0AD
:2055A00013FF012004F0FAFE322005F00DFF052004F0F4FE322005F007FFE87B424E012805
:2055C00041D10022EA73B5F89A102C460346322901D9237200E02272401CC0B20628F6D325
:2055E000B4F89600322810D9B4F8980032281ED9284632291BD9B0F89C10322917D9B5F888
:205600009E00322813D91F2712E028460FD2B0F89820322A0BD2322909D2B0F89C103229A1
:2056200005D2B5F89E00322801D2002700E01027F078874207D094F88A0018B139460A204D
:2056400004F054FEF770287AB178884237D0B0706879401CC1B26971022004F047FE287A5A
:20566000A0B9032003F04CFB0121084604F03EFE0321012004F03AFE687E012803D100215F
:20568000042004F033FE642005F09EFE287A012815D1022003F034FB0221012004F026FE5B
:2056A0000421012004F022FE687E18B90121042004F01CFEBDE8F041642005F085BEBDE84E
:2056C000F0810000A00000201C0000202DE9F041A74C0C2194F82900404201EB4000C6B21B
:2056E000B4F9881008206C3404F012FE322005F06BFEB4F93410092004F00AFE322005F08C
:2057000063FEE07F9B4F6C3C10B101287ED0FEE0032003F0F5FA0121022003F093F96FF0FA
:205720001D0509E00A2005F04FFE94F88A0000286DD0A07800286AD1B4F98600A842F1DC12
:2057400094F88A0010B1012003F0DAFA0121084603F078F9142005F037FE0121022003F021
:2057600071F9142005F030FE0121082003F06AF90121032003F066F90121042003F062F99D
:205780000121052003F05EF90121062003F05AF90121072003F056F94FF096086FF003051B
:2057A0000FE00A2005F010FE94F88A0000282ED0A07800282BD1A8F1010080B25FEA000838
:2057C00003D0B4F98600A842EBDB0021012003F039F9142005F0F8FD0021022003F032F92D
:2057E000142005F0F1FD0021082003F02BF90121032003F027F90121042003F023F9002164
:20580000052003F01FF90021062001E033E097E003F018F90021072003F014F9C82005F07D
:20582000D3FD0221032003F00DF90221042003F009F9C82509E00A2005F0C6FD94F88A004F
:2058400000287DD0A07800287AD16D1E2D042D0CF1D1B888A4F88E00E07C18B915210120A3
:2058600004F044FDE07C012802D1162104F03EFD012084F88B00B88880B2A4F89000B4F8C3
:205880008E10314488421DD994F8280008B1012818D1032003F034FA032084F88B00E07CEC
:2058A00018B90121084604F021FDE07C012802D1032104F01BFD6079401CC1B26171022071
:2058C00004F014FDB4F88E10B4F89000891B88421DDA94F8280008B1022818D1022003F043
:2058E0000FFA022084F88B00E07C18B90221012004F0FCFCE07C012802D1042104F0F6FCB6
:205900006079401CC1B26171022004F0EFFC94F88B00022829D3642509E00A2005F054FDED
:2059200094F88A00002820D0A07800281DD16D1E2D042D0CF1D194F88C00401CC0B200E08E
:2059400013E084F88C00217D884203D394F88B10022906D0617D884207D394F88B00032822
:2059600003D1002004F88B0F6070BDE8F0810000A0000020280000202DE9F041A24C0C214D
:2059800094F82900404201EB4000C6B2B4F9881008206C3404F0BCFC322005F015FDB4F96D
:2059A0003410092004F0B4FC322005F00DFDE07F964F6C3C10B101287ED0F4E0032003F077
:2059C0009FF90121022003F03DF86FF01D0509E00A2005F0F9FC94F88A0000286DD0A078B2
:2059E00000286AD1B4F98600A842F1DC94F88A0010B1012003F084F90121084603F022F875
:205A0000142005F0E1FC0121022003F01BF8142005F0DAFC0121082003F014F801210320A9
:205A200003F010F80121042003F00CF80121052003F008F80121062003F004F80121072074
:205A400003F000F84FF096086FF003050FE00A2005F0BAFC94F88A0000282ED0A0780028D7
:205A60002BD1A8F1010080B25FEA000803D0B4F98600A842EBDB0021012002F0E3FF14200D
:205A800005F0A2FC0021022002F0DCFF142005F09BFC0021082002F0D5FF0121032002F05D
:205AA000D1FF0121042002F0CDFF0021052002F0C9FF0021062001E033E097E002F0C2FFAD
:205AC0000021072002F0BEFFC82005F07DFC0221032002F0B7FF0221042002F0B3FFC825B3
:205AE00009E00A2005F070FC94F88A0000287DD0A07800287AD16D1E2D042D0CF1D1B88825
:205B0000A4F88E00E07C18B91521012004F0EEFBE07C012802D1162104F0E8FB012084F8F7
:205B20008B00B88880B2A4F89000B4F88E103144884218D9022003F0E3F8032084F88B00A8
:205B4000E07C18B90121084604F0D0FBE07C012802D1032104F0CAFB6079401CC1B261713A
:205B6000022004F0C3FBB4F88E10B4F89000891B884218DA032003F0C3F8022084F88B0071
:205B8000E07C18B90221012004F0B0FBE07C012802D1042104F0AAFB6079401CC1B2617165
:205BA000022004F0A3FB94F88B00022829D3642509E00A2005F008FC94F88A00002820D031
:205BC000A07800281DD16D1E2D042D0CF1D194F88C00401CC0B284F88C00217D884203D3B4
:205BE00094F88B10022908D0617D00E009E0884207D394F88B00032803D1002004F88B0F64
:205C00006070BDE8F0810000A0000020280000202DE9F041B84C80270820B4F9881004F043
:205C200077FB322005F0D0FBB4F9A010092004F06FFB322005F0C8FBE079002601287CD1FD
:205C4000E07F00287AD1A07E012831D1E07E01282ED1207F01282BD1607F012828D1A07FBF
:205C6000012825D12078022822D8042003F048F80121042002F0E6FE0121052002F0E2FEBD
:205C80000121062002F0DEFE0121072002F0DAFEC82005F099FB0221042002F0D3FE02213D
:205CA000052002F0CFFE0221062002F0CBFE4BE0E671042003F024F8A07E012803D101210A
:205CC000032002F0BFFEE07E012803D10121042002F0B8FE207F012803D10121052002F0D4
:205CE000B1FE607F012803D10121062002F0AAFEA07F012803D10121072002F0A3FEC82057
:205D000005F062FBA07E012803D10221032002F099FEE07E012803D10221042002F092FE23
:205D2000207F012803D10221052002F08BFE607F012806D10221062001E020E04AE002F0DF
:205D400081FEA07F012803D10221072002F07AFEA07AE17A000100EBC100217B00EB8100CA
:205D6000617B00EB4100A17B0844802807D0C7B294F88A0018B139460A2004F0B7FAE07935
:205D8000022824D1E07F00287BD1E671052002F0B7FFA07AE17A000100EBC100217B00EB44
:205DA0008100617B00EB4100A17B0844B84207D0C7B294F88A0018B139460A2004F096FA9C
:205DC0006079401CC1B26171022004F08FFAE079012853D1E07F01286CD1E671042002F0D2
:205DE0008FFF94F8760094F8771094F87920084494F87810637F1144084494F87A10E27E82
:205E00000844A17E1144227F1A441144A27F1144884209D184F8766084F8776084F878605B
:205E200084F8796084F87A6001256019417E012902D190F87500E0B36D1CEDB2052DF4D9A5
:205E4000A07AE17A000100EBC100217B00EB8100617B00EB4100A17B0844B84207D0C7B25E
:205E600094F88A0018B139460A2004F03FFA6079401CC1B26171022004F038FAE079022828
:205E800037D1E07F012834D1E671052002F038FFA07AE17A000100EBC100217B00EB81009E
:205EA000617B00EB4100A17B0844B84221D0C1B201E009E01DE094F88A00002819D0BDE881
:205EC000F0410A2004F012BA01206119052D81F8750084F8A850B3D8AD1CE8B2012102F076
:205EE000B1FDC82005F070FAE8B2022102F0AAFDA6E7BDE8F0810000A00000202DE9F041AD
:205F0000A14D0820B5F9881004F002FA322005F05BFAB5F9A010092004F0FAF9322005F0E4
:205F200053FAE8790027012833D195F87D0095F87E1095F88020084495F87F1095F82330C5
:205F40001144084495F8811095F82120084495F82010114495F822201A44114495F8242003
:205F60001144884209D185F87D7085F87E7085F87F7085F8807085F8817002242819817FA5
:205F8000012902D190F87B0070B1641CE4B2062CF4D9E87902287CD1EF71052002F0B0FECE
:205FA000E87C002876D0E5E00126052C54D8281980F87B6085F8A840EF71042002F0A0FEB9
:205FC0000121032002F03EFD022C06D0032C07D0042C08D0052C1AD009E00121042004E00F
:205FE0000121052001E00121062002F02BFDC82005F0EAF90221032002F024FD022C09D0F7
:20600000032C0AD0042C0BD0052C11D00CE001210720EAE70221042004E00221052001E000
:206020000221062002F00EFDE87C2E4618B107E002210720F6E7E01CC1B2012004F056F998
:20604000F07C012803D1E41DE1B204F04FF97079401CC1B2717185E0287802283BD895F89E
:20606000A70078B9042002F04BFEE87C2C4618B91C21012004F03AF9E07C012802D1232121
:2060800004F034F90121042002F0DCFC0121052001E077E06AE002F0D5FC0121062002F009
:2060A000D1FC0121072002F0CDFCC82005F08CF90221042002F0C6FC0221052002F0C2FCBA
:2060C0000221062002F0BEFC0221072002F0BAFC85F8A7605DE7281985F8A77080F87B60E9
:2060E00085F8A840EF71042002F00AFE0121032002F0A8FC0121042002F0A4FC01210520C3
:2061000002F0A0FC0121062002F09CFC0121072002F098FCC82005F057F90221032002F0EB
:2061200091FC0221042002F08DFC0221052002F089FC0221062002F085FC0221072002F059
:2061400081FCE87C18B90221012004F0CFF8E87C2C46012802D1042104F0C8F86079401CAE
:20616000C1B26171022004F0C1F812E70121084604F0BCF8E87C012804D1BDE8F04103219E
:2061800004F0B4B8BDE8F081A0000020014800F0C7BD00006C0C0020014800F0C1BD0000BD
:2061A00070090020014800F0BBBD0000A8090020014800F0B5BD000090080020014800F028
:2061C000AFBD0000C8080020014800F0A9BD000038090020014800F0A3BD000000090020A1
:2061E000014800F09DBD000040050020014800F097BD0000080500200D4808B5416941F000
:20620000020141614069012200F0020000901146382001F069FA382001F05AFA0122114671
:20622000392001F061FABDE80840392001F050BA0010024010B5046863604368102B0368E1
:2062400003D099600068C26010BD9A600068C16010BD06E00021491CC9B20A29FBD3401E85
:2062600080B20028F6D170471FB52020009000200190012002906946014801F0BDF81FBDC4
:20628000000801401FB52020009001200190032003906946014801F0AFF81FBD00080140F4
:2062A00070B50024FFF7E0FF124D04E0641CE4B20120FFF7CEFF2021284601F091F910B198
:2062C000642CF3D30FE0642C0DD2002404E0641CE4B20120FFF7BDFF2021284601F080F900
:2062E00018B1F02C04D3012070BDF02CEFD3FAE7002070BD0008014010B5FFF7C3FF0A4C6C
:2063000000222021204601F074F940F2EE20FFF7A0FF01222021204601F06BF9BDE810406D
:206320000F20FFF796BF00000008014010B5FFF7A9FF0C4C00222021204601F05AF90A20A8
:20634000FFF787FFFFF790FF2021204601F048F9012805D000222D20FFF77BFF104610BD63
:206360000122F8E70008014070B500254FEA0504FFF7DCFFA0402843641CE4B2C5B2082C69
:20638000F6D3284670BD10B5FFF7B6FFFFF788FFBDE81040CC2000F001B8000070B50546B2
:2063A000FFF770FF144E002415F0010F4FEA55054FF000024FF0200130460BD001F019F955
:2063C0000820FFF746FF01222021304601F011F93A200AE001F00DF94620FFF73AFF012292
:2063E0002021304601F005F90220FFF732FF641CE4B2082CD8D370BD0008014010B5012855
:2064000026D0002845D10021012002F01BFB0A2004F0DAFF0021022002F014FB002108207A
:2064200002F010FB0021032002F00CFB0021042002F008FB0021052002F004FB002106206A
:2064400002F000FB0021BDE81040072002F0FABA0121084602F0F6FA0A2004F0B5FF012126
:20646000022002F0EFFA0121082002F0EBFA0121032002F0E7FA0121042002F0E3FA0121AF
:20648000052002F0DFFA0121062002F0DBFA0121D9E710BD06490020C8610648016941F0CD
:2064A00004010161016941F040010161704700001040002000200240064A0021D1610649BC
:2064C0000A6942F002020A614861086940F04000086170471040002000200240044B0022BB
:2064E000DA61044A136943F0010313610180704710400020002002400E49C868C2060E483D
:2065000003D5C26942F00202C261CA68520703D5C26942F00102C261CA69D20707D0C2692B
:2065200042F00402C261C86920F00100C8611420C8607047002002401040002070B5054640
:2065400001F05CF80646114C09E0681C07D025B101F054F8801BA84201D9032070BDE068FF
:20656000C007F2D1E068800601D52020E060E068C00605D4E069C00702D1E068400703D53C
:20658000FFF7BAFF012070BD002070BD002002402DE9F04F804885B080697F4940F0040018
:2065A0008861886900F004000490886940F008008861886900F008000490886940F01000B9
:2065C0008861886900F01000049074484068734920F0E06040F00070486001222021704879
:2065E00001F007F8012210216E4801F002F80122D70239466B4800F0FCFF4FF400790022BF
:206600004946684800F0F5FFFE1000223146654800F0EFFF00228021624800F0EAFF0022BD
:206620004021604800F0E5FF4FF4004A002251465B4800F0DEFF4FF4804B00225946584858
:2066400000F0D7FF00227101554800F0D2FF00223101534800F0CDFF00223146504800F0B6
:20666000C8FF002240214E4800F0C3FF002210214B4800F0BEFF012202214B4800F0B9FF74
:2066800020200124CDE90004022569460395444800F0B2FE4FF01008CDE900846946414878
:2066A000039500F0A9FECDE9007469463D48039500F0A2FECDE9006469463948039500F053
:2066C0009BFE4027CDE9007469463548039500F093FECDE9009469463248039500F08CFEC6
:2066E000CDE9006469462F48039500F085FE8026CDE9006469462B48039500F07DFECDE9B4
:20670000007469462748039500F076FECDE900A469462348039500F06FFECDE900B40327EE
:2067200069461F48039700F067FE6003CDE90004694603971A4800F05FFE2003CDE9000462
:2067400069460395164800F057FECDE9008469461348039500F050FECDE900546946124822
:20676000039500F049FE00960026CDE9016469460D4800F041FECDE90046694608480294AF
:2067800000F03AFE0095CDE901646946044800F033FE05B0BDE8F08F001002400000014099
:2067A000000C01400010014000080140F8B500250446009590F82400012808D0012084F8F7
:2067C00024002046FDF74CFE060002D04BE00220F8BDA06A20F4885040F00200A0620220CB
:2067E00000F0C6FF22490968B1FBF0F0400000E0401E00900028FBD12046FDF791FE206809
:20680000816841F00801816000F0F8FE074604E000F0F4FEC01B0A2811D82068806800070E
:20682000F6D42068816841F00401816000F0E6FE07460EE000F0E2FEC01B0A2809D9A06A2E
:2068400020F0020040F01000A06284F824500120F8BD206880684007ECD4A06A20F002008B
:2068600040F00100A06284F824503046F8BD000024000020F8B50025009590F82420AE465F
:20688000012A1ED0012280F824204A681F244FF47873072A17D20668776B93FAA3FCBCFA91
:2068A0008CFC521E02FB0CFC04FA0CF4A74393FAA3F3B3FA83F30C685A4394402743776384
:2068C0002DE00220F8BD06680D2A14D2376B93FAA3FCBCFA8CFCD21F02FB0CFC04FA0CF449
:2068E000A74393FAA3F3B3FA83F30C685A4394402743376313E0F76A93FAA3FCBCFA8CFCC1
:206900000D3A02FB0CFC04FA0CF4A74393FAA3F3B3FA83F30C685A4394402743F7620A68E3
:206920003823072406680A2A14D3F76893FAA3FCBCFA8CFC0A3A02FB0CFC04FA0CF4A7434E
:2069400093FAA3F3B3FA83F38C685A4394402743F76012E0376993FAA3FCBCFA8CFC02FBD2
:206960000CFC04FA0CF4A74393FAA3F3B3FA83F38C685A439440274337610A68102A01D0FD
:20698000112A20D1124B02689A4217D193681B0219D4936843F4000393600968102912D186
:2069A0000C490D4A0968B1FBF2F101EB8101490000E0491E00910029FBD104E0816A41F0A7
:2069C00020018162012580F824E02846F8BD0000002401402400002040420F007047704746
:2069E000704700002DE9F04104004FF0000503D0A06A002618B108E00120BDE8F081E6621E
:206A000084F82460204600F091F82046FDF728FD0146A06AC00600D421B1A06A40F0100011
:206A2000A0627AE0A06A20F4885040F00200A0623B4823688342E06904D1B0F5402F01D1F9
:206A40004FF40020022292FAA2F2E768B2FA82F207FA02F2104362684FF4807C1043A26872
:206A6000624509D0012A07D05FF00002D4F814E0BEF1010F02D00AE06246F7E7C7B1A76AF9
:206A800047F02007A762E76A47F00107E7625F6827F4694717435F6023689A68214F3A4094
:206AA00002439A60A268624510D0012A0ED016E04FF4604EA7699EFAAEFEBEFA8EFE7F1EE1
:206AC00007FA0EF7174347F40062E0E74FF47002256992FAA2F2B2FA82F26D1E9540226885
:206AE000D36A23F470032B43D362226892680E4B1A40824207D1E662A06A20F0020040F0C5
:206B00000100A0620AE0A06A20F0020040F01000A062E06A40F00100E062012108466CE7AA
:206B2000003C0140FDF7E1FFFE0E1FFF70B5054600681D4986B0884234D11C49886940F40D
:206B400000708861886900F400700490486940F001004861486900F001000490886940F011
:206B6000100088618869202600F0100004900320CDE9006069460E4800F03EFC0E4C0D483A
:206B8000206000206060A0608020E060800020618000C4E905068000E061204600F01CFB4E
:206BA0002C62656206B070BD002401400010024000100140080002406C0C00202DE9F04766
:206BC000894604463B4900683B4F0E1D9046884201D0B84207D1306810F4702F03D0012584
:206BE0002846BDE8F08794F8240001280CD0012084F824002046FDF793FC05004FF0000068
:206C000004D084F82400EBE70220EAE7A16A40F60162914341F48071A1622168B94218D12D
:206C2000326812F4702F14D0A16A41F48011A1623168490505D5A16A21F4005141F4805125
:206C4000A162A16AC9040AD5E16A21F00601E16206E0A26A22F48012A2624968E9E7E06273
:206C600084F82400216A15488862216A1448C862216A1448086321686FF002000860206865
:206C8000816841F480718160216843464A464C31206A00F0C9FA20688168C1F342410729D0
:206CA000816803D041F48011816099E741F4A001FAE700000024014000280140AD44000873
:206CC00015450008FB4400082DE9F04104460068016821F00101016000F090FC0546002648
:206CE0004FF47A7710E000BF00F088FC401BB8420AD954F8340F40F0200044F814090320AA
:206D000060702670BDE8F08120680068C007EBD1012084F8210084F820600020F2E70000D1
:206D20002DE9F05F0446F94AF84DF84EF74F0068DFF8D893DFF8D4A3DFF8D0B3D114783DA4
:206D4000643E503F4FF4000E4FF4004C4FF40028A9F13C09AAF1280AABF1140B904221D984
:206D6000EB4A1368A8420FD0B0420FD0B84213D0484513D0504513D0584501D1724624E0D9
:206D8000E34A083290423CD108221EE080221CE0DF4A3032904239D10A4616E0624614E09E
:206DA000424612E0D94A803A1368A842ECD0B042ECD0B842F0D04845F0D05045F0D05845B4
:206DC000DCD0D24A9042DBD10205134279D00268D243120775D4026822F008020260CB4AEA
:206DE0002068904232D9A84219D0B0421DD0B84228D0484523D0504523D058450BD1714652
:206E000020E0C34A1C329042C2D1BFE7C04A44329042C5D1C2E7BE4A0832904201D108216C
:206E200010E0BB4A1C32904201D180210AE0B84A3032904206D0B6494431884201D161461D
:206E400000E04146B248001D01602CE0A84214D0B04218D0B84223D048451ED050451ED0B4
:206E6000584501D171461BE0904202D14FF0006116E0A74A0832904201D1082110E0A44AE0
:206E80001C32904201D180210AE0A14A3032904206D09F494431884201D1614600E0414679
:206EA0009A4880384160606B40F001006063042084F82100002084F82000216B09B12046AF
:206EC0008847924A206811154FF4800E4FF4804C4FF48028904221D98D4A1368A8420FD0A7
:206EE000B0420FD0B84213D0484513D0504513D0584501D1724624E0854A083290423FD1E6
:206F000004221EE040221CE0814A303290423CD10A4616E0624614E0424612E07B4A803A08
:206F20001368A842ECD0B042ECD0B842F0D04845F0D05045F0D05845DCD0744A9042DBD1A1
:206F4000C204134275D00268D243520771D40268920603D4026822F0040202606B4A2068BA
:206F6000904232D9A84219D0B0421DD0B84228D0484523D0504523D058450BD1714620E058
:206F8000634A1C329042BFD1BCE7614A44329042C2D1BFE75E4A0832904201D1042110E02A
:206FA0005B4A1C32904201D140210AE0584A3032904206D056494431884201D1614600E00C
:206FC00041465348001D01602CE0A84214D0B04218D0B84223D048451ED050451ED05845D5
:206FE00001D171461BE0904202D14FF0806116E0474A0832904201D1042110E0444A1C32F2
:20700000904201D140210AE0414A3032904206D03F494431884201D1614600E041463B48C2
:2070200080384160112084F82100E16A09B120468847364A206851154FF4005C4FF4003E61
:20704000904228D9324B1B68A84212D0B04213D0B8421AD048451AD050451AD0584502D172
:207060004FF400182AE0DFF8A88008F10808404544D14FF0020821E04FF020081EE0DFF883
:20708000908008F13008404544D1884616E0E04614E0F04612E01D4B803B1B68A842E8D0C7
:2070A000B042E9D0B842F0D04845F0D05045F0D05845D5D09042D6D14FF0007813EA080F43
:2070C00070D00368DB439B077FD403689B0603D4036823F0020303602068904239D9A842D3
:2070E00021D0B04225D0B8422FD048452AD050452AD0584513D14FF4001126E0DFF8108067
:2071000008F11C084045BAD1B6E700008000024000040240DFF8B8804045BAD1B7E72C4A6A
:207120003C3A904201D102210FE0294A283A904201D1202109E0264A143A904205D02449AE
:20714000884201D1614600E071462148403801602CE0A84215D0B04219D0B84224D04845E2
:207160001ED050451FD0584502D14FF400111BE0904202D14FF0007116E0154A3C3A9042EC
:2071800001D1022110E0124A283A904201D120210AE00F4A143A904206D00D49884202D13B
:2071A000614601E011E071460A484160606B6063012084F82100002084F82000A16A002970
:2071C00003D02046BDE8F05F0847BDE8F09F0000440402400000024070B520B190F8211084
:2071E000002411B103E0012070BD80F82040022180F8211003681A6843F6F0718A43D0E9C7
:2072000001152943D0E90356354329434569294385692943C5692943114319604463012152
:2072200080F82110002070BD70B5044690F82000012823D0012084F82000022084F82100A9
:207240002068056825F0010505602046FEF7F2FF2068016841F0020101602068016841F0C5
:20726000040101602068016841F0080101602068016841F001010160002070BD022070BDFB
:2072800031B500F0BBF9044600F0B8F90099001B8842F9D338BD00002DE9F0470546264834
:2072A0000F460126017E01290FD00121814601762868DFF888804CF25034022808D0A2464F
:2072C0002046FFF73BF9A8B131E00220BDE8F0872046FFF733F908BB0120FFF7DBF82046DB
:2072E000FFF72CF9D8F81010064621F00401C8F810101CE04FF0FF303860AC6811E02046D4
:20730000FFF7DAF85046FFF719F9D8F81010060021F00201C8F8101001D03C6007E004F5D0
:207320000064D5E9020100EBC120A042E7D8002189F818103046C9E71040002000200240F9
:207340000348016941F080010161002070470000002002402DE9F05F07461C488846002423
:20736000017E15461E46012909D00121814601764CF2503A5046FFF7E1F818B122E0022052
:20738000BDE8F09F012F02D0022F00D00427D346DFF83CA0220128463146FCF731FF81B261
:2073A00008EB4400FFF79AF85846FFF7C7F8DAF8102022F00102CAF8102018B9641CE4B2CB
:2073C000BC42E7D3002289F81820D9E7104000200020024005480169090605D504494160FA
:2073E0000449416000207047012070470020024023016745AB89EFCD2DE9F84FDFF8B8A141
:2074000000220AF1040B144601274FF00F090BF1040E00BF0B6807FA04F52B40AB4274D190
:20742000DFF898C14E68A6EB0C0866452BD00DDC032E34D005DC36B3012E19D0022E2FD1EB
:207440001BE0112E16D0122E2AD119E0B8F5881F19D006DCB8F5803F15D0B8F5801F1FD12C
:2074600011E0B8F5001F0ED0B8F5041F18D10AE0CA6815E0CA68121D12E0CA6808320FE0F9
:20748000CA680C320CE08A682AB1012A4FF0080203D0456104E0042202E0056100E0002282
:2074A000FF2B01D8064601E000F104064FEA840501D9A5F12005D6F800C009FA05F82CEAA6
:2074C000080C02FA05F54CEA050CC6F800C04D68ED006AD53A4DAE6946F00106AE61AD69FC
:2074E00024F0030605F001050095364D06EB050CDCF80850A6074FEA167809FA08F6B543C1
:20750000314EB04202D100261AE04EE02F4EB04201D1012614E02E4EB04201D102260FE026
:207520002C4EB04201D103260AE02B4EB04201D1042605E0294EB04201D1052600E006263C
:2075400006FA08F62E43CCF808604D68DAF80060ED03554601D51E4300E09E432E604D68E3
:20756000AD0305D5DBF800601E43CBF8006004E0DBF800509D43CBF800504D68DEF80060E5
:20758000ED02754601D51E4300E09E432E604D68AD0205D5084D0C352E681E432E6004E07E
:2075A000054E0C3635689D433560641C102CFFF431AFBDE8F88F0000000401400000111003
:2075C000001002400000014000080140000C0140001001400014014000180140001C014026
:2075E0008068084000D001207047C2684A40C26070470AB1016170470904FBE701480068B2
:20760000704700009C00002002480168491C0160704700009C000020074810B5016841F05D
:2076200010010160032000F07FF8002000F006F800F016F8002010BD0020024010B50446E4
:2076400000F0DAF94FF47A71B0FBF1F000F01AFD00222146501E00F047F8002010BD000093
:207660001A4808B5816941F001018161806900F001000090052000F057F8002211466FF046
:207680000B0000F031F8002211466FF00A0000F02BF8002211466FF0090000F025F80022C1
:2076A0001146501F00F020F800221146101F00F01BF800221146901E00F016F80022BDE865
:2076C00008401146501E00F00FB800000010024000F01F02012191404009800000F1E020D6
:2076E000C0F8001170470000F0B40E4B1B680C46C3F30223C3F10705042D00D90425191D34
:20770000072901D2002300E0DB1E012606FA05F1491E214099409E40761E16403143F0BCC4
:2077200001F080B90CED00E0064900F0070208684FF6FF03184040EA0220034A104308609B
:20774000704700000CED00E00000FA05BFF34F8F05480168054A01F4E06111430160BFF368
:207760004F8F00BFFDE700000CED00E00400FA0510B537A401461DCC86B08DE81D0038A03C
:20778000384C006804900020042944D012DC012944D002293DD100F04DF961684FF480429F
:2077A00092FAA2F201F44041B2FA82F2D140491C49002CE008292ED010292AD16168226892
:2077C000D20126D54FF4701292FAA2F201F47010B2FA82F2D040C9031DF8000010D56168C2
:2077E0004FF4003292FAA2F201F40031B2FA82F2D14004AA515C1C4AB2FBF1F1484301E0E1
:207800001A4948436168490203D440000321B0FBF1F006B010BD00F025F9FAE7226AC2F3EC
:207820000121012903D1920701D5C803F1E7022905D1626A920702D549F64040E9E703291E
:20784000E7D121688903E4D54FF22440E1E7000002030405060708090A0B0C0D0E0F10109E
:20786000010200000010024000127A0000093D002DE9F047DFF8708105460E46D8F800005D
:2078800000F00700B0420CD2D8F8001021F007013143C8F80010D8F8000000F00700B0422B
:2078A00077D12878514C800705D56068A96820F0F000084360602878C00759D0696801207C
:2078C00001290DD0022929D05FF0020393FAA3F2B2FA82F242F02002520904D0226803E0F7
:2078E0004FF40033F2E7626A93FAA3F3B3FA83F303F01F03984002424BD0606820F0030000
:2079000008436060FFF77AFE6968074641F2883001290DD00229814617D025E04FF000734E
:20792000D4E700BFFFF76AFEC11B494501D918E081466068C0F381000128F3D118E000BFCC
:20794000FFF75CFEC11B49450BD86068C0F381000228F5D10CE000BFFFF750FEC11B494545
:2079600002D90320BDE8F087606810F00C0FF3D1D8F80010404601F00701B1420BD90168A7
:2079800021F0070131430160006800F00700B04201D00120E6E72878400705D56068E9680F
:2079A00020F4E060084360602878000706D56068296920F4605040EAC100606000F052F8E3
:2079C0006168F02292FAA2F201F0F001B2FA82F2D140074A515CC840064908600020FFF7C6
:2079E0002DFE0020BEE70000002002400010024034BD00082400002001480068704700003E
:207A00002400002008480949006849684FF4E06292FAA2F201F4E061B2FA82F2D140044A0D
:207A2000515CC84070470000240000200010024044BD000808480949006849684FF460528B
:207A400092FAA2F201F46051B2FA82F2D140044A515CC840704700002400002000100240DF
:207A600044BD000810B519A385B00FCB8DE80F001AA01B4B006804905A681A4802F00C01AA
:207A800004291DD008291BD14FF4701494FAA4F402F47011B4FA84F4E140D2031DF8011009
:207AA00010D55A684FF4003393FAA3F302F40032B3FA83F3DA4004AB9A5CB0FBF2F0484364
:207AC00005B010BD08484843FAE7000002030405060708090A0B0C0D0E0F101001020000CE
:207AE0000010024000127A0000093D002DE9F84F04460078F74DC0074FF0010625D068682D
:207B00007704C0F38100012807D06868C0F3810002281BD16868C00318D597FAA7F0B0FA4A
:207B200080F040F02000400901D0286800E0686A97FAA7F1B1FA81F101F01F0106FA01F1E0
:207B400008425ED0606800287CD05AE06068B0F5803F0BD010B1B0F5A02F11D0286820F476
:207B600080302860286820F4802002E0286840F480302860606828B3FFF740FD80460BE024
:207B8000286840F480202860F0E700BFFFF736FDA0EB0800642871D897FAA7F0B0FA80F090
:207BA00040F02000400901D0286800E0686A97FAA7F1B1FA81F101F01F0106FA01F1084286
:207BC000E4D01EE0FFF71AFD804605E0FFF716FDA0EB08006428DED897FAA7F0B0FA80F01B
:207BE00040F02000400901D0286800E0686A97FAA7F1B1FA81F101F01F0106FA01F1084246
:207C0000E4D12078DFF8D08280074FF000094FF002075BD568684FF0F80B10F00C0F07D0A3
:207C20006868C0F3810002281CD16868C00319D497FAA7F0B0FA80F040F02000400902D0FC
:207C4000286801E08BE0686A97FAA7F1B1FA81F101F01F0106FA01F108422CD02069012835
:207C60007DD128E0206990B396FAA6F0B0FA80F048F82060FFF7C2FC824607E011E100BFCE
:207C8000FFF7BCFCA0EB0A00022884D897FAA7F0B0FA80F040F02000400901D0286800E0FF
:207CA000686A97FAA7F1B1FA81F101F01F0106FA01F10842E4D028689BFAABF26169B2FA73
:207CC00082F220F0F80091400843286025E0FFE796FAA6F1B1FA81F148F82190FFF78EFCE4
:207CE000824605E0FFF78AFCA0EB0A000228CCD897FAA7F0B0FA80F040F02000400901D04C
:207D0000286800E0686A97FAA7F1B1FA81F101F01F0106FA01F10842E4D1207800076ED5F7
:207D2000A069B8B396FAA6F0B0FA80F008EB8000C0F88064FFF762FC824605E0FFF75EFC2F
:207D4000A0EB0A000228A0D897FAA7F0B0FA80F040F06000B6EB501F02D128680CE062E178
:207D600097FAA7F0B0FA80F040F06000B7EB501F01D1286A00E0686A97FAA7F1B1FA81F1C4
:207D800001F01F0106FA01F21042D7D00120FFF777FA34E0FFE796FAA6F1B1FA81F108EB2D
:207DA0008101C1F88094FFF729FC824606E000BFFFF724FCA0EB0A00022872D897FAA7F0A5
:207DC000B0FA80F040F06000B6EB501F01D128680BE097FAA7F0B0FA80F040F06000B7EB28
:207DE000501F01D1286A00E0686A97FAA7F1B1FA81F101F01F0106FA01F21042D8D1207821
:207E0000400765D5E86940F08050E861E869DFF8CCB000F080500090DBF8001041F480714A
:207E2000CBF80010FFF7EAFB824605E0FFF7E6FBA0EB0A00642834D8DBF80000C005F5D581
:207E4000E06801280AD008B1052813D0286A20F001002862286A20F0040002E0286A40F097
:207E600001002862E06841F2883B90B3FFF7C6FB82460BE0286A40F004002862EEE700BFA8
:207E8000FFF7BCFBA0EB0A0159450AD897FAA7F0B0FA80F040F04000B6EB501F02D12868FA
:207EA0000CE0A3E097FAA7F0B0FA80F040F04000B7EB501F01D1286A00E0686A97FAA7F151
:207EC000B1FA81F101F01F0206FA02F10842D7D031E005E000100240000042420070004013
:207EE000FFF78CFB824605E0FFF788FBA0EB0A0159457BD897FAA7F0B0FA80F040F04000A6
:207F0000B6EB501F01D128680BE097FAA7F0B0FA80F040F04000B7EB501F01D1286A00E0FD
:207F2000686A97FAA7F1B1FA81F101F01F0206FA02F10842D8D1E06980B36968C1F38101AE
:207F4000022970D04FF080714F000228484609D091FAA1F1B1FA81F148F82100FFF74EFBCC
:207F6000044669E08A4691FAA1F1B1FA81F1C14648F82100FFF742FB804605E0FFF73EFBEF
:207F8000A0EB0800022854D897FAA7F0B0FA80F040F02000400902D0286801E061E0686AC7
:207FA00097FAA7F1B1FA81F101F01F0106FA01F10842E3D1206AB0F5803F05D16868A168DD
:207FC00020F4003008436860D4E908010843696821F47411084368609AFAAAF0B0FA80F073
:207FE00049F82060FFF70AFB044606E021E000BFFFF704FB001B02281BD897FAA7F0B0FAD6
:2080000080F040F02000400901D0286800E0686A97FAA7F1B1FA81F101F01F0106FA01F1FB
:208020000842E5D01DE01EE0FFF7E8FA001B022802D90320BDE8F88F97FAA7F0B0FA80F0BD
:2080400040F02000400901D0286800E0686A97FAA7F1B1FA81F101F01F0106FA01F10842E1
:20806000E2D10020E6E70120E4E74FF0E0210428086903D020F004000861704740F004005C
:20808000FAE7704710B5401EB0F1807F01D3012010BD4FF0E02460610F21601700F0C2FC6A
:2080A0000020A06107202061002010BD10B5FFF7E8FF10BD30B590F83820012A20D0012298
:2080C00080F83820022380F8393003685C6824F070045C6003685C680D682C435C6003681D
:2080E0009C6824F080049C6003689C6849680C439C6080F83920002180F83810084630BD90
:20810000022030BD10B5040003D094F8390010B107E0012010BD002084F83800204600F02F
:208120000DF8022084F83900211D206801F086F9012084F83900002010BD00002DE9F84F0D
:208140000546006825490026254F4FF010084FF080094FF4007A4FF4006B88421AD1F869C4
:2081600040F00800F861F8691F4C00F0080000901C48C4E900082020C4E905B00002E0611C
:2081800004F10801204681E84006FFF725F8AC62EC6165621549286888421CD1B86940F49D
:2081A0000050B861B869104C00F4005000900D4838341438C4E900082020C4E905B000029F
:2081C000E06104F10801204681E84006FFF704F8AC62EC616562BDE8F88F0000000C0040BF
:2081E000001002401C0402400805002000340140022180F8391001680A6842F001020A60CB
:20820000012180F839100020704770B5044690F83800012817D0012584F83850022084F89D
:2082200039002068826822F0770222F47F4282600868502837D00DDC202859D005DC88B3EA
:20824000102841D151E0022070BD302853D040283AD13FE060282ED070280BD0B0F5805FCA
:2082600003D0B0F5005F2FD110E02068816821F0070115E0CB68D1E90121206801F02BF90C
:208280002168886840F0770088601DE0CB68D1E90121206801F01FF92068816841F48041D2
:2082A000816011E01EE0CA684968206801F06AFA5021206806E0CA684968206801F073FA86
:2082C0006021206801F011F984F83950002084F8380070BDCA684968206801F053FA40218A
:2082E0002068EFE700212068ECE710212068E9E720212068E6E730212068E3E71FB50068A6
:20830000074988420AD14FF420700090022001900320039069460348FFF76EF81FBD00006A
:2083200000080040000C014070B5044690F838000D4601280DD0012684F83860022084F847
:20834000390042B1042A18D0082A2AD00C2A4DD139E0022070BD206801F052F920688169BD
:2083600041F0080181612068816921F004018161206881692A69114311E0206801F070F94B
:208380002068816941F4006181612068816921F480618161206881692A6941EA0221816174
:2083A00024E0206801F092F92068C16941F00801C1612068C16921F00401C1612068C1690B
:2083C0002A69114311E0206801F0B4F92068C16941F40061C1612068C16921F48061C1616B
:2083E0002068C1692A6941EA0221C16184F83960002084F8380070BD10B5040003D094F88A
:20840000390010B107E0012010BD002084F83800204600F00DF8022084F83900211D2068C1
:2084200001F00CF8012084F83900002010BD000008B500680649884208D10648C16941F0C4
:208440000401C161C06900F00400009008BD0000000800400010024010B50446006801224F
:2084600001F02EF808492068884202D00749884203D1416C41F4004141642068016841F098
:2084800001010160002010BD002C01400034014010B504460068416921F0C0014161206B8A
:2084A00008B1FEF711FC606B08B1FEF70DFC012084F83900002010BD7047000038B50446CE
:2084C00000680168C26811F0010F02F4807204D01AB1E16B41F00101E1630168C1F34002E7
:2084E000416901F0010122B119B1E26B42F00402E2630268C2F3800222B119B1E26B42F0BB
:208500000202E2630268C2F3C00222B119B1E16B41F00801E1630168C068C1F3401100F044
:20852000200019B110B1204602F012F820680168C068C1F3C01100F0800019B110B120462F
:2085400002F012F921680868CA68C0F3801002F04002012570B16AB1CA68204622F040022E
:20856000CA6094F83910322911D080F8395000BF00F00CFAE06B002808D020680168406826
:20858000009084F839502046FFF796FF38BD222180F83910ECE770B5040004D094F83900C7
:2085A000002510B106E0012070BD84F83850204600F020F8022084F839002068C16821F492
:2085C0000051C160204602F017F82068016921F4904101612068416921F02A0141612068F0
:2085E000C16841F40051C160E563012084F83900002070BD2DE9F04F044600689349002538
:20860000934F85B04FF0020A4FF0030B4FF080084FF40059884257D1B86940F48040B86128
:20862000B8698C4E00F4804004904815CDE9000A6946CDF80CB03046FEF7DEFE3015CDE968
:208640000005694630460295FEF7D6FE002201212520FFF749F82520FFF73AF87F4E7E48D0
:2086600001C61020A6E821017C4846F810597561C6E90659FEF7B0FD2663012211460E2031
:208680007462FFF731F80E20FFF722F8734E724838361430C6E90005C6E902583561756151
:2086A000C6E906593046FEF797FD6663002201210F207462FFF718F80F20FFF709F82068E7
:2086C000C16841F01001C1606549206888425AD1F86940F40030F861F8695E4E00F4003094
:2086E00004900420CDE9000A6946CDF80CB03046FEF782FE0820CDE9000569463046029548
