:020000040800F2
:1040000060440020DD410008E5410008E741000868
:10401000E9410008EB410008ED4100080000000004
:104020000000000000000000000000004541000802
:10403000F14100080000000089410008CD9E000801
:10404000F7410008F7410008F7410008F741000870
:10405000F7410008F7410008F7410008F741000860
:10406000F7410008F7410008F7410008096B000814
:10407000156B0008216B00082D6B0008396B0008D8
:10408000456B0008516B0008F7410008F741000834
:10409000F7410008F7410008F7410008F741000820
:1040A000F7410008F7410008F7410008F741000810
:1040B000F7410008F7410008F7410008F741000800
:1040C000F7410008F7410008F7410008F7410008F0
:1040D000F741000805B50008C1B500087DB6000825
:1040E000F7410008F7410008F7410008F7410008D0
:1040F000F7410008F7410008F7410008F7410008C0
:10410000F7410008F7410008F7410008F7410008AF
:10411000F7410008F7410008F7410008F74100089F
:104120005D6B0008696B0008F7410008F741000863
:10413000DFF80CD000F088F90048004725B90008E6
:1041400060440020224B19680868B0E8F00F80F343
:104150000988BFF36F8F4FF0000080F311884EF095
:104160000D0E70470000000006480068006880F3EC
:10417000088862B661B6BFF34F8FBFF36F8F00DF61
:1041800000BF00BF08ED00E0EFF30980BFF36F8FC1
:104190000F4B1A6820E9F00F106008B54FF050007F
:1041A00080F31188BFF34F8FBFF36F8F08F02EF9A4
:1041B0004FF0000080F31188BDE8084019680868D6
:1041C000B0E8F00F80F30988BFF36F8F704700BF2E
:1041D00040000020EFF3058070470000064880474C
:1041E00006480047FEE7FEE7FEE7FEE7FEE7FEE7DC
:1041F000FEE7FEE7FEE7FEE7E99E00083141000822
:10420000202A04DB203A21FA02F00021704721FA2B
:1042100002F3D040C2F12002914008431946704792
:1042200040EA01039B0703D009E008C9121F08C038
:10423000042AFAD203E011F8013B00F8013B521EB8
:10424000F9D2704770B521F0004303430CD0C1F39D
:104250000A550024D5EB040564EB0403D617AD1A08
:10426000B34102DB0020014670BD201841EB025132
:1042700070BD0EB5C10F80EAE0700844CA07002186
:1042800040F233438DE80E000A460B4600F08EF8EC
:1042900003B000BD20F00040C10DC0F3160040F493
:1042A00000007F2901DA00207047962903DCC1F164
:1042B0009601C840704796398840704701F0004326
:1042C00030B421F0004150EA010206D00A0DA2F5F7
:1042D0006072C1F31301002A02DC30BC0020704779
:1042E000440F44EAC104C100E01830BC00EBC250E6
:1042F00000F016B830B50B460146002020220124FC
:1043000009E021FA02F59D4205D303FA02F5491BA3
:1043100004FA02F52844151EA2F10102F1DC30BDB9
:104320000029A8BF7047401C490008BF20F00100C9
:10433000704710B4B0FA80FC00FA0CF050EA0104A7
:1043400004BF10BC704749B1CCF1200421FA04F439
:1043500011FA0CF118BF012121430843A3EB0C0112
:10436000CB1D4FEA00614FEA102042BF002010BC75
:10437000704700EBC35010440029A4BF10BC704725
:10438000401C490008BF20F0010010BC704710B568
:10439000141E73F1000408DA401C41F10001921868
:1043A0005B411A4301D120F0010010BD2DE9F04D11
:1043B00092469B4611B1B1FA81F202E0B0FA80F266
:1043C0002032904600F052F804460F4640EA0A00B8
:1043D00041EA0B0153465A46084313D0114653EAAB
:1043E000010019D0C8F140025046FFF709FF054609
:1043F0000E4650465946424600F038F8084305D06C
:10440000012004E020463946BDE8F08D0020054338
:1044100046EAE0762C4337430A986305E40AA0EBAA
:1044200008000022FD0A44EA47540A3002D5002061
:104430000146E9E7010510196941DDE90845001960
:104440006941BDE8F04DA2E7064C074D06E0E06883
:1044500040F0010394E8070098471034AC42F6D3CB
:10446000FFF76AFE0CCC00082CCC0008202A04DBE5
:10447000203A00FA02F1002070479140C2F1200377
:1044800020FA03F3194390407047000070B50446CA
:1044900000688168C943C9071CD1816821F0010106
:1044A000816003F069FD05460FE000BF03F064FD85
:1044B000401B022809D9A06A40F01000A062E06AFF
:1044C00040F00100E062012070BD20688068C043B8
:1044D000C007EBD0002070BD10B50146406A826A6B
:1044E00012F0500F05D0006A026BBDE8104008467C
:1044F0001047816A41F40071816201688968C1F3E3
:10450000424107290CD1C16851B9816A21F48071F7
:104510008162816AC90403D4816A41F00101816228
:1045200002F01AFF10BD10B5406A816A41F04001E7
:104530008162C16A41F00401C16202F00FFF10BD47
:1045400010B5406A02F009FF10BD0000F8B5002662
:104550000446009600688168C943C90728D081686D
:1045600041F001018160134813490068B0FBF1F08C
:1045700000E0401E00900028FBD103F0FDFC054642
:1045800011E000BF03F0F8FC401B02280BD9A06A21
:1045900040F01000A062E06A40F00100E06284F8A0
:1045A00024600120F8BD20688068C043C007E9D1BD
:1045B0000020F8BD3400002040420F003EB51648F0
:1045C0001449012401608915C0E9021400214161E8
:1045D00002254FF460220561C261416002F0C0FE15
:1045E000072002901020CDE9000469460A4802F035
:1045F000FFFD0F20CDE900056946074802F0F8FDF0
:10460000054802F091FD02220449034802F094FF9C
:104610003EBD0000002401406C0C0020380000204A
:104620007CB503220021012007F040FF324C032219
:1046300000212060012007F039FF60600322002183
:10464000012007F033FFA06000220421012007F0C1
:104650002DFFE06000220421012007F027FF2061E8
:1046600000220421012007F021FF606100240426BC
:10467000CDE900642346C82220A1234808F014F99C
:104680000320CDE900040023C82220A1224808F01D
:104690000BF90225CDE900540023C8221FA12248AE
:1046A00008F002F9CDE900640023C8221FA12248C6
:1046B00008F0FAF8CDE900540023C8221FA12248CF
:1046C00008F0F2F80126CDE900640023C8221FA1FA
:1046D000214808F0E9F8CDE900640023C8221BA1B5
:1046E0001E4808F0E1F8CDE900540023C8221CA1BF
:1046F0001E4808F0D9F87CBD000000205461736B9F
:104700005F4852780000000031A700085461736BC5
:104710005F4854780000000059A700085461736B8B
:104720005F54696D00000000D1AB00085461736BE9
:104730005F53616600000000C5A700085461736BF9
:104740005F416374000000002DA300085461736B87
:104750005F546D700000000071AC00084DAB0008A4
:104760005461736B5F4452780000000009A7000891
:1047700010B502F0C6FA442002F0CEFA02F0C1FAF7
:10478000BE2002F0C9FA02F0ADFA044602F0AAFA1D
:10479000000201B251EA04006FF0030401D5C043E6
:1047A000401CFFF766FD2246FFF74CFDBDE81040B8
:1047B000FFF784BD10B503F0EDFB05F059FB02F0E7
:1047C000A5FBFFF7FBFE06F0B7FF05F0B1FB02F01B
:1047D000D1F9BDE8104005F041BC000010B5C82972
:1047E00000D9C8210A460146034804F0ABFDBDE8E4
:1047F0001040142007F048BD0008002010B5C8295B
:1048000000D9C8210A460146034804F09BFDBDE8D3
:104810001040142007F038BD8008002070470000C9
:1048200070B5FD4C0820B4F9881006F0B5FB3220B5
:1048300007F02AFDB4F9B810092006F0ADFB3220CC
:1048400007F022FD94F8BF00002501283ED1207812
:1048500004283BD184F8BF50082004F095FF0121C3
:10486000032004F013FE0121042004F00FFE0121B7
:10487000052004F00BFE0121062004F007FE0121B3
:10488000072004F003FEC82007F0FEFC02210320ED
:1048900004F0FCFD0221042004F0F8FD02210520B3
:1048A00004F0F4FD0221062004F0F0FD02210720AF
:1048B00004F0ECFDE07C18B90221012006F05AFB5F
:1048C000E07C012802D1042106F054FBE0790128A4
:1048D0004CD1A07E01280BD1E07E012808D1207F99
:1048E000012805D1607F012802D1A07F012807D0CF
:1048F000E571042004F048FFA07E012837D03AE09B
:10490000E571042004F040FF0121042004F0BEFD05
:104910000121052004F0BAFD0121062004F0B6FDB6
:104920000121072004F0B2FDC82007F0ADFC0221F0
:10493000042004F0ABFD0221052004F0A7FD0221B4
:10494000062004F0A3FD0221072004F09FFDE07C77
:1049500018B91C21012006F00DFBE07C012802D1D2
:10496000232106F007FB012084F8BF00C4E10121E8
:10497000032004F08BFDE07E012803D101210420F7
:1049800004F084FD207F012803D10121052004F0DB
:104990007DFD607F012803D10121062004F076FD12
:1049A000A07F012803D10121072004F06FFDC8205A
:1049B00007F06AFCA07E012803D10221032004F045
:1049C00065FDE07E012803D10221042004F05EFD94
:1049D000207F012803D10221052004F057FD607FCC
:1049E000012803D10221062004F050FDA07F0128F8
:1049F00003D10221072004F049FDE07C00286AD1A0
:104A0000A07E012843D1E07E01280FD1207F00281D
:104A10007DD1607F0028A9D1A07F0028A6D10521E3
:104A2000012006F0A7FAA07E012830D1E07E002800
:104A300050D1207F01280ED1607F00284BD1A07F6C
:104A4000002848D10621012006F094FAA07E012812
:104A50001DD1E07EF0BB207F00283CD1607F012883
:104A60000DD1A07F002836D10721012006F082FA5F
:104A7000A07E01280BD1E07E60BB207F58BB607F09
:104A800048BBA07F01287BD1082106F073FAA07EE5
:104A9000E0BBE07E01280BD1207FC8BB607FD0B98E
:104AA000A07FC0B91821012006F064FAA07E68BB7F
:104AB000E07E70BB207F01280BD1607F58B9A07FBA
:104AC00048B91921012006F055FAA07EF0B9E07E20
:104AD000F8B901E032E03EE0207FE0BB607F0128D2
:104AE0000BD1A07FB8BB1A21012006F043FAA07EAB
:104AF00060B9E07E68B9207F68BB607F58BBA07F4B
:104B000001283DD11B2106F035FA03E013E018E03F
:104B100005E001E0A07E70B9E07E012830D1207F61
:104B200001282DD1607F01282AD1A07F012827D11B
:104B30001C2106F01FFAA07E012821D1E07E012869
:104B40001ED1207F01281BD1607F80B9A07F10B9C2
:104B50001D21012000E013E006F00CFAA07E0128E0
:104B60000ED1E07E01280BD1207F012808D1607F83
:104B7000012805D1A07F012802D1022106F0FAF90F
:104B8000E07C012847D1A07E01283BD1E07E0128AE
:104B90000CD1207FF0BB607FE8BBA07FD8BB092190
:104BA000012006F0E7F9A07E01282BD1E07EA8BB0A
:104BB000207F01280CD1607F68BBA07F58BB0A21F1
:104BC000012006F0D7F9A07E01281BD1E07E28BB8A
:104BD000207F00BB607F01280CD1A07FD8B90B21BA
:104BE000012006F0C7F9A07E01280BD1E07EA8B90C
:104BF000207F80B9607F70B9A07F01287CD10C2113
:104C000006F0B8F9A07EE8BBE07E012811D1207F34
:104C1000C8BB04E053E037E0B40000204CE0607F04
:104C200090BBA07F80BB1F21012006F0A3F9A07ECE
:104C300040BBE07E48BB207F01280BD1607F18BBC2
:104C4000A07F08BB2021012006F094F9A07EC8B9FE
:104C5000E07ED0B9207FB8B9607F01280BD1A07F5A
:104C600090B92121012006F085F9A07E50B9E07E9F
:104C700058B9207F40B9607F30B9A07F01283BD16F
:104C8000222103E015E008E036E003E006F072F9C7
:104C9000A07E70B9E07E01282ED1207F01282BD183
:104CA000607F012828D1A07F012825D1232106F08B
:104CB00061F9A07E01281FD1E07E01281CD1207F50
:104CC000012819D1607F70B9A07FA8B924210120E3
:104CD00006F050F9A07E01280ED1E07E01280BD10C
:104CE000207F012808D1607F012805D1A07F0128FD
:104CF00002D1042106F03EF9E07902280FD1E571D6
:104D0000052004F041FDE07C18B90121084606F0B9
:104D100031F9E07C012802D1032106F02BF9A079BA
:104D2000012809D1A5716079401CC1B26171BDE84B
:104D30007040022006F01EB970BD0000F0B585B0CD
:104D4000002500950120019506F07AF94FF496763A
:104D5000304607F099FA052006F072F9304607F060
:104D600093FA704CE07B70B90121052006F002F93E
:104D700005E00A2007F088FAA07800287BD1761E8B
:104D80003604360CF5D1E07B012874D1E5736A4610
:104D90004FEA000604EB4003B3F894101154322993
:104DA00001D9165400E0155441B1B42904D084F857
:104DB000BD60B3F8941009B184F8BE60401CC0B265
:104DC0000628E7D39DF801009DF80210000100EBD2
:104DD000C1009DF8031000EB81009DF8041000EB6A
:104DE00041009DF805100844C1B20A2006F0C2F83F
:104DF00094F8BB0001282FD184F8BB500DF10807AF
:104E000004EB4001B1F8941027F81010401CC0B218
:104E10000628F5D3042006F013F9322007F034FAFF
:104E2000052006F00DF9642007F02EFA5FF001006E
:104E300004EB400237F81010B2F89420914207D0EA
:104E400009B1B42902D11AB1B42A01D084F8BD60E5
:104E5000401CC0B20628EBD394F8BB0002281BD13B
:104E600084F8BB50032006F0EBF894F8BE0001284C
:104E700002D00A210DE04BE094F8BD00264618B997
:104E80000921052006F076F896F8BD00012803D127
:104E90000821052006F06EF894F8BB00032804D121
:104EA00084F8BB50042006F0CBF894F8BB0004282B
:104EB0002ED184F8BB50032006F0C2F8642609E026
:104EC0000A2007F0E1F994F88A00002820D0A078A1
:104ED00000281DD1761E16F0FF06F1D1062006F03F
:104EE000AFF81E2609E00A2007F0CEF994F88A00F0
:104EF00000280DD0A07800280AD1761E16F0FF06F3
:104F0000F1D1207C012805D00721052006F032F8D8
:104F100005B0F0BD25740621052006F02BF825719B
:104F20006570F5E7B400002010B5012006F088F8A0
:104F3000322007F0A9F9052006F082F8322007F0A8
:104F4000A3F9214CE07B012817D10020E073B4F8CD
:104F5000961032290FD8B4F8981032290BD8B4F82B
:104F60009A10322907D8B4F89C10322903D8B4F823
:104F70009E10322900D9012020721449207A0A7922
:104F800090421FD0087160B9032004F0FDFB607EE1
:104F9000012803D10021042005F0ECFF642007F074
:104FA00073F9207A01280DD1022004F0EDFB607E18
:104FB00018B90121042005F0DDFFBDE81040642090
:104FC00007F062B910BD0000B400002018000020F6
:104FD0002DE9F041384F394C00267979E0790129E3
:104FE00002D0022903D00FE0022802D00CE00128F1
:104FF0000AD17E71002004F0C7FB6079401CC1B269
:105000006171022005F0B6FFA078042835D104F0C4
:10501000BBFB0121032004F039FA0121042004F034
:1050200035FA0121052004F031FA0121062004F0AF
:105030002DFA0121072004F029FAC82007F024F9ED
:105040000221032004F022FA0221042004F01EFAB7
:105050000221052004F01AFA0221062004F016FAB3
:105060000221072004F012FA26700120E071787105
:10507000A6701F210A2005F07DFFA078052818D111
:1050800004F082FB0125A81CC0B2002104F0FEF947
:105090006D1CEDB2052DF6D9207D0021401C20703D
:1050A0000220E0717871A670BDE8F0410A2005F099
:1050B00061BFBDE8F081000018000020B4000020AE
:1050C00070B51E4E1E4C0025B179E079012902D041
:1050D000022903D00FE0022802D00CE001280AD1F7
:1050E000B571002004F050FB6079401CC1B26171C1
:1050F000022005F03FFFA07804280BD1022004F025
:1051000043FB25700120E071B071A5701F210A20BA
:1051100005F030FFA07805280FD1032004F034FB00
:10512000207D0021401C20700220E071B071A5702C
:10513000BDE870400A2005F01DBF70BD18000020BA
:10514000B40000202DE9F0418C4D00268C4CE8790C
:10515000411CE9710A2805D1B4F98810082005F02E
:105160001BFFEE710A2007F08FF8B4F8D200012877
:105170000DD12E81A4F8D260002004F005FB0020A0
:1051800001F0FAFDB4F9D410A32005F005FFB4F93D
:10519000D2000527022806D0032812D004281FD0E9
:1051A000052828D074E02E81B4F98800B4F9D6100F
:1051B00088420EDD4FF0030004F0E6FA0320A4F865
:1051C000D200B4F98800B4F9D61088420EDDBDE8EB
:1051D000F0810EDA022004F0D7FA0420A4F8D200FD
:1051E000B4F98800B4F9D6108842F0DB002004F04E
:1051F000CBFAA4F8D270B4F98800B4F9D41088427C
:1052000023DA0620A4F8D2000021022004F03EF99F
:10521000142007F039F80121084604F037F914206A
:1052200007F032F80021032004F030F900210420B7
:1052300004F02CF90021052004F028F900210620B3
:1052400004F024F90021072016E00720A4F8D2007A
:105250000121032004F01AF90121042004F016F9B9
:10526000142007F011F80021012004F00FF9142098
:1052700007F00AF80121022004F008F9142007F0D1
:1052800003F80021082004F001F9012004F07CFA61
:10529000B4F8D2004FF4FA784FF49677062834D158
:1052A0002889401C80B22881B4F98810B4F9D42030
:1052B000914203DC411C2981B8421AD9404606F0CC
:1052C000E3FFB4F98800B4F9D410884204DC2889DB
:1052D000411C2981B8420CD9A4F8D260002004F006
:1052E00053FA002001F048FDB4F9D410A32005F0D2
:1052F00053FE012004F048FA0A2006F0C5FF002002
:1053000004F042FA0A2006F0BFFFB4F8D2000728E2
:105310007FF45DAFB4F98800B4F9D410884204DB9F
:105320002889411C2981B8421AD9404606F0ACFFB1
:10533000B4F98800B4F9D410884204DB2889411CF0
:105340002981B8420CD924F8D26F002004F01CFA4D
:10535000002001F011FDB4F90210A32005F01CFE9D
:10536000012004F011FA0A2006F08EFF002004F05C
:105370000BFABDE8F041142006F086BF18000020AB
:10538000B40000202DE9F041BC4C1021BC4D94F834
:105390002900404201EB4000C7B26889401C688187
:1053A0000A2006F071FF94F88B00002600287DD1BA
:1053B000B4F98800642803DAE889401CE88102E037
:1053C000002004F0E1F9B5F90E000A2823DD0121DF
:1053D000084604F05BF80021022004F057F8002191
:1053E000082004F053F80121032004F04FF80121B4
:1053F000042004F04BF80121052004F047F80121B6
:10540000062004F043F80121072004F03FF80120B2
:1054100004F0BAF9EE81B5F90A0014285BDD6E815B
:10542000B4F88800A4F89000A889401C00B2A881B4
:1054300005284CDD012084F88B00E07C18B915218B
:10544000012005F097FDE07C012802D1162105F02E
:1054500091FD0121AE81084604F018F800210220D8
:1054600004F014F80021082004F010F801210320B2
:1054700004F00CF80121042004F008F801210520B3
:1054800004F004F80121062004F000F801210720AF
:1054900003F0FCFFC82006F0F7FE0221012003F014
:1054A000F5FF0221032003F0F1FF00E013E00221E9
:1054B000042003F0EBFF0221052003F0E7FF0221A7
:1054C000062003F0E3FF0221072003F0DFFFB4F81A
:1054D0009000A4F88E0094F88B00012876D1B5F9DD
:1054E0001000002807DD401E2882B4F88800A4F8C8
:1054F0009000A4F88E00B4F98800642803DAE889E3
:10550000401CE88102E0002004F03EF9B5F90E00ED
:10551000642816DD0121084604F02AF90121022041
:1055200004F026F9DFF85C8101221102404602F006
:105530001EFD01224021404602F019FDEE81282087
:105540002882B5F90A0032285BDD288AF0BB6E811B
:1055500034F9881F4CA02181B4F9062006F00CF91B
:10556000B4F90610B4F908003944883C88421DDDBE
:1055700094F8280008B1012818D1052004F004F996
:10558000032084F88B00E07C18B90121084605F05F
:10559000F1FCE07C012802D1032105F0EBFC6079ED
:1055A000401CC1B26171022005F0E4FCB4F98E1018
:1055B000B4F99000C91B88421FDA94F8280008B19A
:1055C00002281AD1042004F0DFF800E019E00220DC
:1055D00084F88B00E07C18B90221012005F0CAFC98
:1055E000E07C012802D1042105F0C4FC6079401C54
:1055F000C1B26171022005F0BDFCB4F89000A4F8BE
:105600008E0094F88B00022835D3642509E00A2027
:1056100006F03AFE94F88A0000282CD0A0780028E2
:1056200029D16D1E2D042D0CF1D194F88C00401C55
:10563000C0B284F88C00217D884203D394F88B108B
:10564000022906D0617D884215D394F88B00032887
:1056500011D104F88B6F0020667004F095F80120DA
:1056600001F08AFB4FF4FA6006F00EFEBDE8F0414F
:10567000002001F081BBBDE8F0810000B4000020F3
:1056800018000020000C01402025642D2564200016
:105690002DE9F041B44C1021B44D94F8290040425A
:1056A00001EB4000C7B2688A401C68820A2006F0FD
:1056B000EBFD94F88B00002600287DD1B4F988001A
:1056C000642803DAE88A401CE88202E0002004F043
:1056D0005BF8B5F916000A2823DD0121084603F01E
:1056E000D5FE0021022003F0D1FE0021082003F0A6
:1056F000CDFE0121032003F0C9FE0121042003F0A7
:10570000C5FE0121052003F0C1FE0121062003F0A2
:10571000BDFE0121072003F0B9FE012004F034F89A
:10572000EE82B5F9120014285CDD6E82B4F88800B0
:10573000A4F89000A88A401C00B2A88205284DDD7C
:10574000012084F88B00E07C18B91521012005F0B8
:1057500011FCE07C012802D1162105F00BFC01218F
:10576000AE82084603F092FE0021022003F08EFE76
:105770000021082003F08AFE0121032003F086FEA9
:105780000121042003F082FE0121052003F07EFEAA
:105790000121062003F07AFE0121072003F076FEA6
:1057A000C82006F071FD0221012003F06FFE0221E6
:1057B000032003F06BFE00E014E00221042003F05C
:1057C00065FE0221052003F061FE0221062003F0A0
:1057D0005DFE0221072003F059FEAE82B4F890006E
:1057E000A4F88E0094F88B00012875D1B5F9180043
:1057F000002807DD401E2883B4F88800A4F8900034
:10580000A4F88E00B4F98800642803DAE88A401C02
:10581000E88202E0002003F0B7FFB5F91600642823
:1058200016DD0121084603F0A3FF0121022003F049
:105830009FFFDFF83C8101221102404602F097FBF6
:1058400001224021404602F092FBEE82282028836C
:10585000B5F9120032284ADD288BE8BB6E82B4F914
:105860008800A4F89000B4F98E103944884218DDFD
:10587000042003F089FF032084F88B00E07C18B932
:105880000121084605F076FBE07C012802D10321C6
:1058900005F070FB6079401CC1B26171022005F017
:1058A00069FBB4F98E10B4F99000C91B88421ADA6A
:1058B000052003F069FF022084F88B00E07C18B912
:1058C0000221012005F056FBE07C012802D10421D1
:1058D00005F050FB607900E009E0401CC1B2617145
:1058E000022005F047FBB4F89000A4F88E0094F86D
:1058F0008B00022835D3642509E00A2006F0C4FC99
:1059000094F88A0000282CD0A078002829D16D1E98
:105910002D042D0CF1D194F88C00401CC0B284F8F9
:105920008C00217D884203D394F88B10022906D085
:10593000617D884215D394F88B00032811D104F8B7
:105940008B6F0020667003F01FFF012001F014FA36
:105950004FF4FA6006F098FCBDE8F041002001F039
:105960000BBABDE8F0810000B40000201800002050
:10597000000C014070B5364C0820B4F9881005F0D1
:105980000BFB322006F080FCB4F9B810092005F0BA
:1059900003FB322006F078FCE079002501283CD199
:1059A000E571002003F0F0FE012001F0E5F9C820C8
:1059B00006F06AFC0221012003F068FD022108467E
:1059C00003F064FD0221082003F060FD02210320A2
:1059D00003F05CFD0221042003F058FD02210520A4
:1059E00003F054FD0221062003F050FD02210720A0
:1059F00003F04CFDE07C18B91521012005F0BAFA3E
:105A0000E07C012802D1162105F0B4FA6079401C2F
:105A1000C1B26171022005F0ADFAE079022815D11A
:105A2000E5710021082003F031FD052003F0ACFEF4
:105A3000E07C18B90121084605F09CFAE07C0128B9
:105A400004D1BDE87040032105F094BA70BD000098
:105A5000B40000202DE9F0477F4D0820B5F98810EB
:105A600005F09AFA142006F00FFCB5F9B8100920D9
:105A700005F092FA142006F007FC012005F0E0FA88
:105A8000142006F001FC052005F0DAFA142006F0D7
:105A9000FBFBE87BDFF8C49101287DD10027EF7381
:105AA00001246FF0130A2E4606EB4408B8F9AC0047
:105AB000142803DCB8F89400962807D33019407AEC
:105AC00020B9A01CC0B2012103F0E0FCB8F9AC0081
:105AD000504503DBB8F894001E2804D8A01CC0B2BF
:105AE000002103F0D3FC641CE4B2052CDCD9B07AAD
:105AF000F17A000100EBC100317B4C4600EB8100E4
:105B0000717B00EB4100B17B014499F801008142B7
:105B10004DD0012248B1102800D3377211F0FF0197
:105B2000617004D01F2904D004E03272F6E73772A6
:105B300000E0327296F88A0010B10A2005F01AFAD5
:105B4000307A012802D1042003F01EFE307A18BBFF
:105B50000121084603F09AFC142006F095FB012170
:105B6000082003F093FC0021022003F08FFC142096
:105B700006F08AFB012003F007FE4FF4967006F052
:105B800083FB607820B30121084603F07FFC1420DA
:105B900006F07AFB002100E009E0022003F076FC29
:105BA000142006F071FB0021082003F06FFC297A15
:105BB00099F80020914224D089F800106879401C9F
:105BC000C1B26971022005F0D5F9287A48B10FE019
:105BD0000021012003F05AFC142006F055FB01219E
:105BE000D9E7687E01280CD10021042005F0C2F914
:105BF000287A012805D1687E18B90121042005F012
:105C0000B9F9C82006F040FBA87A012803D1022187
:105C1000032003F03BFCE87A012803D10221042091
:105C200003F034FC287B012803D10221052003F076
:105C30002DFC687B012803D10221062003F026FCFD
:105C4000A87B012805D1BDE8F0470221072003F019
:105C50001DBCBDE8F0870000B40000201800002043
:105C600070B5744D0820B5F9881005F095F932200B
:105C700006F00AFBB5F9B810092005F08DF93220BD
:105C800006F002FBE8790026012833D12C46EE719C
:105C9000042003F079FD94F8820094F8831094F8BE
:105CA0002620084494F88410084494F825101144E0
:105CB00094F827201144884205D184F8826084F842
:105CC000836084F8846000200122211891F8253037
:105CD000012B0BD191F8823043B981F8822084F8EE
:105CE000C00090B101284ED002286AD0401CC0B23A
:105CF0000228EAD9E87902287DD1EE71052003F067
:105D000043FDE87C002877D08BE00121032003F0DD
:105D1000BDFB0121042003F0B9FB0121052003F0A4
:105D2000B5FB0121062003F0B1FB0121072003F0A0
:105D3000ADFBC82006F0A8FA0221032003F0A6FB61
:105D40000221042003F0A2FB0221052003F09EFBA8
:105D50000221062003F09AFB0221072003F096FBA4
:105D6000E07C18B91021012005F004F9E07C01283D
:105D700001D114214DE06079401CC1B26171022053
:105D800005F0F8F8B6E70121032003F07FFB0121BD
:105D9000042003F07BFBC82006F076FA02210320E2
:105DA00003F074FB0221042003F070FBE07C18B9BF
:105DB0000E21012005F0DEF8E07C0128DBD1122164
:105DC00027E00121032003F061FB0121042003F0FF
:105DD0005DFB0121052003F059FBC82006F054FAB1
:105DE0000221032003F052FB0221042003F04EFBAA
:105DF0000221052001E01CE00FE003F047FBE07CFE
:105E000018B90F21012005F0B5F8E07C0128B2D1C6
:105E10001321012005F0AEF8ADE70D21012005F0BA
:105E2000A9F8E87C012804D1BDE87040112105F0F3
:105E3000A1B870BDB400002070B5304C0820B4F992
:105E4000881005F0A9F8322006F01EFAB4F9B8104F
:105E5000092005F0A1F8322006F016FAE0790025B5
:105E600001282DD1E57194F82B00012805D00220DE
:105E700003F08AFCE07C70B111E0062003F084FCA2
:105E8000E07C18B91521012005F074F8E07C0128A8
:105E90000CD1162107E00221012005F06BF8E07C0F
:105EA000012803D10421012005F064F86079401C29
:105EB000C1B26171022005F05DF8012084F8C100D3
:105EC000E079022819D1E57194F82B00012806D059
:105ED0005FF0030003F058FCE07C10B105E0072000
:105EE000F8E70121084605F045F8E07C012804D1D7
:105EF000BDE87040032105F03DB870BDB40000203E
:105F00002DE9F041504D0820B5F9881005F044F80E
:105F1000142006F0B9F9B5F9B810092005F03CF8DD
:105F2000142006F0B1F9012005F08AF8322006F0BD
:105F3000ABF9052005F084F8322006F0A5F9E87BDE
:105F4000424E012841D10022EA73B5F89A102C463E
:105F50000346322901D9237200E02272401CC0B2EC
:105F60000628F6D3B4F89600322810D9B4F8980071
:105F700032281ED9284632291BD9B0F89C10322964
:105F800017D9B5F89E00322813D91F2712E02846EA
:105F90000FD2B0F89820322A0BD2322909D2B0F8A9
:105FA0009C10322905D2B5F89E00322801D2002774
:105FB00000E01027F078874207D094F88A0018B1E3
:105FC00039460A2004F0D6FFF770287AB178884263
:105FD00037D0B0706879401CC1B26971022004F0FA
:105FE000C9FF287AA0B9032003F0CEFB012108469F
:105FF00004F0C0FF0321012004F0BCFF687E0128EB
:1060000003D10021042004F0B5FF642006F03CF920
:10601000287A012815D1022003F0B6FB02210120C5
:1060200004F0A8FF0421012004F0A4FF687E18B941
:106030000121042004F09EFFBDE8F041642006F039
:1060400023B9BDE8F0810000B40000201800002052
:106050002DE9F041A74C082194F82900404201EBBA
:106060004000C6B2B4F9881008207A3404F094FFD6
:10607000322006F009F9B4F93E10092004F08CFF33
:10608000322006F001F9607C7A3C10B101287DD005
:1060900000E1032003F078FB0121022003F0F6F970
:1060A0004FF4FA756FF01D070DE00A2006F0ECF8CA
:1060B00094F88A0000286AD0A078002867D16D1E65
:1060C0002D042D0C06D0B4F98600B842EDDC94F80E
:1060D0008A0010B1012003F057FB0121084603F0AC
:1060E000D5F9142006F0D0F80121022003F0CEF9F2
:1060F000142006F0C9F80121082003F0C7F9012196
:10610000032003F0C3F90121042003F0BFF90121AA
:10611000052003F0BBF90121062003F0B7F90121A6
:10612000072003F0B3F996250DE00A2006F0ACF83D
:1061300094F88A0000282AD0A078002827D16D1E64
:106140002D042D0C03D0B4F986000328EDDB0021CB
:10615000012003F09BF9142006F096F8002102209C
:1061600003F094F9142006F08FF80021082003F0C2
:106170008DF90121032003F089F90121042003F0A6
:1061800085F90021052003F081F901E036E099E06E
:106190000021062003F07AF90021072003F076F9A8
:1061A000C82006F071F80221032003F06FF90221E4
:1061B000042003F06BF9C82509E00A2006F064F812
:1061C00094F88A0000287DD0A07800287AD16D1E2E
:1061D0002D042D0CF1D1B4F88600A4F88E00E07CDB
:1061E00018B91521012004F0C5FEE07C012802D178
:1061F000162104F0BFFE012084F88B00B4F986005C
:10620000A4F89000B4F98E10314488421DDD94F852
:10621000280008B1012818D1032003F0B5FA0320A3
:1062200084F88B00E07C18B90121084604F0A2FE36
:10623000E07C012802D1032104F09CFE6079401C1F
:10624000C1B26171022004F095FEB4F98E10B4F968
:106250009000891B88421DDA94F8280008B10228B2
:1062600018D1022003F090FA022084F88B00E07C21
:1062700018B90221012004F07DFEE07C012802D142
:10628000042104F077FE6079401CC1B261710220E4
:1062900004F070FE94F88B00022829D3642509E0ED
:1062A0000A2005F0F1FF94F88A00002820D0A07899
:1062B00000281DD16D1E2D042D0CF1D194F88C00F9
:1062C000401C00E014E0C0B284F88C00217D8842BC
:1062D00003D394F88B10022906D0617D884207D33E
:1062E00094F88B00032803D1002004F88B0F607012
:1062F000BDE8F081B40000202DE9F041A24C082156
:1063000094F82900404201EB4000C6B2B4F988106D
:1063100008207A3404F040FE322005F0B5FFB4F9CD
:106320003E10092004F038FE322005F0ADFF607CFD
:106330007A3C10B101287DD0F6E0032003F024FA66
:106340000121022003F0A2F84FF4FA756FF01D0747
:106350000DE00A2005F098FF94F88A0000286AD022
:10636000A078002867D16D1E2D042D0C06D0B4F93D
:106370008600B842EDDC94F88A0010B1012003F0E9
:1063800003FA0121084603F081F8142005F07CFF90
:106390000121022003F07AF8142005F075FF012195
:1063A000082003F073F80121032003F06FF80121A6
:1063B000042003F06BF80121052003F067F80121A8
:1063C000062003F063F80121072003F05FF896250B
:1063D0000DE00A2005F058FF94F88A0000282AD022
:1063E000A078002827D16D1E2D042D0C03D0B4F900
:1063F00086000328EDDB0021012003F047F814207C
:1064000005F042FF0021022003F040F8142005F0BF
:106410003BFF0021082003F039F80121032003F09D
:1064200035F80121042003F031F80021052003F0A4
:106430002DF801E036E099E00021062003F026F86F
:106440000021072003F022F8C82005F01DFF0221DB
:10645000032003F01BF80221042003F017F8C825DD
:1064600009E00A2005F010FF94F88A0000287DD08A
:10647000A07800287AD16D1E2D042D0CF1D1B4F82E
:106480008600A4F88E00E07C18B91521012004F0E4
:1064900071FDE07C012802D1162104F06BFD012082
:1064A00084F88B00B4F98600A4F89000B4F98E103B
:1064B0003144884218DD022003F066F9032084F895
:1064C0008B00E07C18B90121084604F053FDE07C04
:1064D000012802D1032104F04DFD6079401CC1B2B6
:1064E0006171022004F046FDB4F98E00B4F99010F9
:1064F000801B814218DA032003F046F9022084F859
:106500008B00E07C18B90221012004F033FDE07C0F
:10651000012802D1042104F02DFD6079401CC1B294
:106520006171022004F026FD94F88B00022829D323
:10653000642509E00A2005F0A7FE94F88A000028E7
:1065400020D0A07800281DD16D1E2D042D0CF1D176
:1065500094F88C00401CC0B284F88C00217D8842E5
:1065600003D394F88B10022908D000E00AE0617D83
:10657000884207D394F88B00032803D1002004F845
:106580008B0F6070BDE8F081B40000202DE9F04170
:10659000B84C80270820B4F9881004F0FDFC3220A4
:1065A00005F072FEB4F9B810092004F0F5FC3220B1
:1065B00005F06AFEE079002601287CD1E07F002802
:1065C0007AD1A07E012831D1E07E01282ED1207F12
:1065D00001282BD1607F012828D1A07F012825D157
:1065E0002078022822D8042003F0CEF801210420CC
:1065F00002F04CFF0121052002F048FF0121062096
:1066000002F044FF0121072002F040FFC82005F0FE
:106610003BFE0221042002F039FF0221052002F096
:1066200035FF0221062002F031FF4BE0E671042025
:1066300003F0AAF8A07E012803D10121032002F073
:1066400025FFE07E012803D10121042002F01EFF76
:10665000207F012803D10121052002F017FF607F70
:10666000012803D10121062002F010FFA07F01289C
:1066700003D10121072002F009FFC82005F004FE24
:10668000A07E012803D10221032002F0FFFEE07E5C
:10669000012803D10221042002F0F8FE207F012806
:1066A00003D10221052002F0F1FE607F012806D10E
:1066B0000221062001E020E04AE002F0E7FEA07F90
:1066C000012803D10221072002F0E0FEA07AE17A3E
:1066D000000100EBC100217B00EB8100617B00EB3E
:1066E0004100A17B0844802807D0C7B294F88A00F3
:1066F00018B139460A2004F03DFCE079022824D183
:10670000E07F00287BD1E671052003F03DF8A07AF8
:10671000E17A000100EBC100217B00EB8100617B8D
:1067200000EB4100A17B0844B84207D0C7B294F8FF
:106730008A0018B139460A2004F01CFC6079401C1C
:10674000C1B26171022004F015FCE079012853D137
:10675000E07F01286CD1E671042003F015F894F86D
:10676000760094F8771094F87920084494F878101B
:10677000637F1144084494F87A10E27E0844A17EB5
:106780001144227F1A441144A27F1144884209D146
:1067900084F8766084F8776084F8786084F87960AB
:1067A00084F87A6001256019417E012902D190F8B0
:1067B0007500E0B36D1CEDB2052DF4D9A07AE17A35
:1067C000000100EBC100217B00EB8100617B00EB4D
:1067D0004100A17B0844B84207D0C7B294F88A00B0
:1067E00018B139460A2004F0C5FB6079401CC1B2DB
:1067F0006171022004F0BEFBE079022837D1E07F0E
:10680000012834D1E671052002F0BEFFA07AE17ABA
:10681000000100EBC100217B00EB8100617B00EBFC
:106820004100A17B0844B84221D0C1B201E009E097
:106830001DE094F88A00002819D0BDE8F0410A2034
:1068400004F098BB01206119052D81F8750084F8CA
:10685000C050B3D8AD1CE8B2012102F017FEC82029
:1068600005F012FDE8B2022102F010FEA6E7BDE835
:10687000F0810000B40000202DE9F041A14D082076
:10688000B5F9881004F088FB322005F0FDFCB5F95D
:10689000B810092004F080FB322005F0F5FCE879FF
:1068A0000027012833D195F87D0095F87E1095F8E2
:1068B0008020084495F87F1095F82330114408444F
:1068C00095F8811095F82120084495F8201011447E
:1068D00095F822201A44114495F824201144884246
:1068E00009D185F87D7085F87E7085F87F7085F810
:1068F000807085F8817002242819817F012902D1D6
:1069000090F87B0070B1641CE4B2062CF4D9E879ED
:1069100002287CD1EF71052002F036FFE87C0028C8
:1069200076D0E5E00126052C54D8281980F87B6044
:1069300085F8C040EF71042002F026FF01210320FA
:1069400002F0A4FD022C06D0032C07D0042C08D0A2
:10695000052C1AD009E00121042004E001210520C2
:1069600001E00121062002F091FDC82005F08CFC19
:106970000221032002F08AFD022C09D0032C0AD048
:10698000042C0BD0052C11D00CE001210720EAE7E4
:106990000221042004E00221052001E0022106205A
:1069A00002F074FDE87C2E4618B107E002210720B2
:1069B000F6E7E01CC1B2012004F0DCFAF07C01280B
:1069C00003D1E41DE1B204F0D5FA7079401CC1B2E4
:1069D000717185E0287802283BD895F8BF0078B916
:1069E000042002F0D1FEE87C2C4618B91C210120BD
:1069F00004F0C0FAE07C012802D1232104F0BAFAA5
:106A00000121042002F042FD0121052001E077E090
:106A10006AE002F03BFD0121062002F037FD012172
:106A2000072002F033FDC82005F02EFC02210420CF
:106A300002F02CFD0221052002F028FD0221062093
:106A400002F024FD0221072002F020FD85F8BF603E
:106A50005DE7281985F8BF7080F87B6085F8C04035
:106A6000EF71082002F090FE0121032002F00EFDDC
:106A70000121042002F00AFD0121052002F006FD9B
:106A80000121062002F002FD0121072002F0FEFC98
:106A9000C82005F0F9FB0221032002F0F7FC0221D7
:106AA000042002F0F3FC0221052002F0EFFC022199
:106AB000062002F0EBFC0221072002F0E7FCE87C54
:106AC00018B90221012004F055FAE87C2C4601286F
:106AD00002D1042104F04EFA6079401CC1B2617108
:106AE000022004F047FA12E70121084604F042FAB6
:106AF000E87C012804D1BDE8F041032104F03ABA52
:106B0000BDE8F081B4000020014800F0C7BD0000DE
:106B10009C0C0020014800F0C1BD0000A00900202D
:106B2000014800F0BBBD0000D8090020014800F07A
:106B3000B5BD0000C0080020014800F0AFBD000056
:106B4000F8080020014800F0A9BD000068090020F5
:106B5000014800F0A3BD000030090020014800F00A
:106B60009DBD000070050020014800F097BD0000A9
:106B7000380500200D4808B5416941F00201416126
:106B80004069012200F0020000901146382001F017
:106B900069FA382001F05AFA01221146392001F031
:106BA00061FABDE80840392001F050BA00100240F7
:106BB00010B5046863604368102B036803D09960C4
:106BC0000068C26010BD9A600068C16010BD06E038
:106BD0000021491CC9B20A29FBD3401E80B20028FB
:106BE000F6D170471FB520200090002001900120B1
:106BF00002906946014801F0BDF81FBD0008014040
:106C00001FB52020009001200190032003906946C9
:106C1000014801F0AFF81FBD0008014070B5002425
:106C2000FFF7E0FF124D04E0641CE4B20120FFF71F
:106C3000CEFF2021284601F091F910B1642CF3D346
:106C40000FE0642C0DD2002404E0641CE4B20120A7
:106C5000FFF7BDFF2021284601F080F918B1F02C84
:106C600004D3012070BDF02CEFD3FAE7002070BDF3
:106C70000008014010B5FFF7C3FF0A4C0022202195
:106C8000204601F074F940F2EE20FFF7A0FF012248
:106C90002021204601F06BF9BDE810400F20FFF7DE
:106CA00096BF00000008014010B5FFF7A9FF0C4C8B
:106CB00000222021204601F05AF90A20FFF787FF21
:106CC000FFF790FF2021204601F048F9012805D068
:106CD00000222D20FFF77BFF104610BD0122F8E7B0
:106CE0000008014070B500254FEA0504FFF7DCFFFE
:106CF000A0402843641CE4B2C5B2082CF6D3284651
:106D000070BD10B5FFF7B6FFFFF788FFBDE8104074
:106D1000CC2000F001B8000070B50546FFF770FF09
:106D2000144E002415F0010F4FEA55054FF00002F4
:106D30004FF0200130460BD001F019F90820FFF781
:106D400046FF01222021304601F011F93A200AE0E5
:106D500001F00DF94620FFF73AFF012220213046CD
:106D600001F005F90220FFF732FF641CE4B2082CA1
:106D7000D8D370BD0008014010B5012826D00028E6
:106D800045D10021012002F081FB0A2005F07CFAA8
:106D90000021022002F07AFB0021082002F076FB9D
:106DA0000021032002F072FB0021042002F06EFBA0
:106DB0000021052002F06AFB0021062002F066FB9C
:106DC0000021BDE81040072002F060BB0121084609
:106DD00002F05CFB0A2005F057FA0121022002F0C4
:106DE00055FB0121082002F051FB0121032002F094
:106DF0004DFB0121042002F049FB0121052002F096
:106E000045FB0121062002F041FB0121D9E710BD1D
:106E100006490020C8610648016941F0040101618A
:106E2000016941F0400101617047000040400020CD
:106E300000200240064A0021D16106490A6942F059
:106E400002020A614861086940F040000861704729
:106E50004040002000200240044B0022DA61044A36
:106E6000136943F001031361018070474040002023
:106E7000002002400E49C868C2060E4803D5C26908
:106E800042F00202C261CA68520703D5C26942F0E9
:106E90000102C261CA69D20707D0C26942F0040286
:106EA000C261C86920F00100C8611420C860704741
:106EB000002002404040002070B5054601F05CF81B
:106EC0000646114C09E0681C07D025B101F054F8C2
:106ED000801BA84201D9032070BDE068C007F2D131
:106EE000E068800601D52020E060E068C00605D497
:106EF000E069C00702D1E068400703D5FFF7BAFF99
:106F0000012070BD002070BD002002402DE9F04F2F
:106F1000804885B080697F4940F0040088618869B5
:106F200000F004000490886940F0080088618869D6
:106F300000F008000490886940F0100088618869BA
:106F400000F01000049074484068734920F0E0603D
:106F500040F00070486001222021704801F007F8DD
:106F6000012210216E4801F002F80122D7023946B1
:106F70006B4800F0FCFF4FF4007900224946684856
:106F800000F0F5FFFE1000223146654800F0EFFFEB
:106F900000228021624800F0EAFF00224021604880
:106FA00000F0E5FF4FF4004A002251465B4800F034
:106FB000DEFF4FF4804B00225946584800F0D7FFBF
:106FC00000227101554800F0D2FF002231015348E0
:106FD00000F0CDFF00223146504800F0C8FF0022EB
:106FE00040214E4800F0C3FF002210214B4800F022
:106FF000BEFF012202214B4800F0B9FF20200124EE
:10700000CDE90004022569460395444800F0B2FE2C
:107010004FF01008CDE9008469464148039500F01F
:10702000A9FECDE9007469463D48039500F0A2FE33
:10703000CDE9006469463948039500F09BFE40277E
:10704000CDE9007469463548039500F093FECDE91B
:10705000009469463248039500F08CFECDE9006447
:1070600069462F48039500F085FE8026CDE900642F
:1070700069462B48039500F07DFECDE90074694612
:107080002748039500F076FECDE900A46946234821
:10709000039500F06FFECDE900B4032769461F4851
:1070A000039700F067FE6003CDE90004694603978B
:1070B0001A4800F05FFE2003CDE9000469460395FD
:1070C000164800F057FECDE9008469461348039541
:1070D00000F050FECDE9005469461248039500F0D7
:1070E00049FE00960026CDE9016469460D4800F08E
:1070F00041FECDE9004669460848029400F03AFE98
:107100000095CDE901646946044800F033FE05B0FE
:10711000BDE8F08F0010024000000140000C01406B
:107120000010014000080140F8B500250446009514
:1071300090F82400012808D0012084F8240020467B
:10714000FDF7A4F9060002D04BE00220F8BDA06ACA
:1071500020F4885040F00200A062022000F0C6FF38
:1071600022490968B1FBF0F0400000E0401E0090A9
:107170000028FBD12046FDF7E9F92068816841F03D
:107180000801816000F0F8FE074604E000F0F4FE1C
:10719000C01B0A2811D8206880680007F6D4206830
:1071A000816841F00401816000F0E6FE07460EE0D0
:1071B00000F0E2FEC01B0A2809D9A06A20F00200F4
:1071C00040F01000A06284F824500120F8BD20682F
:1071D00080684007ECD4A06A20F0020040F0010073
:1071E000A06284F824503046F8BD0000340000202E
:1071F000F8B50025009590F82420AE46012A1ED04F
:10720000012280F824204A681F244FF47873072A4B
:1072100017D20668776B93FAA3FCBCFA8CFC521E5B
:1072200002FB0CFC04FA0CF4A74393FAA3F3B3FAA1
:1072300083F30C685A439440274377632DE0022080
:10724000F8BD06680D2A14D2376B93FAA3FCBCFA7A
:107250008CFCD21F02FB0CFC04FA0CF4A74393FA3B
:10726000A3F3B3FA83F30C685A439440274337637C
:1072700013E0F76A93FAA3FCBCFA8CFC0D3A02FB0C
:107280000CFC04FA0CF4A74393FAA3F3B3FA83F3C8
:107290000C685A4394402743F7620A68382307244E
:1072A00006680A2A14D3F76893FAA3FCBCFA8CFC8C
:1072B0000A3A02FB0CFC04FA0CF4A74393FAA3F37A
:1072C000B3FA83F38C685A4394402743F76012E083
:1072D000376993FAA3FCBCFA8CFC02FB0CFC04FAA1
:1072E0000CF4A74393FAA3F3B3FA83F38C685A43DD
:1072F0009440274337610A68102A01D0112A20D10F
:10730000124B02689A4217D193681B0219D49368F2
:1073100043F4000393600968102912D10C490D4A07
:107320000968B1FBF2F101EB8101490000E0491E5F
:1073300000910029FBD104E0816A41F020018162C3
:10734000012580F824E02846F8BD00000024014013
:107350003400002040420F00704770477047000023
:107360002DE9F04104004FF0000503D0A06A00268B
:1073700018B108E00120BDE8F081E66284F82460DD
:10738000204600F091F82046FDF780F80146A06AFB
:10739000C00600D421B1A06A40F01000A0627AE0DB
:1073A000A06A20F4885040F00200A0623B482368A5
:1073B0008342E06904D1B0F5402F01D14FF40020A1
:1073C000022292FAA2F2E768B2FA82F207FA02F215
:1073D000104362684FF4807C1043A268624509D074
:1073E000012A07D05FF00002D4F814E0BEF1010FCB
:1073F00002D00AE06246F7E7C7B1A76A47F0200764
:10740000A762E76A47F00107E7625F6827F4694708
:1074100017435F6023689A68214F3A4002439A609D
:10742000A268624510D0012A0ED016E04FF4604EDB
:10743000A7699EFAAEFEBEFA8EFE7F1E07FA0EF711
:10744000174347F40062E0E74FF47002256992FAAF
:10745000A2F2B2FA82F26D1E95402268D36A23F43A
:1074600070032B43D362226892680E4B1A4082420B
:1074700007D1E662A06A20F0020040F00100A0629D
:107480000AE0A06A20F0020040F01000A062E06A6A
:1074900040F00100E062012108466CE7003C014039
:1074A000FDF7E1FFFE0E1FFF70B5054600681D49A0
:1074B00086B0884234D11C49886940F400708861E4
:1074C000886900F400700490486940F00100486148
:1074D000486900F001000490886940F0100088615C
:1074E0008869202600F0100004900320CDE9006098
:1074F00069460E4800F03EFC0E4C0D48206000200E
:107500006060A0608020E060800020618000C4E9AD
:1075100005068000E061204600F01CFB2C626562DD
:1075200006B070BD00240140001002400010014070
:10753000080002409C0C00202DE9F04789460446D3
:107540003B4900683B4F0E1D9046884201D0B8422F
:1075500007D1306810F4702F03D001252846BDE80C
:10756000F08794F8240001280CD0012084F824002E
:107570002046FCF7EBFF05004FF0000004D084F834
:107580002400EBE70220EAE7A16A40F6016291439A
:1075900041F48071A1622168B94218D1326812F4B5
:1075A000702F14D0A16A41F48011A162316849059D
:1075B00005D5A16A21F4005141F48051A162A16A6C
:1075C000C9040AD5E16A21F00601E16206E0A26A77
:1075D00022F48012A2624968E9E7E06284F824009C
:1075E000216A15488862216A1448C862216A1448D1
:1075F000086321686FF0020008602068816841F428
:1076000080718160216843464A464C31206A00F00F
:10761000C9FA20688168C1F342410729816803D013
:1076200041F48011816099E741F4A001FAE700007C
:107630000024014000280140D944000841450008C9
:10764000274500082DE9F04104460068016821F053
:107650000101016000F090FC054600264FF47A77A6
:1076600010E000BF00F088FC401BB8420AD954F873
:10767000340F40F0200044F8140903206070267095
:10768000BDE8F08120680068C007EBD1012084F8D4
:10769000210084F820600020F2E700002DE9F05F6F
:1076A0000446F94AF84DF84EF74F0068DFF8D893D2
:1076B000DFF8D4A3DFF8D0B3D114783D643E503F57
:1076C0004FF4000E4FF4004C4FF40028A9F13C0990
:1076D000AAF1280AABF1140B904221D9EB4A1368A6
:1076E000A8420FD0B0420FD0B84213D0484513D0B3
:1076F000504513D0584501D1724624E0E34A083280
:1077000090423CD108221EE080221CE0DF4A303249
:10771000904239D10A4616E0624614E0424612E031
:10772000D94A803A1368A842ECD0B042ECD0B842B3
:10773000F0D04845F0D05045F0D05845DCD0D24A82
:107740009042DBD10205134279D00268D24312077E
:1077500075D4026822F008020260CB4A2068904289
:1077600032D9A84219D0B0421DD0B84228D04845DD
:1077700023D0504523D058450BD1714620E0C34A51
:107780001C329042C2D1BFE7C04A44329042C5D1B8
:10779000C2E7BE4A0832904201D1082110E0BB4A3C
:1077A0001C32904201D180210AE0B84A3032904226
:1077B00006D0B6494431884201D1614600E04146D5
:1077C000B248001D01602CE0A84214D0B04218D08D
:1077D000B84223D048451ED050451ED0584501D14F
:1077E00071461BE0904202D14FF0006116E0A74ABB
:1077F0000832904201D1082110E0A44A1C32904284
:1078000001D180210AE0A14A3032904206D09F493E
:107810004431884201D1614600E041469A488038AF
:107820004160606B40F001006063042084F8210037
:10783000002084F82000216B09B120468847924A35
:10784000206811154FF4800E4FF4804C4FF48028BF
:10785000904221D98D4A1368A8420FD0B0420FD070
:10786000B84213D0484513D0504513D0584501D1E4
:10787000724624E0854A083290423FD104221EE03D
:1078800040221CE0814A303290423CD10A4616E048
:10789000624614E0424612E07B4A803A1368A842EE
:1078A000ECD0B042ECD0B842F0D04845F0D05045D2
:1078B000F0D05845DCD0744A9042DBD1C204134268
:1078C00075D00268D243520771D40268920603D47D
:1078D000026822F0040202606B4A2068904232D9AA
:1078E000A84219D0B0421DD0B84228D0484523D074
:1078F000504523D058450BD1714620E0634A1C32D5
:107900009042BFD1BCE7614A44329042C2D1BFE746
:107910005E4A0832904201D1042110E05B4A1C32D9
:10792000904201D140210AE0584A3032904206D0BC
:1079300056494431884201D1614600E041465348EE
:10794000001D01602CE0A84214D0B04218D0B8420B
:1079500023D048451ED050451ED0584501D1714610
:107960001BE0904202D14FF0806116E0474A083296
:10797000904201D1042110E0444A1C32904201D1CE
:1079800040210AE0414A3032904206D03F4944311A
:10799000884201D1614600E041463B488038416061
:1079A000112084F82100E16A09B120468847364A4F
:1079B000206851154FF4005C4FF4003E904228D9E6
:1079C000324B1B68A84212D0B04213D0B8421AD032
:1079D00048451AD050451AD0584502D14FF40018E6
:1079E0002AE0DFF8A88008F10808404544D14FF0AC
:1079F000020821E04FF020081EE0DFF8908008F137
:107A00003008404544D1884616E0E04614E0F04690
:107A100012E01D4B803B1B68A842E8D0B042E9D081
:107A2000B842F0D04845F0D05045F0D05845D5D0B8
:107A30009042D6D14FF0007813EA080F70D0036857
:107A4000DB439B077FD403689B0603D4036823F0C2
:107A5000020303602068904239D9A84221D0B04285
:107A600025D0B8422FD048452AD050452AD0584575
:107A700013D14FF4001126E0DFF8108008F11C0844
:107A80004045BAD1B6E70000800002400004024041
:107A9000DFF8B8804045BAD1B7E72C4A3C3A90426B
:107AA00001D102210FE0294A283A904201D1202138
:107AB00009E0264A143A904205D02449884201D16F
:107AC000614600E071462148403801602CE0A84240
:107AD00015D0B04219D0B84224D048451ED05045E8
:107AE0001FD0584502D14FF400111BE0904202D143
:107AF0004FF0007116E0154A3C3A904201D1022144
:107B000010E0124A283A904201D120210AE00F4A9F
:107B1000143A904206D00D49884202D1614601E0F4
:107B200011E071460A484160606B6063012084F88F
:107B30002100002084F82000A16A002903D02046FB
:107B4000BDE8F05F0847BDE8F09F00004404024034
:107B50000000024070B520B190F82110002411B14E
:107B600003E0012070BD80F82040022180F8211040
:107B700003681A6843F6F0718A43D0E90115294376
:107B8000D0E903563543294345692943856929438B
:107B9000C5692943114319604463012180F821100C
:107BA000002070BD70B5044690F82000012823D055
:107BB000012084F82000022084F821002068056854
:107BC00025F0010505602046FEF7F2FF20680168F8
:107BD00041F0020101602068016841F00401016088
:107BE0002068016841F0080101602068016841F0E7
:107BF00001010160002070BD022070BD31B500F0B0
:107C0000BBF9044600F0B8F90099001B8842F9D38B
:107C100038BD00002DE9F047054626480F460126ED
:107C2000017E01290FD00121814601762868DFF805
:107C300088804CF25034022808D0A2462046FFF734
:107C40003BF9A8B131E00220BDE8F0872046FFF7FC
:107C500033F908BB0120FFF7DBF82046FFF72CF9CA
:107C6000D8F81010064621F00401C8F810101CE0E6
:107C70004FF0FF303860AC6811E02046FFF7DAF8CB
:107C80005046FFF719F9D8F81010060021F002014C
:107C9000C8F8101001D03C6007E004F50064D5E995
:107CA000020100EBC120A042E7D8002189F818109A
:107CB0003046C9E7404000200020024003480169E7
:107CC00041F0800101610020704700000020024067
:107CD0002DE9F05F07461C4888460024017E1546C2
:107CE0001E46012909D00121814601764CF2503A05
:107CF0005046FFF7E1F818B122E00220BDE8F09FFE
:107D0000012F02D0022F00D00427D346DFF83CA079
:107D1000220128463146FCF773FA81B208EB440091
:107D2000FFF79AF85846FFF7C7F8DAF8102022F064
:107D30000102CAF8102018B9641CE4B2BC42E7D3AF
:107D4000002289F81820D9E7404000200020024096
:107D500005480169090605D50449416004494160A7
:107D60000020704701207047002002402301674532
:107D7000AB89EFCD2DE9F84FDFF8B8A100220AF169
:107D8000040B144601274FF00F090BF1040E00BF3E
:107D90000B6807FA04F52B40AB4274D1DFF898C1A9
:107DA0004E68A6EB0C0866452BD00DDC032E34D0B4
:107DB00005DC36B3012E19D0022E2FD11BE0112E77
:107DC00016D0122E2AD119E0B8F5881F19D006DC7A
:107DD000B8F5803F15D0B8F5801F1FD111E0B8F578
:107DE000001F0ED0B8F5041F18D10AE0CA6815E0CC
:107DF000CA68121D12E0CA6808320FE0CA680C3265
:107E00000CE08A682AB1012A4FF0080203D04561CC
:107E100004E0042202E0056100E00022FF2B01D80B
:107E2000064601E000F104064FEA840501D9A5F1F8
:107E30002005D6F800C009FA05F82CEA080C02FA69
:107E400005F54CEA050CC6F800C04D68ED006AD592
:107E50003A4DAE6946F00106AE61AD6924F0030605
:107E600005F001050095364D06EB050CDCF80850D1
:107E7000A6074FEA167809FA08F6B543314EB04224
:107E800002D100261AE04EE02F4EB04201D1012669
:107E900014E02E4EB04201D102260FE02C4EB0422B
:107EA00001D103260AE02B4EB04201D1042605E0A1
:107EB000294EB04201D1052600E0062606FA08F652
:107EC0002E43CCF808604D68DAF80060ED035546A3
:107ED00001D51E4300E09E432E604D68AD0305D5DD
:107EE000DBF800601E43CBF8006004E0DBF80050D4
:107EF0009D43CBF800504D68DEF80060ED027546FA
:107F000001D51E4300E09E432E604D68AD0205D5AD
:107F1000084D0C352E681E432E6004E0054E0C36CD
:107F200035689D433560641C102CFFF431AFBDE80B
:107F3000F88F000000040140000011100010024002
:107F40000000014000080140000C01400010014009
:107F50000014014000180140001C014080680840E6
:107F600000D001207047C2684A40C26070470AB121
:107F7000016170470904FBE7014800687047000091
:107F8000AC00002002480168491C016070470000F5
:107F9000AC000020074810B5016841F010010160F5
:107FA000032000F07FF8002000F006F800F016F83B
:107FB000002010BD0020024010B5044600F0DAF9A0
:107FC0004FF47A71B0FBF1F000F01AFD0022214667
:107FD000501E00F047F8002010BD00001A4808B5F8
:107FE000816941F001018161806900F00100009028
:107FF000052000F057F8002211466FF00B0000F04A
:1080000031F8002211466FF00A0000F02BF8002230
:1080100011466FF0090000F025F800221146501FAC
:1080200000F020F800221146101F00F01BF800227B
:108030001146901E00F016F80022BDE808401146D7
:10804000501E00F00FB800000010024000F01F02A8
:10805000012191404009800000F1E020C0F80011AA
:1080600070470000F0B40E4B1B680C46C3F30223AC
:10807000C3F10705042D00D90425191D072901D2D4
:10808000002300E0DB1E012606FA05F1491E21400F
:1080900099409E40761E16403143F0BC01F0E6B98F
:1080A0000CED00E0064900F0070208684FF6FF03F8
:1080B000184040EA0220034A10430860704700005D
:1080C0000CED00E00000FA05BFF34F8F0548016892
:1080D000054A01F4E06111430160BFF34F8F00BF17
:1080E000FDE700000CED00E00400FA0510B537A430
:1080F00001461DCC86B08DE81D0038A0384C0068C4
:1081000004900020042944D012DC012944D0022923
:108110003DD100F04DF961684FF4804292FAA2F22D
:1081200001F44041B2FA82F2D140491C49002CE0EE
:1081300008292ED010292AD161682268D20126D5BB
:108140004FF4701292FAA2F201F47010B2FA82F2B5
:10815000D040C9031DF8000010D561684FF400320B
:1081600092FAA2F201F40031B2FA82F2D14004AAEA
:10817000515C1C4AB2FBF1F1484301E01A49484303
:108180006168490203D440000321B0FBF1F006B05E
:1081900010BD00F025F9FAE7226AC2F30121012996
:1081A00003D1920701D5C803F1E7022905D1626A1C
:1081B000920702D549F64040E9E70329E7D1216853
:1081C0008903E4D54FF22440E1E7000002030405EF
:1081D000060708090A0B0C0D0E0F10100102000013
:1081E0000010024000127A0000093D002DE9F0471E
:1081F000DFF8708105460E46D8F8000000F0070051
:10820000B0420CD2D8F8001021F007013143C8F871
:108210000010D8F8000000F00700B04277D12878AD
:10822000514C800705D56068A96820F0F00008432C
:1082300060602878C00759D06968012001290DD0F5
:10824000022929D05FF0020393FAA3F2B2FA82F274
:1082500042F02002520904D0226803E04FF40033B8
:10826000F2E7626A93FAA3F3B3FA83F303F01F030E
:10827000984002424BD0606820F0030008436060E1
:10828000FFF77AFE6968074641F2883001290DD070
:108290000229814617D025E04FF00073D4E700BFD4
:1082A000FFF76AFEC11B494501D918E081466068A5
:1082B000C0F381000128F3D118E000BFFFF75CFE96
:1082C000C11B49450BD86068C0F381000228F5D175
:1082D0000CE000BFFFF750FEC11B494502D9032047
:1082E000BDE8F087606810F00C0FF3D1D8F80010EB
:1082F000404601F00701B1420BD9016821F00701A6
:1083000031430160006800F00700B04201D0012055
:10831000E6E72878400705D56068E96820F4E06062
:10832000084360602878000706D56068296920F452
:10833000605040EAC100606000F052F86168F022CD
:1083400092FAA2F201F0F001B2FA82F2D140074AA9
:10835000515CC840064908600020FFF72DFE002050
:10836000BEE700000020024000100240F4CB0008ED
:1083700034000020014800687047000034000020ED
:1083800008480949006849684FF4E06292FAA2F28D
:1083900001F4E061B2FA82F2D140044A515CC84073
:1083A00070470000340000200010024004CC000898
:1083B00008480949006849684FF4605292FAA2F2ED
:1083C00001F46051B2FA82F2D140044A515CC840D3
:1083D00070470000340000200010024004CC000868
:1083E00010B519A385B00FCB8DE80F001AA01B4B59
:1083F000006804905A681A4802F00C0104291DD044
:1084000008291BD14FF4701494FAA4F402F47011EB
:10841000B4FA84F4E140D2031DF8011010D55A6873
:108420004FF4003393FAA3F302F40032B3FA83F368
:10843000DA4004AB9A5CB0FBF2F0484305B010BDE3
:1084400008484843FAE70000020304050607080944
:108450000A0B0C0D0E0F101001020000001002405C
:1084600000127A0000093D002DE9F84F044600781B
:10847000F74DC0074FF0010625D068687704C0F3B8
:108480008100012807D06868C0F3810002281BD151
:108490006868C00318D597FAA7F0B0FA80F040F0EA
:1084A0002000400901D0286800E0686A97FAA7F127
:1084B000B1FA81F101F01F0106FA01F108425ED024
:1084C000606800287CD05AE06068B0F5803F0BD02F
:1084D00010B1B0F5A02F11D0286820F480302860AA
:1084E000286820F4802002E0286840F4803028606A
:1084F000606828B3FFF740FD80460BE0286840F431
:1085000080202860F0E700BFFFF736FDA0EB0800F1
:10851000642871D897FAA7F0B0FA80F040F02000F4
:10852000400901D0286800E0686A97FAA7F1B1FA1B
:1085300081F101F01F0106FA01F10842E4D01EE0CA
:10854000FFF71AFD804605E0FFF716FDA0EB0800D7
:108550006428DED897FAA7F0B0FA80F040F0200047
:10856000400901D0286800E0686A97FAA7F1B1FADB
:1085700081F101F01F0106FA01F10842E4D12078EF
:10858000DFF8D08280074FF000094FF002075BD57B
:1085900068684FF0F80B10F00C0F07D06868C0F354
:1085A000810002281CD16868C00319D497FAA7F08B
:1085B000B0FA80F040F02000400902D0286801E0C5
:1085C0008BE0686A97FAA7F1B1FA81F101F01F0117
:1085D00006FA01F108422CD0206901287DD128E05B
:1085E000206990B396FAA6F0B0FA80F048F82060BF
:1085F000FFF7C2FC824607E011E100BFFFF7BCFCB9
:10860000A0EB0A00022884D897FAA7F0B0FA80F00D
:1086100040F02000400901D0286800E0686A97FA1D
:10862000A7F1B1FA81F101F01F0106FA01F1084248
:10863000E4D028689BFAABF26169B2FA82F220F0CA
:10864000F80091400843286025E0FFE796FAA6F17C
:10865000B1FA81F148F82190FFF78EFC824605E0DF
:10866000FFF78AFCA0EB0A000228CCD897FAA7F003
:10867000B0FA80F040F02000400901D0286800E006
:10868000686A97FAA7F1B1FA81F101F01F0106FAC1
:1086900001F10842E4D1207800076ED5A069B8B393
:1086A00096FAA6F0B0FA80F008EB8000C0F880647B
:1086B000FFF762FC824605E0FFF75EFCA0EB0A00D4
:1086C0000228A0D897FAA7F0B0FA80F040F0600036
:1086D000B6EB501F02D128680CE062E197FAA7F0D0
:1086E000B0FA80F040F06000B7EB501F01D1286A6B
:1086F00000E0686A97FAA7F1B1FA81F101F01F0171
:1087000006FA01F21042D7D00120FFF777FA34E0E1
:10871000FFE796FAA6F1B1FA81F108EB8101C1F801
:108720008094FFF729FC824606E000BFFFF724FC97
:10873000A0EB0A00022872D897FAA7F0B0FA80F0EE
:1087400040F06000B6EB501F01D128680BE097FAAB
:10875000A7F0B0FA80F040F06000B7EB501F01D1F5
:10876000286A00E0686A97FAA7F1B1FA81F101F08E
:108770001F0106FA01F21042D8D12078400765D5D2
:10878000E86940F08050E861E869DFF8CCB000F0BB
:1087900080500090DBF8001041F48071CBF800109D
:1087A000FFF7EAFB824605E0FFF7E6FBA0EB0A00D5
:1087B000642834D8DBF80000C005F5D5E06801284E
:1087C0000AD008B1052813D0286A20F001002862D9
:1087D000286A20F0040002E0286A40F001002862C4
:1087E000E06841F2883B90B3FFF7C6FB82460BE09E
:1087F000286A40F004002862EEE700BFFFF7BCFBE8
:10880000A0EB0A0159450AD897FAA7F0B0FA80F010
:1088100040F04000B6EB501F02D128680CE0A3E006
:1088200097FAA7F0B0FA80F040F04000B7EB501F85
:1088300001D1286A00E0686A97FAA7F1B1FA81F1DC
:1088400001F01F0206FA02F10842D7D031E005E03C
:10885000001002400000424200700040FFF78CFB15
:10886000824605E0FFF788FBA0EB0A0159457BD85B
:1088700097FAA7F0B0FA80F040F04000B6EB501F36
:1088800001D128680BE097FAA7F0B0FA80F040F029
:108890004000B7EB501F01D1286A00E0686A97FAE0
:1088A000A7F1B1FA81F101F01F0206FA02F10842C4
:1088B000D8D1E06980B36968C1F38101022970D021
:1088C0004FF080714F000228484609D091FAA1F17B
:1088D000B1FA81F148F82100FFF74EFB044669E048
:1088E0008A4691FAA1F1B1FA81F1C14648F8210016
:1088F000FFF742FB804605E0FFF73EFBA0EB0800D8
:10890000022854D897FAA7F0B0FA80F040F020007F
:10891000400902D0286801E061E0686A97FAA7F18F
:10892000B1FA81F101F01F0106FA01F10842E3D129
:10893000206AB0F5803F05D16868A16820F4003056
:1089400008436860D4E908010843696821F4741198
:10895000084368609AFAAAF0B0FA80F049F82060FB
:10896000FFF70AFB044606E021E000BFFFF704FB27
:10897000001B02281BD897FAA7F0B0FA80F040F04D
:108980002000400901D0286800E0686A97FAA7F142
:10899000B1FA81F101F01F0106FA01F10842E5D0B8
:1089A0001DE01EE0FFF7E8FA001B022802D90320B1
:1089B000BDE8F88F97FAA7F0B0FA80F040F02000F9
:1089C000400901D0286800E0686A97FAA7F1B1FA77
:1089D00081F101F01F0106FA01F10842E2D1002005
:1089E000E6E70120E4E74FF0E0210428086903D01E
:1089F00020F004000861704740F00400FAE7704777
:108A000010B5401EB0F1807F01D3012010BD4FF0A2
:108A1000E02460610F21601700F028FD0020A061B4
:108A200007202061002010BD10B5FFF7E8FF10BD42
:108A300030B590F83820012A20D0012280F8382063
:108A4000022380F8393003685C6824F070045C60AD
:108A500003685C680D682C435C6003689C6824F0C4
:108A600080049C6003689C6849680C439C6080F8A3
:108A70003920002180F83810084630BD022030BD72
:108A800010B5040003D094F8390010B107E00120BC
:108A900010BD002084F83800204600F00DF80220B8
:108AA00084F83900211D206801F078FA012084F84B
:108AB0003900002010BD00002DE9F84F0546006880
:108AC00025490026254F4FF010084FF080094FF43C
:108AD000007A4FF4006B88421AD1F86940F0080020
:108AE000F861F8691F4C00F0080000901C48C4E9C8
:108AF00000082020C4E905B00002E06104F108018B
:108B0000204681E84006FFF725F8AC62EC6165621B
:108B10001549286888421CD1B86940F40050B861F2
:108B2000B869104C00F4005000900D4838341438E7
:108B3000C4E900082020C4E905B00002E06104F1A6
:108B40000801204681E84006FFF704F8AC62EC61BA
:108B50006562BDE8F88F0000000C00400010024084
:108B60001C0402403805002000340140022180F836
:108B7000391001680A6842F001020A60012180F898
:108B800039100020704770B5044690F8380001286D
:108B900017D0012584F83850022084F83900206865
:108BA000826822F0770222F47F42826008685028AF
:108BB00037D00DDC202859D005DC88B3102841D1EE
:108BC00051E0022070BD302853D040283AD13FE018
:108BD00060282ED070280BD0B0F5805F03D0B0F5A0
:108BE000005F2FD110E02068816821F0070115E0B7
:108BF000CB68D1E90121206801F01DFA216888685D
:108C000040F0770088601DE0CB68D1E90121206841
:108C100001F011FA2068816841F48041816011E01F
:108C20001EE0CA684968206801F05CFB502120689A
:108C300006E0CA684968206801F065FB6021206889
:108C400001F003FA84F83950002084F8380070BD30
:108C5000CA684968206801F045FB40212068EFE7B9
:108C600000212068ECE710212068E9E72021206836
:108C7000E6E730212068E3E71FB50068074988422E
:108C80000AD14FF42070009002200190032003903D
:108C900069460348FFF76EF81FBD0000000800405A
:108CA000000C014070B5044690F838000D460128CC
:108CB0000DD0012684F83860022084F8390042B1D2
:108CC000042A18D0082A2AD00C2A4DD139E00220D3
:108CD00070BD206801F044FA2068816941F0080104
:108CE00081612068816921F00401816120688169C6
:108CF0002A69114311E0206801F062FA2068816955
:108D000041F4006181612068816921F480618161A1
:108D1000206881692A6941EA0221816124E0206892
:108D200001F084FA2068C16941F00801C16120683E
:108D3000C16921F00401C1612068C1692A69114338
:108D400011E0206801F0A6FA2068C16941F40061D1
:108D5000C1612068C16921F48061C1612068C16975
:108D60002A6941EA0221C16184F83960002084F84F
:108D7000380070BD10B5040003D094F8390010B16C
:108D800007E0012010BD002084F83800204600F0E4
:108D90000DF8022084F83900211D206801F0FEF84A
:108DA000012084F83900002010BD000008B50068DB
:108DB0000649884208D10648C16941F00401C161F1
:108DC000C06900F00400009008BD000000080040E9
:108DD0000010024010B504460068012201F020F99D
:108DE00008492068884202D00749884203D1416C73
:108DF00041F4004141642068016841F001010160D3
:108E0000002010BD002C01400034014010B5044684
:108E10000068416921F0C0014161206B08B1FEF793
:108E200011FC606B08B1FEF70DFC012084F83900DD
:108E3000002010BD7047000038B504460068016886
:108E4000C26811F0010F02F4807204D01AB1E16B14
:108E500041F00101E1630168C1F34002416901F0A1
:108E6000010122B119B1E26B42F00402E26302682F
:108E7000C2F3800222B119B1E26B42F00202E26356
:108E80000268C2F3C00222B119B1E16B41F00801DE
:108E9000E1630168C068C1F3401100F0200019B11E
:108EA00010B1204602F0A6F920680168C068C1F33D
:108EB000C01100F0800019B110B1204602F0A6FAEE
:108EC00021680868CA68C0F3801002F040020125DA
:108ED00070B16AB1CA68204622F04002CA6094F8B4
:108EE0003910322911D080F8395000BF00F072FAE1
:108EF000E06B002808D0206801684068009084F882
:108F000039502046FFF796FF38BD222180F83910EE
:108F1000ECE770B5040004D094F83900002510B1D6
:108F200006E0012070BD84F83850204600F020F89B
:108F3000022084F839002068C16821F40051C16022
:108F4000204602F0ABF92068016921F490410161EB
:108F50002068416921F02A0141612068C16841F41B
:108F60000051C160E563012084F83900002070BD24
:108F70002DE9F04F0446006893490025934F85B0D2
:108F80004FF0020A4FF0030B4FF080084FF40059E6
:108F9000884257D1B86940F48040B861B8698C4EB6
:108FA00000F4804004904815CDE9000A6946CDF8E8
:108FB0000CB03046FEF7DEFE3015CDE900056946FF
:108FC00030460295FEF7D6FE002201212520FFF74C
:108FD00049F82520FFF73AF87F4E7E4801C6102059
:108FE000A6E821017C4846F810597561C6E9065982
:108FF000FEF7B0FD2663012211460E207462FFF7D2
:1090000031F80E20FFF722F8734E724838361430CC
:10901000C6E90005C6E9025835617561C6E9065919
:109020003046FEF797FD6663002201210F2074622F
:10903000FFF718F80F20FFF709F82068C16841F022
:109040001001C1606549206888425AD1F86940F42E
:109050000030F861F8695E4E00F40030049004209E
:10906000CDE9000A6946CDF80CB03046FEF782FE25
:109070000820CDE90005694630460295FEF77AFEE4
:10908000012211462620FEF7EDFF2620FEF7DEFF27
:10909000514E504870363C3001C61020A6E82101E0
:1090A0004D4846F8105970307561C6E90659FEF70B
:1090B00051FD26630122114611207462FEF7D2FF92
:1090C0001120FEF7C3FF444E4248A8362830C6E9B7
:1090D0000005C6E9025835617561C6E90659304692
:1090E000FEF738FD66630122114610207462FEF718
:1090F000B9FF1020FEF7AAFF2068C16841F01001F7
:10910000C1603749206888425AD1F86940F480200C
:10911000F861F869334E00F4802004900815CDE919
:10912000000A6946CDF80CB03046FEF723FEF01475
:10913000CDE90005694630460295FEF71BFE012287
:1091400011462720FEF78EFF2720FEF77FFF224ED5
:109150002048E036283801C61020A6E821011E4824
:1091600046F810594F467561C6E90659E030FEF7DA
:10917000F1FC2663012211460C207462FEF772FF97
:109180000C20FEF763FF1348174E1438C6E900059C
:10919000C6E9025835617561C6E906573046FEF7E3
:1091A000D9FC6663012211460D207462FEF75AFF56
:1091B0000D20FEF74BFF2068C16841F01001C1602F
:1091C00005B0BDE8F08F00000038014000100240FB
:1091D0000008014044000240C00800200044004054
:1091E00000480040000C0140D809002070B504463A
:1091F00090F83900012801D0122832D169B362B346
:1092000094F8380001282CD0012084F83800A1629D
:10921000A2850025E56394F8390012281FD022208A
:1092200084F83900636B10489862636B0F48D8620A
:10923000636B0F48186308461346666B2168024645
:109240003046091DFEF7AEFC2068416941F040013F
:10925000416184F83850002070BD012070BD32207B
:10926000DEE7022070BD00007DB10008B3B1000848
:109270005DB10008704770472DE9F047044690F84B
:10928000390099460D46012801D0222858D12DB326
:1092900022B394F83800012852D0012684F83860AF
:1092A0000027E76394F8390022281AD05FF01200F3
:1092B00084F83900A284E2844FF48058E08C4B4655
:1092C000401EE084A0684FF0000240454FF080014E
:1092D000204613D102F0CDF808BB04E00120BDE820
:1092E000F0873220E4E728882168C0F3080048604E
:1092F000206908B16D1C08E0AD1C06E002F0B9F869
:1093000068B9216815F8010B4860E08C0028D5D1B8
:109310004B4600224021204602F0ABF808B1032062
:10932000DDE794F83900322806D084F8396000BFB0
:1093300084F838700020D2E7222084F83900F7E75B
:109340000220CCE770B5044690F83900012801D01E
:10935000222836D181B37AB394F83800012830D06E
:10936000012084F838002162A284E2840025E563AC
:1093700094F83900222822D05FF0120084F83900D6
:10938000236B11489862236B1048D862236B1048F6
:10939000186326681346321D206BFEF703FC216814
:1093A0006FF0400008602068416941F08001416130
:1093B00084F83850002070BDFFE70120FBE7322021
:1093C000DCE70220F7E70000BDB10008EBB10008C0
:1093D0005DB1000870B5044600680C490C4D884228
:1093E00002D1286800F030F80A492068884202D18A
:1093F000686800F029F808492068884204D1A86804
:10940000BDE8704000F020B870BD00000038014099
:109410000000002000440040004800407047000069
:1094200008B500236A4603F0ADF90098002807D07C
:1094300004494FF080500860BFF34F8FBFF36F8F28
:1094400008BD000004ED00E008B5694603F0D6F958
:109450000098002807D004494FF080500860BFF3FF
:109460004F8FBFF36F8F08BD04ED00E00907090EB1
:10947000002806DA00F00F0000F1E02080F8141D4B
:10948000704700F1E02080F8001470472DE9F041AA
:10949000B64DB54C142200274FF0010E95F82E6002
:1094A000A4F1500342E101280ED0022831D0032854
:1094B00054D004287ED0052874D0062873D00728FD
:1094C00072D00828EED11CE139B953F822C02CF42F
:1094D000804C4CF0804C43F822C0012907D153F84E
:1094E00022C02CF0804C4CF4804C43F822C002295E
:1094F0007ED1002E7DD053F822C0032A04D92CF44B
:10950000804C4CF0804CF9E02CF0804C4CF4804CBA
:10951000F4E039B953F822C02CF4005C4CF0005C44
:1095200043F822C0012907D153F822C02CF0005C77
:109530004CF4005C43F822C0022959D1002E58D0C7
:1095400053F822C0032A04D92CF4005C4CF0005CD0
:10955000D4E02CF0005C4CF4005CCFE041B954F84E
:1095600022C02CF4007C4CF0007C44F822C0AF7286
:10957000012909D154F822C02CF0007C4CF4007C65
:1095800044F822C085F80AE0022931D1002E30D0FB
:1095900054F822C00B2A08D92CF4007C4CF0007C33
:1095A00082E007E031E058E081E02CF0007C4CF4F0
:1095B000007C79E041B954F822C02CF4807C4CF056
:1095C000807C44F822C0EF72012909D154F822C0EE
:1095D0002CF0807C4CF4807C44F822C085F80BE0B1
:1095E000022905D1002E04D00B2A54F822C001E034
:1095F0005CE0A3E004D92CF4807C4CF0807C53E048
:109600002CF0807C4CF4807C4EE041B954F822C0B0
:109610002CF0800C4CF4000C44F822C02F7301296C
:1096200009D154F822C02CF4000C4CF0800C44F802
:1096300022C085F80CE0022978D1002E7ED054F8A3
:1096400022C00B2A04D92CF0800C4CF4000C2BE027
:109650002CF4000C4CF0800C26E041B954F822C0E8
:109660002CF0400C4CF4800C44F822C06F7301299C
:1096700009D154F822C02CF4800C4CF0400C44F872
:1096800022C085F80DE0022950D1002E69D054F88F
:1096900022C00B2A04D92CF0400C4CF4800C03E0BF
:1096A0002CF4800C4CF0400C44F822C03EE041B950
:1096B00053F822C02CF4004C4CF0004C43F822C06C
:1096C000AF73012909D153F822C02CF0004C4CF49F
:1096D000004C43F822C085F80EE0022926D1002E66
:1096E0003FD053F822C00B2A04D92CF4004C4CF084
:1096F000004C03E02CF0004C4CF4004C43F822C02A
:1097000014E039B953F822C02CF4805C4CF0805C32
:1097100043F822C0012907D153F822C02CF0805C05
:109720004CF4805C43F822C002290AD0521E92B247
:10973000BFF4B9AEBDE8F041012000E011E002F055
:10974000A3BD002E0DD053F822C0032A04D92CF457
:10975000805C4CF0805CD1E72CF0805C4CF4805C49
:10976000CCE7BDE8F081000034040020B400002004
:10977000044A0128126803D0022800D1916370477F
:10978000116470478404002070B5FF4D4FF480765B
:1097900040B3FE4C012835D0022848D0032869D0B8
:1097A00004287DD005287CD006287BD007287AD0D5
:1097B000082879D100210220FFF768FE142002F06A
:1097C00063FD01210846FFF761FE0122314628466C
:1097D000FEF7CDFB002240212846FEF7C8FB94F897
:1097E0002C10E7E0002231462846FEF7C0FB00229D
:1097F00040212846FEF7BBFB00210120FFF7B8FF00
:1098000000210FE0012231462846FEF7B0FB01227D
:1098100040212846FEF7ABFB14F82C1F0120FFF770
:10982000A7FF6178BDE870400220FFF7A1BF0021CB
:109830000220FFF72BFE142002F026FD012108462E
:10984000FFF724FE00210320FFF720FE0021042063
:10985000FFF71CFE00210520FFF718FE002106205F
:10986000FFF714FE00210720FFF710FE142002F07E
:109870000BFD79E001210320FFF708FE0121042000
:10988000FFF704FE01210520FFF700FE012106205D
:10989000FFF7FCFD01210720FFF7F8FD142004E08D
:1098A00057E08FE057E187E18EE102F0EDFC002107
:1098B0000120FFF7EBFD142002F0E6FC012102205D
:1098C000FFF7E4FD002231462846FEF750FB012257
:1098D00040212846FEF74BFB00210120FFF748FFFF
:1098E00014F82D0F81080220FFF742FF1E2002F01E
:1098F000CBFC207841080220FFF73AFF1E2002F03F
:10990000C3FC207800EB400081080220FFF730FF05
:109910001E2002F0B9FC21780220FFF729FFC820A1
:1099200002F0B2FC02210846FFF7B0FD022103203D
:10993000FFF7ACFD02210420FFF7A8FD022105205E
:10994000FFF7A4FD02210620FFF7A0FD022107205A
:109950002EE100210220FFF799FD142002F094FC73
:1099600001210846FFF792FD012231462846FEF705
:10997000FEFA002240212846FEF7F9FA14F82C0FCF
:1099800081080120FFF7F4FE1E2002F07DFC207804
:1099900041080120FFF7ECFE1E2002F075FC207844
:1099A00000EB400081080120FFF7E2FE1E2002F0DC
:1099B0006BFC21780120FFF7DBFE00210220FFF77E
:1099C000D7FEF0E0002231462846FEF7D0FA012209
:1099D00040212846FEF7CBFA00210120FFF7C8FE00
:1099E00094F82D0081080220FFF7C2FE1E2002F02D
:1099F0004BFC94F82D0041080220FFF7B9FE1E2011
:109A000002F042FC94F82D0000EB40008108022097
:109A1000FFF7AEFE1E2002F037FC94F82D10022056
:109A2000FFF7A6FE00210120FFF730FD142002F011
:109A30002BFC01210220FFF729FDA07AE17A627B4D
:109A40000844217B11440844A17B0844052813D114
:109A500000210320FFF71AFD00210420FFF716FD67
:109A600000210520FFF712FD00210620FFF70EFD63
:109A700000210720FFF70AFDA07AE17A627B084403
:109A8000217B11440844A17B0844022817D10021FE
:109A90000320FFF7FBFC4FF4967002F0F5FB00216A
:109AA0000420FFF7F3FC00210520FFF7EFFC002165
:109AB0000620FFF7EBFC00210720FFF7E7FCA07A68
:109AC000E17A627B0844217B11440844A17B08446D
:109AD00003284FF000014FF0030023D0FFF7D6FC1E
